{"contracts/sample.sol":{"IncrementDecrement":{"abi":[{"anonymous":false,"inputs":[{"indexed":false,"internalType":"string","name":"message","type":"string"}],"name":"Decrement","type":"event"},{"anonymous":false,"inputs":[{"indexed":false,"internalType":"string","name":"message","type":"string"}],"name":"Increment","type":"event"},{"inputs":[],"name":"decrement","outputs":[],"stateMutability":"nonpayable","type":"function"},{"inputs":[],"name":"getValue","outputs":[{"internalType":"uint256","name":"","type":"uint256"}],"stateMutability":"view","type":"function"},{"inputs":[],"name":"increment","outputs":[],"stateMutability":"nonpayable","type":"function"}],"evm":{"bytecode":{"linkReferences":{},"object":"608060405234801561001057600080fd5b50610310806100206000396000f3fe608060405234801561001057600080fd5b50600436106100415760003560e01c806320965255146100465780632baeceb714610064578063d09de08a1461006e575b600080fd5b61004e610078565b60405161005b9190610136565b60405180910390f35b61006c610081565b005b6100766100cf565b005b60008054905090565b60008081548092919061009390610180565b91905055507f1e987d14a1f5129625e5e36a8c5c3f7dce87512e55e5ab1ba141956fbbed6f426040516100c590610206565b60405180910390a1565b6000808154809291906100e190610226565b91905055507f0500fd844df03614b0440e900b394ce27d08e96434c0ef4c73d0a9e87ea282a0604051610113906102ba565b60405180910390a1565b6000819050919050565b6101308161011d565b82525050565b600060208201905061014b6000830184610127565b92915050565b7f4e487b7100000000000000000000000000000000000000000000000000000000600052601160045260246000fd5b600061018b8261011d565b91506000820361019e5761019d610151565b5b600182039050919050565b600082825260208201905092915050565b7f76616c75652064656372656d656e746564206279203100000000000000000000600082015250565b60006101f06016836101a9565b91506101fb826101ba565b602082019050919050565b6000602082019050818103600083015261021f816101e3565b9050919050565b60006102318261011d565b91507fffffffffffffffffffffffffffffffffffffffffffffffffffffffffffffffff820361026357610262610151565b5b600182019050919050565b7f76616c756520696e6372656d656e746564206279203100000000000000000000600082015250565b60006102a46016836101a9565b91506102af8261026e565b602082019050919050565b600060208201905081810360008301526102d381610297565b905091905056fea2646970667358221220543772e66e078fde5b16c70cf7ba14b56ad592a67054a5eaa1c08601abacaa1c64736f6c63430008140033","opcodes":"PUSH1 0x80 PUSH1 0x40 MSTORE CALLVALUE DUP1 ISZERO PUSH2 0x10 JUMPI PUSH1 0x0 DUP1 REVERT JUMPDEST POP PUSH2 0x310 DUP1 PUSH2 0x20 PUSH1 0x0 CODECOPY PUSH1 0x0 RETURN INVALID PUSH1 0x80 PUSH1 0x40 MSTORE CALLVALUE DUP1 ISZERO PUSH2 0x10 JUMPI PUSH1 0x0 DUP1 REVERT JUMPDEST POP PUSH1 0x4 CALLDATASIZE LT PUSH2 0x41 JUMPI PUSH1 0x0 CALLDATALOAD PUSH1 0xE0 SHR DUP1 PUSH4 0x20965255 EQ PUSH2 0x46 JUMPI DUP1 PUSH4 0x2BAECEB7 EQ PUSH2 0x64 JUMPI DUP1 PUSH4 0xD09DE08A EQ PUSH2 0x6E JUMPI JUMPDEST PUSH1 0x0 DUP1 REVERT JUMPDEST PUSH2 0x4E PUSH2 0x78 JUMP JUMPDEST PUSH1 0x40 MLOAD PUSH2 0x5B SWAP2 SWAP1 PUSH2 0x136 JUMP JUMPDEST PUSH1 0x40 MLOAD DUP1 SWAP2 SUB SWAP1 RETURN JUMPDEST PUSH2 0x6C PUSH2 0x81 JUMP JUMPDEST STOP JUMPDEST PUSH2 0x76 PUSH2 0xCF JUMP JUMPDEST STOP JUMPDEST PUSH1 0x0 DUP1 SLOAD SWAP1 POP SWAP1 JUMP JUMPDEST PUSH1 0x0 DUP1 DUP2 SLOAD DUP1 SWAP3 SWAP2 SWAP1 PUSH2 0x93 SWAP1 PUSH2 0x180 JUMP JUMPDEST SWAP2 SWAP1 POP SSTORE POP PUSH32 0x1E987D14A1F5129625E5E36A8C5C3F7DCE87512E55E5AB1BA141956FBBED6F42 PUSH1 0x40 MLOAD PUSH2 0xC5 SWAP1 PUSH2 0x206 JUMP JUMPDEST PUSH1 0x40 MLOAD DUP1 SWAP2 SUB SWAP1 LOG1 JUMP JUMPDEST PUSH1 0x0 DUP1 DUP2 SLOAD DUP1 SWAP3 SWAP2 SWAP1 PUSH2 0xE1 SWAP1 PUSH2 0x226 JUMP JUMPDEST SWAP2 SWAP1 POP SSTORE POP PUSH32 0x500FD844DF03614B0440E900B394CE27D08E96434C0EF4C73D0A9E87EA282A0 PUSH1 0x40 MLOAD PUSH2 0x113 SWAP1 PUSH2 0x2BA JUMP JUMPDEST PUSH1 0x40 MLOAD DUP1 SWAP2 SUB SWAP1 LOG1 JUMP JUMPDEST PUSH1 0x0 DUP2 SWAP1 POP SWAP2 SWAP1 POP JUMP JUMPDEST PUSH2 0x130 DUP2 PUSH2 0x11D JUMP JUMPDEST DUP3 MSTORE POP POP JUMP JUMPDEST PUSH1 0x0 PUSH1 0x20 DUP3 ADD SWAP1 POP PUSH2 0x14B PUSH1 0x0 DUP4 ADD DUP5 PUSH2 0x127 JUMP JUMPDEST SWAP3 SWAP2 POP POP JUMP JUMPDEST PUSH32 0x4E487B7100000000000000000000000000000000000000000000000000000000 PUSH1 0x0 MSTORE PUSH1 0x11 PUSH1 0x4 MSTORE PUSH1 0x24 PUSH1 0x0 REVERT JUMPDEST PUSH1 0x0 PUSH2 0x18B DUP3 PUSH2 0x11D JUMP JUMPDEST SWAP2 POP PUSH1 0x0 DUP3 SUB PUSH2 0x19E JUMPI PUSH2 0x19D PUSH2 0x151 JUMP JUMPDEST JUMPDEST PUSH1 0x1 DUP3 SUB SWAP1 POP SWAP2 SWAP1 POP JUMP JUMPDEST PUSH1 0x0 DUP3 DUP3 MSTORE PUSH1 0x20 DUP3 ADD SWAP1 POP SWAP3 SWAP2 POP POP JUMP JUMPDEST PUSH32 0x76616C75652064656372656D656E746564206279203100000000000000000000 PUSH1 0x0 DUP3 ADD MSTORE POP JUMP JUMPDEST PUSH1 0x0 PUSH2 0x1F0 PUSH1 0x16 DUP4 PUSH2 0x1A9 JUMP JUMPDEST SWAP2 POP PUSH2 0x1FB DUP3 PUSH2 0x1BA JUMP JUMPDEST PUSH1 0x20 DUP3 ADD SWAP1 POP SWAP2 SWAP1 POP JUMP JUMPDEST PUSH1 0x0 PUSH1 0x20 DUP3 ADD SWAP1 POP DUP2 DUP2 SUB PUSH1 0x0 DUP4 ADD MSTORE PUSH2 0x21F DUP2 PUSH2 0x1E3 JUMP JUMPDEST SWAP1 POP SWAP2 SWAP1 POP JUMP JUMPDEST PUSH1 0x0 PUSH2 0x231 DUP3 PUSH2 0x11D JUMP JUMPDEST SWAP2 POP PUSH32 0xFFFFFFFFFFFFFFFFFFFFFFFFFFFFFFFFFFFFFFFFFFFFFFFFFFFFFFFFFFFFFFFF DUP3 SUB PUSH2 0x263 JUMPI PUSH2 0x262 PUSH2 0x151 JUMP JUMPDEST JUMPDEST PUSH1 0x1 DUP3 ADD SWAP1 POP SWAP2 SWAP1 POP JUMP JUMPDEST PUSH32 0x76616C756520696E6372656D656E746564206279203100000000000000000000 PUSH1 0x0 DUP3 ADD MSTORE POP JUMP JUMPDEST PUSH1 0x0 PUSH2 0x2A4 PUSH1 0x16 DUP4 PUSH2 0x1A9 JUMP JUMPDEST SWAP2 POP PUSH2 0x2AF DUP3 PUSH2 0x26E JUMP JUMPDEST PUSH1 0x20 DUP3 ADD SWAP1 POP SWAP2 SWAP1 POP JUMP JUMPDEST PUSH1 0x0 PUSH1 0x20 DUP3 ADD SWAP1 POP DUP2 DUP2 SUB PUSH1 0x0 DUP4 ADD MSTORE PUSH2 0x2D3 DUP2 PUSH2 0x297 JUMP JUMPDEST SWAP1 POP SWAP2 SWAP1 POP JUMP INVALID LOG2 PUSH5 0x6970667358 0x22 SLT KECCAK256 SLOAD CALLDATACOPY PUSH19 0xE66E078FDE5B16C70CF7BA14B56AD592A67054 0xA5 0xEA LOG1 0xC0 DUP7 ADD 0xAB 0xAC 0xAA SHR PUSH5 0x736F6C6343 STOP ADDMOD EQ STOP CALLER "},"methodIdentifiers":{"decrement()":"2baeceb7","getValue()":"20965255","increment()":"d09de08a"}}}}}