{
  "_format": "hh-sol-artifact-1",
  "contractName": "Geologix",
  "sourceName": "contracts/NFTMarketplace.sol",
  "abi": [
    {
      "inputs": [
        {
          "internalType": "uint256",
          "name": "_latitude",
          "type": "uint256"
        },
        {
          "internalType": "uint256",
          "name": "_longitude",
          "type": "uint256"
        },
        {
          "internalType": "uint256",
          "name": "_radius",
          "type": "uint256"
        },
        {
          "internalType": "uint256",
          "name": "_startTime",
          "type": "uint256"
        },
        {
          "internalType": "uint256",
          "name": "_endTime",
          "type": "uint256"
        },
        {
          "internalType": "uint256",
          "name": "_rewardAmount",
          "type": "uint256"
        }
      ],
      "stateMutability": "nonpayable",
      "type": "constructor"
    },
    {
      "inputs": [
        {
          "internalType": "address",
          "name": "spender",
          "type": "address"
        },
        {
          "internalType": "uint256",
          "name": "allowance",
          "type": "uint256"
        },
        {
          "internalType": "uint256",
          "name": "needed",
          "type": "uint256"
        }
      ],
      "name": "ERC20InsufficientAllowance",
      "type": "error"
    },
    {
      "inputs": [
        {
          "internalType": "address",
          "name": "sender",
          "type": "address"
        },
        {
          "internalType": "uint256",
          "name": "balance",
          "type": "uint256"
        },
        {
          "internalType": "uint256",
          "name": "needed",
          "type": "uint256"
        }
      ],
      "name": "ERC20InsufficientBalance",
      "type": "error"
    },
    {
      "inputs": [
        {
          "internalType": "address",
          "name": "approver",
          "type": "address"
        }
      ],
      "name": "ERC20InvalidApprover",
      "type": "error"
    },
    {
      "inputs": [
        {
          "internalType": "address",
          "name": "receiver",
          "type": "address"
        }
      ],
      "name": "ERC20InvalidReceiver",
      "type": "error"
    },
    {
      "inputs": [
        {
          "internalType": "address",
          "name": "sender",
          "type": "address"
        }
      ],
      "name": "ERC20InvalidSender",
      "type": "error"
    },
    {
      "inputs": [
        {
          "internalType": "address",
          "name": "spender",
          "type": "address"
        }
      ],
      "name": "ERC20InvalidSpender",
      "type": "error"
    },
    {
      "anonymous": false,
      "inputs": [
        {
          "indexed": true,
          "internalType": "address",
          "name": "owner",
          "type": "address"
        },
        {
          "indexed": true,
          "internalType": "address",
          "name": "spender",
          "type": "address"
        },
        {
          "indexed": false,
          "internalType": "uint256",
          "name": "value",
          "type": "uint256"
        }
      ],
      "name": "Approval",
      "type": "event"
    },
    {
      "anonymous": false,
      "inputs": [
        {
          "indexed": true,
          "internalType": "address",
          "name": "from",
          "type": "address"
        },
        {
          "indexed": true,
          "internalType": "address",
          "name": "to",
          "type": "address"
        },
        {
          "indexed": false,
          "internalType": "uint256",
          "name": "value",
          "type": "uint256"
        }
      ],
      "name": "Transfer",
      "type": "event"
    },
    {
      "inputs": [],
      "name": "DeviceCount",
      "outputs": [
        {
          "internalType": "uint256",
          "name": "",
          "type": "uint256"
        }
      ],
      "stateMutability": "view",
      "type": "function"
    },
    {
      "inputs": [
        {
          "internalType": "uint256",
          "name": "lat1",
          "type": "uint256"
        },
        {
          "internalType": "uint256",
          "name": "lon1",
          "type": "uint256"
        },
        {
          "internalType": "uint256",
          "name": "lat2",
          "type": "uint256"
        },
        {
          "internalType": "uint256",
          "name": "lon2",
          "type": "uint256"
        }
      ],
      "name": "_calculateDistance",
      "outputs": [
        {
          "internalType": "uint256",
          "name": "",
          "type": "uint256"
        }
      ],
      "stateMutability": "pure",
      "type": "function"
    },
    {
      "inputs": [
        {
          "internalType": "address",
          "name": "_public_address",
          "type": "address"
        }
      ],
      "name": "addDriver",
      "outputs": [],
      "stateMutability": "nonpayable",
      "type": "function"
    },
    {
      "inputs": [
        {
          "internalType": "address",
          "name": "owner",
          "type": "address"
        },
        {
          "internalType": "address",
          "name": "spender",
          "type": "address"
        }
      ],
      "name": "allowance",
      "outputs": [
        {
          "internalType": "uint256",
          "name": "",
          "type": "uint256"
        }
      ],
      "stateMutability": "view",
      "type": "function"
    },
    {
      "inputs": [
        {
          "internalType": "address",
          "name": "spender",
          "type": "address"
        },
        {
          "internalType": "uint256",
          "name": "value",
          "type": "uint256"
        }
      ],
      "name": "approve",
      "outputs": [
        {
          "internalType": "bool",
          "name": "",
          "type": "bool"
        }
      ],
      "stateMutability": "nonpayable",
      "type": "function"
    },
    {
      "inputs": [
        {
          "internalType": "address",
          "name": "account",
          "type": "address"
        }
      ],
      "name": "balanceOf",
      "outputs": [
        {
          "internalType": "uint256",
          "name": "",
          "type": "uint256"
        }
      ],
      "stateMutability": "view",
      "type": "function"
    },
    {
      "inputs": [],
      "name": "decimals",
      "outputs": [
        {
          "internalType": "uint8",
          "name": "",
          "type": "uint8"
        }
      ],
      "stateMutability": "view",
      "type": "function"
    },
    {
      "inputs": [
        {
          "internalType": "address",
          "name": "",
          "type": "address"
        }
      ],
      "name": "devices",
      "outputs": [
        {
          "internalType": "uint256",
          "name": "complianceCount",
          "type": "uint256"
        },
        {
          "internalType": "uint256",
          "name": "nonComplianceCount",
          "type": "uint256"
        },
        {
          "internalType": "enum Geologix.DeviceState",
          "name": "deviceState",
          "type": "uint8"
        },
        {
          "internalType": "address",
          "name": "public_address",
          "type": "address"
        },
        {
          "internalType": "uint256",
          "name": "lastRecorededTime",
          "type": "uint256"
        },
        {
          "internalType": "uint256",
          "name": "payedAmount",
          "type": "uint256"
        },
        {
          "internalType": "bool",
          "name": "isActive",
          "type": "bool"
        }
      ],
      "stateMutability": "view",
      "type": "function"
    },
    {
      "inputs": [],
      "name": "endTime",
      "outputs": [
        {
          "internalType": "uint256",
          "name": "",
          "type": "uint256"
        }
      ],
      "stateMutability": "view",
      "type": "function"
    },
    {
      "inputs": [],
      "name": "getDevice",
      "outputs": [
        {
          "internalType": "uint256",
          "name": "complianceCount",
          "type": "uint256"
        },
        {
          "internalType": "uint256",
          "name": "nonComplianceCount",
          "type": "uint256"
        },
        {
          "internalType": "enum Geologix.DeviceState",
          "name": "deviceState",
          "type": "uint8"
        }
      ],
      "stateMutability": "view",
      "type": "function"
    },
    {
      "inputs": [],
      "name": "latitude",
      "outputs": [
        {
          "internalType": "uint256",
          "name": "",
          "type": "uint256"
        }
      ],
      "stateMutability": "view",
      "type": "function"
    },
    {
      "inputs": [],
      "name": "longitude",
      "outputs": [
        {
          "internalType": "uint256",
          "name": "",
          "type": "uint256"
        }
      ],
      "stateMutability": "view",
      "type": "function"
    },
    {
      "inputs": [],
      "name": "name",
      "outputs": [
        {
          "internalType": "string",
          "name": "",
          "type": "string"
        }
      ],
      "stateMutability": "view",
      "type": "function"
    },
    {
      "inputs": [
        {
          "internalType": "uint256",
          "name": "_latitude",
          "type": "uint256"
        },
        {
          "internalType": "uint256",
          "name": "_longitude",
          "type": "uint256"
        }
      ],
      "name": "optIn",
      "outputs": [],
      "stateMutability": "nonpayable",
      "type": "function"
    },
    {
      "inputs": [],
      "name": "owner",
      "outputs": [
        {
          "internalType": "address",
          "name": "",
          "type": "address"
        }
      ],
      "stateMutability": "view",
      "type": "function"
    },
    {
      "inputs": [],
      "name": "radius",
      "outputs": [
        {
          "internalType": "uint256",
          "name": "",
          "type": "uint256"
        }
      ],
      "stateMutability": "view",
      "type": "function"
    },
    {
      "inputs": [],
      "name": "rewardAmount",
      "outputs": [
        {
          "internalType": "uint256",
          "name": "",
          "type": "uint256"
        }
      ],
      "stateMutability": "view",
      "type": "function"
    },
    {
      "inputs": [],
      "name": "startTime",
      "outputs": [
        {
          "internalType": "uint256",
          "name": "",
          "type": "uint256"
        }
      ],
      "stateMutability": "view",
      "type": "function"
    },
    {
      "inputs": [],
      "name": "symbol",
      "outputs": [
        {
          "internalType": "string",
          "name": "",
          "type": "string"
        }
      ],
      "stateMutability": "view",
      "type": "function"
    },
    {
      "inputs": [],
      "name": "totalSupply",
      "outputs": [
        {
          "internalType": "uint256",
          "name": "",
          "type": "uint256"
        }
      ],
      "stateMutability": "view",
      "type": "function"
    },
    {
      "inputs": [
        {
          "internalType": "address",
          "name": "to",
          "type": "address"
        },
        {
          "internalType": "uint256",
          "name": "value",
          "type": "uint256"
        }
      ],
      "name": "transfer",
      "outputs": [
        {
          "internalType": "bool",
          "name": "",
          "type": "bool"
        }
      ],
      "stateMutability": "nonpayable",
      "type": "function"
    },
    {
      "inputs": [
        {
          "internalType": "address",
          "name": "from",
          "type": "address"
        },
        {
          "internalType": "address",
          "name": "to",
          "type": "address"
        },
        {
          "internalType": "uint256",
          "name": "value",
          "type": "uint256"
        }
      ],
      "name": "transferFrom",
      "outputs": [
        {
          "internalType": "bool",
          "name": "",
          "type": "bool"
        }
      ],
      "stateMutability": "nonpayable",
      "type": "function"
    }
  ],
  "bytecode": "0x60806040523480156200001157600080fd5b5060405162001146380380620011468339810160408190526200003491620000c4565b60405180604001604052806006815260200165292a37b5b2b760d11b81525060405180604001604052806002815260200161149560f21b81525081600390816200007f9190620001b4565b5060046200008e8282620001b4565b5050600580546001600160a01b0319163317905550600695909555600793909355600891909155600955600a55600b5562000280565b60008060008060008060c08789031215620000de57600080fd5b865195506020870151945060408701519350606087015192506080870151915060a087015190509295509295509295565b634e487b7160e01b600052604160045260246000fd5b600181811c908216806200013a57607f821691505b6020821081036200015b57634e487b7160e01b600052602260045260246000fd5b50919050565b601f821115620001af57600081815260208120601f850160051c810160208610156200018a5750805b601f850160051c820191505b81811015620001ab5782815560010162000196565b5050505b505050565b81516001600160401b03811115620001d057620001d06200010f565b620001e881620001e1845462000125565b8462000161565b602080601f831160018114620002205760008415620002075750858301515b600019600386901b1c1916600185901b178555620001ab565b600085815260208120601f198616915b82811015620002515788860151825594840194600190910190840162000230565b5085821015620002705787850151600019600388901b60f8161c191681555b5050505050600190811b01905550565b610eb680620002906000396000f3fe608060405234801561001057600080fd5b50600436106101425760003560e01c806370a08231116100b85780639af8a5eb1161007c5780639af8a5eb14610284578063a9059cbb1461028d578063b620b8cb146102a0578063dd62ed3e146102b3578063e7b4cac6146102ec578063f7b2a7be1461035657600080fd5b806370a082311461020857806378e97925146102315780638da5cb5b1461023a5780638ea286c21461026557806395d89b411461027c57600080fd5b8063313ce5671161010a578063313ce567146101b65780633197cbb6146101c55780634fd7d76a146101ce578063563a6c7a146101d7578063589af69c146101ea57806363a411c0146101f357600080fd5b806306fdde0314610147578063095ea7b31461016557806318160ddd14610188578063217f43531461019a57806323b872dd146101a3575b600080fd5b61014f61035f565b60405161015c9190610bda565b60405180910390f35b610178610173366004610c44565b6103f1565b604051901515815260200161015c565b6002545b60405190815260200161015c565b61018c60085481565b6101786101b1366004610c6e565b61040b565b6040516012815260200161015c565b61018c600a5481565b61018c60065481565b61018c6101e5366004610caa565b61042f565b61018c60075481565b610206610201366004610cdc565b61045a565b005b61018c610216366004610cdc565b6001600160a01b031660009081526020819052604090205490565b61018c60095481565b60055461024d906001600160a01b031681565b6040516001600160a01b03909116815260200161015c565b61026d610587565b60405161015c93929190610d36565b61014f6106af565b61018c600d5481565b61017861029b366004610c44565b6106be565b6102066102ae366004610d51565b6106cc565b61018c6102c1366004610d73565b6001600160a01b03918216600090815260016020908152604080832093909416825291909152205490565b6103436102fa366004610cdc565b600c602052600090815260409020805460018201546002830154600384015460048501546005909501549394929360ff808416946101009094046001600160a01b031693911687565b60405161015c9796959493929190610da6565b61018c600b5481565b60606003805461036e90610df1565b80601f016020809104026020016040519081016040528092919081815260200182805461039a90610df1565b80156103e75780601f106103bc576101008083540402835291602001916103e7565b820191906000526020600020905b8154815290600101906020018083116103ca57829003601f168201915b5050505050905090565b6000336103ff8185856108cc565b60019150505b92915050565b6000336104198582856108de565b61042485858561095c565b506001949350505050565b600061043b8285610e41565b6104458487610e41565b61044f9190610e54565b90505b949350505050565b6005546001600160a01b0316331461047157600080fd5b600d805490600061048183610e67565b91905055506040518060e001604052806000815260200160008152602001600060038111156104b2576104b2610cfe565b81526001600160a01b03831660208083018290524260408085019190915260006060850181905260016080909501859052928352600c8252918290208451815590840151818401559083015160028201805492939192909160ff199091169083600381111561052357610523610cfe565b02179055506060820151600282018054610100600160a81b0319166101006001600160a01b03909316929092029190911790556080820151600382015560a0820151600482015560c0909101516005909101805460ff191691151591909117905550565b336000908152600c60205260408120600201548190819061010090046001600160a01b03166105f55760405162461bcd60e51b815260206004820152601560248201527411195d9a58d9481b9bdd081c9959da5cdd195c9959605a1b60448201526064015b60405180910390fd5b336000908152600c60209081526040808320815160e081018352815481526001820154938101939093526002810154909183019060ff16600381111561063d5761063d610cfe565b600381111561064e5761064e610cfe565b8152600282015461010090046001600160a01b031660208083019190915260038301546040808401919091526004840154606084015260059093015460ff161515608090920191909152825190830151929091015190969195509350915050565b60606004805461036e90610df1565b6000336103ff81858561095c565b336000908152600c602052604090206002015461010090046001600160a01b03166107315760405162461bcd60e51b815260206004820152601560248201527411195d9a58d9481b9bdd081c9959da5cdd195c9959605a1b60448201526064016105ec565b336000908152600c602052604090206005015460ff1661079d5760405162461bcd60e51b815260206004820152602160248201527f7468652064657669636520436f6e7472616374206973206e6f742061637469766044820152606560f81b60648201526084016105ec565b6009544210156107ef5760405162461bcd60e51b815260206004820152601c60248201527f436f6e747261637420686173206e6f742073746172746564207965740000000060448201526064016105ec565b600a5442111561083757336000908152600c6020526040902060058101805460ff19908116909155600b54600483015560029091018054600392166001835b02179055505050565b61084182826109bb565b1561088757336000908152600c6020526040812080549161086183610e67565b9091555050336000908152600c60205260409020600201805460ff191660011790555050565b336000908152600c602052604081206001018054916108a583610e67565b9091555050336000908152600c602052604090206002908101805460ff191660018361082e565b6108d983838360016109db565b505050565b6001600160a01b038381166000908152600160209081526040808320938616835292905220546000198114610956578181101561094757604051637dc7a0d960e11b81526001600160a01b038416600482015260248101829052604481018390526064016105ec565b610956848484840360006109db565b50505050565b6001600160a01b03831661098657604051634b637e8f60e11b8152600060048201526024016105ec565b6001600160a01b0382166109b05760405163ec442f0560e01b8152600060048201526024016105ec565b6108d9838383610ab0565b6000806109ce600654600754868661042f565b6008541015949350505050565b6001600160a01b038416610a055760405163e602df0560e01b8152600060048201526024016105ec565b6001600160a01b038316610a2f57604051634a1406b160e11b8152600060048201526024016105ec565b6001600160a01b038085166000908152600160209081526040808320938716835292905220829055801561095657826001600160a01b0316846001600160a01b03167f8c5be1e5ebec7d5bd14f71427d1e84f3dd0314c0f7b2291e5b200ac8c7c3b92584604051610aa291815260200190565b60405180910390a350505050565b6001600160a01b038316610adb578060026000828254610ad09190610e54565b90915550610b4d9050565b6001600160a01b03831660009081526020819052604090205481811015610b2e5760405163391434e360e21b81526001600160a01b038516600482015260248101829052604481018390526064016105ec565b6001600160a01b03841660009081526020819052604090209082900390555b6001600160a01b038216610b6957600280548290039055610b88565b6001600160a01b03821660009081526020819052604090208054820190555b816001600160a01b0316836001600160a01b03167fddf252ad1be2c89b69c2b068fc378daa952ba7f163c4a11628f55a4df523b3ef83604051610bcd91815260200190565b60405180910390a3505050565b600060208083528351808285015260005b81811015610c0757858101830151858201604001528201610beb565b506000604082860101526040601f19601f8301168501019250505092915050565b80356001600160a01b0381168114610c3f57600080fd5b919050565b60008060408385031215610c5757600080fd5b610c6083610c28565b946020939093013593505050565b600080600060608486031215610c8357600080fd5b610c8c84610c28565b9250610c9a60208501610c28565b9150604084013590509250925092565b60008060008060808587031215610cc057600080fd5b5050823594602084013594506040840135936060013592509050565b600060208284031215610cee57600080fd5b610cf782610c28565b9392505050565b634e487b7160e01b600052602160045260246000fd5b60048110610d3257634e487b7160e01b600052602160045260246000fd5b9052565b83815260208101839052606081016104526040830184610d14565b60008060408385031215610d6457600080fd5b50508035926020909101359150565b60008060408385031215610d8657600080fd5b610d8f83610c28565b9150610d9d60208401610c28565b90509250929050565b8781526020810187905260e08101610dc16040830188610d14565b6001600160a01b03959095166060820152608081019390935260a0830191909152151560c0909101529392505050565b600181811c90821680610e0557607f821691505b602082108103610e2557634e487b7160e01b600052602260045260246000fd5b50919050565b634e487b7160e01b600052601160045260246000fd5b8181038181111561040557610405610e2b565b8082018082111561040557610405610e2b565b600060018201610e7957610e79610e2b565b506001019056fea2646970667358221220af79bd84a1d28aa9977c6cc94c6fd290f55a2b812d514f7498e9e9a24107793264736f6c63430008130033",
  "linkReferences": {},
  "deployedLinkReferences": {}
}