{
  "_format": "hh-sol-artifact-1",
  "contractName": "IncrementDecrement",
  "sourceName": "contracts/sample.sol",
  "abi": [
    {
      "anonymous": false,
      "inputs": [
        {
          "indexed": false,
          "internalType": "string",
          "name": "message",
          "type": "string"
        }
      ],
      "name": "Decrement",
      "type": "event"
    },
    {
      "anonymous": false,
      "inputs": [
        {
          "indexed": false,
          "internalType": "string",
          "name": "message",
          "type": "string"
        }
      ],
      "name": "Increment",
      "type": "event"
    },
    {
      "inputs": [],
      "name": "decrement",
      "outputs": [],
      "stateMutability": "nonpayable",
      "type": "function"
    },
    {
      "inputs": [],
      "name": "getValue",
      "outputs": [
        {
          "internalType": "uint256",
          "name": "",
          "type": "uint256"
        }
      ],
      "stateMutability": "view",
      "type": "function"
    },
    {
      "inputs": [],
      "name": "increment",
      "outputs": [],
      "stateMutability": "nonpayable",
      "type": "function"
    }
  ],
  "bytecode": "0x608060405234801561001057600080fd5b50610310806100206000396000f3fe608060405234801561001057600080fd5b50600436106100415760003560e01c806320965255146100465780632baeceb714610064578063d09de08a1461006e575b600080fd5b61004e610078565b60405161005b9190610136565b60405180910390f35b61006c610081565b005b6100766100cf565b005b60008054905090565b60008081548092919061009390610180565b91905055507f1e987d14a1f5129625e5e36a8c5c3f7dce87512e55e5ab1ba141956fbbed6f426040516100c590610206565b60405180910390a1565b6000808154809291906100e190610226565b91905055507f0500fd844df03614b0440e900b394ce27d08e96434c0ef4c73d0a9e87ea282a0604051610113906102ba565b60405180910390a1565b6000819050919050565b6101308161011d565b82525050565b600060208201905061014b6000830184610127565b92915050565b7f4e487b7100000000000000000000000000000000000000000000000000000000600052601160045260246000fd5b600061018b8261011d565b91506000820361019e5761019d610151565b5b600182039050919050565b600082825260208201905092915050565b7f76616c75652064656372656d656e746564206279203100000000000000000000600082015250565b60006101f06016836101a9565b91506101fb826101ba565b602082019050919050565b6000602082019050818103600083015261021f816101e3565b9050919050565b60006102318261011d565b91507fffffffffffffffffffffffffffffffffffffffffffffffffffffffffffffffff820361026357610262610151565b5b600182019050919050565b7f76616c756520696e6372656d656e746564206279203100000000000000000000600082015250565b60006102a46016836101a9565b91506102af8261026e565b602082019050919050565b600060208201905081810360008301526102d381610297565b905091905056fea2646970667358221220543772e66e078fde5b16c70cf7ba14b56ad592a67054a5eaa1c08601abacaa1c64736f6c63430008140033",
  "linkReferences": {},
  "deployedLinkReferences": {}
}