{
	"contracts/locationSmartContract.sol": {
		"Geologix": {
			"abi": [
				{
					"inputs": [],
					"stateMutability": "nonpayable",
					"type": "constructor"
				},
				{
					"inputs": [
						{
							"internalType": "address",
							"name": "spender",
							"type": "address"
						},
						{
							"internalType": "uint256",
							"name": "allowance",
							"type": "uint256"
						},
						{
							"internalType": "uint256",
							"name": "needed",
							"type": "uint256"
						}
					],
					"name": "ERC20InsufficientAllowance",
					"type": "error"
				},
				{
					"inputs": [
						{
							"internalType": "address",
							"name": "sender",
							"type": "address"
						},
						{
							"internalType": "uint256",
							"name": "balance",
							"type": "uint256"
						},
						{
							"internalType": "uint256",
							"name": "needed",
							"type": "uint256"
						}
					],
					"name": "ERC20InsufficientBalance",
					"type": "error"
				},
				{
					"inputs": [
						{
							"internalType": "address",
							"name": "approver",
							"type": "address"
						}
					],
					"name": "ERC20InvalidApprover",
					"type": "error"
				},
				{
					"inputs": [
						{
							"internalType": "address",
							"name": "receiver",
							"type": "address"
						}
					],
					"name": "ERC20InvalidReceiver",
					"type": "error"
				},
				{
					"inputs": [
						{
							"internalType": "address",
							"name": "sender",
							"type": "address"
						}
					],
					"name": "ERC20InvalidSender",
					"type": "error"
				},
				{
					"inputs": [
						{
							"internalType": "address",
							"name": "spender",
							"type": "address"
						}
					],
					"name": "ERC20InvalidSpender",
					"type": "error"
				},
				{
					"anonymous": false,
					"inputs": [
						{
							"indexed": true,
							"internalType": "address",
							"name": "owner",
							"type": "address"
						},
						{
							"indexed": true,
							"internalType": "address",
							"name": "spender",
							"type": "address"
						},
						{
							"indexed": false,
							"internalType": "uint256",
							"name": "value",
							"type": "uint256"
						}
					],
					"name": "Approval",
					"type": "event"
				},
				{
					"anonymous": false,
					"inputs": [
						{
							"indexed": true,
							"internalType": "address",
							"name": "from",
							"type": "address"
						},
						{
							"indexed": true,
							"internalType": "address",
							"name": "to",
							"type": "address"
						},
						{
							"indexed": false,
							"internalType": "uint256",
							"name": "value",
							"type": "uint256"
						}
					],
					"name": "Transfer",
					"type": "event"
				},
				{
					"inputs": [],
					"name": "ContractCount",
					"outputs": [
						{
							"internalType": "uint256",
							"name": "",
							"type": "uint256"
						}
					],
					"stateMutability": "view",
					"type": "function"
				},
				{
					"inputs": [],
					"name": "Employeecount",
					"outputs": [
						{
							"internalType": "uint256",
							"name": "",
							"type": "uint256"
						}
					],
					"stateMutability": "view",
					"type": "function"
				},
				{
					"inputs": [],
					"name": "Employercount",
					"outputs": [
						{
							"internalType": "uint256",
							"name": "",
							"type": "uint256"
						}
					],
					"stateMutability": "view",
					"type": "function"
				},
				{
					"inputs": [
						{
							"internalType": "string",
							"name": "_name",
							"type": "string"
						},
						{
							"internalType": "address",
							"name": "user_address",
							"type": "address"
						}
					],
					"name": "addEmployee",
					"outputs": [],
					"stateMutability": "nonpayable",
					"type": "function"
				},
				{
					"inputs": [
						{
							"internalType": "string",
							"name": "_name",
							"type": "string"
						},
						{
							"internalType": "address",
							"name": "user_address",
							"type": "address"
						}
					],
					"name": "addEmployer",
					"outputs": [],
					"stateMutability": "nonpayable",
					"type": "function"
				},
				{
					"inputs": [
						{
							"internalType": "address",
							"name": "owner",
							"type": "address"
						},
						{
							"internalType": "address",
							"name": "spender",
							"type": "address"
						}
					],
					"name": "allowance",
					"outputs": [
						{
							"internalType": "uint256",
							"name": "",
							"type": "uint256"
						}
					],
					"stateMutability": "view",
					"type": "function"
				},
				{
					"inputs": [
						{
							"internalType": "address",
							"name": "spender",
							"type": "address"
						},
						{
							"internalType": "uint256",
							"name": "value",
							"type": "uint256"
						}
					],
					"name": "approve",
					"outputs": [
						{
							"internalType": "bool",
							"name": "",
							"type": "bool"
						}
					],
					"stateMutability": "nonpayable",
					"type": "function"
				},
				{
					"inputs": [
						{
							"internalType": "address",
							"name": "account",
							"type": "address"
						}
					],
					"name": "balanceOf",
					"outputs": [
						{
							"internalType": "uint256",
							"name": "",
							"type": "uint256"
						}
					],
					"stateMutability": "view",
					"type": "function"
				},
				{
					"inputs": [
						{
							"internalType": "uint256",
							"name": "_latitude",
							"type": "uint256"
						},
						{
							"internalType": "uint256",
							"name": "_longitude",
							"type": "uint256"
						},
						{
							"internalType": "uint256",
							"name": "_radius",
							"type": "uint256"
						},
						{
							"internalType": "uint256",
							"name": "_startTime",
							"type": "uint256"
						},
						{
							"internalType": "uint256",
							"name": "_endTime",
							"type": "uint256"
						},
						{
							"internalType": "uint256",
							"name": "_rewardAmount",
							"type": "uint256"
						},
						{
							"internalType": "address",
							"name": "_employee",
							"type": "address"
						},
						{
							"internalType": "address",
							"name": "_employer",
							"type": "address"
						}
					],
					"name": "createSmartContract",
					"outputs": [],
					"stateMutability": "nonpayable",
					"type": "function"
				},
				{
					"inputs": [],
					"name": "decimals",
					"outputs": [
						{
							"internalType": "uint8",
							"name": "",
							"type": "uint8"
						}
					],
					"stateMutability": "view",
					"type": "function"
				},
				{
					"inputs": [
						{
							"internalType": "address",
							"name": "",
							"type": "address"
						}
					],
					"name": "employees",
					"outputs": [
						{
							"internalType": "uint256",
							"name": "id",
							"type": "uint256"
						},
						{
							"internalType": "string",
							"name": "name",
							"type": "string"
						},
						{
							"internalType": "address",
							"name": "public_address",
							"type": "address"
						}
					],
					"stateMutability": "view",
					"type": "function"
				},
				{
					"inputs": [
						{
							"internalType": "address",
							"name": "",
							"type": "address"
						}
					],
					"name": "employers",
					"outputs": [
						{
							"internalType": "uint256",
							"name": "id",
							"type": "uint256"
						},
						{
							"internalType": "string",
							"name": "name",
							"type": "string"
						},
						{
							"internalType": "address",
							"name": "public_address",
							"type": "address"
						}
					],
					"stateMutability": "view",
					"type": "function"
				},
				{
					"inputs": [
						{
							"internalType": "uint256",
							"name": "_contractId",
							"type": "uint256"
						}
					],
					"name": "getContract",
					"outputs": [
						{
							"internalType": "uint256",
							"name": "contractId",
							"type": "uint256"
						},
						{
							"internalType": "uint256",
							"name": "complianceCount",
							"type": "uint256"
						},
						{
							"internalType": "uint256",
							"name": "nonComplianceCount",
							"type": "uint256"
						},
						{
							"internalType": "enum Geologix.DeviceState",
							"name": "deviceState",
							"type": "uint8"
						}
					],
					"stateMutability": "view",
					"type": "function"
				},
				{
					"inputs": [],
					"name": "name",
					"outputs": [
						{
							"internalType": "string",
							"name": "",
							"type": "string"
						}
					],
					"stateMutability": "view",
					"type": "function"
				},
				{
					"inputs": [],
					"name": "owner",
					"outputs": [
						{
							"internalType": "address",
							"name": "",
							"type": "address"
						}
					],
					"stateMutability": "view",
					"type": "function"
				},
				{
					"inputs": [
						{
							"internalType": "uint256",
							"name": "contractId",
							"type": "uint256"
						}
					],
					"name": "payEmployee",
					"outputs": [],
					"stateMutability": "nonpayable",
					"type": "function"
				},
				{
					"inputs": [
						{
							"internalType": "uint256",
							"name": "",
							"type": "uint256"
						}
					],
					"name": "smartContracts",
					"outputs": [
						{
							"internalType": "uint256",
							"name": "contractId",
							"type": "uint256"
						},
						{
							"internalType": "uint256",
							"name": "latitude",
							"type": "uint256"
						},
						{
							"internalType": "uint256",
							"name": "longitude",
							"type": "uint256"
						},
						{
							"internalType": "uint256",
							"name": "radius",
							"type": "uint256"
						},
						{
							"internalType": "uint256",
							"name": "startTime",
							"type": "uint256"
						},
						{
							"internalType": "uint256",
							"name": "endTime",
							"type": "uint256"
						},
						{
							"internalType": "uint256",
							"name": "rewardAmount",
							"type": "uint256"
						},
						{
							"internalType": "address",
							"name": "employee",
							"type": "address"
						},
						{
							"internalType": "address",
							"name": "empolyer",
							"type": "address"
						},
						{
							"internalType": "bool",
							"name": "isActive",
							"type": "bool"
						},
						{
							"components": [
								{
									"internalType": "uint256",
									"name": "complianceCount",
									"type": "uint256"
								},
								{
									"internalType": "uint256",
									"name": "nonComplianceCount",
									"type": "uint256"
								}
							],
							"internalType": "struct Geologix.ComplianceCounts",
							"name": "counts",
							"type": "tuple"
						},
						{
							"internalType": "enum Geologix.DeviceState",
							"name": "deviceState",
							"type": "uint8"
						}
					],
					"stateMutability": "view",
					"type": "function"
				},
				{
					"inputs": [],
					"name": "symbol",
					"outputs": [
						{
							"internalType": "string",
							"name": "",
							"type": "string"
						}
					],
					"stateMutability": "view",
					"type": "function"
				},
				{
					"inputs": [],
					"name": "totalSupply",
					"outputs": [
						{
							"internalType": "uint256",
							"name": "",
							"type": "uint256"
						}
					],
					"stateMutability": "view",
					"type": "function"
				},
				{
					"inputs": [
						{
							"internalType": "address",
							"name": "to",
							"type": "address"
						},
						{
							"internalType": "uint256",
							"name": "value",
							"type": "uint256"
						}
					],
					"name": "transfer",
					"outputs": [
						{
							"internalType": "bool",
							"name": "",
							"type": "bool"
						}
					],
					"stateMutability": "nonpayable",
					"type": "function"
				},
				{
					"inputs": [
						{
							"internalType": "address",
							"name": "from",
							"type": "address"
						},
						{
							"internalType": "address",
							"name": "to",
							"type": "address"
						},
						{
							"internalType": "uint256",
							"name": "value",
							"type": "uint256"
						}
					],
					"name": "transferFrom",
					"outputs": [
						{
							"internalType": "bool",
							"name": "",
							"type": "bool"
						}
					],
					"stateMutability": "nonpayable",
					"type": "function"
				},
				{
					"inputs": [
						{
							"internalType": "uint256",
							"name": "_latitude",
							"type": "uint256"
						},
						{
							"internalType": "uint256",
							"name": "_longitude",
							"type": "uint256"
						},
						{
							"internalType": "uint256",
							"name": "contractId",
							"type": "uint256"
						},
						{
							"internalType": "uint256",
							"name": "currentTime",
							"type": "uint256"
						}
					],
					"name": "updateEmployeeStatus",
					"outputs": [],
					"stateMutability": "nonpayable",
					"type": "function"
				}
			],
			"devdoc": {
				"errors": {
					"ERC20InsufficientAllowance(address,uint256,uint256)": [
						{
							"details": "Indicates a failure with the `spender`’s `allowance`. Used in transfers.",
							"params": {
								"allowance": "Amount of tokens a `spender` is allowed to operate with.",
								"needed": "Minimum amount required to perform a transfer.",
								"spender": "Address that may be allowed to operate on tokens without being their owner."
							}
						}
					],
					"ERC20InsufficientBalance(address,uint256,uint256)": [
						{
							"details": "Indicates an error related to the current `balance` of a `sender`. Used in transfers.",
							"params": {
								"balance": "Current balance for the interacting account.",
								"needed": "Minimum amount required to perform a transfer.",
								"sender": "Address whose tokens are being transferred."
							}
						}
					],
					"ERC20InvalidApprover(address)": [
						{
							"details": "Indicates a failure with the `approver` of a token to be approved. Used in approvals.",
							"params": {
								"approver": "Address initiating an approval operation."
							}
						}
					],
					"ERC20InvalidReceiver(address)": [
						{
							"details": "Indicates a failure with the token `receiver`. Used in transfers.",
							"params": {
								"receiver": "Address to which tokens are being transferred."
							}
						}
					],
					"ERC20InvalidSender(address)": [
						{
							"details": "Indicates a failure with the token `sender`. Used in transfers.",
							"params": {
								"sender": "Address whose tokens are being transferred."
							}
						}
					],
					"ERC20InvalidSpender(address)": [
						{
							"details": "Indicates a failure with the `spender` to be approved. Used in approvals.",
							"params": {
								"spender": "Address that may be allowed to operate on tokens without being their owner."
							}
						}
					]
				},
				"events": {
					"Approval(address,address,uint256)": {
						"details": "Emitted when the allowance of a `spender` for an `owner` is set by a call to {approve}. `value` is the new allowance."
					},
					"Transfer(address,address,uint256)": {
						"details": "Emitted when `value` tokens are moved from one account (`from`) to another (`to`). Note that `value` may be zero."
					}
				},
				"kind": "dev",
				"methods": {
					"allowance(address,address)": {
						"details": "See {IERC20-allowance}."
					},
					"approve(address,uint256)": {
						"details": "See {IERC20-approve}. NOTE: If `value` is the maximum `uint256`, the allowance is not updated on `transferFrom`. This is semantically equivalent to an infinite approval. Requirements: - `spender` cannot be the zero address."
					},
					"balanceOf(address)": {
						"details": "See {IERC20-balanceOf}."
					},
					"decimals()": {
						"details": "Returns the number of decimals used to get its user representation. For example, if `decimals` equals `2`, a balance of `505` tokens should be displayed to a user as `5.05` (`505 / 10 ** 2`). Tokens usually opt for a value of 18, imitating the relationship between Ether and Wei. This is the default value returned by this function, unless it's overridden. NOTE: This information is only used for _display_ purposes: it in no way affects any of the arithmetic of the contract, including {IERC20-balanceOf} and {IERC20-transfer}."
					},
					"name()": {
						"details": "Returns the name of the token."
					},
					"symbol()": {
						"details": "Returns the symbol of the token, usually a shorter version of the name."
					},
					"totalSupply()": {
						"details": "See {IERC20-totalSupply}."
					},
					"transfer(address,uint256)": {
						"details": "See {IERC20-transfer}. Requirements: - `to` cannot be the zero address. - the caller must have a balance of at least `value`."
					},
					"transferFrom(address,address,uint256)": {
						"details": "See {IERC20-transferFrom}. Emits an {Approval} event indicating the updated allowance. This is not required by the ERC. See the note at the beginning of {ERC20}. NOTE: Does not update the allowance if the current allowance is the maximum `uint256`. Requirements: - `from` and `to` cannot be the zero address. - `from` must have a balance of at least `value`. - the caller must have allowance for ``from``'s tokens of at least `value`."
					}
				},
				"version": 1
			},
			"evm": {
				"assembly": "    /* \"contracts/locationSmartContract.sol\":359:6275  contract Geologix is ERC20 {... */\n  mstore(0x40, 0x80)\n    /* \"contracts/locationSmartContract.sol\":501:579  constructor() ERC20(\"RToken\", \"RT\") {       ... */\n  callvalue\n  dup1\n  iszero\n  tag_1\n  jumpi\n  0x00\n  dup1\n  revert\ntag_1:\n  pop\n    /* \"https://github.com/OpenZeppelin/openzeppelin-contracts/blob/master/contracts/token/ERC20/ERC20.sol\":1897:2010  constructor(string memory name_, string memory symbol_) {... */\n  mload(0x40)\n  dup1\n  0x40\n  add\n  0x40\n  mstore\n  dup1\n  0x06\n  dup2\n  mstore\n  0x20\n  add\n  0x52546f6b656e0000000000000000000000000000000000000000000000000000\n  dup2\n  mstore\n  pop\n  mload(0x40)\n  dup1\n  0x40\n  add\n  0x40\n  mstore\n  dup1\n  0x02\n  dup2\n  mstore\n  0x20\n  add\n  0x5254000000000000000000000000000000000000000000000000000000000000\n  dup2\n  mstore\n  pop\n    /* \"https://github.com/OpenZeppelin/openzeppelin-contracts/blob/master/contracts/token/ERC20/ERC20.sol\":1971:1976  name_ */\n  dup2\n    /* \"https://github.com/OpenZeppelin/openzeppelin-contracts/blob/master/contracts/token/ERC20/ERC20.sol\":1963:1968  _name */\n  0x03\n    /* \"https://github.com/OpenZeppelin/openzeppelin-contracts/blob/master/contracts/token/ERC20/ERC20.sol\":1963:1976  _name = name_ */\n  swap1\n  dup2\n  tag_5\n  swap2\n  swap1\n  tag_6\n  jump\t// in\ntag_5:\n  pop\n    /* \"https://github.com/OpenZeppelin/openzeppelin-contracts/blob/master/contracts/token/ERC20/ERC20.sol\":1996:2003  symbol_ */\n  dup1\n    /* \"https://github.com/OpenZeppelin/openzeppelin-contracts/blob/master/contracts/token/ERC20/ERC20.sol\":1986:1993  _symbol */\n  0x04\n    /* \"https://github.com/OpenZeppelin/openzeppelin-contracts/blob/master/contracts/token/ERC20/ERC20.sol\":1986:2003  _symbol = symbol_ */\n  swap1\n  dup2\n  tag_7\n  swap2\n  swap1\n  tag_6\n  jump\t// in\ntag_7:\n  pop\n    /* \"https://github.com/OpenZeppelin/openzeppelin-contracts/blob/master/contracts/token/ERC20/ERC20.sol\":1897:2010  constructor(string memory name_, string memory symbol_) {... */\n  pop\n  pop\n    /* \"contracts/locationSmartContract.sol\":562:572  msg.sender */\n  caller\n    /* \"contracts/locationSmartContract.sol\":554:559  owner */\n  0x05\n  0x00\n    /* \"contracts/locationSmartContract.sol\":554:572  owner = msg.sender */\n  0x0100\n  exp\n  dup2\n  sload\n  dup2\n  0xffffffffffffffffffffffffffffffffffffffff\n  mul\n  not\n  and\n  swap1\n  dup4\n  0xffffffffffffffffffffffffffffffffffffffff\n  and\n  mul\n  or\n  swap1\n  sstore\n  pop\n    /* \"contracts/locationSmartContract.sol\":359:6275  contract Geologix is ERC20 {... */\n  jump(tag_9)\n    /* \"#utility.yul\":7:106   */\ntag_10:\n    /* \"#utility.yul\":59:65   */\n  0x00\n    /* \"#utility.yul\":93:98   */\n  dup2\n    /* \"#utility.yul\":87:99   */\n  mload\n    /* \"#utility.yul\":77:99   */\n  swap1\n  pop\n    /* \"#utility.yul\":7:106   */\n  swap2\n  swap1\n  pop\n  jump\t// out\n    /* \"#utility.yul\":112:292   */\ntag_11:\n    /* \"#utility.yul\":160:237   */\n  0x4e487b7100000000000000000000000000000000000000000000000000000000\n    /* \"#utility.yul\":157:158   */\n  0x00\n    /* \"#utility.yul\":150:238   */\n  mstore\n    /* \"#utility.yul\":257:261   */\n  0x41\n    /* \"#utility.yul\":254:255   */\n  0x04\n    /* \"#utility.yul\":247:262   */\n  mstore\n    /* \"#utility.yul\":281:285   */\n  0x24\n    /* \"#utility.yul\":278:279   */\n  0x00\n    /* \"#utility.yul\":271:286   */\n  revert\n    /* \"#utility.yul\":298:478   */\ntag_12:\n    /* \"#utility.yul\":346:423   */\n  0x4e487b7100000000000000000000000000000000000000000000000000000000\n    /* \"#utility.yul\":343:344   */\n  0x00\n    /* \"#utility.yul\":336:424   */\n  mstore\n    /* \"#utility.yul\":443:447   */\n  0x22\n    /* \"#utility.yul\":440:441   */\n  0x04\n    /* \"#utility.yul\":433:448   */\n  mstore\n    /* \"#utility.yul\":467:471   */\n  0x24\n    /* \"#utility.yul\":464:465   */\n  0x00\n    /* \"#utility.yul\":457:472   */\n  revert\n    /* \"#utility.yul\":484:804   */\ntag_13:\n    /* \"#utility.yul\":528:534   */\n  0x00\n    /* \"#utility.yul\":565:566   */\n  0x02\n    /* \"#utility.yul\":559:563   */\n  dup3\n    /* \"#utility.yul\":555:567   */\n  div\n    /* \"#utility.yul\":545:567   */\n  swap1\n  pop\n    /* \"#utility.yul\":612:613   */\n  0x01\n    /* \"#utility.yul\":606:610   */\n  dup3\n    /* \"#utility.yul\":602:614   */\n  and\n    /* \"#utility.yul\":633:651   */\n  dup1\n    /* \"#utility.yul\":623:704   */\n  tag_35\n  jumpi\n    /* \"#utility.yul\":689:693   */\n  0x7f\n    /* \"#utility.yul\":681:687   */\n  dup3\n    /* \"#utility.yul\":677:694   */\n  and\n    /* \"#utility.yul\":667:694   */\n  swap2\n  pop\n    /* \"#utility.yul\":623:704   */\ntag_35:\n    /* \"#utility.yul\":751:753   */\n  0x20\n    /* \"#utility.yul\":743:749   */\n  dup3\n    /* \"#utility.yul\":740:754   */\n  lt\n    /* \"#utility.yul\":720:738   */\n  dup2\n    /* \"#utility.yul\":717:755   */\n  sub\n    /* \"#utility.yul\":714:798   */\n  tag_36\n  jumpi\n    /* \"#utility.yul\":770:788   */\n  tag_37\n  tag_12\n  jump\t// in\ntag_37:\n    /* \"#utility.yul\":714:798   */\ntag_36:\n    /* \"#utility.yul\":535:804   */\n  pop\n    /* \"#utility.yul\":484:804   */\n  swap2\n  swap1\n  pop\n  jump\t// out\n    /* \"#utility.yul\":810:951   */\ntag_14:\n    /* \"#utility.yul\":859:863   */\n  0x00\n    /* \"#utility.yul\":882:885   */\n  dup2\n    /* \"#utility.yul\":874:885   */\n  swap1\n  pop\n    /* \"#utility.yul\":905:908   */\n  dup2\n    /* \"#utility.yul\":902:903   */\n  0x00\n    /* \"#utility.yul\":895:909   */\n  mstore\n    /* \"#utility.yul\":939:943   */\n  0x20\n    /* \"#utility.yul\":936:937   */\n  0x00\n    /* \"#utility.yul\":926:944   */\n  keccak256\n    /* \"#utility.yul\":918:944   */\n  swap1\n  pop\n    /* \"#utility.yul\":810:951   */\n  swap2\n  swap1\n  pop\n  jump\t// out\n    /* \"#utility.yul\":957:1050   */\ntag_15:\n    /* \"#utility.yul\":994:1000   */\n  0x00\n    /* \"#utility.yul\":1041:1043   */\n  0x20\n    /* \"#utility.yul\":1036:1038   */\n  0x1f\n    /* \"#utility.yul\":1029:1034   */\n  dup4\n    /* \"#utility.yul\":1025:1039   */\n  add\n    /* \"#utility.yul\":1021:1044   */\n  div\n    /* \"#utility.yul\":1011:1044   */\n  swap1\n  pop\n    /* \"#utility.yul\":957:1050   */\n  swap2\n  swap1\n  pop\n  jump\t// out\n    /* \"#utility.yul\":1056:1163   */\ntag_16:\n    /* \"#utility.yul\":1100:1108   */\n  0x00\n    /* \"#utility.yul\":1150:1155   */\n  dup3\n    /* \"#utility.yul\":1144:1148   */\n  dup3\n    /* \"#utility.yul\":1140:1156   */\n  shl\n    /* \"#utility.yul\":1119:1156   */\n  swap1\n  pop\n    /* \"#utility.yul\":1056:1163   */\n  swap3\n  swap2\n  pop\n  pop\n  jump\t// out\n    /* \"#utility.yul\":1169:1562   */\ntag_17:\n    /* \"#utility.yul\":1238:1244   */\n  0x00\n    /* \"#utility.yul\":1288:1289   */\n  0x08\n    /* \"#utility.yul\":1276:1286   */\n  dup4\n    /* \"#utility.yul\":1272:1290   */\n  mul\n    /* \"#utility.yul\":1311:1408   */\n  tag_42\n    /* \"#utility.yul\":1341:1407   */\n  0xffffffffffffffffffffffffffffffffffffffffffffffffffffffffffffffff\n    /* \"#utility.yul\":1330:1339   */\n  dup3\n    /* \"#utility.yul\":1311:1408   */\n  tag_16\n  jump\t// in\ntag_42:\n    /* \"#utility.yul\":1429:1468   */\n  tag_43\n    /* \"#utility.yul\":1459:1467   */\n  dup7\n    /* \"#utility.yul\":1448:1457   */\n  dup4\n    /* \"#utility.yul\":1429:1468   */\n  tag_16\n  jump\t// in\ntag_43:\n    /* \"#utility.yul\":1417:1468   */\n  swap6\n  pop\n    /* \"#utility.yul\":1501:1505   */\n  dup1\n    /* \"#utility.yul\":1497:1506   */\n  not\n    /* \"#utility.yul\":1490:1495   */\n  dup5\n    /* \"#utility.yul\":1486:1507   */\n  and\n    /* \"#utility.yul\":1477:1507   */\n  swap4\n  pop\n    /* \"#utility.yul\":1550:1554   */\n  dup1\n    /* \"#utility.yul\":1540:1548   */\n  dup7\n    /* \"#utility.yul\":1536:1555   */\n  and\n    /* \"#utility.yul\":1529:1534   */\n  dup5\n    /* \"#utility.yul\":1526:1556   */\n  or\n    /* \"#utility.yul\":1516:1556   */\n  swap3\n  pop\n    /* \"#utility.yul\":1245:1562   */\n  pop\n  pop\n    /* \"#utility.yul\":1169:1562   */\n  swap4\n  swap3\n  pop\n  pop\n  pop\n  jump\t// out\n    /* \"#utility.yul\":1568:1645   */\ntag_18:\n    /* \"#utility.yul\":1605:1612   */\n  0x00\n    /* \"#utility.yul\":1634:1639   */\n  dup2\n    /* \"#utility.yul\":1623:1639   */\n  swap1\n  pop\n    /* \"#utility.yul\":1568:1645   */\n  swap2\n  swap1\n  pop\n  jump\t// out\n    /* \"#utility.yul\":1651:1711   */\ntag_19:\n    /* \"#utility.yul\":1679:1682   */\n  0x00\n    /* \"#utility.yul\":1700:1705   */\n  dup2\n    /* \"#utility.yul\":1693:1705   */\n  swap1\n  pop\n    /* \"#utility.yul\":1651:1711   */\n  swap2\n  swap1\n  pop\n  jump\t// out\n    /* \"#utility.yul\":1717:1859   */\ntag_20:\n    /* \"#utility.yul\":1767:1776   */\n  0x00\n    /* \"#utility.yul\":1800:1853   */\n  tag_47\n    /* \"#utility.yul\":1818:1852   */\n  tag_48\n    /* \"#utility.yul\":1827:1851   */\n  tag_49\n    /* \"#utility.yul\":1845:1850   */\n  dup5\n    /* \"#utility.yul\":1827:1851   */\n  tag_18\n  jump\t// in\ntag_49:\n    /* \"#utility.yul\":1818:1852   */\n  tag_19\n  jump\t// in\ntag_48:\n    /* \"#utility.yul\":1800:1853   */\n  tag_18\n  jump\t// in\ntag_47:\n    /* \"#utility.yul\":1787:1853   */\n  swap1\n  pop\n    /* \"#utility.yul\":1717:1859   */\n  swap2\n  swap1\n  pop\n  jump\t// out\n    /* \"#utility.yul\":1865:1940   */\ntag_21:\n    /* \"#utility.yul\":1908:1911   */\n  0x00\n    /* \"#utility.yul\":1929:1934   */\n  dup2\n    /* \"#utility.yul\":1922:1934   */\n  swap1\n  pop\n    /* \"#utility.yul\":1865:1940   */\n  swap2\n  swap1\n  pop\n  jump\t// out\n    /* \"#utility.yul\":1946:2215   */\ntag_22:\n    /* \"#utility.yul\":2056:2095   */\n  tag_52\n    /* \"#utility.yul\":2087:2094   */\n  dup4\n    /* \"#utility.yul\":2056:2095   */\n  tag_20\n  jump\t// in\ntag_52:\n    /* \"#utility.yul\":2117:2208   */\n  tag_53\n    /* \"#utility.yul\":2166:2207   */\n  tag_54\n    /* \"#utility.yul\":2190:2206   */\n  dup3\n    /* \"#utility.yul\":2166:2207   */\n  tag_21\n  jump\t// in\ntag_54:\n    /* \"#utility.yul\":2158:2164   */\n  dup5\n    /* \"#utility.yul\":2151:2155   */\n  dup5\n    /* \"#utility.yul\":2145:2156   */\n  sload\n    /* \"#utility.yul\":2117:2208   */\n  tag_17\n  jump\t// in\ntag_53:\n    /* \"#utility.yul\":2111:2115   */\n  dup3\n    /* \"#utility.yul\":2104:2209   */\n  sstore\n    /* \"#utility.yul\":2022:2215   */\n  pop\n    /* \"#utility.yul\":1946:2215   */\n  pop\n  pop\n  pop\n  jump\t// out\n    /* \"#utility.yul\":2221:2294   */\ntag_23:\n    /* \"#utility.yul\":2266:2269   */\n  0x00\n    /* \"#utility.yul\":2221:2294   */\n  swap1\n  jump\t// out\n    /* \"#utility.yul\":2300:2489   */\ntag_24:\n    /* \"#utility.yul\":2377:2409   */\n  tag_57\n  tag_23\n  jump\t// in\ntag_57:\n    /* \"#utility.yul\":2418:2483   */\n  tag_58\n    /* \"#utility.yul\":2476:2482   */\n  dup2\n    /* \"#utility.yul\":2468:2474   */\n  dup5\n    /* \"#utility.yul\":2462:2466   */\n  dup5\n    /* \"#utility.yul\":2418:2483   */\n  tag_22\n  jump\t// in\ntag_58:\n    /* \"#utility.yul\":2353:2489   */\n  pop\n    /* \"#utility.yul\":2300:2489   */\n  pop\n  pop\n  jump\t// out\n    /* \"#utility.yul\":2495:2681   */\ntag_25:\n    /* \"#utility.yul\":2555:2675   */\ntag_60:\n    /* \"#utility.yul\":2572:2575   */\n  dup2\n    /* \"#utility.yul\":2565:2570   */\n  dup2\n    /* \"#utility.yul\":2562:2576   */\n  lt\n    /* \"#utility.yul\":2555:2675   */\n  iszero\n  tag_62\n  jumpi\n    /* \"#utility.yul\":2626:2665   */\n  tag_63\n    /* \"#utility.yul\":2663:2664   */\n  0x00\n    /* \"#utility.yul\":2656:2661   */\n  dup3\n    /* \"#utility.yul\":2626:2665   */\n  tag_24\n  jump\t// in\ntag_63:\n    /* \"#utility.yul\":2599:2600   */\n  0x01\n    /* \"#utility.yul\":2592:2597   */\n  dup2\n    /* \"#utility.yul\":2588:2601   */\n  add\n    /* \"#utility.yul\":2579:2601   */\n  swap1\n  pop\n    /* \"#utility.yul\":2555:2675   */\n  jump(tag_60)\ntag_62:\n    /* \"#utility.yul\":2495:2681   */\n  pop\n  pop\n  jump\t// out\n    /* \"#utility.yul\":2687:3230   */\ntag_26:\n    /* \"#utility.yul\":2788:2790   */\n  0x1f\n    /* \"#utility.yul\":2783:2786   */\n  dup3\n    /* \"#utility.yul\":2780:2791   */\n  gt\n    /* \"#utility.yul\":2777:3223   */\n  iszero\n  tag_65\n  jumpi\n    /* \"#utility.yul\":2822:2860   */\n  tag_66\n    /* \"#utility.yul\":2854:2859   */\n  dup2\n    /* \"#utility.yul\":2822:2860   */\n  tag_14\n  jump\t// in\ntag_66:\n    /* \"#utility.yul\":2906:2935   */\n  tag_67\n    /* \"#utility.yul\":2924:2934   */\n  dup5\n    /* \"#utility.yul\":2906:2935   */\n  tag_15\n  jump\t// in\ntag_67:\n    /* \"#utility.yul\":2896:2904   */\n  dup2\n    /* \"#utility.yul\":2892:2936   */\n  add\n    /* \"#utility.yul\":3089:3091   */\n  0x20\n    /* \"#utility.yul\":3077:3087   */\n  dup6\n    /* \"#utility.yul\":3074:3092   */\n  lt\n    /* \"#utility.yul\":3071:3120   */\n  iszero\n  tag_68\n  jumpi\n    /* \"#utility.yul\":3110:3118   */\n  dup2\n    /* \"#utility.yul\":3095:3118   */\n  swap1\n  pop\n    /* \"#utility.yul\":3071:3120   */\ntag_68:\n    /* \"#utility.yul\":3133:3213   */\n  tag_69\n    /* \"#utility.yul\":3189:3211   */\n  tag_70\n    /* \"#utility.yul\":3207:3210   */\n  dup6\n    /* \"#utility.yul\":3189:3211   */\n  tag_15\n  jump\t// in\ntag_70:\n    /* \"#utility.yul\":3179:3187   */\n  dup4\n    /* \"#utility.yul\":3175:3212   */\n  add\n    /* \"#utility.yul\":3162:3173   */\n  dup3\n    /* \"#utility.yul\":3133:3213   */\n  tag_25\n  jump\t// in\ntag_69:\n    /* \"#utility.yul\":2792:3223   */\n  pop\n  pop\n    /* \"#utility.yul\":2777:3223   */\ntag_65:\n    /* \"#utility.yul\":2687:3230   */\n  pop\n  pop\n  pop\n  jump\t// out\n    /* \"#utility.yul\":3236:3353   */\ntag_27:\n    /* \"#utility.yul\":3290:3298   */\n  0x00\n    /* \"#utility.yul\":3340:3345   */\n  dup3\n    /* \"#utility.yul\":3334:3338   */\n  dup3\n    /* \"#utility.yul\":3330:3346   */\n  shr\n    /* \"#utility.yul\":3309:3346   */\n  swap1\n  pop\n    /* \"#utility.yul\":3236:3353   */\n  swap3\n  swap2\n  pop\n  pop\n  jump\t// out\n    /* \"#utility.yul\":3359:3528   */\ntag_28:\n    /* \"#utility.yul\":3403:3409   */\n  0x00\n    /* \"#utility.yul\":3436:3487   */\n  tag_73\n    /* \"#utility.yul\":3484:3485   */\n  0x00\n    /* \"#utility.yul\":3480:3486   */\n  not\n    /* \"#utility.yul\":3472:3477   */\n  dup5\n    /* \"#utility.yul\":3469:3470   */\n  0x08\n    /* \"#utility.yul\":3465:3478   */\n  mul\n    /* \"#utility.yul\":3436:3487   */\n  tag_27\n  jump\t// in\ntag_73:\n    /* \"#utility.yul\":3432:3488   */\n  not\n    /* \"#utility.yul\":3517:3521   */\n  dup1\n    /* \"#utility.yul\":3511:3515   */\n  dup4\n    /* \"#utility.yul\":3507:3522   */\n  and\n    /* \"#utility.yul\":3497:3522   */\n  swap2\n  pop\n    /* \"#utility.yul\":3410:3528   */\n  pop\n    /* \"#utility.yul\":3359:3528   */\n  swap3\n  swap2\n  pop\n  pop\n  jump\t// out\n    /* \"#utility.yul\":3533:3828   */\ntag_29:\n    /* \"#utility.yul\":3609:3613   */\n  0x00\n    /* \"#utility.yul\":3755:3784   */\n  tag_75\n    /* \"#utility.yul\":3780:3783   */\n  dup4\n    /* \"#utility.yul\":3774:3778   */\n  dup4\n    /* \"#utility.yul\":3755:3784   */\n  tag_28\n  jump\t// in\ntag_75:\n    /* \"#utility.yul\":3747:3784   */\n  swap2\n  pop\n    /* \"#utility.yul\":3817:3820   */\n  dup3\n    /* \"#utility.yul\":3814:3815   */\n  0x02\n    /* \"#utility.yul\":3810:3821   */\n  mul\n    /* \"#utility.yul\":3804:3808   */\n  dup3\n    /* \"#utility.yul\":3801:3822   */\n  or\n    /* \"#utility.yul\":3793:3822   */\n  swap1\n  pop\n    /* \"#utility.yul\":3533:3828   */\n  swap3\n  swap2\n  pop\n  pop\n  jump\t// out\n    /* \"#utility.yul\":3833:5228   */\ntag_6:\n    /* \"#utility.yul\":3950:3987   */\n  tag_77\n    /* \"#utility.yul\":3983:3986   */\n  dup3\n    /* \"#utility.yul\":3950:3987   */\n  tag_10\n  jump\t// in\ntag_77:\n    /* \"#utility.yul\":4052:4070   */\n  0xffffffffffffffff\n    /* \"#utility.yul\":4044:4050   */\n  dup2\n    /* \"#utility.yul\":4041:4071   */\n  gt\n    /* \"#utility.yul\":4038:4094   */\n  iszero\n  tag_78\n  jumpi\n    /* \"#utility.yul\":4074:4092   */\n  tag_79\n  tag_11\n  jump\t// in\ntag_79:\n    /* \"#utility.yul\":4038:4094   */\ntag_78:\n    /* \"#utility.yul\":4118:4156   */\n  tag_80\n    /* \"#utility.yul\":4150:4154   */\n  dup3\n    /* \"#utility.yul\":4144:4155   */\n  sload\n    /* \"#utility.yul\":4118:4156   */\n  tag_13\n  jump\t// in\ntag_80:\n    /* \"#utility.yul\":4203:4270   */\n  tag_81\n    /* \"#utility.yul\":4263:4269   */\n  dup3\n    /* \"#utility.yul\":4255:4261   */\n  dup3\n    /* \"#utility.yul\":4249:4253   */\n  dup6\n    /* \"#utility.yul\":4203:4270   */\n  tag_26\n  jump\t// in\ntag_81:\n    /* \"#utility.yul\":4297:4298   */\n  0x00\n    /* \"#utility.yul\":4321:4325   */\n  0x20\n    /* \"#utility.yul\":4308:4325   */\n  swap1\n  pop\n    /* \"#utility.yul\":4353:4355   */\n  0x1f\n    /* \"#utility.yul\":4345:4351   */\n  dup4\n    /* \"#utility.yul\":4342:4356   */\n  gt\n    /* \"#utility.yul\":4370:4371   */\n  0x01\n    /* \"#utility.yul\":4365:4983   */\n  dup2\n  eq\n  tag_83\n  jumpi\n    /* \"#utility.yul\":5027:5028   */\n  0x00\n    /* \"#utility.yul\":5044:5050   */\n  dup5\n    /* \"#utility.yul\":5041:5118   */\n  iszero\n  tag_84\n  jumpi\n    /* \"#utility.yul\":5093:5102   */\n  dup3\n    /* \"#utility.yul\":5088:5091   */\n  dup8\n    /* \"#utility.yul\":5084:5103   */\n  add\n    /* \"#utility.yul\":5078:5104   */\n  mload\n    /* \"#utility.yul\":5069:5104   */\n  swap1\n  pop\n    /* \"#utility.yul\":5041:5118   */\ntag_84:\n    /* \"#utility.yul\":5144:5211   */\n  tag_85\n    /* \"#utility.yul\":5204:5210   */\n  dup6\n    /* \"#utility.yul\":5197:5202   */\n  dup3\n    /* \"#utility.yul\":5144:5211   */\n  tag_29\n  jump\t// in\ntag_85:\n    /* \"#utility.yul\":5138:5142   */\n  dup7\n    /* \"#utility.yul\":5131:5212   */\n  sstore\n    /* \"#utility.yul\":5000:5222   */\n  pop\n    /* \"#utility.yul\":4335:5222   */\n  jump(tag_82)\n    /* \"#utility.yul\":4365:4983   */\ntag_83:\n    /* \"#utility.yul\":4417:4421   */\n  0x1f\n    /* \"#utility.yul\":4413:4422   */\n  not\n    /* \"#utility.yul\":4405:4411   */\n  dup5\n    /* \"#utility.yul\":4401:4423   */\n  and\n    /* \"#utility.yul\":4451:4488   */\n  tag_86\n    /* \"#utility.yul\":4483:4487   */\n  dup7\n    /* \"#utility.yul\":4451:4488   */\n  tag_14\n  jump\t// in\ntag_86:\n    /* \"#utility.yul\":4510:4511   */\n  0x00\n    /* \"#utility.yul\":4524:4732   */\ntag_87:\n    /* \"#utility.yul\":4538:4545   */\n  dup3\n    /* \"#utility.yul\":4535:4536   */\n  dup2\n    /* \"#utility.yul\":4532:4546   */\n  lt\n    /* \"#utility.yul\":4524:4732   */\n  iszero\n  tag_89\n  jumpi\n    /* \"#utility.yul\":4617:4626   */\n  dup5\n    /* \"#utility.yul\":4612:4615   */\n  dup10\n    /* \"#utility.yul\":4608:4627   */\n  add\n    /* \"#utility.yul\":4602:4628   */\n  mload\n    /* \"#utility.yul\":4594:4600   */\n  dup3\n    /* \"#utility.yul\":4587:4629   */\n  sstore\n    /* \"#utility.yul\":4668:4669   */\n  0x01\n    /* \"#utility.yul\":4660:4666   */\n  dup3\n    /* \"#utility.yul\":4656:4670   */\n  add\n    /* \"#utility.yul\":4646:4670   */\n  swap2\n  pop\n    /* \"#utility.yul\":4715:4717   */\n  0x20\n    /* \"#utility.yul\":4704:4713   */\n  dup6\n    /* \"#utility.yul\":4700:4718   */\n  add\n    /* \"#utility.yul\":4687:4718   */\n  swap5\n  pop\n    /* \"#utility.yul\":4561:4565   */\n  0x20\n    /* \"#utility.yul\":4558:4559   */\n  dup2\n    /* \"#utility.yul\":4554:4566   */\n  add\n    /* \"#utility.yul\":4549:4566   */\n  swap1\n  pop\n    /* \"#utility.yul\":4524:4732   */\n  jump(tag_87)\ntag_89:\n    /* \"#utility.yul\":4760:4766   */\n  dup7\n    /* \"#utility.yul\":4751:4758   */\n  dup4\n    /* \"#utility.yul\":4748:4767   */\n  lt\n    /* \"#utility.yul\":4745:4924   */\n  iszero\n  tag_90\n  jumpi\n    /* \"#utility.yul\":4818:4827   */\n  dup5\n    /* \"#utility.yul\":4813:4816   */\n  dup10\n    /* \"#utility.yul\":4809:4828   */\n  add\n    /* \"#utility.yul\":4803:4829   */\n  mload\n    /* \"#utility.yul\":4861:4909   */\n  tag_91\n    /* \"#utility.yul\":4903:4907   */\n  0x1f\n    /* \"#utility.yul\":4895:4901   */\n  dup10\n    /* \"#utility.yul\":4891:4908   */\n  and\n    /* \"#utility.yul\":4880:4889   */\n  dup3\n    /* \"#utility.yul\":4861:4909   */\n  tag_28\n  jump\t// in\ntag_91:\n    /* \"#utility.yul\":4853:4859   */\n  dup4\n    /* \"#utility.yul\":4846:4910   */\n  sstore\n    /* \"#utility.yul\":4768:4924   */\n  pop\n    /* \"#utility.yul\":4745:4924   */\ntag_90:\n    /* \"#utility.yul\":4970:4971   */\n  0x01\n    /* \"#utility.yul\":4966:4967   */\n  0x02\n    /* \"#utility.yul\":4958:4964   */\n  dup9\n    /* \"#utility.yul\":4954:4968   */\n  mul\n    /* \"#utility.yul\":4950:4972   */\n  add\n    /* \"#utility.yul\":4944:4948   */\n  dup9\n    /* \"#utility.yul\":4937:4973   */\n  sstore\n    /* \"#utility.yul\":4372:4983   */\n  pop\n  pop\n  pop\n    /* \"#utility.yul\":4335:5222   */\ntag_82:\n  pop\n    /* \"#utility.yul\":3925:5228   */\n  pop\n  pop\n  pop\n    /* \"#utility.yul\":3833:5228   */\n  pop\n  pop\n  jump\t// out\n    /* \"contracts/locationSmartContract.sol\":359:6275  contract Geologix is ERC20 {... */\ntag_9:\n  dataSize(sub_0)\n  dup1\n  dataOffset(sub_0)\n  0x00\n  codecopy\n  0x00\n  return\nstop\n\nsub_0: assembly {\n        /* \"contracts/locationSmartContract.sol\":359:6275  contract Geologix is ERC20 {... */\n      mstore(0x40, 0x80)\n      callvalue\n      dup1\n      iszero\n      tag_1\n      jumpi\n      0x00\n      dup1\n      revert\n    tag_1:\n      pop\n      jumpi(tag_2, lt(calldatasize, 0x04))\n      shr(0xe0, calldataload(0x00))\n      dup1\n      0x8da5cb5b\n      gt\n      tag_25\n      jumpi\n      dup1\n      0xcd5d61db\n      gt\n      tag_26\n      jumpi\n      dup1\n      0xcd5d61db\n      eq\n      tag_19\n      jumpi\n      dup1\n      0xd0678947\n      eq\n      tag_20\n      jumpi\n      dup1\n      0xdd62ed3e\n      eq\n      tag_21\n      jumpi\n      dup1\n      0xdfecd44b\n      eq\n      tag_22\n      jumpi\n      dup1\n      0xfc694ec1\n      eq\n      tag_23\n      jumpi\n      dup1\n      0xff33999f\n      eq\n      tag_24\n      jumpi\n      jump(tag_2)\n    tag_26:\n      dup1\n      0x8da5cb5b\n      eq\n      tag_14\n      jumpi\n      dup1\n      0x95d89b41\n      eq\n      tag_15\n      jumpi\n      dup1\n      0x9f251f80\n      eq\n      tag_16\n      jumpi\n      dup1\n      0xa9059cbb\n      eq\n      tag_17\n      jumpi\n      dup1\n      0xc7012a98\n      eq\n      tag_18\n      jumpi\n      jump(tag_2)\n    tag_25:\n      dup1\n      0x23b872dd\n      gt\n      tag_27\n      jumpi\n      dup1\n      0x23b872dd\n      eq\n      tag_8\n      jumpi\n      dup1\n      0x313ce567\n      eq\n      tag_9\n      jumpi\n      dup1\n      0x35744745\n      eq\n      tag_10\n      jumpi\n      dup1\n      0x4643ea7d\n      eq\n      tag_11\n      jumpi\n      dup1\n      0x6ebc8c86\n      eq\n      tag_12\n      jumpi\n      dup1\n      0x70a08231\n      eq\n      tag_13\n      jumpi\n      jump(tag_2)\n    tag_27:\n      dup1\n      0x06fdde03\n      eq\n      tag_3\n      jumpi\n      dup1\n      0x07e7c336\n      eq\n      tag_4\n      jumpi\n      dup1\n      0x095ea7b3\n      eq\n      tag_5\n      jumpi\n      dup1\n      0x0be435bd\n      eq\n      tag_6\n      jumpi\n      dup1\n      0x18160ddd\n      eq\n      tag_7\n      jumpi\n    tag_2:\n      0x00\n      dup1\n      revert\n        /* \"https://github.com/OpenZeppelin/openzeppelin-contracts/blob/master/contracts/token/ERC20/ERC20.sol\":2075:2164  function name() public view virtual returns (string memory) {... */\n    tag_3:\n      tag_28\n      tag_29\n      jump\t// in\n    tag_28:\n      mload(0x40)\n      tag_30\n      swap2\n      swap1\n      tag_31\n      jump\t// in\n    tag_30:\n      mload(0x40)\n      dup1\n      swap2\n      sub\n      swap1\n      return\n        /* \"contracts/locationSmartContract.sol\":1553:1578  uint public Employercount */\n    tag_4:\n      tag_32\n      tag_33\n      jump\t// in\n    tag_32:\n      mload(0x40)\n      tag_34\n      swap2\n      swap1\n      tag_35\n      jump\t// in\n    tag_34:\n      mload(0x40)\n      dup1\n      swap2\n      sub\n      swap1\n      return\n        /* \"https://github.com/OpenZeppelin/openzeppelin-contracts/blob/master/contracts/token/ERC20/ERC20.sol\":4294:4480  function approve(address spender, uint256 value) public virtual returns (bool) {... */\n    tag_5:\n      tag_36\n      0x04\n      dup1\n      calldatasize\n      sub\n      dup2\n      add\n      swap1\n      tag_37\n      swap2\n      swap1\n      tag_38\n      jump\t// in\n    tag_37:\n      tag_39\n      jump\t// in\n    tag_36:\n      mload(0x40)\n      tag_40\n      swap2\n      swap1\n      tag_41\n      jump\t// in\n    tag_40:\n      mload(0x40)\n      dup1\n      swap2\n      sub\n      swap1\n      return\n        /* \"contracts/locationSmartContract.sol\":1502:1547  mapping(address => Employer) public employers */\n    tag_6:\n      tag_42\n      0x04\n      dup1\n      calldatasize\n      sub\n      dup2\n      add\n      swap1\n      tag_43\n      swap2\n      swap1\n      tag_44\n      jump\t// in\n    tag_43:\n      tag_45\n      jump\t// in\n    tag_42:\n      mload(0x40)\n      tag_46\n      swap4\n      swap3\n      swap2\n      swap1\n      tag_47\n      jump\t// in\n    tag_46:\n      mload(0x40)\n      dup1\n      swap2\n      sub\n      swap1\n      return\n        /* \"https://github.com/OpenZeppelin/openzeppelin-contracts/blob/master/contracts/token/ERC20/ERC20.sol\":3145:3242  function totalSupply() public view virtual returns (uint256) {... */\n    tag_7:\n      tag_48\n      tag_49\n      jump\t// in\n    tag_48:\n      mload(0x40)\n      tag_50\n      swap2\n      swap1\n      tag_35\n      jump\t// in\n    tag_50:\n      mload(0x40)\n      dup1\n      swap2\n      sub\n      swap1\n      return\n        /* \"https://github.com/OpenZeppelin/openzeppelin-contracts/blob/master/contracts/token/ERC20/ERC20.sol\":5040:5284  function transferFrom(address from, address to, uint256 value) public virtual returns (bool) {... */\n    tag_8:\n      tag_51\n      0x04\n      dup1\n      calldatasize\n      sub\n      dup2\n      add\n      swap1\n      tag_52\n      swap2\n      swap1\n      tag_53\n      jump\t// in\n    tag_52:\n      tag_54\n      jump\t// in\n    tag_51:\n      mload(0x40)\n      tag_55\n      swap2\n      swap1\n      tag_41\n      jump\t// in\n    tag_55:\n      mload(0x40)\n      dup1\n      swap2\n      sub\n      swap1\n      return\n        /* \"https://github.com/OpenZeppelin/openzeppelin-contracts/blob/master/contracts/token/ERC20/ERC20.sol\":3003:3085  function decimals() public view virtual returns (uint8) {... */\n    tag_9:\n      tag_56\n      tag_57\n      jump\t// in\n    tag_56:\n      mload(0x40)\n      tag_58\n      swap2\n      swap1\n      tag_59\n      jump\t// in\n    tag_58:\n      mload(0x40)\n      dup1\n      swap2\n      sub\n      swap1\n      return\n        /* \"contracts/locationSmartContract.sol\":1688:1874  function addEmployer (string memory _name , address user_address) public {... */\n    tag_10:\n      tag_60\n      0x04\n      dup1\n      calldatasize\n      sub\n      dup2\n      add\n      swap1\n      tag_61\n      swap2\n      swap1\n      tag_62\n      jump\t// in\n    tag_61:\n      tag_63\n      jump\t// in\n    tag_60:\n      stop\n        /* \"contracts/locationSmartContract.sol\":1470:1495  uint public Employeecount */\n    tag_11:\n      tag_64\n      tag_65\n      jump\t// in\n    tag_64:\n      mload(0x40)\n      tag_66\n      swap2\n      swap1\n      tag_35\n      jump\t// in\n    tag_66:\n      mload(0x40)\n      dup1\n      swap2\n      sub\n      swap1\n      return\n        /* \"contracts/locationSmartContract.sol\":2072:2451  function getContract(uint _contractId) public view returns (uint contractId, uint complianceCount, uint nonComplianceCount, DeviceState deviceState) {... */\n    tag_12:\n      tag_67\n      0x04\n      dup1\n      calldatasize\n      sub\n      dup2\n      add\n      swap1\n      tag_68\n      swap2\n      swap1\n      tag_69\n      jump\t// in\n    tag_68:\n      tag_70\n      jump\t// in\n    tag_67:\n      mload(0x40)\n      tag_71\n      swap5\n      swap4\n      swap3\n      swap2\n      swap1\n      tag_72\n      jump\t// in\n    tag_71:\n      mload(0x40)\n      dup1\n      swap2\n      sub\n      swap1\n      return\n        /* \"https://github.com/OpenZeppelin/openzeppelin-contracts/blob/master/contracts/token/ERC20/ERC20.sol\":3300:3416  function balanceOf(address account) public view virtual returns (uint256) {... */\n    tag_13:\n      tag_73\n      0x04\n      dup1\n      calldatasize\n      sub\n      dup2\n      add\n      swap1\n      tag_74\n      swap2\n      swap1\n      tag_44\n      jump\t// in\n    tag_74:\n      tag_75\n      jump\t// in\n    tag_73:\n      mload(0x40)\n      tag_76\n      swap2\n      swap1\n      tag_35\n      jump\t// in\n    tag_76:\n      mload(0x40)\n      dup1\n      swap2\n      sub\n      swap1\n      return\n        /* \"contracts/locationSmartContract.sol\":393:413  address public owner */\n    tag_14:\n      tag_77\n      tag_78\n      jump\t// in\n    tag_77:\n      mload(0x40)\n      tag_79\n      swap2\n      swap1\n      tag_80\n      jump\t// in\n    tag_79:\n      mload(0x40)\n      dup1\n      swap2\n      sub\n      swap1\n      return\n        /* \"https://github.com/OpenZeppelin/openzeppelin-contracts/blob/master/contracts/token/ERC20/ERC20.sol\":2277:2370  function symbol() public view virtual returns (string memory) {... */\n    tag_15:\n      tag_81\n      tag_82\n      jump\t// in\n    tag_81:\n      mload(0x40)\n      tag_83\n      swap2\n      swap1\n      tag_31\n      jump\t// in\n    tag_83:\n      mload(0x40)\n      dup1\n      swap2\n      sub\n      swap1\n      return\n        /* \"contracts/locationSmartContract.sol\":1880:2066  function addEmployee (string memory _name , address user_address) public {... */\n    tag_16:\n      tag_84\n      0x04\n      dup1\n      calldatasize\n      sub\n      dup2\n      add\n      swap1\n      tag_85\n      swap2\n      swap1\n      tag_62\n      jump\t// in\n    tag_85:\n      tag_86\n      jump\t// in\n    tag_84:\n      stop\n        /* \"https://github.com/OpenZeppelin/openzeppelin-contracts/blob/master/contracts/token/ERC20/ERC20.sol\":3611:3789  function transfer(address to, uint256 value) public virtual returns (bool) {... */\n    tag_17:\n      tag_87\n      0x04\n      dup1\n      calldatasize\n      sub\n      dup2\n      add\n      swap1\n      tag_88\n      swap2\n      swap1\n      tag_38\n      jump\t// in\n    tag_88:\n      tag_89\n      jump\t// in\n    tag_87:\n      mload(0x40)\n      tag_90\n      swap2\n      swap1\n      tag_41\n      jump\t// in\n    tag_90:\n      mload(0x40)\n      dup1\n      swap2\n      sub\n      swap1\n      return\n        /* \"contracts/locationSmartContract.sol\":3267:3462  function payEmployee(uint contractId) public {... */\n    tag_18:\n      tag_91\n      0x04\n      dup1\n      calldatasize\n      sub\n      dup2\n      add\n      swap1\n      tag_92\n      swap2\n      swap1\n      tag_69\n      jump\t// in\n    tag_92:\n      tag_93\n      jump\t// in\n    tag_91:\n      stop\n        /* \"contracts/locationSmartContract.sol\":3474:4929  function updateEmployeeStatus(uint256 _latitude, uint256 _longitude, uint contractId, uint currentTime) public {... */\n    tag_19:\n      tag_94\n      0x04\n      dup1\n      calldatasize\n      sub\n      dup2\n      add\n      swap1\n      tag_95\n      swap2\n      swap1\n      tag_96\n      jump\t// in\n    tag_95:\n      tag_97\n      jump\t// in\n    tag_94:\n      stop\n        /* \"contracts/locationSmartContract.sol\":1419:1464  mapping(address => Employee) public employees */\n    tag_20:\n      tag_98\n      0x04\n      dup1\n      calldatasize\n      sub\n      dup2\n      add\n      swap1\n      tag_99\n      swap2\n      swap1\n      tag_44\n      jump\t// in\n    tag_99:\n      tag_100\n      jump\t// in\n    tag_98:\n      mload(0x40)\n      tag_101\n      swap4\n      swap3\n      swap2\n      swap1\n      tag_47\n      jump\t// in\n    tag_101:\n      mload(0x40)\n      dup1\n      swap2\n      sub\n      swap1\n      return\n        /* \"https://github.com/OpenZeppelin/openzeppelin-contracts/blob/master/contracts/token/ERC20/ERC20.sol\":3847:3987  function allowance(address owner, address spender) public view virtual returns (uint256) {... */\n    tag_21:\n      tag_102\n      0x04\n      dup1\n      calldatasize\n      sub\n      dup2\n      add\n      swap1\n      tag_103\n      swap2\n      swap1\n      tag_104\n      jump\t// in\n    tag_103:\n      tag_105\n      jump\t// in\n    tag_102:\n      mload(0x40)\n      tag_106\n      swap2\n      swap1\n      tag_35\n      jump\t// in\n    tag_106:\n      mload(0x40)\n      dup1\n      swap2\n      sub\n      swap1\n      return\n        /* \"contracts/locationSmartContract.sol\":1654:1679  uint public ContractCount */\n    tag_22:\n      tag_107\n      tag_108\n      jump\t// in\n    tag_107:\n      mload(0x40)\n      tag_109\n      swap2\n      swap1\n      tag_35\n      jump\t// in\n    tag_109:\n      mload(0x40)\n      dup1\n      swap2\n      sub\n      swap1\n      return\n        /* \"contracts/locationSmartContract.sol\":1586:1648  mapping(uint => GeologixPaymentContract) public smartContracts */\n    tag_23:\n      tag_110\n      0x04\n      dup1\n      calldatasize\n      sub\n      dup2\n      add\n      swap1\n      tag_111\n      swap2\n      swap1\n      tag_69\n      jump\t// in\n    tag_111:\n      tag_112\n      jump\t// in\n    tag_110:\n      mload(0x40)\n      tag_113\n      swap13\n      swap12\n      swap11\n      swap10\n      swap9\n      swap8\n      swap7\n      swap6\n      swap5\n      swap4\n      swap3\n      swap2\n      swap1\n      tag_114\n      jump\t// in\n    tag_113:\n      mload(0x40)\n      dup1\n      swap2\n      sub\n      swap1\n      return\n        /* \"contracts/locationSmartContract.sol\":2458:3261  function createSmartContract (... */\n    tag_24:\n      tag_115\n      0x04\n      dup1\n      calldatasize\n      sub\n      dup2\n      add\n      swap1\n      tag_116\n      swap2\n      swap1\n      tag_117\n      jump\t// in\n    tag_116:\n      tag_118\n      jump\t// in\n    tag_115:\n      stop\n        /* \"https://github.com/OpenZeppelin/openzeppelin-contracts/blob/master/contracts/token/ERC20/ERC20.sol\":2075:2164  function name() public view virtual returns (string memory) {... */\n    tag_29:\n        /* \"https://github.com/OpenZeppelin/openzeppelin-contracts/blob/master/contracts/token/ERC20/ERC20.sol\":2120:2133  string memory */\n      0x60\n        /* \"https://github.com/OpenZeppelin/openzeppelin-contracts/blob/master/contracts/token/ERC20/ERC20.sol\":2152:2157  _name */\n      0x03\n        /* \"https://github.com/OpenZeppelin/openzeppelin-contracts/blob/master/contracts/token/ERC20/ERC20.sol\":2145:2157  return _name */\n      dup1\n      sload\n      tag_120\n      swap1\n      tag_121\n      jump\t// in\n    tag_120:\n      dup1\n      0x1f\n      add\n      0x20\n      dup1\n      swap2\n      div\n      mul\n      0x20\n      add\n      mload(0x40)\n      swap1\n      dup2\n      add\n      0x40\n      mstore\n      dup1\n      swap3\n      swap2\n      swap1\n      dup2\n      dup2\n      mstore\n      0x20\n      add\n      dup3\n      dup1\n      sload\n      tag_122\n      swap1\n      tag_121\n      jump\t// in\n    tag_122:\n      dup1\n      iszero\n      tag_123\n      jumpi\n      dup1\n      0x1f\n      lt\n      tag_124\n      jumpi\n      0x0100\n      dup1\n      dup4\n      sload\n      div\n      mul\n      dup4\n      mstore\n      swap2\n      0x20\n      add\n      swap2\n      jump(tag_123)\n    tag_124:\n      dup3\n      add\n      swap2\n      swap1\n      0x00\n      mstore\n      keccak256(0x00, 0x20)\n      swap1\n    tag_125:\n      dup2\n      sload\n      dup2\n      mstore\n      swap1\n      0x01\n      add\n      swap1\n      0x20\n      add\n      dup1\n      dup4\n      gt\n      tag_125\n      jumpi\n      dup3\n      swap1\n      sub\n      0x1f\n      and\n      dup3\n      add\n      swap2\n    tag_123:\n      pop\n      pop\n      pop\n      pop\n      pop\n      swap1\n      pop\n        /* \"https://github.com/OpenZeppelin/openzeppelin-contracts/blob/master/contracts/token/ERC20/ERC20.sol\":2075:2164  function name() public view virtual returns (string memory) {... */\n      swap1\n      jump\t// out\n        /* \"contracts/locationSmartContract.sol\":1553:1578  uint public Employercount */\n    tag_33:\n      sload(0x09)\n      dup2\n      jump\t// out\n        /* \"https://github.com/OpenZeppelin/openzeppelin-contracts/blob/master/contracts/token/ERC20/ERC20.sol\":4294:4480  function approve(address spender, uint256 value) public virtual returns (bool) {... */\n    tag_39:\n        /* \"https://github.com/OpenZeppelin/openzeppelin-contracts/blob/master/contracts/token/ERC20/ERC20.sol\":4367:4371  bool */\n      0x00\n        /* \"https://github.com/OpenZeppelin/openzeppelin-contracts/blob/master/contracts/token/ERC20/ERC20.sol\":4383:4396  address owner */\n      dup1\n        /* \"https://github.com/OpenZeppelin/openzeppelin-contracts/blob/master/contracts/token/ERC20/ERC20.sol\":4399:4411  _msgSender() */\n      tag_127\n        /* \"https://github.com/OpenZeppelin/openzeppelin-contracts/blob/master/contracts/token/ERC20/ERC20.sol\":4399:4409  _msgSender */\n      tag_128\n        /* \"https://github.com/OpenZeppelin/openzeppelin-contracts/blob/master/contracts/token/ERC20/ERC20.sol\":4399:4411  _msgSender() */\n      jump\t// in\n    tag_127:\n        /* \"https://github.com/OpenZeppelin/openzeppelin-contracts/blob/master/contracts/token/ERC20/ERC20.sol\":4383:4411  address owner = _msgSender() */\n      swap1\n      pop\n        /* \"https://github.com/OpenZeppelin/openzeppelin-contracts/blob/master/contracts/token/ERC20/ERC20.sol\":4421:4452  _approve(owner, spender, value) */\n      tag_129\n        /* \"https://github.com/OpenZeppelin/openzeppelin-contracts/blob/master/contracts/token/ERC20/ERC20.sol\":4430:4435  owner */\n      dup2\n        /* \"https://github.com/OpenZeppelin/openzeppelin-contracts/blob/master/contracts/token/ERC20/ERC20.sol\":4437:4444  spender */\n      dup6\n        /* \"https://github.com/OpenZeppelin/openzeppelin-contracts/blob/master/contracts/token/ERC20/ERC20.sol\":4446:4451  value */\n      dup6\n        /* \"https://github.com/OpenZeppelin/openzeppelin-contracts/blob/master/contracts/token/ERC20/ERC20.sol\":4421:4429  _approve */\n      tag_130\n        /* \"https://github.com/OpenZeppelin/openzeppelin-contracts/blob/master/contracts/token/ERC20/ERC20.sol\":4421:4452  _approve(owner, spender, value) */\n      jump\t// in\n    tag_129:\n        /* \"https://github.com/OpenZeppelin/openzeppelin-contracts/blob/master/contracts/token/ERC20/ERC20.sol\":4469:4473  true */\n      0x01\n        /* \"https://github.com/OpenZeppelin/openzeppelin-contracts/blob/master/contracts/token/ERC20/ERC20.sol\":4462:4473  return true */\n      swap2\n      pop\n      pop\n        /* \"https://github.com/OpenZeppelin/openzeppelin-contracts/blob/master/contracts/token/ERC20/ERC20.sol\":4294:4480  function approve(address spender, uint256 value) public virtual returns (bool) {... */\n      swap3\n      swap2\n      pop\n      pop\n      jump\t// out\n        /* \"contracts/locationSmartContract.sol\":1502:1547  mapping(address => Employer) public employers */\n    tag_45:\n      mstore(0x20, 0x08)\n      dup1\n      0x00\n      mstore\n      keccak256(0x00, 0x40)\n      0x00\n      swap2\n      pop\n      swap1\n      pop\n      dup1\n      0x00\n      add\n      sload\n      swap1\n      dup1\n      0x01\n      add\n      dup1\n      sload\n      tag_131\n      swap1\n      tag_121\n      jump\t// in\n    tag_131:\n      dup1\n      0x1f\n      add\n      0x20\n      dup1\n      swap2\n      div\n      mul\n      0x20\n      add\n      mload(0x40)\n      swap1\n      dup2\n      add\n      0x40\n      mstore\n      dup1\n      swap3\n      swap2\n      swap1\n      dup2\n      dup2\n      mstore\n      0x20\n      add\n      dup3\n      dup1\n      sload\n      tag_132\n      swap1\n      tag_121\n      jump\t// in\n    tag_132:\n      dup1\n      iszero\n      tag_133\n      jumpi\n      dup1\n      0x1f\n      lt\n      tag_134\n      jumpi\n      0x0100\n      dup1\n      dup4\n      sload\n      div\n      mul\n      dup4\n      mstore\n      swap2\n      0x20\n      add\n      swap2\n      jump(tag_133)\n    tag_134:\n      dup3\n      add\n      swap2\n      swap1\n      0x00\n      mstore\n      keccak256(0x00, 0x20)\n      swap1\n    tag_135:\n      dup2\n      sload\n      dup2\n      mstore\n      swap1\n      0x01\n      add\n      swap1\n      0x20\n      add\n      dup1\n      dup4\n      gt\n      tag_135\n      jumpi\n      dup3\n      swap1\n      sub\n      0x1f\n      and\n      dup3\n      add\n      swap2\n    tag_133:\n      pop\n      pop\n      pop\n      pop\n      pop\n      swap1\n      dup1\n      0x02\n      add\n      0x00\n      swap1\n      sload\n      swap1\n      0x0100\n      exp\n      swap1\n      div\n      0xffffffffffffffffffffffffffffffffffffffff\n      and\n      swap1\n      pop\n      dup4\n      jump\t// out\n        /* \"https://github.com/OpenZeppelin/openzeppelin-contracts/blob/master/contracts/token/ERC20/ERC20.sol\":3145:3242  function totalSupply() public view virtual returns (uint256) {... */\n    tag_49:\n        /* \"https://github.com/OpenZeppelin/openzeppelin-contracts/blob/master/contracts/token/ERC20/ERC20.sol\":3197:3204  uint256 */\n      0x00\n        /* \"https://github.com/OpenZeppelin/openzeppelin-contracts/blob/master/contracts/token/ERC20/ERC20.sol\":3223:3235  _totalSupply */\n      sload(0x02)\n        /* \"https://github.com/OpenZeppelin/openzeppelin-contracts/blob/master/contracts/token/ERC20/ERC20.sol\":3216:3235  return _totalSupply */\n      swap1\n      pop\n        /* \"https://github.com/OpenZeppelin/openzeppelin-contracts/blob/master/contracts/token/ERC20/ERC20.sol\":3145:3242  function totalSupply() public view virtual returns (uint256) {... */\n      swap1\n      jump\t// out\n        /* \"https://github.com/OpenZeppelin/openzeppelin-contracts/blob/master/contracts/token/ERC20/ERC20.sol\":5040:5284  function transferFrom(address from, address to, uint256 value) public virtual returns (bool) {... */\n    tag_54:\n        /* \"https://github.com/OpenZeppelin/openzeppelin-contracts/blob/master/contracts/token/ERC20/ERC20.sol\":5127:5131  bool */\n      0x00\n        /* \"https://github.com/OpenZeppelin/openzeppelin-contracts/blob/master/contracts/token/ERC20/ERC20.sol\":5143:5158  address spender */\n      dup1\n        /* \"https://github.com/OpenZeppelin/openzeppelin-contracts/blob/master/contracts/token/ERC20/ERC20.sol\":5161:5173  _msgSender() */\n      tag_138\n        /* \"https://github.com/OpenZeppelin/openzeppelin-contracts/blob/master/contracts/token/ERC20/ERC20.sol\":5161:5171  _msgSender */\n      tag_128\n        /* \"https://github.com/OpenZeppelin/openzeppelin-contracts/blob/master/contracts/token/ERC20/ERC20.sol\":5161:5173  _msgSender() */\n      jump\t// in\n    tag_138:\n        /* \"https://github.com/OpenZeppelin/openzeppelin-contracts/blob/master/contracts/token/ERC20/ERC20.sol\":5143:5173  address spender = _msgSender() */\n      swap1\n      pop\n        /* \"https://github.com/OpenZeppelin/openzeppelin-contracts/blob/master/contracts/token/ERC20/ERC20.sol\":5183:5220  _spendAllowance(from, spender, value) */\n      tag_139\n        /* \"https://github.com/OpenZeppelin/openzeppelin-contracts/blob/master/contracts/token/ERC20/ERC20.sol\":5199:5203  from */\n      dup6\n        /* \"https://github.com/OpenZeppelin/openzeppelin-contracts/blob/master/contracts/token/ERC20/ERC20.sol\":5205:5212  spender */\n      dup3\n        /* \"https://github.com/OpenZeppelin/openzeppelin-contracts/blob/master/contracts/token/ERC20/ERC20.sol\":5214:5219  value */\n      dup6\n        /* \"https://github.com/OpenZeppelin/openzeppelin-contracts/blob/master/contracts/token/ERC20/ERC20.sol\":5183:5198  _spendAllowance */\n      tag_140\n        /* \"https://github.com/OpenZeppelin/openzeppelin-contracts/blob/master/contracts/token/ERC20/ERC20.sol\":5183:5220  _spendAllowance(from, spender, value) */\n      jump\t// in\n    tag_139:\n        /* \"https://github.com/OpenZeppelin/openzeppelin-contracts/blob/master/contracts/token/ERC20/ERC20.sol\":5230:5256  _transfer(from, to, value) */\n      tag_141\n        /* \"https://github.com/OpenZeppelin/openzeppelin-contracts/blob/master/contracts/token/ERC20/ERC20.sol\":5240:5244  from */\n      dup6\n        /* \"https://github.com/OpenZeppelin/openzeppelin-contracts/blob/master/contracts/token/ERC20/ERC20.sol\":5246:5248  to */\n      dup6\n        /* \"https://github.com/OpenZeppelin/openzeppelin-contracts/blob/master/contracts/token/ERC20/ERC20.sol\":5250:5255  value */\n      dup6\n        /* \"https://github.com/OpenZeppelin/openzeppelin-contracts/blob/master/contracts/token/ERC20/ERC20.sol\":5230:5239  _transfer */\n      tag_142\n        /* \"https://github.com/OpenZeppelin/openzeppelin-contracts/blob/master/contracts/token/ERC20/ERC20.sol\":5230:5256  _transfer(from, to, value) */\n      jump\t// in\n    tag_141:\n        /* \"https://github.com/OpenZeppelin/openzeppelin-contracts/blob/master/contracts/token/ERC20/ERC20.sol\":5273:5277  true */\n      0x01\n        /* \"https://github.com/OpenZeppelin/openzeppelin-contracts/blob/master/contracts/token/ERC20/ERC20.sol\":5266:5277  return true */\n      swap2\n      pop\n      pop\n        /* \"https://github.com/OpenZeppelin/openzeppelin-contracts/blob/master/contracts/token/ERC20/ERC20.sol\":5040:5284  function transferFrom(address from, address to, uint256 value) public virtual returns (bool) {... */\n      swap4\n      swap3\n      pop\n      pop\n      pop\n      jump\t// out\n        /* \"https://github.com/OpenZeppelin/openzeppelin-contracts/blob/master/contracts/token/ERC20/ERC20.sol\":3003:3085  function decimals() public view virtual returns (uint8) {... */\n    tag_57:\n        /* \"https://github.com/OpenZeppelin/openzeppelin-contracts/blob/master/contracts/token/ERC20/ERC20.sol\":3052:3057  uint8 */\n      0x00\n        /* \"https://github.com/OpenZeppelin/openzeppelin-contracts/blob/master/contracts/token/ERC20/ERC20.sol\":3076:3078  18 */\n      0x12\n        /* \"https://github.com/OpenZeppelin/openzeppelin-contracts/blob/master/contracts/token/ERC20/ERC20.sol\":3069:3078  return 18 */\n      swap1\n      pop\n        /* \"https://github.com/OpenZeppelin/openzeppelin-contracts/blob/master/contracts/token/ERC20/ERC20.sol\":3003:3085  function decimals() public view virtual returns (uint8) {... */\n      swap1\n      jump\t// out\n        /* \"contracts/locationSmartContract.sol\":1688:1874  function addEmployer (string memory _name , address user_address) public {... */\n    tag_63:\n        /* \"contracts/locationSmartContract.sol\":1771:1784  Employercount */\n      0x09\n      0x00\n        /* \"contracts/locationSmartContract.sol\":1771:1787  Employercount ++ */\n      dup2\n      sload\n      dup1\n      swap3\n      swap2\n      swap1\n      tag_145\n      swap1\n      tag_146\n      jump\t// in\n    tag_145:\n      swap2\n      swap1\n      pop\n      sstore\n      pop\n        /* \"contracts/locationSmartContract.sol\":1823:1867  Employer(Employercount, _name, user_address) */\n      mload(0x40)\n      dup1\n      0x60\n      add\n      0x40\n      mstore\n      dup1\n        /* \"contracts/locationSmartContract.sol\":1832:1845  Employercount */\n      sload(0x09)\n        /* \"contracts/locationSmartContract.sol\":1823:1867  Employer(Employercount, _name, user_address) */\n      dup2\n      mstore\n      0x20\n      add\n        /* \"contracts/locationSmartContract.sol\":1847:1852  _name */\n      dup4\n        /* \"contracts/locationSmartContract.sol\":1823:1867  Employer(Employercount, _name, user_address) */\n      dup2\n      mstore\n      0x20\n      add\n        /* \"contracts/locationSmartContract.sol\":1854:1866  user_address */\n      dup3\n        /* \"contracts/locationSmartContract.sol\":1823:1867  Employer(Employercount, _name, user_address) */\n      0xffffffffffffffffffffffffffffffffffffffff\n      and\n      dup2\n      mstore\n      pop\n        /* \"contracts/locationSmartContract.sol\":1797:1806  employers */\n      0x08\n        /* \"contracts/locationSmartContract.sol\":1797:1820  employers[user_address] */\n      0x00\n        /* \"contracts/locationSmartContract.sol\":1807:1819  user_address */\n      dup4\n        /* \"contracts/locationSmartContract.sol\":1797:1820  employers[user_address] */\n      0xffffffffffffffffffffffffffffffffffffffff\n      and\n      0xffffffffffffffffffffffffffffffffffffffff\n      and\n      dup2\n      mstore\n      0x20\n      add\n      swap1\n      dup2\n      mstore\n      0x20\n      add\n      0x00\n      keccak256\n        /* \"contracts/locationSmartContract.sol\":1797:1867  employers[user_address] = Employer(Employercount, _name, user_address) */\n      0x00\n      dup3\n      add\n      mload\n      dup2\n      0x00\n      add\n      sstore\n      0x20\n      dup3\n      add\n      mload\n      dup2\n      0x01\n      add\n      swap1\n      dup2\n      tag_147\n      swap2\n      swap1\n      tag_148\n      jump\t// in\n    tag_147:\n      pop\n      0x40\n      dup3\n      add\n      mload\n      dup2\n      0x02\n      add\n      exp(0x0100, 0x00)\n      dup2\n      sload\n      dup2\n      0xffffffffffffffffffffffffffffffffffffffff\n      mul\n      not\n      and\n      swap1\n      dup4\n      0xffffffffffffffffffffffffffffffffffffffff\n      and\n      mul\n      or\n      swap1\n      sstore\n      pop\n      swap1\n      pop\n      pop\n        /* \"contracts/locationSmartContract.sol\":1688:1874  function addEmployer (string memory _name , address user_address) public {... */\n      pop\n      pop\n      jump\t// out\n        /* \"contracts/locationSmartContract.sol\":1470:1495  uint public Employeecount */\n    tag_65:\n      sload(0x07)\n      dup2\n      jump\t// out\n        /* \"contracts/locationSmartContract.sol\":2072:2451  function getContract(uint _contractId) public view returns (uint contractId, uint complianceCount, uint nonComplianceCount, DeviceState deviceState) {... */\n    tag_70:\n        /* \"contracts/locationSmartContract.sol\":2132:2147  uint contractId */\n      0x00\n        /* \"contracts/locationSmartContract.sol\":2149:2169  uint complianceCount */\n      dup1\n        /* \"contracts/locationSmartContract.sol\":2171:2194  uint nonComplianceCount */\n      0x00\n        /* \"contracts/locationSmartContract.sol\":2196:2219  DeviceState deviceState */\n      dup1\n        /* \"contracts/locationSmartContract.sol\":2231:2273  GeologixPaymentContract memory curContract */\n      0x00\n        /* \"contracts/locationSmartContract.sol\":2276:2290  smartContracts */\n      0x0a\n        /* \"contracts/locationSmartContract.sol\":2276:2303  smartContracts[_contractId] */\n      0x00\n        /* \"contracts/locationSmartContract.sol\":2291:2302  _contractId */\n      dup8\n        /* \"contracts/locationSmartContract.sol\":2276:2303  smartContracts[_contractId] */\n      dup2\n      mstore\n      0x20\n      add\n      swap1\n      dup2\n      mstore\n      0x20\n      add\n      0x00\n      keccak256\n        /* \"contracts/locationSmartContract.sol\":2231:2303  GeologixPaymentContract memory curContract = smartContracts[_contractId] */\n      mload(0x40)\n      dup1\n      0x0180\n      add\n      0x40\n      mstore\n      swap1\n      dup2\n      0x00\n      dup3\n      add\n      sload\n      dup2\n      mstore\n      0x20\n      add\n      0x01\n      dup3\n      add\n      sload\n      dup2\n      mstore\n      0x20\n      add\n      0x02\n      dup3\n      add\n      sload\n      dup2\n      mstore\n      0x20\n      add\n      0x03\n      dup3\n      add\n      sload\n      dup2\n      mstore\n      0x20\n      add\n      0x04\n      dup3\n      add\n      sload\n      dup2\n      mstore\n      0x20\n      add\n      0x05\n      dup3\n      add\n      sload\n      dup2\n      mstore\n      0x20\n      add\n      0x06\n      dup3\n      add\n      sload\n      dup2\n      mstore\n      0x20\n      add\n      0x07\n      dup3\n      add\n      0x00\n      swap1\n      sload\n      swap1\n      0x0100\n      exp\n      swap1\n      div\n      0xffffffffffffffffffffffffffffffffffffffff\n      and\n      0xffffffffffffffffffffffffffffffffffffffff\n      and\n      0xffffffffffffffffffffffffffffffffffffffff\n      and\n      dup2\n      mstore\n      0x20\n      add\n      0x08\n      dup3\n      add\n      0x00\n      swap1\n      sload\n      swap1\n      0x0100\n      exp\n      swap1\n      div\n      0xffffffffffffffffffffffffffffffffffffffff\n      and\n      0xffffffffffffffffffffffffffffffffffffffff\n      and\n      0xffffffffffffffffffffffffffffffffffffffff\n      and\n      dup2\n      mstore\n      0x20\n      add\n      0x08\n      dup3\n      add\n      0x14\n      swap1\n      sload\n      swap1\n      0x0100\n      exp\n      swap1\n      div\n      0xff\n      and\n      iszero\n      iszero\n      iszero\n      iszero\n      dup2\n      mstore\n      0x20\n      add\n      0x09\n      dup3\n      add\n      mload(0x40)\n      dup1\n      0x40\n      add\n      0x40\n      mstore\n      swap1\n      dup2\n      0x00\n      dup3\n      add\n      sload\n      dup2\n      mstore\n      0x20\n      add\n      0x01\n      dup3\n      add\n      sload\n      dup2\n      mstore\n      pop\n      pop\n      dup2\n      mstore\n      0x20\n      add\n      0x0b\n      dup3\n      add\n      0x00\n      swap1\n      sload\n      swap1\n      0x0100\n      exp\n      swap1\n      div\n      0xff\n      and\n      0x03\n      dup2\n      gt\n      iszero\n      tag_150\n      jumpi\n      tag_151\n      tag_152\n      jump\t// in\n    tag_151:\n    tag_150:\n      0x03\n      dup2\n      gt\n      iszero\n      tag_153\n      jumpi\n      tag_154\n      tag_152\n      jump\t// in\n    tag_154:\n    tag_153:\n      dup2\n      mstore\n      pop\n      pop\n      swap1\n      pop\n        /* \"contracts/locationSmartContract.sol\":2321:2332  curContract */\n      dup1\n        /* \"contracts/locationSmartContract.sol\":2321:2343  curContract.contractId */\n      0x00\n      add\n      mload\n        /* \"contracts/locationSmartContract.sol\":2345:2356  curContract */\n      dup2\n        /* \"contracts/locationSmartContract.sol\":2345:2363  curContract.counts */\n      0x0140\n      add\n      mload\n        /* \"contracts/locationSmartContract.sol\":2345:2379  curContract.counts.complianceCount */\n      0x00\n      add\n      mload\n        /* \"contracts/locationSmartContract.sol\":2381:2392  curContract */\n      dup3\n        /* \"contracts/locationSmartContract.sol\":2381:2399  curContract.counts */\n      0x0140\n      add\n      mload\n        /* \"contracts/locationSmartContract.sol\":2381:2418  curContract.counts.nonComplianceCount */\n      0x20\n      add\n      mload\n        /* \"contracts/locationSmartContract.sol\":2420:2431  curContract */\n      dup4\n        /* \"contracts/locationSmartContract.sol\":2420:2443  curContract.deviceState */\n      0x0160\n      add\n      mload\n        /* \"contracts/locationSmartContract.sol\":2313:2444  return (curContract.contractId, curContract.counts.complianceCount, curContract.counts.nonComplianceCount, curContract.deviceState) */\n      swap5\n      pop\n      swap5\n      pop\n      swap5\n      pop\n      swap5\n      pop\n      pop\n        /* \"contracts/locationSmartContract.sol\":2072:2451  function getContract(uint _contractId) public view returns (uint contractId, uint complianceCount, uint nonComplianceCount, DeviceState deviceState) {... */\n      swap2\n      swap4\n      pop\n      swap2\n      swap4\n      jump\t// out\n        /* \"https://github.com/OpenZeppelin/openzeppelin-contracts/blob/master/contracts/token/ERC20/ERC20.sol\":3300:3416  function balanceOf(address account) public view virtual returns (uint256) {... */\n    tag_75:\n        /* \"https://github.com/OpenZeppelin/openzeppelin-contracts/blob/master/contracts/token/ERC20/ERC20.sol\":3365:3372  uint256 */\n      0x00\n        /* \"https://github.com/OpenZeppelin/openzeppelin-contracts/blob/master/contracts/token/ERC20/ERC20.sol\":3391:3400  _balances */\n      dup1\n        /* \"https://github.com/OpenZeppelin/openzeppelin-contracts/blob/master/contracts/token/ERC20/ERC20.sol\":3391:3409  _balances[account] */\n      0x00\n        /* \"https://github.com/OpenZeppelin/openzeppelin-contracts/blob/master/contracts/token/ERC20/ERC20.sol\":3401:3408  account */\n      dup4\n        /* \"https://github.com/OpenZeppelin/openzeppelin-contracts/blob/master/contracts/token/ERC20/ERC20.sol\":3391:3409  _balances[account] */\n      0xffffffffffffffffffffffffffffffffffffffff\n      and\n      0xffffffffffffffffffffffffffffffffffffffff\n      and\n      dup2\n      mstore\n      0x20\n      add\n      swap1\n      dup2\n      mstore\n      0x20\n      add\n      0x00\n      keccak256\n      sload\n        /* \"https://github.com/OpenZeppelin/openzeppelin-contracts/blob/master/contracts/token/ERC20/ERC20.sol\":3384:3409  return _balances[account] */\n      swap1\n      pop\n        /* \"https://github.com/OpenZeppelin/openzeppelin-contracts/blob/master/contracts/token/ERC20/ERC20.sol\":3300:3416  function balanceOf(address account) public view virtual returns (uint256) {... */\n      swap2\n      swap1\n      pop\n      jump\t// out\n        /* \"contracts/locationSmartContract.sol\":393:413  address public owner */\n    tag_78:\n      0x05\n      0x00\n      swap1\n      sload\n      swap1\n      0x0100\n      exp\n      swap1\n      div\n      0xffffffffffffffffffffffffffffffffffffffff\n      and\n      dup2\n      jump\t// out\n        /* \"https://github.com/OpenZeppelin/openzeppelin-contracts/blob/master/contracts/token/ERC20/ERC20.sol\":2277:2370  function symbol() public view virtual returns (string memory) {... */\n    tag_82:\n        /* \"https://github.com/OpenZeppelin/openzeppelin-contracts/blob/master/contracts/token/ERC20/ERC20.sol\":2324:2337  string memory */\n      0x60\n        /* \"https://github.com/OpenZeppelin/openzeppelin-contracts/blob/master/contracts/token/ERC20/ERC20.sol\":2356:2363  _symbol */\n      0x04\n        /* \"https://github.com/OpenZeppelin/openzeppelin-contracts/blob/master/contracts/token/ERC20/ERC20.sol\":2349:2363  return _symbol */\n      dup1\n      sload\n      tag_157\n      swap1\n      tag_121\n      jump\t// in\n    tag_157:\n      dup1\n      0x1f\n      add\n      0x20\n      dup1\n      swap2\n      div\n      mul\n      0x20\n      add\n      mload(0x40)\n      swap1\n      dup2\n      add\n      0x40\n      mstore\n      dup1\n      swap3\n      swap2\n      swap1\n      dup2\n      dup2\n      mstore\n      0x20\n      add\n      dup3\n      dup1\n      sload\n      tag_158\n      swap1\n      tag_121\n      jump\t// in\n    tag_158:\n      dup1\n      iszero\n      tag_159\n      jumpi\n      dup1\n      0x1f\n      lt\n      tag_160\n      jumpi\n      0x0100\n      dup1\n      dup4\n      sload\n      div\n      mul\n      dup4\n      mstore\n      swap2\n      0x20\n      add\n      swap2\n      jump(tag_159)\n    tag_160:\n      dup3\n      add\n      swap2\n      swap1\n      0x00\n      mstore\n      keccak256(0x00, 0x20)\n      swap1\n    tag_161:\n      dup2\n      sload\n      dup2\n      mstore\n      swap1\n      0x01\n      add\n      swap1\n      0x20\n      add\n      dup1\n      dup4\n      gt\n      tag_161\n      jumpi\n      dup3\n      swap1\n      sub\n      0x1f\n      and\n      dup3\n      add\n      swap2\n    tag_159:\n      pop\n      pop\n      pop\n      pop\n      pop\n      swap1\n      pop\n        /* \"https://github.com/OpenZeppelin/openzeppelin-contracts/blob/master/contracts/token/ERC20/ERC20.sol\":2277:2370  function symbol() public view virtual returns (string memory) {... */\n      swap1\n      jump\t// out\n        /* \"contracts/locationSmartContract.sol\":1880:2066  function addEmployee (string memory _name , address user_address) public {... */\n    tag_86:\n        /* \"contracts/locationSmartContract.sol\":1963:1976  Employeecount */\n      0x07\n      0x00\n        /* \"contracts/locationSmartContract.sol\":1963:1979  Employeecount ++ */\n      dup2\n      sload\n      dup1\n      swap3\n      swap2\n      swap1\n      tag_163\n      swap1\n      tag_146\n      jump\t// in\n    tag_163:\n      swap2\n      swap1\n      pop\n      sstore\n      pop\n        /* \"contracts/locationSmartContract.sol\":2015:2059  Employee(Employeecount, _name, user_address) */\n      mload(0x40)\n      dup1\n      0x60\n      add\n      0x40\n      mstore\n      dup1\n        /* \"contracts/locationSmartContract.sol\":2024:2037  Employeecount */\n      sload(0x07)\n        /* \"contracts/locationSmartContract.sol\":2015:2059  Employee(Employeecount, _name, user_address) */\n      dup2\n      mstore\n      0x20\n      add\n        /* \"contracts/locationSmartContract.sol\":2039:2044  _name */\n      dup4\n        /* \"contracts/locationSmartContract.sol\":2015:2059  Employee(Employeecount, _name, user_address) */\n      dup2\n      mstore\n      0x20\n      add\n        /* \"contracts/locationSmartContract.sol\":2046:2058  user_address */\n      dup3\n        /* \"contracts/locationSmartContract.sol\":2015:2059  Employee(Employeecount, _name, user_address) */\n      0xffffffffffffffffffffffffffffffffffffffff\n      and\n      dup2\n      mstore\n      pop\n        /* \"contracts/locationSmartContract.sol\":1989:1998  employees */\n      0x06\n        /* \"contracts/locationSmartContract.sol\":1989:2012  employees[user_address] */\n      0x00\n        /* \"contracts/locationSmartContract.sol\":1999:2011  user_address */\n      dup4\n        /* \"contracts/locationSmartContract.sol\":1989:2012  employees[user_address] */\n      0xffffffffffffffffffffffffffffffffffffffff\n      and\n      0xffffffffffffffffffffffffffffffffffffffff\n      and\n      dup2\n      mstore\n      0x20\n      add\n      swap1\n      dup2\n      mstore\n      0x20\n      add\n      0x00\n      keccak256\n        /* \"contracts/locationSmartContract.sol\":1989:2059  employees[user_address] = Employee(Employeecount, _name, user_address) */\n      0x00\n      dup3\n      add\n      mload\n      dup2\n      0x00\n      add\n      sstore\n      0x20\n      dup3\n      add\n      mload\n      dup2\n      0x01\n      add\n      swap1\n      dup2\n      tag_164\n      swap2\n      swap1\n      tag_148\n      jump\t// in\n    tag_164:\n      pop\n      0x40\n      dup3\n      add\n      mload\n      dup2\n      0x02\n      add\n      exp(0x0100, 0x00)\n      dup2\n      sload\n      dup2\n      0xffffffffffffffffffffffffffffffffffffffff\n      mul\n      not\n      and\n      swap1\n      dup4\n      0xffffffffffffffffffffffffffffffffffffffff\n      and\n      mul\n      or\n      swap1\n      sstore\n      pop\n      swap1\n      pop\n      pop\n        /* \"contracts/locationSmartContract.sol\":1880:2066  function addEmployee (string memory _name , address user_address) public {... */\n      pop\n      pop\n      jump\t// out\n        /* \"https://github.com/OpenZeppelin/openzeppelin-contracts/blob/master/contracts/token/ERC20/ERC20.sol\":3611:3789  function transfer(address to, uint256 value) public virtual returns (bool) {... */\n    tag_89:\n        /* \"https://github.com/OpenZeppelin/openzeppelin-contracts/blob/master/contracts/token/ERC20/ERC20.sol\":3680:3684  bool */\n      0x00\n        /* \"https://github.com/OpenZeppelin/openzeppelin-contracts/blob/master/contracts/token/ERC20/ERC20.sol\":3696:3709  address owner */\n      dup1\n        /* \"https://github.com/OpenZeppelin/openzeppelin-contracts/blob/master/contracts/token/ERC20/ERC20.sol\":3712:3724  _msgSender() */\n      tag_166\n        /* \"https://github.com/OpenZeppelin/openzeppelin-contracts/blob/master/contracts/token/ERC20/ERC20.sol\":3712:3722  _msgSender */\n      tag_128\n        /* \"https://github.com/OpenZeppelin/openzeppelin-contracts/blob/master/contracts/token/ERC20/ERC20.sol\":3712:3724  _msgSender() */\n      jump\t// in\n    tag_166:\n        /* \"https://github.com/OpenZeppelin/openzeppelin-contracts/blob/master/contracts/token/ERC20/ERC20.sol\":3696:3724  address owner = _msgSender() */\n      swap1\n      pop\n        /* \"https://github.com/OpenZeppelin/openzeppelin-contracts/blob/master/contracts/token/ERC20/ERC20.sol\":3734:3761  _transfer(owner, to, value) */\n      tag_167\n        /* \"https://github.com/OpenZeppelin/openzeppelin-contracts/blob/master/contracts/token/ERC20/ERC20.sol\":3744:3749  owner */\n      dup2\n        /* \"https://github.com/OpenZeppelin/openzeppelin-contracts/blob/master/contracts/token/ERC20/ERC20.sol\":3751:3753  to */\n      dup6\n        /* \"https://github.com/OpenZeppelin/openzeppelin-contracts/blob/master/contracts/token/ERC20/ERC20.sol\":3755:3760  value */\n      dup6\n        /* \"https://github.com/OpenZeppelin/openzeppelin-contracts/blob/master/contracts/token/ERC20/ERC20.sol\":3734:3743  _transfer */\n      tag_142\n        /* \"https://github.com/OpenZeppelin/openzeppelin-contracts/blob/master/contracts/token/ERC20/ERC20.sol\":3734:3761  _transfer(owner, to, value) */\n      jump\t// in\n    tag_167:\n        /* \"https://github.com/OpenZeppelin/openzeppelin-contracts/blob/master/contracts/token/ERC20/ERC20.sol\":3778:3782  true */\n      0x01\n        /* \"https://github.com/OpenZeppelin/openzeppelin-contracts/blob/master/contracts/token/ERC20/ERC20.sol\":3771:3782  return true */\n      swap2\n      pop\n      pop\n        /* \"https://github.com/OpenZeppelin/openzeppelin-contracts/blob/master/contracts/token/ERC20/ERC20.sol\":3611:3789  function transfer(address to, uint256 value) public virtual returns (bool) {... */\n      swap3\n      swap2\n      pop\n      pop\n      jump\t// out\n        /* \"contracts/locationSmartContract.sol\":3267:3462  function payEmployee(uint contractId) public {... */\n    tag_93:\n        /* \"contracts/locationSmartContract.sol\":3322:3408  transfer(smartContracts[contractId].employee, smartContracts[contractId].rewardAmount) */\n      tag_169\n        /* \"contracts/locationSmartContract.sol\":3331:3345  smartContracts */\n      0x0a\n        /* \"contracts/locationSmartContract.sol\":3331:3357  smartContracts[contractId] */\n      0x00\n        /* \"contracts/locationSmartContract.sol\":3346:3356  contractId */\n      dup4\n        /* \"contracts/locationSmartContract.sol\":3331:3357  smartContracts[contractId] */\n      dup2\n      mstore\n      0x20\n      add\n      swap1\n      dup2\n      mstore\n      0x20\n      add\n      0x00\n      keccak256\n        /* \"contracts/locationSmartContract.sol\":3331:3366  smartContracts[contractId].employee */\n      0x07\n      add\n      0x00\n      swap1\n      sload\n      swap1\n      0x0100\n      exp\n      swap1\n      div\n      0xffffffffffffffffffffffffffffffffffffffff\n      and\n        /* \"contracts/locationSmartContract.sol\":3368:3382  smartContracts */\n      0x0a\n        /* \"contracts/locationSmartContract.sol\":3368:3394  smartContracts[contractId] */\n      0x00\n        /* \"contracts/locationSmartContract.sol\":3383:3393  contractId */\n      dup5\n        /* \"contracts/locationSmartContract.sol\":3368:3394  smartContracts[contractId] */\n      dup2\n      mstore\n      0x20\n      add\n      swap1\n      dup2\n      mstore\n      0x20\n      add\n      0x00\n      keccak256\n        /* \"contracts/locationSmartContract.sol\":3368:3407  smartContracts[contractId].rewardAmount */\n      0x06\n      add\n      sload\n        /* \"contracts/locationSmartContract.sol\":3322:3330  transfer */\n      tag_89\n        /* \"contracts/locationSmartContract.sol\":3322:3408  transfer(smartContracts[contractId].employee, smartContracts[contractId].rewardAmount) */\n      jump\t// in\n    tag_169:\n      pop\n        /* \"contracts/locationSmartContract.sol\":3267:3462  function payEmployee(uint contractId) public {... */\n      pop\n      jump\t// out\n        /* \"contracts/locationSmartContract.sol\":3474:4929  function updateEmployeeStatus(uint256 _latitude, uint256 _longitude, uint contractId, uint currentTime) public {... */\n    tag_97:\n        /* \"contracts/locationSmartContract.sol\":3653:3697  GeologixPaymentContract storage contractInfo */\n      0x00\n        /* \"contracts/locationSmartContract.sol\":3700:3714  smartContracts */\n      0x0a\n        /* \"contracts/locationSmartContract.sol\":3700:3726  smartContracts[contractId] */\n      0x00\n        /* \"contracts/locationSmartContract.sol\":3715:3725  contractId */\n      dup5\n        /* \"contracts/locationSmartContract.sol\":3700:3726  smartContracts[contractId] */\n      dup2\n      mstore\n      0x20\n      add\n      swap1\n      dup2\n      mstore\n      0x20\n      add\n      0x00\n      keccak256\n        /* \"contracts/locationSmartContract.sol\":3653:3726  GeologixPaymentContract storage contractInfo = smartContracts[contractId] */\n      swap1\n      pop\n        /* \"contracts/locationSmartContract.sol\":3780:3792  contractInfo */\n      dup1\n        /* \"contracts/locationSmartContract.sol\":3780:3801  contractInfo.isActive */\n      0x08\n      add\n      0x14\n      swap1\n      sload\n      swap1\n      0x0100\n      exp\n      swap1\n      div\n      0xff\n      and\n        /* \"contracts/locationSmartContract.sol\":3772:3828  require(contractInfo.isActive, \"Contract is not active\") */\n      tag_171\n      jumpi\n      mload(0x40)\n      0x08c379a000000000000000000000000000000000000000000000000000000000\n      dup2\n      mstore\n      0x04\n      add\n      tag_172\n      swap1\n      tag_173\n      jump\t// in\n    tag_172:\n      mload(0x40)\n      dup1\n      swap2\n      sub\n      swap1\n      revert\n    tag_171:\n        /* \"contracts/locationSmartContract.sol\":3944:3956  contractInfo */\n      dup1\n        /* \"contracts/locationSmartContract.sol\":3944:3966  contractInfo.startTime */\n      0x04\n      add\n      sload\n        /* \"contracts/locationSmartContract.sol\":3930:3941  currentTime */\n      dup3\n        /* \"contracts/locationSmartContract.sol\":3930:3966  currentTime > contractInfo.startTime */\n      gt\n        /* \"contracts/locationSmartContract.sol\":3922:4008  require(currentTime > contractInfo.startTime, \"Current time is before the start time\") */\n      tag_174\n      jumpi\n      mload(0x40)\n      0x08c379a000000000000000000000000000000000000000000000000000000000\n      dup2\n      mstore\n      0x04\n      add\n      tag_175\n      swap1\n      tag_176\n      jump\t// in\n    tag_175:\n      mload(0x40)\n      dup1\n      swap2\n      sub\n      swap1\n      revert\n    tag_174:\n        /* \"contracts/locationSmartContract.sol\":4089:4101  contractInfo */\n      dup1\n        /* \"contracts/locationSmartContract.sol\":4089:4109  contractInfo.endTime */\n      0x05\n      add\n      sload\n        /* \"contracts/locationSmartContract.sol\":4075:4086  currentTime */\n      dup3\n        /* \"contracts/locationSmartContract.sol\":4075:4109  currentTime < contractInfo.endTime */\n      lt\n        /* \"contracts/locationSmartContract.sol\":4071:4919  if (currentTime < contractInfo.endTime) {... */\n      iszero\n      tag_177\n      jumpi\n        /* \"contracts/locationSmartContract.sol\":4199:4298  isInZone(_latitude, _longitude, contractInfo.latitude, contractInfo.longitude, contractInfo.radius) */\n      tag_178\n        /* \"contracts/locationSmartContract.sol\":4208:4217  _latitude */\n      dup6\n        /* \"contracts/locationSmartContract.sol\":4219:4229  _longitude */\n      dup6\n        /* \"contracts/locationSmartContract.sol\":4231:4243  contractInfo */\n      dup4\n        /* \"contracts/locationSmartContract.sol\":4231:4252  contractInfo.latitude */\n      0x01\n      add\n      sload\n        /* \"contracts/locationSmartContract.sol\":4254:4266  contractInfo */\n      dup5\n        /* \"contracts/locationSmartContract.sol\":4254:4276  contractInfo.longitude */\n      0x02\n      add\n      sload\n        /* \"contracts/locationSmartContract.sol\":4278:4290  contractInfo */\n      dup6\n        /* \"contracts/locationSmartContract.sol\":4278:4297  contractInfo.radius */\n      0x03\n      add\n      sload\n        /* \"contracts/locationSmartContract.sol\":4199:4207  isInZone */\n      tag_179\n        /* \"contracts/locationSmartContract.sol\":4199:4298  isInZone(_latitude, _longitude, contractInfo.latitude, contractInfo.longitude, contractInfo.radius) */\n      jump\t// in\n    tag_178:\n        /* \"contracts/locationSmartContract.sol\":4195:4686  if (isInZone(_latitude, _longitude, contractInfo.latitude, contractInfo.longitude, contractInfo.radius)) {... */\n      iszero\n      tag_180\n      jumpi\n        /* \"contracts/locationSmartContract.sol\":4379:4391  contractInfo */\n      dup1\n        /* \"contracts/locationSmartContract.sol\":4379:4398  contractInfo.counts */\n      0x09\n      add\n        /* \"contracts/locationSmartContract.sol\":4379:4414  contractInfo.counts.complianceCount */\n      0x00\n      add\n      0x00\n        /* \"contracts/locationSmartContract.sol\":4379:4416  contractInfo.counts.complianceCount++ */\n      dup2\n      sload\n      dup1\n      swap3\n      swap2\n      swap1\n      tag_181\n      swap1\n      tag_146\n      jump\t// in\n    tag_181:\n      swap2\n      swap1\n      pop\n      sstore\n      pop\n        /* \"contracts/locationSmartContract.sol\":4457:4475  DeviceState.InZone */\n      0x01\n        /* \"contracts/locationSmartContract.sol\":4430:4442  contractInfo */\n      dup2\n        /* \"contracts/locationSmartContract.sol\":4430:4454  contractInfo.deviceState */\n      0x0b\n      add\n      0x00\n        /* \"contracts/locationSmartContract.sol\":4430:4475  contractInfo.deviceState = DeviceState.InZone */\n      0x0100\n      exp\n      dup2\n      sload\n      dup2\n      0xff\n      mul\n      not\n      and\n      swap1\n      dup4\n      0x03\n      dup2\n      gt\n      iszero\n      tag_182\n      jumpi\n      tag_183\n      tag_152\n      jump\t// in\n    tag_183:\n    tag_182:\n      mul\n      or\n      swap1\n      sstore\n      pop\n        /* \"contracts/locationSmartContract.sol\":4195:4686  if (isInZone(_latitude, _longitude, contractInfo.latitude, contractInfo.longitude, contractInfo.radius)) {... */\n      jump(tag_184)\n    tag_180:\n        /* \"contracts/locationSmartContract.sol\":4575:4587  contractInfo */\n      dup1\n        /* \"contracts/locationSmartContract.sol\":4575:4594  contractInfo.counts */\n      0x09\n      add\n        /* \"contracts/locationSmartContract.sol\":4575:4613  contractInfo.counts.nonComplianceCount */\n      0x01\n      add\n      0x00\n        /* \"contracts/locationSmartContract.sol\":4575:4615  contractInfo.counts.nonComplianceCount++ */\n      dup2\n      sload\n      dup1\n      swap3\n      swap2\n      swap1\n      tag_185\n      swap1\n      tag_146\n      jump\t// in\n    tag_185:\n      swap2\n      swap1\n      pop\n      sstore\n      pop\n        /* \"contracts/locationSmartContract.sol\":4656:4675  DeviceState.OutZone */\n      0x02\n        /* \"contracts/locationSmartContract.sol\":4629:4641  contractInfo */\n      dup2\n        /* \"contracts/locationSmartContract.sol\":4629:4653  contractInfo.deviceState */\n      0x0b\n      add\n      0x00\n        /* \"contracts/locationSmartContract.sol\":4629:4675  contractInfo.deviceState = DeviceState.OutZone */\n      0x0100\n      exp\n      dup2\n      sload\n      dup2\n      0xff\n      mul\n      not\n      and\n      swap1\n      dup4\n      0x03\n      dup2\n      gt\n      iszero\n      tag_186\n      jumpi\n      tag_187\n      tag_152\n      jump\t// in\n    tag_187:\n    tag_186:\n      mul\n      or\n      swap1\n      sstore\n      pop\n        /* \"contracts/locationSmartContract.sol\":4195:4686  if (isInZone(_latitude, _longitude, contractInfo.latitude, contractInfo.longitude, contractInfo.radius)) {... */\n    tag_184:\n        /* \"contracts/locationSmartContract.sol\":4071:4919  if (currentTime < contractInfo.endTime) {... */\n      jump(tag_188)\n    tag_177:\n        /* \"contracts/locationSmartContract.sol\":4792:4815  payEmployee(contractId) */\n      tag_189\n        /* \"contracts/locationSmartContract.sol\":4804:4814  contractId */\n      dup4\n        /* \"contracts/locationSmartContract.sol\":4792:4803  payEmployee */\n      tag_93\n        /* \"contracts/locationSmartContract.sol\":4792:4815  payEmployee(contractId) */\n      jump\t// in\n    tag_189:\n        /* \"contracts/locationSmartContract.sol\":4849:4854  false */\n      0x00\n        /* \"contracts/locationSmartContract.sol\":4825:4837  contractInfo */\n      dup2\n        /* \"contracts/locationSmartContract.sol\":4825:4846  contractInfo.isActive */\n      0x08\n      add\n      0x14\n        /* \"contracts/locationSmartContract.sol\":4825:4854  contractInfo.isActive = false */\n      0x0100\n      exp\n      dup2\n      sload\n      dup2\n      0xff\n      mul\n      not\n      and\n      swap1\n      dup4\n      iszero\n      iszero\n      mul\n      or\n      swap1\n      sstore\n      pop\n        /* \"contracts/locationSmartContract.sol\":4891:4912  DeviceState.Completed */\n      0x03\n        /* \"contracts/locationSmartContract.sol\":4864:4876  contractInfo */\n      dup2\n        /* \"contracts/locationSmartContract.sol\":4864:4888  contractInfo.deviceState */\n      0x0b\n      add\n      0x00\n        /* \"contracts/locationSmartContract.sol\":4864:4912  contractInfo.deviceState = DeviceState.Completed */\n      0x0100\n      exp\n      dup2\n      sload\n      dup2\n      0xff\n      mul\n      not\n      and\n      swap1\n      dup4\n      0x03\n      dup2\n      gt\n      iszero\n      tag_190\n      jumpi\n      tag_191\n      tag_152\n      jump\t// in\n    tag_191:\n    tag_190:\n      mul\n      or\n      swap1\n      sstore\n      pop\n        /* \"contracts/locationSmartContract.sol\":4071:4919  if (currentTime < contractInfo.endTime) {... */\n    tag_188:\n        /* \"contracts/locationSmartContract.sol\":3585:4929  {... */\n      pop\n        /* \"contracts/locationSmartContract.sol\":3474:4929  function updateEmployeeStatus(uint256 _latitude, uint256 _longitude, uint contractId, uint currentTime) public {... */\n      pop\n      pop\n      pop\n      pop\n      jump\t// out\n        /* \"contracts/locationSmartContract.sol\":1419:1464  mapping(address => Employee) public employees */\n    tag_100:\n      mstore(0x20, 0x06)\n      dup1\n      0x00\n      mstore\n      keccak256(0x00, 0x40)\n      0x00\n      swap2\n      pop\n      swap1\n      pop\n      dup1\n      0x00\n      add\n      sload\n      swap1\n      dup1\n      0x01\n      add\n      dup1\n      sload\n      tag_192\n      swap1\n      tag_121\n      jump\t// in\n    tag_192:\n      dup1\n      0x1f\n      add\n      0x20\n      dup1\n      swap2\n      div\n      mul\n      0x20\n      add\n      mload(0x40)\n      swap1\n      dup2\n      add\n      0x40\n      mstore\n      dup1\n      swap3\n      swap2\n      swap1\n      dup2\n      dup2\n      mstore\n      0x20\n      add\n      dup3\n      dup1\n      sload\n      tag_193\n      swap1\n      tag_121\n      jump\t// in\n    tag_193:\n      dup1\n      iszero\n      tag_194\n      jumpi\n      dup1\n      0x1f\n      lt\n      tag_195\n      jumpi\n      0x0100\n      dup1\n      dup4\n      sload\n      div\n      mul\n      dup4\n      mstore\n      swap2\n      0x20\n      add\n      swap2\n      jump(tag_194)\n    tag_195:\n      dup3\n      add\n      swap2\n      swap1\n      0x00\n      mstore\n      keccak256(0x00, 0x20)\n      swap1\n    tag_196:\n      dup2\n      sload\n      dup2\n      mstore\n      swap1\n      0x01\n      add\n      swap1\n      0x20\n      add\n      dup1\n      dup4\n      gt\n      tag_196\n      jumpi\n      dup3\n      swap1\n      sub\n      0x1f\n      and\n      dup3\n      add\n      swap2\n    tag_194:\n      pop\n      pop\n      pop\n      pop\n      pop\n      swap1\n      dup1\n      0x02\n      add\n      0x00\n      swap1\n      sload\n      swap1\n      0x0100\n      exp\n      swap1\n      div\n      0xffffffffffffffffffffffffffffffffffffffff\n      and\n      swap1\n      pop\n      dup4\n      jump\t// out\n        /* \"https://github.com/OpenZeppelin/openzeppelin-contracts/blob/master/contracts/token/ERC20/ERC20.sol\":3847:3987  function allowance(address owner, address spender) public view virtual returns (uint256) {... */\n    tag_105:\n        /* \"https://github.com/OpenZeppelin/openzeppelin-contracts/blob/master/contracts/token/ERC20/ERC20.sol\":3927:3934  uint256 */\n      0x00\n        /* \"https://github.com/OpenZeppelin/openzeppelin-contracts/blob/master/contracts/token/ERC20/ERC20.sol\":3953:3964  _allowances */\n      0x01\n        /* \"https://github.com/OpenZeppelin/openzeppelin-contracts/blob/master/contracts/token/ERC20/ERC20.sol\":3953:3971  _allowances[owner] */\n      0x00\n        /* \"https://github.com/OpenZeppelin/openzeppelin-contracts/blob/master/contracts/token/ERC20/ERC20.sol\":3965:3970  owner */\n      dup5\n        /* \"https://github.com/OpenZeppelin/openzeppelin-contracts/blob/master/contracts/token/ERC20/ERC20.sol\":3953:3971  _allowances[owner] */\n      0xffffffffffffffffffffffffffffffffffffffff\n      and\n      0xffffffffffffffffffffffffffffffffffffffff\n      and\n      dup2\n      mstore\n      0x20\n      add\n      swap1\n      dup2\n      mstore\n      0x20\n      add\n      0x00\n      keccak256\n        /* \"https://github.com/OpenZeppelin/openzeppelin-contracts/blob/master/contracts/token/ERC20/ERC20.sol\":3953:3980  _allowances[owner][spender] */\n      0x00\n        /* \"https://github.com/OpenZeppelin/openzeppelin-contracts/blob/master/contracts/token/ERC20/ERC20.sol\":3972:3979  spender */\n      dup4\n        /* \"https://github.com/OpenZeppelin/openzeppelin-contracts/blob/master/contracts/token/ERC20/ERC20.sol\":3953:3980  _allowances[owner][spender] */\n      0xffffffffffffffffffffffffffffffffffffffff\n      and\n      0xffffffffffffffffffffffffffffffffffffffff\n      and\n      dup2\n      mstore\n      0x20\n      add\n      swap1\n      dup2\n      mstore\n      0x20\n      add\n      0x00\n      keccak256\n      sload\n        /* \"https://github.com/OpenZeppelin/openzeppelin-contracts/blob/master/contracts/token/ERC20/ERC20.sol\":3946:3980  return _allowances[owner][spender] */\n      swap1\n      pop\n        /* \"https://github.com/OpenZeppelin/openzeppelin-contracts/blob/master/contracts/token/ERC20/ERC20.sol\":3847:3987  function allowance(address owner, address spender) public view virtual returns (uint256) {... */\n      swap3\n      swap2\n      pop\n      pop\n      jump\t// out\n        /* \"contracts/locationSmartContract.sol\":1654:1679  uint public ContractCount */\n    tag_108:\n      sload(0x0b)\n      dup2\n      jump\t// out\n        /* \"contracts/locationSmartContract.sol\":1586:1648  mapping(uint => GeologixPaymentContract) public smartContracts */\n    tag_112:\n      mstore(0x20, 0x0a)\n      dup1\n      0x00\n      mstore\n      keccak256(0x00, 0x40)\n      0x00\n      swap2\n      pop\n      swap1\n      pop\n      dup1\n      0x00\n      add\n      sload\n      swap1\n      dup1\n      0x01\n      add\n      sload\n      swap1\n      dup1\n      0x02\n      add\n      sload\n      swap1\n      dup1\n      0x03\n      add\n      sload\n      swap1\n      dup1\n      0x04\n      add\n      sload\n      swap1\n      dup1\n      0x05\n      add\n      sload\n      swap1\n      dup1\n      0x06\n      add\n      sload\n      swap1\n      dup1\n      0x07\n      add\n      0x00\n      swap1\n      sload\n      swap1\n      0x0100\n      exp\n      swap1\n      div\n      0xffffffffffffffffffffffffffffffffffffffff\n      and\n      swap1\n      dup1\n      0x08\n      add\n      0x00\n      swap1\n      sload\n      swap1\n      0x0100\n      exp\n      swap1\n      div\n      0xffffffffffffffffffffffffffffffffffffffff\n      and\n      swap1\n      dup1\n      0x08\n      add\n      0x14\n      swap1\n      sload\n      swap1\n      0x0100\n      exp\n      swap1\n      div\n      0xff\n      and\n      swap1\n      dup1\n      0x09\n      add\n      mload(0x40)\n      dup1\n      0x40\n      add\n      0x40\n      mstore\n      swap1\n      dup2\n      0x00\n      dup3\n      add\n      sload\n      dup2\n      mstore\n      0x20\n      add\n      0x01\n      dup3\n      add\n      sload\n      dup2\n      mstore\n      pop\n      pop\n      swap1\n      dup1\n      0x0b\n      add\n      0x00\n      swap1\n      sload\n      swap1\n      0x0100\n      exp\n      swap1\n      div\n      0xff\n      and\n      swap1\n      pop\n      dup13\n      jump\t// out\n        /* \"contracts/locationSmartContract.sol\":2458:3261  function createSmartContract (... */\n    tag_118:\n        /* \"contracts/locationSmartContract.sol\":2733:2763  ComplianceCounts memory counts */\n      0x00\n        /* \"contracts/locationSmartContract.sol\":2766:2861  ComplianceCounts({... */\n      mload(0x40)\n      dup1\n      0x40\n      add\n      0x40\n      mstore\n      dup1\n        /* \"contracts/locationSmartContract.sol\":2814:2815  0 */\n      0x00\n        /* \"contracts/locationSmartContract.sol\":2766:2861  ComplianceCounts({... */\n      dup2\n      mstore\n      0x20\n      add\n        /* \"contracts/locationSmartContract.sol\":2849:2850  0 */\n      0x00\n        /* \"contracts/locationSmartContract.sol\":2766:2861  ComplianceCounts({... */\n      dup2\n      mstore\n      pop\n        /* \"contracts/locationSmartContract.sol\":2733:2861  ComplianceCounts memory counts = ComplianceCounts({... */\n      swap1\n      pop\n        /* \"contracts/locationSmartContract.sol\":2874:2887  ContractCount */\n      0x0b\n      0x00\n        /* \"contracts/locationSmartContract.sol\":2874:2890  ContractCount ++ */\n      dup2\n      sload\n      dup1\n      swap3\n      swap2\n      swap1\n      tag_199\n      swap1\n      tag_146\n      jump\t// in\n    tag_199:\n      swap2\n      swap1\n      pop\n      sstore\n      pop\n        /* \"contracts/locationSmartContract.sol\":2936:3254  GeologixPaymentContract(... */\n      mload(0x40)\n      dup1\n      0x0180\n      add\n      0x40\n      mstore\n      dup1\n        /* \"contracts/locationSmartContract.sol\":2973:2986  ContractCount */\n      sload(0x0b)\n        /* \"contracts/locationSmartContract.sol\":2936:3254  GeologixPaymentContract(... */\n      dup2\n      mstore\n      0x20\n      add\n        /* \"contracts/locationSmartContract.sol\":3000:3009  _latitude */\n      dup11\n        /* \"contracts/locationSmartContract.sol\":2936:3254  GeologixPaymentContract(... */\n      dup2\n      mstore\n      0x20\n      add\n        /* \"contracts/locationSmartContract.sol\":3023:3033  _longitude */\n      dup10\n        /* \"contracts/locationSmartContract.sol\":2936:3254  GeologixPaymentContract(... */\n      dup2\n      mstore\n      0x20\n      add\n        /* \"contracts/locationSmartContract.sol\":3047:3054  _radius */\n      dup9\n        /* \"contracts/locationSmartContract.sol\":2936:3254  GeologixPaymentContract(... */\n      dup2\n      mstore\n      0x20\n      add\n        /* \"contracts/locationSmartContract.sol\":3068:3078  _startTime */\n      dup8\n        /* \"contracts/locationSmartContract.sol\":2936:3254  GeologixPaymentContract(... */\n      dup2\n      mstore\n      0x20\n      add\n        /* \"contracts/locationSmartContract.sol\":3092:3100  _endTime */\n      dup7\n        /* \"contracts/locationSmartContract.sol\":2936:3254  GeologixPaymentContract(... */\n      dup2\n      mstore\n      0x20\n      add\n        /* \"contracts/locationSmartContract.sol\":3114:3127  _rewardAmount */\n      dup6\n        /* \"contracts/locationSmartContract.sol\":2936:3254  GeologixPaymentContract(... */\n      dup2\n      mstore\n      0x20\n      add\n        /* \"contracts/locationSmartContract.sol\":3141:3150  _employee */\n      dup5\n        /* \"contracts/locationSmartContract.sol\":2936:3254  GeologixPaymentContract(... */\n      0xffffffffffffffffffffffffffffffffffffffff\n      and\n      dup2\n      mstore\n      0x20\n      add\n        /* \"contracts/locationSmartContract.sol\":3164:3173  _employer */\n      dup4\n        /* \"contracts/locationSmartContract.sol\":2936:3254  GeologixPaymentContract(... */\n      0xffffffffffffffffffffffffffffffffffffffff\n      and\n      dup2\n      mstore\n      0x20\n      add\n        /* \"contracts/locationSmartContract.sol\":3187:3191  true */\n      0x01\n        /* \"contracts/locationSmartContract.sol\":2936:3254  GeologixPaymentContract(... */\n      iszero\n      iszero\n      dup2\n      mstore\n      0x20\n      add\n        /* \"contracts/locationSmartContract.sol\":3205:3211  counts */\n      dup3\n        /* \"contracts/locationSmartContract.sol\":2936:3254  GeologixPaymentContract(... */\n      dup2\n      mstore\n      0x20\n      add\n        /* \"contracts/locationSmartContract.sol\":3225:3244  DeviceState.Created */\n      0x00\n        /* \"contracts/locationSmartContract.sol\":2936:3254  GeologixPaymentContract(... */\n      0x03\n      dup2\n      gt\n      iszero\n      tag_200\n      jumpi\n      tag_201\n      tag_152\n      jump\t// in\n    tag_201:\n    tag_200:\n      dup2\n      mstore\n      pop\n        /* \"contracts/locationSmartContract.sol\":2904:2918  smartContracts */\n      0x0a\n        /* \"contracts/locationSmartContract.sol\":2904:2933  smartContracts[ContractCount] */\n      0x00\n        /* \"contracts/locationSmartContract.sol\":2919:2932  ContractCount */\n      sload(0x0b)\n        /* \"contracts/locationSmartContract.sol\":2904:2933  smartContracts[ContractCount] */\n      dup2\n      mstore\n      0x20\n      add\n      swap1\n      dup2\n      mstore\n      0x20\n      add\n      0x00\n      keccak256\n        /* \"contracts/locationSmartContract.sol\":2904:3254  smartContracts[ContractCount] = GeologixPaymentContract(... */\n      0x00\n      dup3\n      add\n      mload\n      dup2\n      0x00\n      add\n      sstore\n      0x20\n      dup3\n      add\n      mload\n      dup2\n      0x01\n      add\n      sstore\n      0x40\n      dup3\n      add\n      mload\n      dup2\n      0x02\n      add\n      sstore\n      0x60\n      dup3\n      add\n      mload\n      dup2\n      0x03\n      add\n      sstore\n      0x80\n      dup3\n      add\n      mload\n      dup2\n      0x04\n      add\n      sstore\n      0xa0\n      dup3\n      add\n      mload\n      dup2\n      0x05\n      add\n      sstore\n      0xc0\n      dup3\n      add\n      mload\n      dup2\n      0x06\n      add\n      sstore\n      0xe0\n      dup3\n      add\n      mload\n      dup2\n      0x07\n      add\n      exp(0x0100, 0x00)\n      dup2\n      sload\n      dup2\n      0xffffffffffffffffffffffffffffffffffffffff\n      mul\n      not\n      and\n      swap1\n      dup4\n      0xffffffffffffffffffffffffffffffffffffffff\n      and\n      mul\n      or\n      swap1\n      sstore\n      pop\n      0x0100\n      dup3\n      add\n      mload\n      dup2\n      0x08\n      add\n      exp(0x0100, 0x00)\n      dup2\n      sload\n      dup2\n      0xffffffffffffffffffffffffffffffffffffffff\n      mul\n      not\n      and\n      swap1\n      dup4\n      0xffffffffffffffffffffffffffffffffffffffff\n      and\n      mul\n      or\n      swap1\n      sstore\n      pop\n      0x0120\n      dup3\n      add\n      mload\n      dup2\n      0x08\n      add\n      exp(0x0100, 0x14)\n      dup2\n      sload\n      dup2\n      0xff\n      mul\n      not\n      and\n      swap1\n      dup4\n      iszero\n      iszero\n      mul\n      or\n      swap1\n      sstore\n      pop\n      0x0140\n      dup3\n      add\n      mload\n      dup2\n      0x09\n      add\n      0x00\n      dup3\n      add\n      mload\n      dup2\n      0x00\n      add\n      sstore\n      0x20\n      dup3\n      add\n      mload\n      dup2\n      0x01\n      add\n      sstore\n      pop\n      pop\n      0x0160\n      dup3\n      add\n      mload\n      dup2\n      0x0b\n      add\n      exp(0x0100, 0x00)\n      dup2\n      sload\n      dup2\n      0xff\n      mul\n      not\n      and\n      swap1\n      dup4\n      0x03\n      dup2\n      gt\n      iszero\n      tag_202\n      jumpi\n      tag_203\n      tag_152\n      jump\t// in\n    tag_203:\n    tag_202:\n      mul\n      or\n      swap1\n      sstore\n      pop\n      swap1\n      pop\n      pop\n        /* \"contracts/locationSmartContract.sol\":2721:3261  {... */\n      pop\n        /* \"contracts/locationSmartContract.sol\":2458:3261  function createSmartContract (... */\n      pop\n      pop\n      pop\n      pop\n      pop\n      pop\n      pop\n      pop\n      jump\t// out\n        /* \"https://github.com/OpenZeppelin/openzeppelin-contracts/blob/master/contracts/utils/Context.sol\":656:752  function _msgSender() internal view virtual returns (address) {... */\n    tag_128:\n        /* \"https://github.com/OpenZeppelin/openzeppelin-contracts/blob/master/contracts/utils/Context.sol\":709:716  address */\n      0x00\n        /* \"https://github.com/OpenZeppelin/openzeppelin-contracts/blob/master/contracts/utils/Context.sol\":735:745  msg.sender */\n      caller\n        /* \"https://github.com/OpenZeppelin/openzeppelin-contracts/blob/master/contracts/utils/Context.sol\":728:745  return msg.sender */\n      swap1\n      pop\n        /* \"https://github.com/OpenZeppelin/openzeppelin-contracts/blob/master/contracts/utils/Context.sol\":656:752  function _msgSender() internal view virtual returns (address) {... */\n      swap1\n      jump\t// out\n        /* \"https://github.com/OpenZeppelin/openzeppelin-contracts/blob/master/contracts/token/ERC20/ERC20.sol\":8990:9118  function _approve(address owner, address spender, uint256 value) internal {... */\n    tag_130:\n        /* \"https://github.com/OpenZeppelin/openzeppelin-contracts/blob/master/contracts/token/ERC20/ERC20.sol\":9074:9111  _approve(owner, spender, value, true) */\n      tag_206\n        /* \"https://github.com/OpenZeppelin/openzeppelin-contracts/blob/master/contracts/token/ERC20/ERC20.sol\":9083:9088  owner */\n      dup4\n        /* \"https://github.com/OpenZeppelin/openzeppelin-contracts/blob/master/contracts/token/ERC20/ERC20.sol\":9090:9097  spender */\n      dup4\n        /* \"https://github.com/OpenZeppelin/openzeppelin-contracts/blob/master/contracts/token/ERC20/ERC20.sol\":9099:9104  value */\n      dup4\n        /* \"https://github.com/OpenZeppelin/openzeppelin-contracts/blob/master/contracts/token/ERC20/ERC20.sol\":9106:9110  true */\n      0x01\n        /* \"https://github.com/OpenZeppelin/openzeppelin-contracts/blob/master/contracts/token/ERC20/ERC20.sol\":9074:9082  _approve */\n      tag_207\n        /* \"https://github.com/OpenZeppelin/openzeppelin-contracts/blob/master/contracts/token/ERC20/ERC20.sol\":9074:9111  _approve(owner, spender, value, true) */\n      jump\t// in\n    tag_206:\n        /* \"https://github.com/OpenZeppelin/openzeppelin-contracts/blob/master/contracts/token/ERC20/ERC20.sol\":8990:9118  function _approve(address owner, address spender, uint256 value) internal {... */\n      pop\n      pop\n      pop\n      jump\t// out\n        /* \"https://github.com/OpenZeppelin/openzeppelin-contracts/blob/master/contracts/token/ERC20/ERC20.sol\":10664:11141  function _spendAllowance(address owner, address spender, uint256 value) internal virtual {... */\n    tag_140:\n        /* \"https://github.com/OpenZeppelin/openzeppelin-contracts/blob/master/contracts/token/ERC20/ERC20.sol\":10763:10787  uint256 currentAllowance */\n      0x00\n        /* \"https://github.com/OpenZeppelin/openzeppelin-contracts/blob/master/contracts/token/ERC20/ERC20.sol\":10790:10815  allowance(owner, spender) */\n      tag_209\n        /* \"https://github.com/OpenZeppelin/openzeppelin-contracts/blob/master/contracts/token/ERC20/ERC20.sol\":10800:10805  owner */\n      dup5\n        /* \"https://github.com/OpenZeppelin/openzeppelin-contracts/blob/master/contracts/token/ERC20/ERC20.sol\":10807:10814  spender */\n      dup5\n        /* \"https://github.com/OpenZeppelin/openzeppelin-contracts/blob/master/contracts/token/ERC20/ERC20.sol\":10790:10799  allowance */\n      tag_105\n        /* \"https://github.com/OpenZeppelin/openzeppelin-contracts/blob/master/contracts/token/ERC20/ERC20.sol\":10790:10815  allowance(owner, spender) */\n      jump\t// in\n    tag_209:\n        /* \"https://github.com/OpenZeppelin/openzeppelin-contracts/blob/master/contracts/token/ERC20/ERC20.sol\":10763:10815  uint256 currentAllowance = allowance(owner, spender) */\n      swap1\n      pop\n        /* \"https://github.com/OpenZeppelin/openzeppelin-contracts/blob/master/contracts/token/ERC20/ERC20.sol\":10849:10866  type(uint256).max */\n      0xffffffffffffffffffffffffffffffffffffffffffffffffffffffffffffffff\n        /* \"https://github.com/OpenZeppelin/openzeppelin-contracts/blob/master/contracts/token/ERC20/ERC20.sol\":10829:10845  currentAllowance */\n      dup2\n        /* \"https://github.com/OpenZeppelin/openzeppelin-contracts/blob/master/contracts/token/ERC20/ERC20.sol\":10829:10866  currentAllowance != type(uint256).max */\n      eq\n        /* \"https://github.com/OpenZeppelin/openzeppelin-contracts/blob/master/contracts/token/ERC20/ERC20.sol\":10825:11135  if (currentAllowance != type(uint256).max) {... */\n      tag_210\n      jumpi\n        /* \"https://github.com/OpenZeppelin/openzeppelin-contracts/blob/master/contracts/token/ERC20/ERC20.sol\":10905:10910  value */\n      dup2\n        /* \"https://github.com/OpenZeppelin/openzeppelin-contracts/blob/master/contracts/token/ERC20/ERC20.sol\":10886:10902  currentAllowance */\n      dup2\n        /* \"https://github.com/OpenZeppelin/openzeppelin-contracts/blob/master/contracts/token/ERC20/ERC20.sol\":10886:10910  currentAllowance < value */\n      lt\n        /* \"https://github.com/OpenZeppelin/openzeppelin-contracts/blob/master/contracts/token/ERC20/ERC20.sol\":10882:11012  if (currentAllowance < value) {... */\n      iszero\n      tag_211\n      jumpi\n        /* \"https://github.com/OpenZeppelin/openzeppelin-contracts/blob/master/contracts/token/ERC20/ERC20.sol\":10964:10971  spender */\n      dup3\n        /* \"https://github.com/OpenZeppelin/openzeppelin-contracts/blob/master/contracts/token/ERC20/ERC20.sol\":10973:10989  currentAllowance */\n      dup2\n        /* \"https://github.com/OpenZeppelin/openzeppelin-contracts/blob/master/contracts/token/ERC20/ERC20.sol\":10991:10996  value */\n      dup4\n        /* \"https://github.com/OpenZeppelin/openzeppelin-contracts/blob/master/contracts/token/ERC20/ERC20.sol\":10937:10997  ERC20InsufficientAllowance(spender, currentAllowance, value) */\n      mload(0x40)\n      0xfb8f41b200000000000000000000000000000000000000000000000000000000\n      dup2\n      mstore\n      0x04\n      add\n      tag_212\n      swap4\n      swap3\n      swap2\n      swap1\n      tag_213\n      jump\t// in\n    tag_212:\n      mload(0x40)\n      dup1\n      swap2\n      sub\n      swap1\n      revert\n        /* \"https://github.com/OpenZeppelin/openzeppelin-contracts/blob/master/contracts/token/ERC20/ERC20.sol\":10882:11012  if (currentAllowance < value) {... */\n    tag_211:\n        /* \"https://github.com/OpenZeppelin/openzeppelin-contracts/blob/master/contracts/token/ERC20/ERC20.sol\":11053:11110  _approve(owner, spender, currentAllowance - value, false) */\n      tag_214\n        /* \"https://github.com/OpenZeppelin/openzeppelin-contracts/blob/master/contracts/token/ERC20/ERC20.sol\":11062:11067  owner */\n      dup5\n        /* \"https://github.com/OpenZeppelin/openzeppelin-contracts/blob/master/contracts/token/ERC20/ERC20.sol\":11069:11076  spender */\n      dup5\n        /* \"https://github.com/OpenZeppelin/openzeppelin-contracts/blob/master/contracts/token/ERC20/ERC20.sol\":11097:11102  value */\n      dup5\n        /* \"https://github.com/OpenZeppelin/openzeppelin-contracts/blob/master/contracts/token/ERC20/ERC20.sol\":11078:11094  currentAllowance */\n      dup5\n        /* \"https://github.com/OpenZeppelin/openzeppelin-contracts/blob/master/contracts/token/ERC20/ERC20.sol\":11078:11102  currentAllowance - value */\n      sub\n        /* \"https://github.com/OpenZeppelin/openzeppelin-contracts/blob/master/contracts/token/ERC20/ERC20.sol\":11104:11109  false */\n      0x00\n        /* \"https://github.com/OpenZeppelin/openzeppelin-contracts/blob/master/contracts/token/ERC20/ERC20.sol\":11053:11061  _approve */\n      tag_207\n        /* \"https://github.com/OpenZeppelin/openzeppelin-contracts/blob/master/contracts/token/ERC20/ERC20.sol\":11053:11110  _approve(owner, spender, currentAllowance - value, false) */\n      jump\t// in\n    tag_214:\n        /* \"https://github.com/OpenZeppelin/openzeppelin-contracts/blob/master/contracts/token/ERC20/ERC20.sol\":10825:11135  if (currentAllowance != type(uint256).max) {... */\n    tag_210:\n        /* \"https://github.com/OpenZeppelin/openzeppelin-contracts/blob/master/contracts/token/ERC20/ERC20.sol\":10753:11141  {... */\n      pop\n        /* \"https://github.com/OpenZeppelin/openzeppelin-contracts/blob/master/contracts/token/ERC20/ERC20.sol\":10664:11141  function _spendAllowance(address owner, address spender, uint256 value) internal virtual {... */\n      pop\n      pop\n      pop\n      jump\t// out\n        /* \"https://github.com/OpenZeppelin/openzeppelin-contracts/blob/master/contracts/token/ERC20/ERC20.sol\":5657:5957  function _transfer(address from, address to, uint256 value) internal {... */\n    tag_142:\n        /* \"https://github.com/OpenZeppelin/openzeppelin-contracts/blob/master/contracts/token/ERC20/ERC20.sol\":5756:5757  0 */\n      0x00\n        /* \"https://github.com/OpenZeppelin/openzeppelin-contracts/blob/master/contracts/token/ERC20/ERC20.sol\":5740:5758  from == address(0) */\n      0xffffffffffffffffffffffffffffffffffffffff\n      and\n        /* \"https://github.com/OpenZeppelin/openzeppelin-contracts/blob/master/contracts/token/ERC20/ERC20.sol\":5740:5744  from */\n      dup4\n        /* \"https://github.com/OpenZeppelin/openzeppelin-contracts/blob/master/contracts/token/ERC20/ERC20.sol\":5740:5758  from == address(0) */\n      0xffffffffffffffffffffffffffffffffffffffff\n      and\n      sub\n        /* \"https://github.com/OpenZeppelin/openzeppelin-contracts/blob/master/contracts/token/ERC20/ERC20.sol\":5736:5822  if (from == address(0)) {... */\n      tag_216\n      jumpi\n        /* \"https://github.com/OpenZeppelin/openzeppelin-contracts/blob/master/contracts/token/ERC20/ERC20.sol\":5808:5809  0 */\n      0x00\n        /* \"https://github.com/OpenZeppelin/openzeppelin-contracts/blob/master/contracts/token/ERC20/ERC20.sol\":5781:5811  ERC20InvalidSender(address(0)) */\n      mload(0x40)\n      0x96c6fd1e00000000000000000000000000000000000000000000000000000000\n      dup2\n      mstore\n      0x04\n      add\n      tag_217\n      swap2\n      swap1\n      tag_80\n      jump\t// in\n    tag_217:\n      mload(0x40)\n      dup1\n      swap2\n      sub\n      swap1\n      revert\n        /* \"https://github.com/OpenZeppelin/openzeppelin-contracts/blob/master/contracts/token/ERC20/ERC20.sol\":5736:5822  if (from == address(0)) {... */\n    tag_216:\n        /* \"https://github.com/OpenZeppelin/openzeppelin-contracts/blob/master/contracts/token/ERC20/ERC20.sol\":5849:5850  0 */\n      0x00\n        /* \"https://github.com/OpenZeppelin/openzeppelin-contracts/blob/master/contracts/token/ERC20/ERC20.sol\":5835:5851  to == address(0) */\n      0xffffffffffffffffffffffffffffffffffffffff\n      and\n        /* \"https://github.com/OpenZeppelin/openzeppelin-contracts/blob/master/contracts/token/ERC20/ERC20.sol\":5835:5837  to */\n      dup3\n        /* \"https://github.com/OpenZeppelin/openzeppelin-contracts/blob/master/contracts/token/ERC20/ERC20.sol\":5835:5851  to == address(0) */\n      0xffffffffffffffffffffffffffffffffffffffff\n      and\n      sub\n        /* \"https://github.com/OpenZeppelin/openzeppelin-contracts/blob/master/contracts/token/ERC20/ERC20.sol\":5831:5917  if (to == address(0)) {... */\n      tag_218\n      jumpi\n        /* \"https://github.com/OpenZeppelin/openzeppelin-contracts/blob/master/contracts/token/ERC20/ERC20.sol\":5903:5904  0 */\n      0x00\n        /* \"https://github.com/OpenZeppelin/openzeppelin-contracts/blob/master/contracts/token/ERC20/ERC20.sol\":5874:5906  ERC20InvalidReceiver(address(0)) */\n      mload(0x40)\n      0xec442f0500000000000000000000000000000000000000000000000000000000\n      dup2\n      mstore\n      0x04\n      add\n      tag_219\n      swap2\n      swap1\n      tag_80\n      jump\t// in\n    tag_219:\n      mload(0x40)\n      dup1\n      swap2\n      sub\n      swap1\n      revert\n        /* \"https://github.com/OpenZeppelin/openzeppelin-contracts/blob/master/contracts/token/ERC20/ERC20.sol\":5831:5917  if (to == address(0)) {... */\n    tag_218:\n        /* \"https://github.com/OpenZeppelin/openzeppelin-contracts/blob/master/contracts/token/ERC20/ERC20.sol\":5926:5950  _update(from, to, value) */\n      tag_220\n        /* \"https://github.com/OpenZeppelin/openzeppelin-contracts/blob/master/contracts/token/ERC20/ERC20.sol\":5934:5938  from */\n      dup4\n        /* \"https://github.com/OpenZeppelin/openzeppelin-contracts/blob/master/contracts/token/ERC20/ERC20.sol\":5940:5942  to */\n      dup4\n        /* \"https://github.com/OpenZeppelin/openzeppelin-contracts/blob/master/contracts/token/ERC20/ERC20.sol\":5944:5949  value */\n      dup4\n        /* \"https://github.com/OpenZeppelin/openzeppelin-contracts/blob/master/contracts/token/ERC20/ERC20.sol\":5926:5933  _update */\n      tag_221\n        /* \"https://github.com/OpenZeppelin/openzeppelin-contracts/blob/master/contracts/token/ERC20/ERC20.sol\":5926:5950  _update(from, to, value) */\n      jump\t// in\n    tag_220:\n        /* \"https://github.com/OpenZeppelin/openzeppelin-contracts/blob/master/contracts/token/ERC20/ERC20.sol\":5657:5957  function _transfer(address from, address to, uint256 value) internal {... */\n      pop\n      pop\n      pop\n      jump\t// out\n        /* \"contracts/locationSmartContract.sol\":5018:6272  function isInZone(... */\n    tag_179:\n        /* \"contracts/locationSmartContract.sol\":5228:5232  bool */\n      0x00\n        /* \"contracts/locationSmartContract.sol\":5653:5668  uint256 latDiff */\n      dup1\n        /* \"contracts/locationSmartContract.sol\":5684:5694  _latitude2 */\n      dup5\n        /* \"contracts/locationSmartContract.sol\":5671:5681  _latitude1 */\n      dup8\n        /* \"contracts/locationSmartContract.sol\":5671:5694  _latitude1 - _latitude2 */\n      tag_223\n      swap2\n      swap1\n      tag_224\n      jump\t// in\n    tag_223:\n        /* \"contracts/locationSmartContract.sol\":5653:5694  uint256 latDiff = _latitude1 - _latitude2 */\n      swap1\n      pop\n        /* \"contracts/locationSmartContract.sol\":5708:5723  uint256 lonDiff */\n      0x00\n        /* \"contracts/locationSmartContract.sol\":5740:5751  _longitude2 */\n      dup5\n        /* \"contracts/locationSmartContract.sol\":5726:5737  _longitude1 */\n      dup8\n        /* \"contracts/locationSmartContract.sol\":5726:5751  _longitude1 - _longitude2 */\n      tag_225\n      swap2\n      swap1\n      tag_224\n      jump\t// in\n    tag_225:\n        /* \"contracts/locationSmartContract.sol\":5708:5751  uint256 lonDiff = _longitude1 - _longitude2 */\n      swap1\n      pop\n        /* \"contracts/locationSmartContract.sol\":6116:6132  uint256 distance */\n      0x00\n        /* \"contracts/locationSmartContract.sol\":6145:6152  lonDiff */\n      dup2\n        /* \"contracts/locationSmartContract.sol\":6135:6142  latDiff */\n      dup4\n        /* \"contracts/locationSmartContract.sol\":6135:6152  latDiff + lonDiff */\n      tag_226\n      swap2\n      swap1\n      tag_227\n      jump\t// in\n    tag_226:\n        /* \"contracts/locationSmartContract.sol\":6116:6152  uint256 distance = latDiff + lonDiff */\n      swap1\n      pop\n        /* \"contracts/locationSmartContract.sol\":6254:6261  _radius */\n      dup5\n        /* \"contracts/locationSmartContract.sol\":6242:6250  distance */\n      dup2\n        /* \"contracts/locationSmartContract.sol\":6242:6261  distance <= _radius */\n      gt\n      iszero\n        /* \"contracts/locationSmartContract.sol\":6235:6261  return distance <= _radius */\n      swap4\n      pop\n      pop\n      pop\n      pop\n        /* \"contracts/locationSmartContract.sol\":5018:6272  function isInZone(... */\n      swap6\n      swap5\n      pop\n      pop\n      pop\n      pop\n      pop\n      jump\t// out\n        /* \"https://github.com/OpenZeppelin/openzeppelin-contracts/blob/master/contracts/token/ERC20/ERC20.sol\":9950:10382  function _approve(address owner, address spender, uint256 value, bool emitEvent) internal virtual {... */\n    tag_207:\n        /* \"https://github.com/OpenZeppelin/openzeppelin-contracts/blob/master/contracts/token/ERC20/ERC20.sol\":10079:10080  0 */\n      0x00\n        /* \"https://github.com/OpenZeppelin/openzeppelin-contracts/blob/master/contracts/token/ERC20/ERC20.sol\":10062:10081  owner == address(0) */\n      0xffffffffffffffffffffffffffffffffffffffff\n      and\n        /* \"https://github.com/OpenZeppelin/openzeppelin-contracts/blob/master/contracts/token/ERC20/ERC20.sol\":10062:10067  owner */\n      dup5\n        /* \"https://github.com/OpenZeppelin/openzeppelin-contracts/blob/master/contracts/token/ERC20/ERC20.sol\":10062:10081  owner == address(0) */\n      0xffffffffffffffffffffffffffffffffffffffff\n      and\n      sub\n        /* \"https://github.com/OpenZeppelin/openzeppelin-contracts/blob/master/contracts/token/ERC20/ERC20.sol\":10058:10147  if (owner == address(0)) {... */\n      tag_229\n      jumpi\n        /* \"https://github.com/OpenZeppelin/openzeppelin-contracts/blob/master/contracts/token/ERC20/ERC20.sol\":10133:10134  0 */\n      0x00\n        /* \"https://github.com/OpenZeppelin/openzeppelin-contracts/blob/master/contracts/token/ERC20/ERC20.sol\":10104:10136  ERC20InvalidApprover(address(0)) */\n      mload(0x40)\n      0xe602df0500000000000000000000000000000000000000000000000000000000\n      dup2\n      mstore\n      0x04\n      add\n      tag_230\n      swap2\n      swap1\n      tag_80\n      jump\t// in\n    tag_230:\n      mload(0x40)\n      dup1\n      swap2\n      sub\n      swap1\n      revert\n        /* \"https://github.com/OpenZeppelin/openzeppelin-contracts/blob/master/contracts/token/ERC20/ERC20.sol\":10058:10147  if (owner == address(0)) {... */\n    tag_229:\n        /* \"https://github.com/OpenZeppelin/openzeppelin-contracts/blob/master/contracts/token/ERC20/ERC20.sol\":10179:10180  0 */\n      0x00\n        /* \"https://github.com/OpenZeppelin/openzeppelin-contracts/blob/master/contracts/token/ERC20/ERC20.sol\":10160:10181  spender == address(0) */\n      0xffffffffffffffffffffffffffffffffffffffff\n      and\n        /* \"https://github.com/OpenZeppelin/openzeppelin-contracts/blob/master/contracts/token/ERC20/ERC20.sol\":10160:10167  spender */\n      dup4\n        /* \"https://github.com/OpenZeppelin/openzeppelin-contracts/blob/master/contracts/token/ERC20/ERC20.sol\":10160:10181  spender == address(0) */\n      0xffffffffffffffffffffffffffffffffffffffff\n      and\n      sub\n        /* \"https://github.com/OpenZeppelin/openzeppelin-contracts/blob/master/contracts/token/ERC20/ERC20.sol\":10156:10246  if (spender == address(0)) {... */\n      tag_231\n      jumpi\n        /* \"https://github.com/OpenZeppelin/openzeppelin-contracts/blob/master/contracts/token/ERC20/ERC20.sol\":10232:10233  0 */\n      0x00\n        /* \"https://github.com/OpenZeppelin/openzeppelin-contracts/blob/master/contracts/token/ERC20/ERC20.sol\":10204:10235  ERC20InvalidSpender(address(0)) */\n      mload(0x40)\n      0x94280d6200000000000000000000000000000000000000000000000000000000\n      dup2\n      mstore\n      0x04\n      add\n      tag_232\n      swap2\n      swap1\n      tag_80\n      jump\t// in\n    tag_232:\n      mload(0x40)\n      dup1\n      swap2\n      sub\n      swap1\n      revert\n        /* \"https://github.com/OpenZeppelin/openzeppelin-contracts/blob/master/contracts/token/ERC20/ERC20.sol\":10156:10246  if (spender == address(0)) {... */\n    tag_231:\n        /* \"https://github.com/OpenZeppelin/openzeppelin-contracts/blob/master/contracts/token/ERC20/ERC20.sol\":10285:10290  value */\n      dup2\n        /* \"https://github.com/OpenZeppelin/openzeppelin-contracts/blob/master/contracts/token/ERC20/ERC20.sol\":10255:10266  _allowances */\n      0x01\n        /* \"https://github.com/OpenZeppelin/openzeppelin-contracts/blob/master/contracts/token/ERC20/ERC20.sol\":10255:10273  _allowances[owner] */\n      0x00\n        /* \"https://github.com/OpenZeppelin/openzeppelin-contracts/blob/master/contracts/token/ERC20/ERC20.sol\":10267:10272  owner */\n      dup7\n        /* \"https://github.com/OpenZeppelin/openzeppelin-contracts/blob/master/contracts/token/ERC20/ERC20.sol\":10255:10273  _allowances[owner] */\n      0xffffffffffffffffffffffffffffffffffffffff\n      and\n      0xffffffffffffffffffffffffffffffffffffffff\n      and\n      dup2\n      mstore\n      0x20\n      add\n      swap1\n      dup2\n      mstore\n      0x20\n      add\n      0x00\n      keccak256\n        /* \"https://github.com/OpenZeppelin/openzeppelin-contracts/blob/master/contracts/token/ERC20/ERC20.sol\":10255:10282  _allowances[owner][spender] */\n      0x00\n        /* \"https://github.com/OpenZeppelin/openzeppelin-contracts/blob/master/contracts/token/ERC20/ERC20.sol\":10274:10281  spender */\n      dup6\n        /* \"https://github.com/OpenZeppelin/openzeppelin-contracts/blob/master/contracts/token/ERC20/ERC20.sol\":10255:10282  _allowances[owner][spender] */\n      0xffffffffffffffffffffffffffffffffffffffff\n      and\n      0xffffffffffffffffffffffffffffffffffffffff\n      and\n      dup2\n      mstore\n      0x20\n      add\n      swap1\n      dup2\n      mstore\n      0x20\n      add\n      0x00\n      keccak256\n        /* \"https://github.com/OpenZeppelin/openzeppelin-contracts/blob/master/contracts/token/ERC20/ERC20.sol\":10255:10290  _allowances[owner][spender] = value */\n      dup2\n      swap1\n      sstore\n      pop\n        /* \"https://github.com/OpenZeppelin/openzeppelin-contracts/blob/master/contracts/token/ERC20/ERC20.sol\":10304:10313  emitEvent */\n      dup1\n        /* \"https://github.com/OpenZeppelin/openzeppelin-contracts/blob/master/contracts/token/ERC20/ERC20.sol\":10300:10376  if (emitEvent) {... */\n      iszero\n      tag_233\n      jumpi\n        /* \"https://github.com/OpenZeppelin/openzeppelin-contracts/blob/master/contracts/token/ERC20/ERC20.sol\":10350:10357  spender */\n      dup3\n        /* \"https://github.com/OpenZeppelin/openzeppelin-contracts/blob/master/contracts/token/ERC20/ERC20.sol\":10334:10365  Approval(owner, spender, value) */\n      0xffffffffffffffffffffffffffffffffffffffff\n      and\n        /* \"https://github.com/OpenZeppelin/openzeppelin-contracts/blob/master/contracts/token/ERC20/ERC20.sol\":10343:10348  owner */\n      dup5\n        /* \"https://github.com/OpenZeppelin/openzeppelin-contracts/blob/master/contracts/token/ERC20/ERC20.sol\":10334:10365  Approval(owner, spender, value) */\n      0xffffffffffffffffffffffffffffffffffffffff\n      and\n      0x8c5be1e5ebec7d5bd14f71427d1e84f3dd0314c0f7b2291e5b200ac8c7c3b925\n        /* \"https://github.com/OpenZeppelin/openzeppelin-contracts/blob/master/contracts/token/ERC20/ERC20.sol\":10359:10364  value */\n      dup5\n        /* \"https://github.com/OpenZeppelin/openzeppelin-contracts/blob/master/contracts/token/ERC20/ERC20.sol\":10334:10365  Approval(owner, spender, value) */\n      mload(0x40)\n      tag_234\n      swap2\n      swap1\n      tag_35\n      jump\t// in\n    tag_234:\n      mload(0x40)\n      dup1\n      swap2\n      sub\n      swap1\n      log3\n        /* \"https://github.com/OpenZeppelin/openzeppelin-contracts/blob/master/contracts/token/ERC20/ERC20.sol\":10300:10376  if (emitEvent) {... */\n    tag_233:\n        /* \"https://github.com/OpenZeppelin/openzeppelin-contracts/blob/master/contracts/token/ERC20/ERC20.sol\":9950:10382  function _approve(address owner, address spender, uint256 value, bool emitEvent) internal virtual {... */\n      pop\n      pop\n      pop\n      pop\n      jump\t// out\n        /* \"https://github.com/OpenZeppelin/openzeppelin-contracts/blob/master/contracts/token/ERC20/ERC20.sol\":6272:7379  function _update(address from, address to, uint256 value) internal virtual {... */\n    tag_221:\n        /* \"https://github.com/OpenZeppelin/openzeppelin-contracts/blob/master/contracts/token/ERC20/ERC20.sol\":6377:6378  0 */\n      0x00\n        /* \"https://github.com/OpenZeppelin/openzeppelin-contracts/blob/master/contracts/token/ERC20/ERC20.sol\":6361:6379  from == address(0) */\n      0xffffffffffffffffffffffffffffffffffffffff\n      and\n        /* \"https://github.com/OpenZeppelin/openzeppelin-contracts/blob/master/contracts/token/ERC20/ERC20.sol\":6361:6365  from */\n      dup4\n        /* \"https://github.com/OpenZeppelin/openzeppelin-contracts/blob/master/contracts/token/ERC20/ERC20.sol\":6361:6379  from == address(0) */\n      0xffffffffffffffffffffffffffffffffffffffff\n      and\n      sub\n        /* \"https://github.com/OpenZeppelin/openzeppelin-contracts/blob/master/contracts/token/ERC20/ERC20.sol\":6357:6897  if (from == address(0)) {... */\n      tag_236\n      jumpi\n        /* \"https://github.com/OpenZeppelin/openzeppelin-contracts/blob/master/contracts/token/ERC20/ERC20.sol\":6513:6518  value */\n      dup1\n        /* \"https://github.com/OpenZeppelin/openzeppelin-contracts/blob/master/contracts/token/ERC20/ERC20.sol\":6497:6509  _totalSupply */\n      0x02\n      0x00\n        /* \"https://github.com/OpenZeppelin/openzeppelin-contracts/blob/master/contracts/token/ERC20/ERC20.sol\":6497:6518  _totalSupply += value */\n      dup3\n      dup3\n      sload\n      tag_237\n      swap2\n      swap1\n      tag_227\n      jump\t// in\n    tag_237:\n      swap3\n      pop\n      pop\n      dup2\n      swap1\n      sstore\n      pop\n        /* \"https://github.com/OpenZeppelin/openzeppelin-contracts/blob/master/contracts/token/ERC20/ERC20.sol\":6357:6897  if (from == address(0)) {... */\n      jump(tag_238)\n    tag_236:\n        /* \"https://github.com/OpenZeppelin/openzeppelin-contracts/blob/master/contracts/token/ERC20/ERC20.sol\":6549:6568  uint256 fromBalance */\n      0x00\n        /* \"https://github.com/OpenZeppelin/openzeppelin-contracts/blob/master/contracts/token/ERC20/ERC20.sol\":6571:6580  _balances */\n      dup1\n        /* \"https://github.com/OpenZeppelin/openzeppelin-contracts/blob/master/contracts/token/ERC20/ERC20.sol\":6571:6586  _balances[from] */\n      0x00\n        /* \"https://github.com/OpenZeppelin/openzeppelin-contracts/blob/master/contracts/token/ERC20/ERC20.sol\":6581:6585  from */\n      dup6\n        /* \"https://github.com/OpenZeppelin/openzeppelin-contracts/blob/master/contracts/token/ERC20/ERC20.sol\":6571:6586  _balances[from] */\n      0xffffffffffffffffffffffffffffffffffffffff\n      and\n      0xffffffffffffffffffffffffffffffffffffffff\n      and\n      dup2\n      mstore\n      0x20\n      add\n      swap1\n      dup2\n      mstore\n      0x20\n      add\n      0x00\n      keccak256\n      sload\n        /* \"https://github.com/OpenZeppelin/openzeppelin-contracts/blob/master/contracts/token/ERC20/ERC20.sol\":6549:6586  uint256 fromBalance = _balances[from] */\n      swap1\n      pop\n        /* \"https://github.com/OpenZeppelin/openzeppelin-contracts/blob/master/contracts/token/ERC20/ERC20.sol\":6618:6623  value */\n      dup2\n        /* \"https://github.com/OpenZeppelin/openzeppelin-contracts/blob/master/contracts/token/ERC20/ERC20.sol\":6604:6615  fromBalance */\n      dup2\n        /* \"https://github.com/OpenZeppelin/openzeppelin-contracts/blob/master/contracts/token/ERC20/ERC20.sol\":6604:6623  fromBalance < value */\n      lt\n        /* \"https://github.com/OpenZeppelin/openzeppelin-contracts/blob/master/contracts/token/ERC20/ERC20.sol\":6600:6715  if (fromBalance < value) {... */\n      iszero\n      tag_239\n      jumpi\n        /* \"https://github.com/OpenZeppelin/openzeppelin-contracts/blob/master/contracts/token/ERC20/ERC20.sol\":6675:6679  from */\n      dup4\n        /* \"https://github.com/OpenZeppelin/openzeppelin-contracts/blob/master/contracts/token/ERC20/ERC20.sol\":6681:6692  fromBalance */\n      dup2\n        /* \"https://github.com/OpenZeppelin/openzeppelin-contracts/blob/master/contracts/token/ERC20/ERC20.sol\":6694:6699  value */\n      dup4\n        /* \"https://github.com/OpenZeppelin/openzeppelin-contracts/blob/master/contracts/token/ERC20/ERC20.sol\":6650:6700  ERC20InsufficientBalance(from, fromBalance, value) */\n      mload(0x40)\n      0xe450d38c00000000000000000000000000000000000000000000000000000000\n      dup2\n      mstore\n      0x04\n      add\n      tag_240\n      swap4\n      swap3\n      swap2\n      swap1\n      tag_213\n      jump\t// in\n    tag_240:\n      mload(0x40)\n      dup1\n      swap2\n      sub\n      swap1\n      revert\n        /* \"https://github.com/OpenZeppelin/openzeppelin-contracts/blob/master/contracts/token/ERC20/ERC20.sol\":6600:6715  if (fromBalance < value) {... */\n    tag_239:\n        /* \"https://github.com/OpenZeppelin/openzeppelin-contracts/blob/master/contracts/token/ERC20/ERC20.sol\":6867:6872  value */\n      dup2\n        /* \"https://github.com/OpenZeppelin/openzeppelin-contracts/blob/master/contracts/token/ERC20/ERC20.sol\":6853:6864  fromBalance */\n      dup2\n        /* \"https://github.com/OpenZeppelin/openzeppelin-contracts/blob/master/contracts/token/ERC20/ERC20.sol\":6853:6872  fromBalance - value */\n      sub\n        /* \"https://github.com/OpenZeppelin/openzeppelin-contracts/blob/master/contracts/token/ERC20/ERC20.sol\":6835:6844  _balances */\n      0x00\n        /* \"https://github.com/OpenZeppelin/openzeppelin-contracts/blob/master/contracts/token/ERC20/ERC20.sol\":6835:6850  _balances[from] */\n      dup1\n        /* \"https://github.com/OpenZeppelin/openzeppelin-contracts/blob/master/contracts/token/ERC20/ERC20.sol\":6845:6849  from */\n      dup7\n        /* \"https://github.com/OpenZeppelin/openzeppelin-contracts/blob/master/contracts/token/ERC20/ERC20.sol\":6835:6850  _balances[from] */\n      0xffffffffffffffffffffffffffffffffffffffff\n      and\n      0xffffffffffffffffffffffffffffffffffffffff\n      and\n      dup2\n      mstore\n      0x20\n      add\n      swap1\n      dup2\n      mstore\n      0x20\n      add\n      0x00\n      keccak256\n        /* \"https://github.com/OpenZeppelin/openzeppelin-contracts/blob/master/contracts/token/ERC20/ERC20.sol\":6835:6872  _balances[from] = fromBalance - value */\n      dup2\n      swap1\n      sstore\n      pop\n        /* \"https://github.com/OpenZeppelin/openzeppelin-contracts/blob/master/contracts/token/ERC20/ERC20.sol\":6535:6897  {... */\n      pop\n        /* \"https://github.com/OpenZeppelin/openzeppelin-contracts/blob/master/contracts/token/ERC20/ERC20.sol\":6357:6897  if (from == address(0)) {... */\n    tag_238:\n        /* \"https://github.com/OpenZeppelin/openzeppelin-contracts/blob/master/contracts/token/ERC20/ERC20.sol\":6925:6926  0 */\n      0x00\n        /* \"https://github.com/OpenZeppelin/openzeppelin-contracts/blob/master/contracts/token/ERC20/ERC20.sol\":6911:6927  to == address(0) */\n      0xffffffffffffffffffffffffffffffffffffffff\n      and\n        /* \"https://github.com/OpenZeppelin/openzeppelin-contracts/blob/master/contracts/token/ERC20/ERC20.sol\":6911:6913  to */\n      dup3\n        /* \"https://github.com/OpenZeppelin/openzeppelin-contracts/blob/master/contracts/token/ERC20/ERC20.sol\":6911:6927  to == address(0) */\n      0xffffffffffffffffffffffffffffffffffffffff\n      and\n      sub\n        /* \"https://github.com/OpenZeppelin/openzeppelin-contracts/blob/master/contracts/token/ERC20/ERC20.sol\":6907:7332  if (to == address(0)) {... */\n      tag_241\n      jumpi\n        /* \"https://github.com/OpenZeppelin/openzeppelin-contracts/blob/master/contracts/token/ERC20/ERC20.sol\":7090:7095  value */\n      dup1\n        /* \"https://github.com/OpenZeppelin/openzeppelin-contracts/blob/master/contracts/token/ERC20/ERC20.sol\":7074:7086  _totalSupply */\n      0x02\n      0x00\n        /* \"https://github.com/OpenZeppelin/openzeppelin-contracts/blob/master/contracts/token/ERC20/ERC20.sol\":7074:7095  _totalSupply -= value */\n      dup3\n      dup3\n      sload\n      sub\n      swap3\n      pop\n      pop\n      dup2\n      swap1\n      sstore\n      pop\n        /* \"https://github.com/OpenZeppelin/openzeppelin-contracts/blob/master/contracts/token/ERC20/ERC20.sol\":6907:7332  if (to == address(0)) {... */\n      jump(tag_242)\n    tag_241:\n        /* \"https://github.com/OpenZeppelin/openzeppelin-contracts/blob/master/contracts/token/ERC20/ERC20.sol\":7302:7307  value */\n      dup1\n        /* \"https://github.com/OpenZeppelin/openzeppelin-contracts/blob/master/contracts/token/ERC20/ERC20.sol\":7285:7294  _balances */\n      0x00\n        /* \"https://github.com/OpenZeppelin/openzeppelin-contracts/blob/master/contracts/token/ERC20/ERC20.sol\":7285:7298  _balances[to] */\n      dup1\n        /* \"https://github.com/OpenZeppelin/openzeppelin-contracts/blob/master/contracts/token/ERC20/ERC20.sol\":7295:7297  to */\n      dup5\n        /* \"https://github.com/OpenZeppelin/openzeppelin-contracts/blob/master/contracts/token/ERC20/ERC20.sol\":7285:7298  _balances[to] */\n      0xffffffffffffffffffffffffffffffffffffffff\n      and\n      0xffffffffffffffffffffffffffffffffffffffff\n      and\n      dup2\n      mstore\n      0x20\n      add\n      swap1\n      dup2\n      mstore\n      0x20\n      add\n      0x00\n      keccak256\n      0x00\n        /* \"https://github.com/OpenZeppelin/openzeppelin-contracts/blob/master/contracts/token/ERC20/ERC20.sol\":7285:7307  _balances[to] += value */\n      dup3\n      dup3\n      sload\n      add\n      swap3\n      pop\n      pop\n      dup2\n      swap1\n      sstore\n      pop\n        /* \"https://github.com/OpenZeppelin/openzeppelin-contracts/blob/master/contracts/token/ERC20/ERC20.sol\":6907:7332  if (to == address(0)) {... */\n    tag_242:\n        /* \"https://github.com/OpenZeppelin/openzeppelin-contracts/blob/master/contracts/token/ERC20/ERC20.sol\":7362:7364  to */\n      dup2\n        /* \"https://github.com/OpenZeppelin/openzeppelin-contracts/blob/master/contracts/token/ERC20/ERC20.sol\":7347:7372  Transfer(from, to, value) */\n      0xffffffffffffffffffffffffffffffffffffffff\n      and\n        /* \"https://github.com/OpenZeppelin/openzeppelin-contracts/blob/master/contracts/token/ERC20/ERC20.sol\":7356:7360  from */\n      dup4\n        /* \"https://github.com/OpenZeppelin/openzeppelin-contracts/blob/master/contracts/token/ERC20/ERC20.sol\":7347:7372  Transfer(from, to, value) */\n      0xffffffffffffffffffffffffffffffffffffffff\n      and\n      0xddf252ad1be2c89b69c2b068fc378daa952ba7f163c4a11628f55a4df523b3ef\n        /* \"https://github.com/OpenZeppelin/openzeppelin-contracts/blob/master/contracts/token/ERC20/ERC20.sol\":7366:7371  value */\n      dup4\n        /* \"https://github.com/OpenZeppelin/openzeppelin-contracts/blob/master/contracts/token/ERC20/ERC20.sol\":7347:7372  Transfer(from, to, value) */\n      mload(0x40)\n      tag_243\n      swap2\n      swap1\n      tag_35\n      jump\t// in\n    tag_243:\n      mload(0x40)\n      dup1\n      swap2\n      sub\n      swap1\n      log3\n        /* \"https://github.com/OpenZeppelin/openzeppelin-contracts/blob/master/contracts/token/ERC20/ERC20.sol\":6272:7379  function _update(address from, address to, uint256 value) internal virtual {... */\n      pop\n      pop\n      pop\n      jump\t// out\n        /* \"#utility.yul\":7:106   */\n    tag_244:\n        /* \"#utility.yul\":59:65   */\n      0x00\n        /* \"#utility.yul\":93:98   */\n      dup2\n        /* \"#utility.yul\":87:99   */\n      mload\n        /* \"#utility.yul\":77:99   */\n      swap1\n      pop\n        /* \"#utility.yul\":7:106   */\n      swap2\n      swap1\n      pop\n      jump\t// out\n        /* \"#utility.yul\":112:281   */\n    tag_245:\n        /* \"#utility.yul\":196:207   */\n      0x00\n        /* \"#utility.yul\":230:236   */\n      dup3\n        /* \"#utility.yul\":225:228   */\n      dup3\n        /* \"#utility.yul\":218:237   */\n      mstore\n        /* \"#utility.yul\":270:274   */\n      0x20\n        /* \"#utility.yul\":265:268   */\n      dup3\n        /* \"#utility.yul\":261:275   */\n      add\n        /* \"#utility.yul\":246:275   */\n      swap1\n      pop\n        /* \"#utility.yul\":112:281   */\n      swap3\n      swap2\n      pop\n      pop\n      jump\t// out\n        /* \"#utility.yul\":287:533   */\n    tag_246:\n        /* \"#utility.yul\":368:369   */\n      0x00\n        /* \"#utility.yul\":378:491   */\n    tag_305:\n        /* \"#utility.yul\":392:398   */\n      dup4\n        /* \"#utility.yul\":389:390   */\n      dup2\n        /* \"#utility.yul\":386:399   */\n      lt\n        /* \"#utility.yul\":378:491   */\n      iszero\n      tag_307\n      jumpi\n        /* \"#utility.yul\":477:478   */\n      dup1\n        /* \"#utility.yul\":472:475   */\n      dup3\n        /* \"#utility.yul\":468:479   */\n      add\n        /* \"#utility.yul\":462:480   */\n      mload\n        /* \"#utility.yul\":458:459   */\n      dup2\n        /* \"#utility.yul\":453:456   */\n      dup5\n        /* \"#utility.yul\":449:460   */\n      add\n        /* \"#utility.yul\":442:481   */\n      mstore\n        /* \"#utility.yul\":414:416   */\n      0x20\n        /* \"#utility.yul\":411:412   */\n      dup2\n        /* \"#utility.yul\":407:417   */\n      add\n        /* \"#utility.yul\":402:417   */\n      swap1\n      pop\n        /* \"#utility.yul\":378:491   */\n      jump(tag_305)\n    tag_307:\n        /* \"#utility.yul\":525:526   */\n      0x00\n        /* \"#utility.yul\":516:522   */\n      dup5\n        /* \"#utility.yul\":511:514   */\n      dup5\n        /* \"#utility.yul\":507:523   */\n      add\n        /* \"#utility.yul\":500:527   */\n      mstore\n        /* \"#utility.yul\":349:533   */\n      pop\n        /* \"#utility.yul\":287:533   */\n      pop\n      pop\n      pop\n      jump\t// out\n        /* \"#utility.yul\":539:641   */\n    tag_247:\n        /* \"#utility.yul\":580:586   */\n      0x00\n        /* \"#utility.yul\":631:633   */\n      0x1f\n        /* \"#utility.yul\":627:634   */\n      not\n        /* \"#utility.yul\":622:624   */\n      0x1f\n        /* \"#utility.yul\":615:620   */\n      dup4\n        /* \"#utility.yul\":611:625   */\n      add\n        /* \"#utility.yul\":607:635   */\n      and\n        /* \"#utility.yul\":597:635   */\n      swap1\n      pop\n        /* \"#utility.yul\":539:641   */\n      swap2\n      swap1\n      pop\n      jump\t// out\n        /* \"#utility.yul\":647:1024   */\n    tag_248:\n        /* \"#utility.yul\":735:738   */\n      0x00\n        /* \"#utility.yul\":763:802   */\n      tag_310\n        /* \"#utility.yul\":796:801   */\n      dup3\n        /* \"#utility.yul\":763:802   */\n      tag_244\n      jump\t// in\n    tag_310:\n        /* \"#utility.yul\":818:889   */\n      tag_311\n        /* \"#utility.yul\":882:888   */\n      dup2\n        /* \"#utility.yul\":877:880   */\n      dup6\n        /* \"#utility.yul\":818:889   */\n      tag_245\n      jump\t// in\n    tag_311:\n        /* \"#utility.yul\":811:889   */\n      swap4\n      pop\n        /* \"#utility.yul\":898:963   */\n      tag_312\n        /* \"#utility.yul\":956:962   */\n      dup2\n        /* \"#utility.yul\":951:954   */\n      dup6\n        /* \"#utility.yul\":944:948   */\n      0x20\n        /* \"#utility.yul\":937:942   */\n      dup7\n        /* \"#utility.yul\":933:949   */\n      add\n        /* \"#utility.yul\":898:963   */\n      tag_246\n      jump\t// in\n    tag_312:\n        /* \"#utility.yul\":988:1017   */\n      tag_313\n        /* \"#utility.yul\":1010:1016   */\n      dup2\n        /* \"#utility.yul\":988:1017   */\n      tag_247\n      jump\t// in\n    tag_313:\n        /* \"#utility.yul\":983:986   */\n      dup5\n        /* \"#utility.yul\":979:1018   */\n      add\n        /* \"#utility.yul\":972:1018   */\n      swap2\n      pop\n        /* \"#utility.yul\":739:1024   */\n      pop\n        /* \"#utility.yul\":647:1024   */\n      swap3\n      swap2\n      pop\n      pop\n      jump\t// out\n        /* \"#utility.yul\":1030:1343   */\n    tag_31:\n        /* \"#utility.yul\":1143:1147   */\n      0x00\n        /* \"#utility.yul\":1181:1183   */\n      0x20\n        /* \"#utility.yul\":1170:1179   */\n      dup3\n        /* \"#utility.yul\":1166:1184   */\n      add\n        /* \"#utility.yul\":1158:1184   */\n      swap1\n      pop\n        /* \"#utility.yul\":1230:1239   */\n      dup2\n        /* \"#utility.yul\":1224:1228   */\n      dup2\n        /* \"#utility.yul\":1220:1240   */\n      sub\n        /* \"#utility.yul\":1216:1217   */\n      0x00\n        /* \"#utility.yul\":1205:1214   */\n      dup4\n        /* \"#utility.yul\":1201:1218   */\n      add\n        /* \"#utility.yul\":1194:1241   */\n      mstore\n        /* \"#utility.yul\":1258:1336   */\n      tag_315\n        /* \"#utility.yul\":1331:1335   */\n      dup2\n        /* \"#utility.yul\":1322:1328   */\n      dup5\n        /* \"#utility.yul\":1258:1336   */\n      tag_248\n      jump\t// in\n    tag_315:\n        /* \"#utility.yul\":1250:1336   */\n      swap1\n      pop\n        /* \"#utility.yul\":1030:1343   */\n      swap3\n      swap2\n      pop\n      pop\n      jump\t// out\n        /* \"#utility.yul\":1349:1426   */\n    tag_249:\n        /* \"#utility.yul\":1386:1393   */\n      0x00\n        /* \"#utility.yul\":1415:1420   */\n      dup2\n        /* \"#utility.yul\":1404:1420   */\n      swap1\n      pop\n        /* \"#utility.yul\":1349:1426   */\n      swap2\n      swap1\n      pop\n      jump\t// out\n        /* \"#utility.yul\":1432:1550   */\n    tag_250:\n        /* \"#utility.yul\":1519:1543   */\n      tag_318\n        /* \"#utility.yul\":1537:1542   */\n      dup2\n        /* \"#utility.yul\":1519:1543   */\n      tag_249\n      jump\t// in\n    tag_318:\n        /* \"#utility.yul\":1514:1517   */\n      dup3\n        /* \"#utility.yul\":1507:1544   */\n      mstore\n        /* \"#utility.yul\":1432:1550   */\n      pop\n      pop\n      jump\t// out\n        /* \"#utility.yul\":1556:1778   */\n    tag_35:\n        /* \"#utility.yul\":1649:1653   */\n      0x00\n        /* \"#utility.yul\":1687:1689   */\n      0x20\n        /* \"#utility.yul\":1676:1685   */\n      dup3\n        /* \"#utility.yul\":1672:1690   */\n      add\n        /* \"#utility.yul\":1664:1690   */\n      swap1\n      pop\n        /* \"#utility.yul\":1700:1771   */\n      tag_320\n        /* \"#utility.yul\":1768:1769   */\n      0x00\n        /* \"#utility.yul\":1757:1766   */\n      dup4\n        /* \"#utility.yul\":1753:1770   */\n      add\n        /* \"#utility.yul\":1744:1750   */\n      dup5\n        /* \"#utility.yul\":1700:1771   */\n      tag_250\n      jump\t// in\n    tag_320:\n        /* \"#utility.yul\":1556:1778   */\n      swap3\n      swap2\n      pop\n      pop\n      jump\t// out\n        /* \"#utility.yul\":1784:1859   */\n    tag_251:\n        /* \"#utility.yul\":1817:1823   */\n      0x00\n        /* \"#utility.yul\":1850:1852   */\n      0x40\n        /* \"#utility.yul\":1844:1853   */\n      mload\n        /* \"#utility.yul\":1834:1853   */\n      swap1\n      pop\n        /* \"#utility.yul\":1784:1859   */\n      swap1\n      jump\t// out\n        /* \"#utility.yul\":1865:1982   */\n    tag_252:\n        /* \"#utility.yul\":1974:1975   */\n      0x00\n        /* \"#utility.yul\":1971:1972   */\n      dup1\n        /* \"#utility.yul\":1964:1976   */\n      revert\n        /* \"#utility.yul\":1988:2105   */\n    tag_253:\n        /* \"#utility.yul\":2097:2098   */\n      0x00\n        /* \"#utility.yul\":2094:2095   */\n      dup1\n        /* \"#utility.yul\":2087:2099   */\n      revert\n        /* \"#utility.yul\":2111:2237   */\n    tag_254:\n        /* \"#utility.yul\":2148:2155   */\n      0x00\n        /* \"#utility.yul\":2188:2230   */\n      0xffffffffffffffffffffffffffffffffffffffff\n        /* \"#utility.yul\":2181:2186   */\n      dup3\n        /* \"#utility.yul\":2177:2231   */\n      and\n        /* \"#utility.yul\":2166:2231   */\n      swap1\n      pop\n        /* \"#utility.yul\":2111:2237   */\n      swap2\n      swap1\n      pop\n      jump\t// out\n        /* \"#utility.yul\":2243:2339   */\n    tag_255:\n        /* \"#utility.yul\":2280:2287   */\n      0x00\n        /* \"#utility.yul\":2309:2333   */\n      tag_326\n        /* \"#utility.yul\":2327:2332   */\n      dup3\n        /* \"#utility.yul\":2309:2333   */\n      tag_254\n      jump\t// in\n    tag_326:\n        /* \"#utility.yul\":2298:2333   */\n      swap1\n      pop\n        /* \"#utility.yul\":2243:2339   */\n      swap2\n      swap1\n      pop\n      jump\t// out\n        /* \"#utility.yul\":2345:2467   */\n    tag_256:\n        /* \"#utility.yul\":2418:2442   */\n      tag_328\n        /* \"#utility.yul\":2436:2441   */\n      dup2\n        /* \"#utility.yul\":2418:2442   */\n      tag_255\n      jump\t// in\n    tag_328:\n        /* \"#utility.yul\":2411:2416   */\n      dup2\n        /* \"#utility.yul\":2408:2443   */\n      eq\n        /* \"#utility.yul\":2398:2461   */\n      tag_329\n      jumpi\n        /* \"#utility.yul\":2457:2458   */\n      0x00\n        /* \"#utility.yul\":2454:2455   */\n      dup1\n        /* \"#utility.yul\":2447:2459   */\n      revert\n        /* \"#utility.yul\":2398:2461   */\n    tag_329:\n        /* \"#utility.yul\":2345:2467   */\n      pop\n      jump\t// out\n        /* \"#utility.yul\":2473:2612   */\n    tag_257:\n        /* \"#utility.yul\":2519:2524   */\n      0x00\n        /* \"#utility.yul\":2557:2563   */\n      dup2\n        /* \"#utility.yul\":2544:2564   */\n      calldataload\n        /* \"#utility.yul\":2535:2564   */\n      swap1\n      pop\n        /* \"#utility.yul\":2573:2606   */\n      tag_331\n        /* \"#utility.yul\":2600:2605   */\n      dup2\n        /* \"#utility.yul\":2573:2606   */\n      tag_256\n      jump\t// in\n    tag_331:\n        /* \"#utility.yul\":2473:2612   */\n      swap3\n      swap2\n      pop\n      pop\n      jump\t// out\n        /* \"#utility.yul\":2618:2740   */\n    tag_258:\n        /* \"#utility.yul\":2691:2715   */\n      tag_333\n        /* \"#utility.yul\":2709:2714   */\n      dup2\n        /* \"#utility.yul\":2691:2715   */\n      tag_249\n      jump\t// in\n    tag_333:\n        /* \"#utility.yul\":2684:2689   */\n      dup2\n        /* \"#utility.yul\":2681:2716   */\n      eq\n        /* \"#utility.yul\":2671:2734   */\n      tag_334\n      jumpi\n        /* \"#utility.yul\":2730:2731   */\n      0x00\n        /* \"#utility.yul\":2727:2728   */\n      dup1\n        /* \"#utility.yul\":2720:2732   */\n      revert\n        /* \"#utility.yul\":2671:2734   */\n    tag_334:\n        /* \"#utility.yul\":2618:2740   */\n      pop\n      jump\t// out\n        /* \"#utility.yul\":2746:2885   */\n    tag_259:\n        /* \"#utility.yul\":2792:2797   */\n      0x00\n        /* \"#utility.yul\":2830:2836   */\n      dup2\n        /* \"#utility.yul\":2817:2837   */\n      calldataload\n        /* \"#utility.yul\":2808:2837   */\n      swap1\n      pop\n        /* \"#utility.yul\":2846:2879   */\n      tag_336\n        /* \"#utility.yul\":2873:2878   */\n      dup2\n        /* \"#utility.yul\":2846:2879   */\n      tag_258\n      jump\t// in\n    tag_336:\n        /* \"#utility.yul\":2746:2885   */\n      swap3\n      swap2\n      pop\n      pop\n      jump\t// out\n        /* \"#utility.yul\":2891:3365   */\n    tag_38:\n        /* \"#utility.yul\":2959:2965   */\n      0x00\n        /* \"#utility.yul\":2967:2973   */\n      dup1\n        /* \"#utility.yul\":3016:3018   */\n      0x40\n        /* \"#utility.yul\":3004:3013   */\n      dup4\n        /* \"#utility.yul\":2995:3002   */\n      dup6\n        /* \"#utility.yul\":2991:3014   */\n      sub\n        /* \"#utility.yul\":2987:3019   */\n      slt\n        /* \"#utility.yul\":2984:3103   */\n      iszero\n      tag_338\n      jumpi\n        /* \"#utility.yul\":3022:3101   */\n      tag_339\n      tag_252\n      jump\t// in\n    tag_339:\n        /* \"#utility.yul\":2984:3103   */\n    tag_338:\n        /* \"#utility.yul\":3142:3143   */\n      0x00\n        /* \"#utility.yul\":3167:3220   */\n      tag_340\n        /* \"#utility.yul\":3212:3219   */\n      dup6\n        /* \"#utility.yul\":3203:3209   */\n      dup3\n        /* \"#utility.yul\":3192:3201   */\n      dup7\n        /* \"#utility.yul\":3188:3210   */\n      add\n        /* \"#utility.yul\":3167:3220   */\n      tag_257\n      jump\t// in\n    tag_340:\n        /* \"#utility.yul\":3157:3220   */\n      swap3\n      pop\n        /* \"#utility.yul\":3113:3230   */\n      pop\n        /* \"#utility.yul\":3269:3271   */\n      0x20\n        /* \"#utility.yul\":3295:3348   */\n      tag_341\n        /* \"#utility.yul\":3340:3347   */\n      dup6\n        /* \"#utility.yul\":3331:3337   */\n      dup3\n        /* \"#utility.yul\":3320:3329   */\n      dup7\n        /* \"#utility.yul\":3316:3338   */\n      add\n        /* \"#utility.yul\":3295:3348   */\n      tag_259\n      jump\t// in\n    tag_341:\n        /* \"#utility.yul\":3285:3348   */\n      swap2\n      pop\n        /* \"#utility.yul\":3240:3358   */\n      pop\n        /* \"#utility.yul\":2891:3365   */\n      swap3\n      pop\n      swap3\n      swap1\n      pop\n      jump\t// out\n        /* \"#utility.yul\":3371:3461   */\n    tag_260:\n        /* \"#utility.yul\":3405:3412   */\n      0x00\n        /* \"#utility.yul\":3448:3453   */\n      dup2\n        /* \"#utility.yul\":3441:3454   */\n      iszero\n        /* \"#utility.yul\":3434:3455   */\n      iszero\n        /* \"#utility.yul\":3423:3455   */\n      swap1\n      pop\n        /* \"#utility.yul\":3371:3461   */\n      swap2\n      swap1\n      pop\n      jump\t// out\n        /* \"#utility.yul\":3467:3576   */\n    tag_261:\n        /* \"#utility.yul\":3548:3569   */\n      tag_344\n        /* \"#utility.yul\":3563:3568   */\n      dup2\n        /* \"#utility.yul\":3548:3569   */\n      tag_260\n      jump\t// in\n    tag_344:\n        /* \"#utility.yul\":3543:3546   */\n      dup3\n        /* \"#utility.yul\":3536:3570   */\n      mstore\n        /* \"#utility.yul\":3467:3576   */\n      pop\n      pop\n      jump\t// out\n        /* \"#utility.yul\":3582:3792   */\n    tag_41:\n        /* \"#utility.yul\":3669:3673   */\n      0x00\n        /* \"#utility.yul\":3707:3709   */\n      0x20\n        /* \"#utility.yul\":3696:3705   */\n      dup3\n        /* \"#utility.yul\":3692:3710   */\n      add\n        /* \"#utility.yul\":3684:3710   */\n      swap1\n      pop\n        /* \"#utility.yul\":3720:3785   */\n      tag_346\n        /* \"#utility.yul\":3782:3783   */\n      0x00\n        /* \"#utility.yul\":3771:3780   */\n      dup4\n        /* \"#utility.yul\":3767:3784   */\n      add\n        /* \"#utility.yul\":3758:3764   */\n      dup5\n        /* \"#utility.yul\":3720:3785   */\n      tag_261\n      jump\t// in\n    tag_346:\n        /* \"#utility.yul\":3582:3792   */\n      swap3\n      swap2\n      pop\n      pop\n      jump\t// out\n        /* \"#utility.yul\":3798:4127   */\n    tag_44:\n        /* \"#utility.yul\":3857:3863   */\n      0x00\n        /* \"#utility.yul\":3906:3908   */\n      0x20\n        /* \"#utility.yul\":3894:3903   */\n      dup3\n        /* \"#utility.yul\":3885:3892   */\n      dup5\n        /* \"#utility.yul\":3881:3904   */\n      sub\n        /* \"#utility.yul\":3877:3909   */\n      slt\n        /* \"#utility.yul\":3874:3993   */\n      iszero\n      tag_348\n      jumpi\n        /* \"#utility.yul\":3912:3991   */\n      tag_349\n      tag_252\n      jump\t// in\n    tag_349:\n        /* \"#utility.yul\":3874:3993   */\n    tag_348:\n        /* \"#utility.yul\":4032:4033   */\n      0x00\n        /* \"#utility.yul\":4057:4110   */\n      tag_350\n        /* \"#utility.yul\":4102:4109   */\n      dup5\n        /* \"#utility.yul\":4093:4099   */\n      dup3\n        /* \"#utility.yul\":4082:4091   */\n      dup6\n        /* \"#utility.yul\":4078:4100   */\n      add\n        /* \"#utility.yul\":4057:4110   */\n      tag_257\n      jump\t// in\n    tag_350:\n        /* \"#utility.yul\":4047:4110   */\n      swap2\n      pop\n        /* \"#utility.yul\":4003:4120   */\n      pop\n        /* \"#utility.yul\":3798:4127   */\n      swap3\n      swap2\n      pop\n      pop\n      jump\t// out\n        /* \"#utility.yul\":4133:4251   */\n    tag_262:\n        /* \"#utility.yul\":4220:4244   */\n      tag_352\n        /* \"#utility.yul\":4238:4243   */\n      dup2\n        /* \"#utility.yul\":4220:4244   */\n      tag_255\n      jump\t// in\n    tag_352:\n        /* \"#utility.yul\":4215:4218   */\n      dup3\n        /* \"#utility.yul\":4208:4245   */\n      mstore\n        /* \"#utility.yul\":4133:4251   */\n      pop\n      pop\n      jump\t// out\n        /* \"#utility.yul\":4257:4790   */\n    tag_47:\n        /* \"#utility.yul\":4426:4430   */\n      0x00\n        /* \"#utility.yul\":4464:4466   */\n      0x60\n        /* \"#utility.yul\":4453:4462   */\n      dup3\n        /* \"#utility.yul\":4449:4467   */\n      add\n        /* \"#utility.yul\":4441:4467   */\n      swap1\n      pop\n        /* \"#utility.yul\":4477:4548   */\n      tag_354\n        /* \"#utility.yul\":4545:4546   */\n      0x00\n        /* \"#utility.yul\":4534:4543   */\n      dup4\n        /* \"#utility.yul\":4530:4547   */\n      add\n        /* \"#utility.yul\":4521:4527   */\n      dup7\n        /* \"#utility.yul\":4477:4548   */\n      tag_250\n      jump\t// in\n    tag_354:\n        /* \"#utility.yul\":4595:4604   */\n      dup2\n        /* \"#utility.yul\":4589:4593   */\n      dup2\n        /* \"#utility.yul\":4585:4605   */\n      sub\n        /* \"#utility.yul\":4580:4582   */\n      0x20\n        /* \"#utility.yul\":4569:4578   */\n      dup4\n        /* \"#utility.yul\":4565:4583   */\n      add\n        /* \"#utility.yul\":4558:4606   */\n      mstore\n        /* \"#utility.yul\":4623:4701   */\n      tag_355\n        /* \"#utility.yul\":4696:4700   */\n      dup2\n        /* \"#utility.yul\":4687:4693   */\n      dup6\n        /* \"#utility.yul\":4623:4701   */\n      tag_248\n      jump\t// in\n    tag_355:\n        /* \"#utility.yul\":4615:4701   */\n      swap1\n      pop\n        /* \"#utility.yul\":4711:4783   */\n      tag_356\n        /* \"#utility.yul\":4779:4781   */\n      0x40\n        /* \"#utility.yul\":4768:4777   */\n      dup4\n        /* \"#utility.yul\":4764:4782   */\n      add\n        /* \"#utility.yul\":4755:4761   */\n      dup5\n        /* \"#utility.yul\":4711:4783   */\n      tag_262\n      jump\t// in\n    tag_356:\n        /* \"#utility.yul\":4257:4790   */\n      swap5\n      swap4\n      pop\n      pop\n      pop\n      pop\n      jump\t// out\n        /* \"#utility.yul\":4796:5415   */\n    tag_53:\n        /* \"#utility.yul\":4873:4879   */\n      0x00\n        /* \"#utility.yul\":4881:4887   */\n      dup1\n        /* \"#utility.yul\":4889:4895   */\n      0x00\n        /* \"#utility.yul\":4938:4940   */\n      0x60\n        /* \"#utility.yul\":4926:4935   */\n      dup5\n        /* \"#utility.yul\":4917:4924   */\n      dup7\n        /* \"#utility.yul\":4913:4936   */\n      sub\n        /* \"#utility.yul\":4909:4941   */\n      slt\n        /* \"#utility.yul\":4906:5025   */\n      iszero\n      tag_358\n      jumpi\n        /* \"#utility.yul\":4944:5023   */\n      tag_359\n      tag_252\n      jump\t// in\n    tag_359:\n        /* \"#utility.yul\":4906:5025   */\n    tag_358:\n        /* \"#utility.yul\":5064:5065   */\n      0x00\n        /* \"#utility.yul\":5089:5142   */\n      tag_360\n        /* \"#utility.yul\":5134:5141   */\n      dup7\n        /* \"#utility.yul\":5125:5131   */\n      dup3\n        /* \"#utility.yul\":5114:5123   */\n      dup8\n        /* \"#utility.yul\":5110:5132   */\n      add\n        /* \"#utility.yul\":5089:5142   */\n      tag_257\n      jump\t// in\n    tag_360:\n        /* \"#utility.yul\":5079:5142   */\n      swap4\n      pop\n        /* \"#utility.yul\":5035:5152   */\n      pop\n        /* \"#utility.yul\":5191:5193   */\n      0x20\n        /* \"#utility.yul\":5217:5270   */\n      tag_361\n        /* \"#utility.yul\":5262:5269   */\n      dup7\n        /* \"#utility.yul\":5253:5259   */\n      dup3\n        /* \"#utility.yul\":5242:5251   */\n      dup8\n        /* \"#utility.yul\":5238:5260   */\n      add\n        /* \"#utility.yul\":5217:5270   */\n      tag_257\n      jump\t// in\n    tag_361:\n        /* \"#utility.yul\":5207:5270   */\n      swap3\n      pop\n        /* \"#utility.yul\":5162:5280   */\n      pop\n        /* \"#utility.yul\":5319:5321   */\n      0x40\n        /* \"#utility.yul\":5345:5398   */\n      tag_362\n        /* \"#utility.yul\":5390:5397   */\n      dup7\n        /* \"#utility.yul\":5381:5387   */\n      dup3\n        /* \"#utility.yul\":5370:5379   */\n      dup8\n        /* \"#utility.yul\":5366:5388   */\n      add\n        /* \"#utility.yul\":5345:5398   */\n      tag_259\n      jump\t// in\n    tag_362:\n        /* \"#utility.yul\":5335:5398   */\n      swap2\n      pop\n        /* \"#utility.yul\":5290:5408   */\n      pop\n        /* \"#utility.yul\":4796:5415   */\n      swap3\n      pop\n      swap3\n      pop\n      swap3\n      jump\t// out\n        /* \"#utility.yul\":5421:5507   */\n    tag_263:\n        /* \"#utility.yul\":5456:5463   */\n      0x00\n        /* \"#utility.yul\":5496:5500   */\n      0xff\n        /* \"#utility.yul\":5489:5494   */\n      dup3\n        /* \"#utility.yul\":5485:5501   */\n      and\n        /* \"#utility.yul\":5474:5501   */\n      swap1\n      pop\n        /* \"#utility.yul\":5421:5507   */\n      swap2\n      swap1\n      pop\n      jump\t// out\n        /* \"#utility.yul\":5513:5625   */\n    tag_264:\n        /* \"#utility.yul\":5596:5618   */\n      tag_365\n        /* \"#utility.yul\":5612:5617   */\n      dup2\n        /* \"#utility.yul\":5596:5618   */\n      tag_263\n      jump\t// in\n    tag_365:\n        /* \"#utility.yul\":5591:5594   */\n      dup3\n        /* \"#utility.yul\":5584:5619   */\n      mstore\n        /* \"#utility.yul\":5513:5625   */\n      pop\n      pop\n      jump\t// out\n        /* \"#utility.yul\":5631:5845   */\n    tag_59:\n        /* \"#utility.yul\":5720:5724   */\n      0x00\n        /* \"#utility.yul\":5758:5760   */\n      0x20\n        /* \"#utility.yul\":5747:5756   */\n      dup3\n        /* \"#utility.yul\":5743:5761   */\n      add\n        /* \"#utility.yul\":5735:5761   */\n      swap1\n      pop\n        /* \"#utility.yul\":5771:5838   */\n      tag_367\n        /* \"#utility.yul\":5835:5836   */\n      0x00\n        /* \"#utility.yul\":5824:5833   */\n      dup4\n        /* \"#utility.yul\":5820:5837   */\n      add\n        /* \"#utility.yul\":5811:5817   */\n      dup5\n        /* \"#utility.yul\":5771:5838   */\n      tag_264\n      jump\t// in\n    tag_367:\n        /* \"#utility.yul\":5631:5845   */\n      swap3\n      swap2\n      pop\n      pop\n      jump\t// out\n        /* \"#utility.yul\":5851:5968   */\n    tag_265:\n        /* \"#utility.yul\":5960:5961   */\n      0x00\n        /* \"#utility.yul\":5957:5958   */\n      dup1\n        /* \"#utility.yul\":5950:5962   */\n      revert\n        /* \"#utility.yul\":5974:6091   */\n    tag_266:\n        /* \"#utility.yul\":6083:6084   */\n      0x00\n        /* \"#utility.yul\":6080:6081   */\n      dup1\n        /* \"#utility.yul\":6073:6085   */\n      revert\n        /* \"#utility.yul\":6097:6277   */\n    tag_267:\n        /* \"#utility.yul\":6145:6222   */\n      0x4e487b7100000000000000000000000000000000000000000000000000000000\n        /* \"#utility.yul\":6142:6143   */\n      0x00\n        /* \"#utility.yul\":6135:6223   */\n      mstore\n        /* \"#utility.yul\":6242:6246   */\n      0x41\n        /* \"#utility.yul\":6239:6240   */\n      0x04\n        /* \"#utility.yul\":6232:6247   */\n      mstore\n        /* \"#utility.yul\":6266:6270   */\n      0x24\n        /* \"#utility.yul\":6263:6264   */\n      0x00\n        /* \"#utility.yul\":6256:6271   */\n      revert\n        /* \"#utility.yul\":6283:6564   */\n    tag_268:\n        /* \"#utility.yul\":6366:6393   */\n      tag_372\n        /* \"#utility.yul\":6388:6392   */\n      dup3\n        /* \"#utility.yul\":6366:6393   */\n      tag_247\n      jump\t// in\n    tag_372:\n        /* \"#utility.yul\":6358:6364   */\n      dup2\n        /* \"#utility.yul\":6354:6394   */\n      add\n        /* \"#utility.yul\":6496:6502   */\n      dup2\n        /* \"#utility.yul\":6484:6494   */\n      dup2\n        /* \"#utility.yul\":6481:6503   */\n      lt\n        /* \"#utility.yul\":6460:6478   */\n      0xffffffffffffffff\n        /* \"#utility.yul\":6448:6458   */\n      dup3\n        /* \"#utility.yul\":6445:6479   */\n      gt\n        /* \"#utility.yul\":6442:6504   */\n      or\n        /* \"#utility.yul\":6439:6527   */\n      iszero\n      tag_373\n      jumpi\n        /* \"#utility.yul\":6507:6525   */\n      tag_374\n      tag_267\n      jump\t// in\n    tag_374:\n        /* \"#utility.yul\":6439:6527   */\n    tag_373:\n        /* \"#utility.yul\":6547:6557   */\n      dup1\n        /* \"#utility.yul\":6543:6545   */\n      0x40\n        /* \"#utility.yul\":6536:6558   */\n      mstore\n        /* \"#utility.yul\":6326:6564   */\n      pop\n        /* \"#utility.yul\":6283:6564   */\n      pop\n      pop\n      jump\t// out\n        /* \"#utility.yul\":6570:6699   */\n    tag_269:\n        /* \"#utility.yul\":6604:6610   */\n      0x00\n        /* \"#utility.yul\":6631:6651   */\n      tag_376\n      tag_251\n      jump\t// in\n    tag_376:\n        /* \"#utility.yul\":6621:6651   */\n      swap1\n      pop\n        /* \"#utility.yul\":6660:6693   */\n      tag_377\n        /* \"#utility.yul\":6688:6692   */\n      dup3\n        /* \"#utility.yul\":6680:6686   */\n      dup3\n        /* \"#utility.yul\":6660:6693   */\n      tag_268\n      jump\t// in\n    tag_377:\n        /* \"#utility.yul\":6570:6699   */\n      swap2\n      swap1\n      pop\n      jump\t// out\n        /* \"#utility.yul\":6705:7013   */\n    tag_270:\n        /* \"#utility.yul\":6767:6771   */\n      0x00\n        /* \"#utility.yul\":6857:6875   */\n      0xffffffffffffffff\n        /* \"#utility.yul\":6849:6855   */\n      dup3\n        /* \"#utility.yul\":6846:6876   */\n      gt\n        /* \"#utility.yul\":6843:6899   */\n      iszero\n      tag_379\n      jumpi\n        /* \"#utility.yul\":6879:6897   */\n      tag_380\n      tag_267\n      jump\t// in\n    tag_380:\n        /* \"#utility.yul\":6843:6899   */\n    tag_379:\n        /* \"#utility.yul\":6917:6946   */\n      tag_381\n        /* \"#utility.yul\":6939:6945   */\n      dup3\n        /* \"#utility.yul\":6917:6946   */\n      tag_247\n      jump\t// in\n    tag_381:\n        /* \"#utility.yul\":6909:6946   */\n      swap1\n      pop\n        /* \"#utility.yul\":7001:7005   */\n      0x20\n        /* \"#utility.yul\":6995:6999   */\n      dup2\n        /* \"#utility.yul\":6991:7006   */\n      add\n        /* \"#utility.yul\":6983:7006   */\n      swap1\n      pop\n        /* \"#utility.yul\":6705:7013   */\n      swap2\n      swap1\n      pop\n      jump\t// out\n        /* \"#utility.yul\":7019:7165   */\n    tag_271:\n        /* \"#utility.yul\":7116:7122   */\n      dup3\n        /* \"#utility.yul\":7111:7114   */\n      dup2\n        /* \"#utility.yul\":7106:7109   */\n      dup4\n        /* \"#utility.yul\":7093:7123   */\n      calldatacopy\n        /* \"#utility.yul\":7157:7158   */\n      0x00\n        /* \"#utility.yul\":7148:7154   */\n      dup4\n        /* \"#utility.yul\":7143:7146   */\n      dup4\n        /* \"#utility.yul\":7139:7155   */\n      add\n        /* \"#utility.yul\":7132:7159   */\n      mstore\n        /* \"#utility.yul\":7019:7165   */\n      pop\n      pop\n      pop\n      jump\t// out\n        /* \"#utility.yul\":7171:7596   */\n    tag_272:\n        /* \"#utility.yul\":7249:7254   */\n      0x00\n        /* \"#utility.yul\":7274:7340   */\n      tag_384\n        /* \"#utility.yul\":7290:7339   */\n      tag_385\n        /* \"#utility.yul\":7332:7338   */\n      dup5\n        /* \"#utility.yul\":7290:7339   */\n      tag_270\n      jump\t// in\n    tag_385:\n        /* \"#utility.yul\":7274:7340   */\n      tag_269\n      jump\t// in\n    tag_384:\n        /* \"#utility.yul\":7265:7340   */\n      swap1\n      pop\n        /* \"#utility.yul\":7363:7369   */\n      dup3\n        /* \"#utility.yul\":7356:7361   */\n      dup2\n        /* \"#utility.yul\":7349:7370   */\n      mstore\n        /* \"#utility.yul\":7401:7405   */\n      0x20\n        /* \"#utility.yul\":7394:7399   */\n      dup2\n        /* \"#utility.yul\":7390:7406   */\n      add\n        /* \"#utility.yul\":7439:7442   */\n      dup5\n        /* \"#utility.yul\":7430:7436   */\n      dup5\n        /* \"#utility.yul\":7425:7428   */\n      dup5\n        /* \"#utility.yul\":7421:7437   */\n      add\n        /* \"#utility.yul\":7418:7443   */\n      gt\n        /* \"#utility.yul\":7415:7527   */\n      iszero\n      tag_386\n      jumpi\n        /* \"#utility.yul\":7446:7525   */\n      tag_387\n      tag_266\n      jump\t// in\n    tag_387:\n        /* \"#utility.yul\":7415:7527   */\n    tag_386:\n        /* \"#utility.yul\":7536:7590   */\n      tag_388\n        /* \"#utility.yul\":7583:7589   */\n      dup5\n        /* \"#utility.yul\":7578:7581   */\n      dup3\n        /* \"#utility.yul\":7573:7576   */\n      dup6\n        /* \"#utility.yul\":7536:7590   */\n      tag_271\n      jump\t// in\n    tag_388:\n        /* \"#utility.yul\":7255:7596   */\n      pop\n        /* \"#utility.yul\":7171:7596   */\n      swap4\n      swap3\n      pop\n      pop\n      pop\n      jump\t// out\n        /* \"#utility.yul\":7616:7956   */\n    tag_273:\n        /* \"#utility.yul\":7672:7677   */\n      0x00\n        /* \"#utility.yul\":7721:7724   */\n      dup3\n        /* \"#utility.yul\":7714:7718   */\n      0x1f\n        /* \"#utility.yul\":7706:7712   */\n      dup4\n        /* \"#utility.yul\":7702:7719   */\n      add\n        /* \"#utility.yul\":7698:7725   */\n      slt\n        /* \"#utility.yul\":7688:7810   */\n      tag_390\n      jumpi\n        /* \"#utility.yul\":7729:7808   */\n      tag_391\n      tag_265\n      jump\t// in\n    tag_391:\n        /* \"#utility.yul\":7688:7810   */\n    tag_390:\n        /* \"#utility.yul\":7846:7852   */\n      dup2\n        /* \"#utility.yul\":7833:7853   */\n      calldataload\n        /* \"#utility.yul\":7871:7950   */\n      tag_392\n        /* \"#utility.yul\":7946:7949   */\n      dup5\n        /* \"#utility.yul\":7938:7944   */\n      dup3\n        /* \"#utility.yul\":7931:7935   */\n      0x20\n        /* \"#utility.yul\":7923:7929   */\n      dup7\n        /* \"#utility.yul\":7919:7936   */\n      add\n        /* \"#utility.yul\":7871:7950   */\n      tag_272\n      jump\t// in\n    tag_392:\n        /* \"#utility.yul\":7862:7950   */\n      swap2\n      pop\n        /* \"#utility.yul\":7678:7956   */\n      pop\n        /* \"#utility.yul\":7616:7956   */\n      swap3\n      swap2\n      pop\n      pop\n      jump\t// out\n        /* \"#utility.yul\":7962:8616   */\n    tag_62:\n        /* \"#utility.yul\":8040:8046   */\n      0x00\n        /* \"#utility.yul\":8048:8054   */\n      dup1\n        /* \"#utility.yul\":8097:8099   */\n      0x40\n        /* \"#utility.yul\":8085:8094   */\n      dup4\n        /* \"#utility.yul\":8076:8083   */\n      dup6\n        /* \"#utility.yul\":8072:8095   */\n      sub\n        /* \"#utility.yul\":8068:8100   */\n      slt\n        /* \"#utility.yul\":8065:8184   */\n      iszero\n      tag_394\n      jumpi\n        /* \"#utility.yul\":8103:8182   */\n      tag_395\n      tag_252\n      jump\t// in\n    tag_395:\n        /* \"#utility.yul\":8065:8184   */\n    tag_394:\n        /* \"#utility.yul\":8251:8252   */\n      0x00\n        /* \"#utility.yul\":8240:8249   */\n      dup4\n        /* \"#utility.yul\":8236:8253   */\n      add\n        /* \"#utility.yul\":8223:8254   */\n      calldataload\n        /* \"#utility.yul\":8281:8299   */\n      0xffffffffffffffff\n        /* \"#utility.yul\":8273:8279   */\n      dup2\n        /* \"#utility.yul\":8270:8300   */\n      gt\n        /* \"#utility.yul\":8267:8384   */\n      iszero\n      tag_396\n      jumpi\n        /* \"#utility.yul\":8303:8382   */\n      tag_397\n      tag_253\n      jump\t// in\n    tag_397:\n        /* \"#utility.yul\":8267:8384   */\n    tag_396:\n        /* \"#utility.yul\":8408:8471   */\n      tag_398\n        /* \"#utility.yul\":8463:8470   */\n      dup6\n        /* \"#utility.yul\":8454:8460   */\n      dup3\n        /* \"#utility.yul\":8443:8452   */\n      dup7\n        /* \"#utility.yul\":8439:8461   */\n      add\n        /* \"#utility.yul\":8408:8471   */\n      tag_273\n      jump\t// in\n    tag_398:\n        /* \"#utility.yul\":8398:8471   */\n      swap3\n      pop\n        /* \"#utility.yul\":8194:8481   */\n      pop\n        /* \"#utility.yul\":8520:8522   */\n      0x20\n        /* \"#utility.yul\":8546:8599   */\n      tag_399\n        /* \"#utility.yul\":8591:8598   */\n      dup6\n        /* \"#utility.yul\":8582:8588   */\n      dup3\n        /* \"#utility.yul\":8571:8580   */\n      dup7\n        /* \"#utility.yul\":8567:8589   */\n      add\n        /* \"#utility.yul\":8546:8599   */\n      tag_257\n      jump\t// in\n    tag_399:\n        /* \"#utility.yul\":8536:8599   */\n      swap2\n      pop\n        /* \"#utility.yul\":8491:8609   */\n      pop\n        /* \"#utility.yul\":7962:8616   */\n      swap3\n      pop\n      swap3\n      swap1\n      pop\n      jump\t// out\n        /* \"#utility.yul\":8622:8951   */\n    tag_69:\n        /* \"#utility.yul\":8681:8687   */\n      0x00\n        /* \"#utility.yul\":8730:8732   */\n      0x20\n        /* \"#utility.yul\":8718:8727   */\n      dup3\n        /* \"#utility.yul\":8709:8716   */\n      dup5\n        /* \"#utility.yul\":8705:8728   */\n      sub\n        /* \"#utility.yul\":8701:8733   */\n      slt\n        /* \"#utility.yul\":8698:8817   */\n      iszero\n      tag_401\n      jumpi\n        /* \"#utility.yul\":8736:8815   */\n      tag_402\n      tag_252\n      jump\t// in\n    tag_402:\n        /* \"#utility.yul\":8698:8817   */\n    tag_401:\n        /* \"#utility.yul\":8856:8857   */\n      0x00\n        /* \"#utility.yul\":8881:8934   */\n      tag_403\n        /* \"#utility.yul\":8926:8933   */\n      dup5\n        /* \"#utility.yul\":8917:8923   */\n      dup3\n        /* \"#utility.yul\":8906:8915   */\n      dup6\n        /* \"#utility.yul\":8902:8924   */\n      add\n        /* \"#utility.yul\":8881:8934   */\n      tag_259\n      jump\t// in\n    tag_403:\n        /* \"#utility.yul\":8871:8934   */\n      swap2\n      pop\n        /* \"#utility.yul\":8827:8944   */\n      pop\n        /* \"#utility.yul\":8622:8951   */\n      swap3\n      swap2\n      pop\n      pop\n      jump\t// out\n        /* \"#utility.yul\":8957:9137   */\n    tag_152:\n        /* \"#utility.yul\":9005:9082   */\n      0x4e487b7100000000000000000000000000000000000000000000000000000000\n        /* \"#utility.yul\":9002:9003   */\n      0x00\n        /* \"#utility.yul\":8995:9083   */\n      mstore\n        /* \"#utility.yul\":9102:9106   */\n      0x21\n        /* \"#utility.yul\":9099:9100   */\n      0x04\n        /* \"#utility.yul\":9092:9107   */\n      mstore\n        /* \"#utility.yul\":9126:9130   */\n      0x24\n        /* \"#utility.yul\":9123:9124   */\n      0x00\n        /* \"#utility.yul\":9116:9131   */\n      revert\n        /* \"#utility.yul\":9143:9262   */\n    tag_274:\n        /* \"#utility.yul\":9230:9231   */\n      0x04\n        /* \"#utility.yul\":9223:9228   */\n      dup2\n        /* \"#utility.yul\":9220:9232   */\n      lt\n        /* \"#utility.yul\":9210:9256   */\n      tag_406\n      jumpi\n        /* \"#utility.yul\":9236:9254   */\n      tag_407\n      tag_152\n      jump\t// in\n    tag_407:\n        /* \"#utility.yul\":9210:9256   */\n    tag_406:\n        /* \"#utility.yul\":9143:9262   */\n      pop\n      jump\t// out\n        /* \"#utility.yul\":9268:9407   */\n    tag_275:\n        /* \"#utility.yul\":9319:9326   */\n      0x00\n        /* \"#utility.yul\":9348:9353   */\n      dup2\n        /* \"#utility.yul\":9337:9353   */\n      swap1\n      pop\n        /* \"#utility.yul\":9354:9401   */\n      tag_409\n        /* \"#utility.yul\":9395:9400   */\n      dup3\n        /* \"#utility.yul\":9354:9401   */\n      tag_274\n      jump\t// in\n    tag_409:\n        /* \"#utility.yul\":9268:9407   */\n      swap2\n      swap1\n      pop\n      jump\t// out\n        /* \"#utility.yul\":9413:9552   */\n    tag_276:\n        /* \"#utility.yul\":9475:9484   */\n      0x00\n        /* \"#utility.yul\":9508:9546   */\n      tag_411\n        /* \"#utility.yul\":9540:9545   */\n      dup3\n        /* \"#utility.yul\":9508:9546   */\n      tag_275\n      jump\t// in\n    tag_411:\n        /* \"#utility.yul\":9495:9546   */\n      swap1\n      pop\n        /* \"#utility.yul\":9413:9552   */\n      swap2\n      swap1\n      pop\n      jump\t// out\n        /* \"#utility.yul\":9558:9713   */\n    tag_277:\n        /* \"#utility.yul\":9657:9706   */\n      tag_413\n        /* \"#utility.yul\":9700:9705   */\n      dup2\n        /* \"#utility.yul\":9657:9706   */\n      tag_276\n      jump\t// in\n    tag_413:\n        /* \"#utility.yul\":9652:9655   */\n      dup3\n        /* \"#utility.yul\":9645:9707   */\n      mstore\n        /* \"#utility.yul\":9558:9713   */\n      pop\n      pop\n      jump\t// out\n        /* \"#utility.yul\":9719:10296   */\n    tag_72:\n        /* \"#utility.yul\":9908:9912   */\n      0x00\n        /* \"#utility.yul\":9946:9949   */\n      0x80\n        /* \"#utility.yul\":9935:9944   */\n      dup3\n        /* \"#utility.yul\":9931:9950   */\n      add\n        /* \"#utility.yul\":9923:9950   */\n      swap1\n      pop\n        /* \"#utility.yul\":9960:10031   */\n      tag_415\n        /* \"#utility.yul\":10028:10029   */\n      0x00\n        /* \"#utility.yul\":10017:10026   */\n      dup4\n        /* \"#utility.yul\":10013:10030   */\n      add\n        /* \"#utility.yul\":10004:10010   */\n      dup8\n        /* \"#utility.yul\":9960:10031   */\n      tag_250\n      jump\t// in\n    tag_415:\n        /* \"#utility.yul\":10041:10113   */\n      tag_416\n        /* \"#utility.yul\":10109:10111   */\n      0x20\n        /* \"#utility.yul\":10098:10107   */\n      dup4\n        /* \"#utility.yul\":10094:10112   */\n      add\n        /* \"#utility.yul\":10085:10091   */\n      dup7\n        /* \"#utility.yul\":10041:10113   */\n      tag_250\n      jump\t// in\n    tag_416:\n        /* \"#utility.yul\":10123:10195   */\n      tag_417\n        /* \"#utility.yul\":10191:10193   */\n      0x40\n        /* \"#utility.yul\":10180:10189   */\n      dup4\n        /* \"#utility.yul\":10176:10194   */\n      add\n        /* \"#utility.yul\":10167:10173   */\n      dup6\n        /* \"#utility.yul\":10123:10195   */\n      tag_250\n      jump\t// in\n    tag_417:\n        /* \"#utility.yul\":10205:10289   */\n      tag_418\n        /* \"#utility.yul\":10285:10287   */\n      0x60\n        /* \"#utility.yul\":10274:10283   */\n      dup4\n        /* \"#utility.yul\":10270:10288   */\n      add\n        /* \"#utility.yul\":10261:10267   */\n      dup5\n        /* \"#utility.yul\":10205:10289   */\n      tag_277\n      jump\t// in\n    tag_418:\n        /* \"#utility.yul\":9719:10296   */\n      swap6\n      swap5\n      pop\n      pop\n      pop\n      pop\n      pop\n      jump\t// out\n        /* \"#utility.yul\":10302:10524   */\n    tag_80:\n        /* \"#utility.yul\":10395:10399   */\n      0x00\n        /* \"#utility.yul\":10433:10435   */\n      0x20\n        /* \"#utility.yul\":10422:10431   */\n      dup3\n        /* \"#utility.yul\":10418:10436   */\n      add\n        /* \"#utility.yul\":10410:10436   */\n      swap1\n      pop\n        /* \"#utility.yul\":10446:10517   */\n      tag_420\n        /* \"#utility.yul\":10514:10515   */\n      0x00\n        /* \"#utility.yul\":10503:10512   */\n      dup4\n        /* \"#utility.yul\":10499:10516   */\n      add\n        /* \"#utility.yul\":10490:10496   */\n      dup5\n        /* \"#utility.yul\":10446:10517   */\n      tag_262\n      jump\t// in\n    tag_420:\n        /* \"#utility.yul\":10302:10524   */\n      swap3\n      swap2\n      pop\n      pop\n      jump\t// out\n        /* \"#utility.yul\":10530:11295   */\n    tag_96:\n        /* \"#utility.yul\":10616:10622   */\n      0x00\n        /* \"#utility.yul\":10624:10630   */\n      dup1\n        /* \"#utility.yul\":10632:10638   */\n      0x00\n        /* \"#utility.yul\":10640:10646   */\n      dup1\n        /* \"#utility.yul\":10689:10692   */\n      0x80\n        /* \"#utility.yul\":10677:10686   */\n      dup6\n        /* \"#utility.yul\":10668:10675   */\n      dup8\n        /* \"#utility.yul\":10664:10687   */\n      sub\n        /* \"#utility.yul\":10660:10693   */\n      slt\n        /* \"#utility.yul\":10657:10777   */\n      iszero\n      tag_422\n      jumpi\n        /* \"#utility.yul\":10696:10775   */\n      tag_423\n      tag_252\n      jump\t// in\n    tag_423:\n        /* \"#utility.yul\":10657:10777   */\n    tag_422:\n        /* \"#utility.yul\":10816:10817   */\n      0x00\n        /* \"#utility.yul\":10841:10894   */\n      tag_424\n        /* \"#utility.yul\":10886:10893   */\n      dup8\n        /* \"#utility.yul\":10877:10883   */\n      dup3\n        /* \"#utility.yul\":10866:10875   */\n      dup9\n        /* \"#utility.yul\":10862:10884   */\n      add\n        /* \"#utility.yul\":10841:10894   */\n      tag_259\n      jump\t// in\n    tag_424:\n        /* \"#utility.yul\":10831:10894   */\n      swap5\n      pop\n        /* \"#utility.yul\":10787:10904   */\n      pop\n        /* \"#utility.yul\":10943:10945   */\n      0x20\n        /* \"#utility.yul\":10969:11022   */\n      tag_425\n        /* \"#utility.yul\":11014:11021   */\n      dup8\n        /* \"#utility.yul\":11005:11011   */\n      dup3\n        /* \"#utility.yul\":10994:11003   */\n      dup9\n        /* \"#utility.yul\":10990:11012   */\n      add\n        /* \"#utility.yul\":10969:11022   */\n      tag_259\n      jump\t// in\n    tag_425:\n        /* \"#utility.yul\":10959:11022   */\n      swap4\n      pop\n        /* \"#utility.yul\":10914:11032   */\n      pop\n        /* \"#utility.yul\":11071:11073   */\n      0x40\n        /* \"#utility.yul\":11097:11150   */\n      tag_426\n        /* \"#utility.yul\":11142:11149   */\n      dup8\n        /* \"#utility.yul\":11133:11139   */\n      dup3\n        /* \"#utility.yul\":11122:11131   */\n      dup9\n        /* \"#utility.yul\":11118:11140   */\n      add\n        /* \"#utility.yul\":11097:11150   */\n      tag_259\n      jump\t// in\n    tag_426:\n        /* \"#utility.yul\":11087:11150   */\n      swap3\n      pop\n        /* \"#utility.yul\":11042:11160   */\n      pop\n        /* \"#utility.yul\":11199:11201   */\n      0x60\n        /* \"#utility.yul\":11225:11278   */\n      tag_427\n        /* \"#utility.yul\":11270:11277   */\n      dup8\n        /* \"#utility.yul\":11261:11267   */\n      dup3\n        /* \"#utility.yul\":11250:11259   */\n      dup9\n        /* \"#utility.yul\":11246:11268   */\n      add\n        /* \"#utility.yul\":11225:11278   */\n      tag_259\n      jump\t// in\n    tag_427:\n        /* \"#utility.yul\":11215:11278   */\n      swap2\n      pop\n        /* \"#utility.yul\":11170:11288   */\n      pop\n        /* \"#utility.yul\":10530:11295   */\n      swap3\n      swap6\n      swap2\n      swap5\n      pop\n      swap3\n      pop\n      jump\t// out\n        /* \"#utility.yul\":11301:11775   */\n    tag_104:\n        /* \"#utility.yul\":11369:11375   */\n      0x00\n        /* \"#utility.yul\":11377:11383   */\n      dup1\n        /* \"#utility.yul\":11426:11428   */\n      0x40\n        /* \"#utility.yul\":11414:11423   */\n      dup4\n        /* \"#utility.yul\":11405:11412   */\n      dup6\n        /* \"#utility.yul\":11401:11424   */\n      sub\n        /* \"#utility.yul\":11397:11429   */\n      slt\n        /* \"#utility.yul\":11394:11513   */\n      iszero\n      tag_429\n      jumpi\n        /* \"#utility.yul\":11432:11511   */\n      tag_430\n      tag_252\n      jump\t// in\n    tag_430:\n        /* \"#utility.yul\":11394:11513   */\n    tag_429:\n        /* \"#utility.yul\":11552:11553   */\n      0x00\n        /* \"#utility.yul\":11577:11630   */\n      tag_431\n        /* \"#utility.yul\":11622:11629   */\n      dup6\n        /* \"#utility.yul\":11613:11619   */\n      dup3\n        /* \"#utility.yul\":11602:11611   */\n      dup7\n        /* \"#utility.yul\":11598:11620   */\n      add\n        /* \"#utility.yul\":11577:11630   */\n      tag_257\n      jump\t// in\n    tag_431:\n        /* \"#utility.yul\":11567:11630   */\n      swap3\n      pop\n        /* \"#utility.yul\":11523:11640   */\n      pop\n        /* \"#utility.yul\":11679:11681   */\n      0x20\n        /* \"#utility.yul\":11705:11758   */\n      tag_432\n        /* \"#utility.yul\":11750:11757   */\n      dup6\n        /* \"#utility.yul\":11741:11747   */\n      dup3\n        /* \"#utility.yul\":11730:11739   */\n      dup7\n        /* \"#utility.yul\":11726:11748   */\n      add\n        /* \"#utility.yul\":11705:11758   */\n      tag_257\n      jump\t// in\n    tag_432:\n        /* \"#utility.yul\":11695:11758   */\n      swap2\n      pop\n        /* \"#utility.yul\":11650:11768   */\n      pop\n        /* \"#utility.yul\":11301:11775   */\n      swap3\n      pop\n      swap3\n      swap1\n      pop\n      jump\t// out\n        /* \"#utility.yul\":11781:11889   */\n    tag_278:\n        /* \"#utility.yul\":11858:11882   */\n      tag_434\n        /* \"#utility.yul\":11876:11881   */\n      dup2\n        /* \"#utility.yul\":11858:11882   */\n      tag_249\n      jump\t// in\n    tag_434:\n        /* \"#utility.yul\":11853:11856   */\n      dup3\n        /* \"#utility.yul\":11846:11883   */\n      mstore\n        /* \"#utility.yul\":11781:11889   */\n      pop\n      pop\n      jump\t// out\n        /* \"#utility.yul\":11971:12517   */\n    tag_279:\n        /* \"#utility.yul\":12132:12136   */\n      0x40\n        /* \"#utility.yul\":12127:12130   */\n      dup3\n        /* \"#utility.yul\":12123:12137   */\n      add\n        /* \"#utility.yul\":12230:12234   */\n      0x00\n        /* \"#utility.yul\":12223:12228   */\n      dup3\n        /* \"#utility.yul\":12219:12235   */\n      add\n        /* \"#utility.yul\":12213:12236   */\n      mload\n        /* \"#utility.yul\":12249:12312   */\n      tag_436\n        /* \"#utility.yul\":12306:12310   */\n      0x00\n        /* \"#utility.yul\":12301:12304   */\n      dup6\n        /* \"#utility.yul\":12297:12311   */\n      add\n        /* \"#utility.yul\":12283:12295   */\n      dup3\n        /* \"#utility.yul\":12249:12312   */\n      tag_278\n      jump\t// in\n    tag_436:\n        /* \"#utility.yul\":12147:12322   */\n      pop\n        /* \"#utility.yul\":12418:12422   */\n      0x20\n        /* \"#utility.yul\":12411:12416   */\n      dup3\n        /* \"#utility.yul\":12407:12423   */\n      add\n        /* \"#utility.yul\":12401:12424   */\n      mload\n        /* \"#utility.yul\":12437:12500   */\n      tag_437\n        /* \"#utility.yul\":12494:12498   */\n      0x20\n        /* \"#utility.yul\":12489:12492   */\n      dup6\n        /* \"#utility.yul\":12485:12499   */\n      add\n        /* \"#utility.yul\":12471:12483   */\n      dup3\n        /* \"#utility.yul\":12437:12500   */\n      tag_278\n      jump\t// in\n    tag_437:\n        /* \"#utility.yul\":12332:12510   */\n      pop\n        /* \"#utility.yul\":12101:12517   */\n      pop\n        /* \"#utility.yul\":11971:12517   */\n      pop\n      pop\n      jump\t// out\n        /* \"#utility.yul\":12523:14108   */\n    tag_114:\n        /* \"#utility.yul\":12996:13000   */\n      0x00\n        /* \"#utility.yul\":13034:13037   */\n      0x01a0\n        /* \"#utility.yul\":13023:13032   */\n      dup3\n        /* \"#utility.yul\":13019:13038   */\n      add\n        /* \"#utility.yul\":13011:13038   */\n      swap1\n      pop\n        /* \"#utility.yul\":13048:13119   */\n      tag_439\n        /* \"#utility.yul\":13116:13117   */\n      0x00\n        /* \"#utility.yul\":13105:13114   */\n      dup4\n        /* \"#utility.yul\":13101:13118   */\n      add\n        /* \"#utility.yul\":13092:13098   */\n      dup16\n        /* \"#utility.yul\":13048:13119   */\n      tag_250\n      jump\t// in\n    tag_439:\n        /* \"#utility.yul\":13129:13201   */\n      tag_440\n        /* \"#utility.yul\":13197:13199   */\n      0x20\n        /* \"#utility.yul\":13186:13195   */\n      dup4\n        /* \"#utility.yul\":13182:13200   */\n      add\n        /* \"#utility.yul\":13173:13179   */\n      dup15\n        /* \"#utility.yul\":13129:13201   */\n      tag_250\n      jump\t// in\n    tag_440:\n        /* \"#utility.yul\":13211:13283   */\n      tag_441\n        /* \"#utility.yul\":13279:13281   */\n      0x40\n        /* \"#utility.yul\":13268:13277   */\n      dup4\n        /* \"#utility.yul\":13264:13282   */\n      add\n        /* \"#utility.yul\":13255:13261   */\n      dup14\n        /* \"#utility.yul\":13211:13283   */\n      tag_250\n      jump\t// in\n    tag_441:\n        /* \"#utility.yul\":13293:13365   */\n      tag_442\n        /* \"#utility.yul\":13361:13363   */\n      0x60\n        /* \"#utility.yul\":13350:13359   */\n      dup4\n        /* \"#utility.yul\":13346:13364   */\n      add\n        /* \"#utility.yul\":13337:13343   */\n      dup13\n        /* \"#utility.yul\":13293:13365   */\n      tag_250\n      jump\t// in\n    tag_442:\n        /* \"#utility.yul\":13375:13448   */\n      tag_443\n        /* \"#utility.yul\":13443:13446   */\n      0x80\n        /* \"#utility.yul\":13432:13441   */\n      dup4\n        /* \"#utility.yul\":13428:13447   */\n      add\n        /* \"#utility.yul\":13419:13425   */\n      dup12\n        /* \"#utility.yul\":13375:13448   */\n      tag_250\n      jump\t// in\n    tag_443:\n        /* \"#utility.yul\":13458:13531   */\n      tag_444\n        /* \"#utility.yul\":13526:13529   */\n      0xa0\n        /* \"#utility.yul\":13515:13524   */\n      dup4\n        /* \"#utility.yul\":13511:13530   */\n      add\n        /* \"#utility.yul\":13502:13508   */\n      dup11\n        /* \"#utility.yul\":13458:13531   */\n      tag_250\n      jump\t// in\n    tag_444:\n        /* \"#utility.yul\":13541:13614   */\n      tag_445\n        /* \"#utility.yul\":13609:13612   */\n      0xc0\n        /* \"#utility.yul\":13598:13607   */\n      dup4\n        /* \"#utility.yul\":13594:13613   */\n      add\n        /* \"#utility.yul\":13585:13591   */\n      dup10\n        /* \"#utility.yul\":13541:13614   */\n      tag_250\n      jump\t// in\n    tag_445:\n        /* \"#utility.yul\":13624:13697   */\n      tag_446\n        /* \"#utility.yul\":13692:13695   */\n      0xe0\n        /* \"#utility.yul\":13681:13690   */\n      dup4\n        /* \"#utility.yul\":13677:13696   */\n      add\n        /* \"#utility.yul\":13668:13674   */\n      dup9\n        /* \"#utility.yul\":13624:13697   */\n      tag_262\n      jump\t// in\n    tag_446:\n        /* \"#utility.yul\":13707:13780   */\n      tag_447\n        /* \"#utility.yul\":13775:13778   */\n      0x0100\n        /* \"#utility.yul\":13764:13773   */\n      dup4\n        /* \"#utility.yul\":13760:13779   */\n      add\n        /* \"#utility.yul\":13751:13757   */\n      dup8\n        /* \"#utility.yul\":13707:13780   */\n      tag_262\n      jump\t// in\n    tag_447:\n        /* \"#utility.yul\":13790:13857   */\n      tag_448\n        /* \"#utility.yul\":13852:13855   */\n      0x0120\n        /* \"#utility.yul\":13841:13850   */\n      dup4\n        /* \"#utility.yul\":13837:13856   */\n      add\n        /* \"#utility.yul\":13828:13834   */\n      dup7\n        /* \"#utility.yul\":13790:13857   */\n      tag_261\n      jump\t// in\n    tag_448:\n        /* \"#utility.yul\":13867:14005   */\n      tag_449\n        /* \"#utility.yul\":14000:14003   */\n      0x0140\n        /* \"#utility.yul\":13989:13998   */\n      dup4\n        /* \"#utility.yul\":13985:14004   */\n      add\n        /* \"#utility.yul\":13975:13982   */\n      dup6\n        /* \"#utility.yul\":13867:14005   */\n      tag_279\n      jump\t// in\n    tag_449:\n        /* \"#utility.yul\":14015:14101   */\n      tag_450\n        /* \"#utility.yul\":14096:14099   */\n      0x0180\n        /* \"#utility.yul\":14085:14094   */\n      dup4\n        /* \"#utility.yul\":14081:14100   */\n      add\n        /* \"#utility.yul\":14071:14078   */\n      dup5\n        /* \"#utility.yul\":14015:14101   */\n      tag_277\n      jump\t// in\n    tag_450:\n        /* \"#utility.yul\":12523:14108   */\n      swap14\n      swap13\n      pop\n      pop\n      pop\n      pop\n      pop\n      pop\n      pop\n      pop\n      pop\n      pop\n      pop\n      pop\n      pop\n      jump\t// out\n        /* \"#utility.yul\":14114:15463   */\n    tag_117:\n        /* \"#utility.yul\":14236:14242   */\n      0x00\n        /* \"#utility.yul\":14244:14250   */\n      dup1\n        /* \"#utility.yul\":14252:14258   */\n      0x00\n        /* \"#utility.yul\":14260:14266   */\n      dup1\n        /* \"#utility.yul\":14268:14274   */\n      0x00\n        /* \"#utility.yul\":14276:14282   */\n      dup1\n        /* \"#utility.yul\":14284:14290   */\n      0x00\n        /* \"#utility.yul\":14292:14298   */\n      dup1\n        /* \"#utility.yul\":14341:14344   */\n      0x0100\n        /* \"#utility.yul\":14329:14338   */\n      dup10\n        /* \"#utility.yul\":14320:14327   */\n      dup12\n        /* \"#utility.yul\":14316:14339   */\n      sub\n        /* \"#utility.yul\":14312:14345   */\n      slt\n        /* \"#utility.yul\":14309:14429   */\n      iszero\n      tag_452\n      jumpi\n        /* \"#utility.yul\":14348:14427   */\n      tag_453\n      tag_252\n      jump\t// in\n    tag_453:\n        /* \"#utility.yul\":14309:14429   */\n    tag_452:\n        /* \"#utility.yul\":14468:14469   */\n      0x00\n        /* \"#utility.yul\":14493:14546   */\n      tag_454\n        /* \"#utility.yul\":14538:14545   */\n      dup12\n        /* \"#utility.yul\":14529:14535   */\n      dup3\n        /* \"#utility.yul\":14518:14527   */\n      dup13\n        /* \"#utility.yul\":14514:14536   */\n      add\n        /* \"#utility.yul\":14493:14546   */\n      tag_259\n      jump\t// in\n    tag_454:\n        /* \"#utility.yul\":14483:14546   */\n      swap9\n      pop\n        /* \"#utility.yul\":14439:14556   */\n      pop\n        /* \"#utility.yul\":14595:14597   */\n      0x20\n        /* \"#utility.yul\":14621:14674   */\n      tag_455\n        /* \"#utility.yul\":14666:14673   */\n      dup12\n        /* \"#utility.yul\":14657:14663   */\n      dup3\n        /* \"#utility.yul\":14646:14655   */\n      dup13\n        /* \"#utility.yul\":14642:14664   */\n      add\n        /* \"#utility.yul\":14621:14674   */\n      tag_259\n      jump\t// in\n    tag_455:\n        /* \"#utility.yul\":14611:14674   */\n      swap8\n      pop\n        /* \"#utility.yul\":14566:14684   */\n      pop\n        /* \"#utility.yul\":14723:14725   */\n      0x40\n        /* \"#utility.yul\":14749:14802   */\n      tag_456\n        /* \"#utility.yul\":14794:14801   */\n      dup12\n        /* \"#utility.yul\":14785:14791   */\n      dup3\n        /* \"#utility.yul\":14774:14783   */\n      dup13\n        /* \"#utility.yul\":14770:14792   */\n      add\n        /* \"#utility.yul\":14749:14802   */\n      tag_259\n      jump\t// in\n    tag_456:\n        /* \"#utility.yul\":14739:14802   */\n      swap7\n      pop\n        /* \"#utility.yul\":14694:14812   */\n      pop\n        /* \"#utility.yul\":14851:14853   */\n      0x60\n        /* \"#utility.yul\":14877:14930   */\n      tag_457\n        /* \"#utility.yul\":14922:14929   */\n      dup12\n        /* \"#utility.yul\":14913:14919   */\n      dup3\n        /* \"#utility.yul\":14902:14911   */\n      dup13\n        /* \"#utility.yul\":14898:14920   */\n      add\n        /* \"#utility.yul\":14877:14930   */\n      tag_259\n      jump\t// in\n    tag_457:\n        /* \"#utility.yul\":14867:14930   */\n      swap6\n      pop\n        /* \"#utility.yul\":14822:14940   */\n      pop\n        /* \"#utility.yul\":14979:14982   */\n      0x80\n        /* \"#utility.yul\":15006:15059   */\n      tag_458\n        /* \"#utility.yul\":15051:15058   */\n      dup12\n        /* \"#utility.yul\":15042:15048   */\n      dup3\n        /* \"#utility.yul\":15031:15040   */\n      dup13\n        /* \"#utility.yul\":15027:15049   */\n      add\n        /* \"#utility.yul\":15006:15059   */\n      tag_259\n      jump\t// in\n    tag_458:\n        /* \"#utility.yul\":14996:15059   */\n      swap5\n      pop\n        /* \"#utility.yul\":14950:15069   */\n      pop\n        /* \"#utility.yul\":15108:15111   */\n      0xa0\n        /* \"#utility.yul\":15135:15188   */\n      tag_459\n        /* \"#utility.yul\":15180:15187   */\n      dup12\n        /* \"#utility.yul\":15171:15177   */\n      dup3\n        /* \"#utility.yul\":15160:15169   */\n      dup13\n        /* \"#utility.yul\":15156:15178   */\n      add\n        /* \"#utility.yul\":15135:15188   */\n      tag_259\n      jump\t// in\n    tag_459:\n        /* \"#utility.yul\":15125:15188   */\n      swap4\n      pop\n        /* \"#utility.yul\":15079:15198   */\n      pop\n        /* \"#utility.yul\":15237:15240   */\n      0xc0\n        /* \"#utility.yul\":15264:15317   */\n      tag_460\n        /* \"#utility.yul\":15309:15316   */\n      dup12\n        /* \"#utility.yul\":15300:15306   */\n      dup3\n        /* \"#utility.yul\":15289:15298   */\n      dup13\n        /* \"#utility.yul\":15285:15307   */\n      add\n        /* \"#utility.yul\":15264:15317   */\n      tag_257\n      jump\t// in\n    tag_460:\n        /* \"#utility.yul\":15254:15317   */\n      swap3\n      pop\n        /* \"#utility.yul\":15208:15327   */\n      pop\n        /* \"#utility.yul\":15366:15369   */\n      0xe0\n        /* \"#utility.yul\":15393:15446   */\n      tag_461\n        /* \"#utility.yul\":15438:15445   */\n      dup12\n        /* \"#utility.yul\":15429:15435   */\n      dup3\n        /* \"#utility.yul\":15418:15427   */\n      dup13\n        /* \"#utility.yul\":15414:15436   */\n      add\n        /* \"#utility.yul\":15393:15446   */\n      tag_257\n      jump\t// in\n    tag_461:\n        /* \"#utility.yul\":15383:15446   */\n      swap2\n      pop\n        /* \"#utility.yul\":15337:15456   */\n      pop\n        /* \"#utility.yul\":14114:15463   */\n      swap3\n      swap6\n      swap9\n      pop\n      swap3\n      swap6\n      swap9\n      swap1\n      swap4\n      swap7\n      pop\n      jump\t// out\n        /* \"#utility.yul\":15469:15649   */\n    tag_280:\n        /* \"#utility.yul\":15517:15594   */\n      0x4e487b7100000000000000000000000000000000000000000000000000000000\n        /* \"#utility.yul\":15514:15515   */\n      0x00\n        /* \"#utility.yul\":15507:15595   */\n      mstore\n        /* \"#utility.yul\":15614:15618   */\n      0x22\n        /* \"#utility.yul\":15611:15612   */\n      0x04\n        /* \"#utility.yul\":15604:15619   */\n      mstore\n        /* \"#utility.yul\":15638:15642   */\n      0x24\n        /* \"#utility.yul\":15635:15636   */\n      0x00\n        /* \"#utility.yul\":15628:15643   */\n      revert\n        /* \"#utility.yul\":15655:15975   */\n    tag_121:\n        /* \"#utility.yul\":15699:15705   */\n      0x00\n        /* \"#utility.yul\":15736:15737   */\n      0x02\n        /* \"#utility.yul\":15730:15734   */\n      dup3\n        /* \"#utility.yul\":15726:15738   */\n      div\n        /* \"#utility.yul\":15716:15738   */\n      swap1\n      pop\n        /* \"#utility.yul\":15783:15784   */\n      0x01\n        /* \"#utility.yul\":15777:15781   */\n      dup3\n        /* \"#utility.yul\":15773:15785   */\n      and\n        /* \"#utility.yul\":15804:15822   */\n      dup1\n        /* \"#utility.yul\":15794:15875   */\n      tag_464\n      jumpi\n        /* \"#utility.yul\":15860:15864   */\n      0x7f\n        /* \"#utility.yul\":15852:15858   */\n      dup3\n        /* \"#utility.yul\":15848:15865   */\n      and\n        /* \"#utility.yul\":15838:15865   */\n      swap2\n      pop\n        /* \"#utility.yul\":15794:15875   */\n    tag_464:\n        /* \"#utility.yul\":15922:15924   */\n      0x20\n        /* \"#utility.yul\":15914:15920   */\n      dup3\n        /* \"#utility.yul\":15911:15925   */\n      lt\n        /* \"#utility.yul\":15891:15909   */\n      dup2\n        /* \"#utility.yul\":15888:15926   */\n      sub\n        /* \"#utility.yul\":15885:15969   */\n      tag_465\n      jumpi\n        /* \"#utility.yul\":15941:15959   */\n      tag_466\n      tag_280\n      jump\t// in\n    tag_466:\n        /* \"#utility.yul\":15885:15969   */\n    tag_465:\n        /* \"#utility.yul\":15706:15975   */\n      pop\n        /* \"#utility.yul\":15655:15975   */\n      swap2\n      swap1\n      pop\n      jump\t// out\n        /* \"#utility.yul\":15981:16161   */\n    tag_281:\n        /* \"#utility.yul\":16029:16106   */\n      0x4e487b7100000000000000000000000000000000000000000000000000000000\n        /* \"#utility.yul\":16026:16027   */\n      0x00\n        /* \"#utility.yul\":16019:16107   */\n      mstore\n        /* \"#utility.yul\":16126:16130   */\n      0x11\n        /* \"#utility.yul\":16123:16124   */\n      0x04\n        /* \"#utility.yul\":16116:16131   */\n      mstore\n        /* \"#utility.yul\":16150:16154   */\n      0x24\n        /* \"#utility.yul\":16147:16148   */\n      0x00\n        /* \"#utility.yul\":16140:16155   */\n      revert\n        /* \"#utility.yul\":16167:16400   */\n    tag_146:\n        /* \"#utility.yul\":16206:16209   */\n      0x00\n        /* \"#utility.yul\":16229:16253   */\n      tag_469\n        /* \"#utility.yul\":16247:16252   */\n      dup3\n        /* \"#utility.yul\":16229:16253   */\n      tag_249\n      jump\t// in\n    tag_469:\n        /* \"#utility.yul\":16220:16253   */\n      swap2\n      pop\n        /* \"#utility.yul\":16275:16341   */\n      0xffffffffffffffffffffffffffffffffffffffffffffffffffffffffffffffff\n        /* \"#utility.yul\":16268:16273   */\n      dup3\n        /* \"#utility.yul\":16265:16342   */\n      sub\n        /* \"#utility.yul\":16262:16365   */\n      tag_470\n      jumpi\n        /* \"#utility.yul\":16345:16363   */\n      tag_471\n      tag_281\n      jump\t// in\n    tag_471:\n        /* \"#utility.yul\":16262:16365   */\n    tag_470:\n        /* \"#utility.yul\":16392:16393   */\n      0x01\n        /* \"#utility.yul\":16385:16390   */\n      dup3\n        /* \"#utility.yul\":16381:16394   */\n      add\n        /* \"#utility.yul\":16374:16394   */\n      swap1\n      pop\n        /* \"#utility.yul\":16167:16400   */\n      swap2\n      swap1\n      pop\n      jump\t// out\n        /* \"#utility.yul\":16406:16547   */\n    tag_282:\n        /* \"#utility.yul\":16455:16459   */\n      0x00\n        /* \"#utility.yul\":16478:16481   */\n      dup2\n        /* \"#utility.yul\":16470:16481   */\n      swap1\n      pop\n        /* \"#utility.yul\":16501:16504   */\n      dup2\n        /* \"#utility.yul\":16498:16499   */\n      0x00\n        /* \"#utility.yul\":16491:16505   */\n      mstore\n        /* \"#utility.yul\":16535:16539   */\n      0x20\n        /* \"#utility.yul\":16532:16533   */\n      0x00\n        /* \"#utility.yul\":16522:16540   */\n      keccak256\n        /* \"#utility.yul\":16514:16540   */\n      swap1\n      pop\n        /* \"#utility.yul\":16406:16547   */\n      swap2\n      swap1\n      pop\n      jump\t// out\n        /* \"#utility.yul\":16553:16646   */\n    tag_283:\n        /* \"#utility.yul\":16590:16596   */\n      0x00\n        /* \"#utility.yul\":16637:16639   */\n      0x20\n        /* \"#utility.yul\":16632:16634   */\n      0x1f\n        /* \"#utility.yul\":16625:16630   */\n      dup4\n        /* \"#utility.yul\":16621:16635   */\n      add\n        /* \"#utility.yul\":16617:16640   */\n      div\n        /* \"#utility.yul\":16607:16640   */\n      swap1\n      pop\n        /* \"#utility.yul\":16553:16646   */\n      swap2\n      swap1\n      pop\n      jump\t// out\n        /* \"#utility.yul\":16652:16759   */\n    tag_284:\n        /* \"#utility.yul\":16696:16704   */\n      0x00\n        /* \"#utility.yul\":16746:16751   */\n      dup3\n        /* \"#utility.yul\":16740:16744   */\n      dup3\n        /* \"#utility.yul\":16736:16752   */\n      shl\n        /* \"#utility.yul\":16715:16752   */\n      swap1\n      pop\n        /* \"#utility.yul\":16652:16759   */\n      swap3\n      swap2\n      pop\n      pop\n      jump\t// out\n        /* \"#utility.yul\":16765:17158   */\n    tag_285:\n        /* \"#utility.yul\":16834:16840   */\n      0x00\n        /* \"#utility.yul\":16884:16885   */\n      0x08\n        /* \"#utility.yul\":16872:16882   */\n      dup4\n        /* \"#utility.yul\":16868:16886   */\n      mul\n        /* \"#utility.yul\":16907:17004   */\n      tag_476\n        /* \"#utility.yul\":16937:17003   */\n      0xffffffffffffffffffffffffffffffffffffffffffffffffffffffffffffffff\n        /* \"#utility.yul\":16926:16935   */\n      dup3\n        /* \"#utility.yul\":16907:17004   */\n      tag_284\n      jump\t// in\n    tag_476:\n        /* \"#utility.yul\":17025:17064   */\n      tag_477\n        /* \"#utility.yul\":17055:17063   */\n      dup7\n        /* \"#utility.yul\":17044:17053   */\n      dup4\n        /* \"#utility.yul\":17025:17064   */\n      tag_284\n      jump\t// in\n    tag_477:\n        /* \"#utility.yul\":17013:17064   */\n      swap6\n      pop\n        /* \"#utility.yul\":17097:17101   */\n      dup1\n        /* \"#utility.yul\":17093:17102   */\n      not\n        /* \"#utility.yul\":17086:17091   */\n      dup5\n        /* \"#utility.yul\":17082:17103   */\n      and\n        /* \"#utility.yul\":17073:17103   */\n      swap4\n      pop\n        /* \"#utility.yul\":17146:17150   */\n      dup1\n        /* \"#utility.yul\":17136:17144   */\n      dup7\n        /* \"#utility.yul\":17132:17151   */\n      and\n        /* \"#utility.yul\":17125:17130   */\n      dup5\n        /* \"#utility.yul\":17122:17152   */\n      or\n        /* \"#utility.yul\":17112:17152   */\n      swap3\n      pop\n        /* \"#utility.yul\":16841:17158   */\n      pop\n      pop\n        /* \"#utility.yul\":16765:17158   */\n      swap4\n      swap3\n      pop\n      pop\n      pop\n      jump\t// out\n        /* \"#utility.yul\":17164:17224   */\n    tag_286:\n        /* \"#utility.yul\":17192:17195   */\n      0x00\n        /* \"#utility.yul\":17213:17218   */\n      dup2\n        /* \"#utility.yul\":17206:17218   */\n      swap1\n      pop\n        /* \"#utility.yul\":17164:17224   */\n      swap2\n      swap1\n      pop\n      jump\t// out\n        /* \"#utility.yul\":17230:17372   */\n    tag_287:\n        /* \"#utility.yul\":17280:17289   */\n      0x00\n        /* \"#utility.yul\":17313:17366   */\n      tag_480\n        /* \"#utility.yul\":17331:17365   */\n      tag_481\n        /* \"#utility.yul\":17340:17364   */\n      tag_482\n        /* \"#utility.yul\":17358:17363   */\n      dup5\n        /* \"#utility.yul\":17340:17364   */\n      tag_249\n      jump\t// in\n    tag_482:\n        /* \"#utility.yul\":17331:17365   */\n      tag_286\n      jump\t// in\n    tag_481:\n        /* \"#utility.yul\":17313:17366   */\n      tag_249\n      jump\t// in\n    tag_480:\n        /* \"#utility.yul\":17300:17366   */\n      swap1\n      pop\n        /* \"#utility.yul\":17230:17372   */\n      swap2\n      swap1\n      pop\n      jump\t// out\n        /* \"#utility.yul\":17378:17453   */\n    tag_288:\n        /* \"#utility.yul\":17421:17424   */\n      0x00\n        /* \"#utility.yul\":17442:17447   */\n      dup2\n        /* \"#utility.yul\":17435:17447   */\n      swap1\n      pop\n        /* \"#utility.yul\":17378:17453   */\n      swap2\n      swap1\n      pop\n      jump\t// out\n        /* \"#utility.yul\":17459:17728   */\n    tag_289:\n        /* \"#utility.yul\":17569:17608   */\n      tag_485\n        /* \"#utility.yul\":17600:17607   */\n      dup4\n        /* \"#utility.yul\":17569:17608   */\n      tag_287\n      jump\t// in\n    tag_485:\n        /* \"#utility.yul\":17630:17721   */\n      tag_486\n        /* \"#utility.yul\":17679:17720   */\n      tag_487\n        /* \"#utility.yul\":17703:17719   */\n      dup3\n        /* \"#utility.yul\":17679:17720   */\n      tag_288\n      jump\t// in\n    tag_487:\n        /* \"#utility.yul\":17671:17677   */\n      dup5\n        /* \"#utility.yul\":17664:17668   */\n      dup5\n        /* \"#utility.yul\":17658:17669   */\n      sload\n        /* \"#utility.yul\":17630:17721   */\n      tag_285\n      jump\t// in\n    tag_486:\n        /* \"#utility.yul\":17624:17628   */\n      dup3\n        /* \"#utility.yul\":17617:17722   */\n      sstore\n        /* \"#utility.yul\":17535:17728   */\n      pop\n        /* \"#utility.yul\":17459:17728   */\n      pop\n      pop\n      pop\n      jump\t// out\n        /* \"#utility.yul\":17734:17807   */\n    tag_290:\n        /* \"#utility.yul\":17779:17782   */\n      0x00\n        /* \"#utility.yul\":17734:17807   */\n      swap1\n      jump\t// out\n        /* \"#utility.yul\":17813:18002   */\n    tag_291:\n        /* \"#utility.yul\":17890:17922   */\n      tag_490\n      tag_290\n      jump\t// in\n    tag_490:\n        /* \"#utility.yul\":17931:17996   */\n      tag_491\n        /* \"#utility.yul\":17989:17995   */\n      dup2\n        /* \"#utility.yul\":17981:17987   */\n      dup5\n        /* \"#utility.yul\":17975:17979   */\n      dup5\n        /* \"#utility.yul\":17931:17996   */\n      tag_289\n      jump\t// in\n    tag_491:\n        /* \"#utility.yul\":17866:18002   */\n      pop\n        /* \"#utility.yul\":17813:18002   */\n      pop\n      pop\n      jump\t// out\n        /* \"#utility.yul\":18008:18194   */\n    tag_292:\n        /* \"#utility.yul\":18068:18188   */\n    tag_493:\n        /* \"#utility.yul\":18085:18088   */\n      dup2\n        /* \"#utility.yul\":18078:18083   */\n      dup2\n        /* \"#utility.yul\":18075:18089   */\n      lt\n        /* \"#utility.yul\":18068:18188   */\n      iszero\n      tag_495\n      jumpi\n        /* \"#utility.yul\":18139:18178   */\n      tag_496\n        /* \"#utility.yul\":18176:18177   */\n      0x00\n        /* \"#utility.yul\":18169:18174   */\n      dup3\n        /* \"#utility.yul\":18139:18178   */\n      tag_291\n      jump\t// in\n    tag_496:\n        /* \"#utility.yul\":18112:18113   */\n      0x01\n        /* \"#utility.yul\":18105:18110   */\n      dup2\n        /* \"#utility.yul\":18101:18114   */\n      add\n        /* \"#utility.yul\":18092:18114   */\n      swap1\n      pop\n        /* \"#utility.yul\":18068:18188   */\n      jump(tag_493)\n    tag_495:\n        /* \"#utility.yul\":18008:18194   */\n      pop\n      pop\n      jump\t// out\n        /* \"#utility.yul\":18200:18743   */\n    tag_293:\n        /* \"#utility.yul\":18301:18303   */\n      0x1f\n        /* \"#utility.yul\":18296:18299   */\n      dup3\n        /* \"#utility.yul\":18293:18304   */\n      gt\n        /* \"#utility.yul\":18290:18736   */\n      iszero\n      tag_498\n      jumpi\n        /* \"#utility.yul\":18335:18373   */\n      tag_499\n        /* \"#utility.yul\":18367:18372   */\n      dup2\n        /* \"#utility.yul\":18335:18373   */\n      tag_282\n      jump\t// in\n    tag_499:\n        /* \"#utility.yul\":18419:18448   */\n      tag_500\n        /* \"#utility.yul\":18437:18447   */\n      dup5\n        /* \"#utility.yul\":18419:18448   */\n      tag_283\n      jump\t// in\n    tag_500:\n        /* \"#utility.yul\":18409:18417   */\n      dup2\n        /* \"#utility.yul\":18405:18449   */\n      add\n        /* \"#utility.yul\":18602:18604   */\n      0x20\n        /* \"#utility.yul\":18590:18600   */\n      dup6\n        /* \"#utility.yul\":18587:18605   */\n      lt\n        /* \"#utility.yul\":18584:18633   */\n      iszero\n      tag_501\n      jumpi\n        /* \"#utility.yul\":18623:18631   */\n      dup2\n        /* \"#utility.yul\":18608:18631   */\n      swap1\n      pop\n        /* \"#utility.yul\":18584:18633   */\n    tag_501:\n        /* \"#utility.yul\":18646:18726   */\n      tag_502\n        /* \"#utility.yul\":18702:18724   */\n      tag_503\n        /* \"#utility.yul\":18720:18723   */\n      dup6\n        /* \"#utility.yul\":18702:18724   */\n      tag_283\n      jump\t// in\n    tag_503:\n        /* \"#utility.yul\":18692:18700   */\n      dup4\n        /* \"#utility.yul\":18688:18725   */\n      add\n        /* \"#utility.yul\":18675:18686   */\n      dup3\n        /* \"#utility.yul\":18646:18726   */\n      tag_292\n      jump\t// in\n    tag_502:\n        /* \"#utility.yul\":18305:18736   */\n      pop\n      pop\n        /* \"#utility.yul\":18290:18736   */\n    tag_498:\n        /* \"#utility.yul\":18200:18743   */\n      pop\n      pop\n      pop\n      jump\t// out\n        /* \"#utility.yul\":18749:18866   */\n    tag_294:\n        /* \"#utility.yul\":18803:18811   */\n      0x00\n        /* \"#utility.yul\":18853:18858   */\n      dup3\n        /* \"#utility.yul\":18847:18851   */\n      dup3\n        /* \"#utility.yul\":18843:18859   */\n      shr\n        /* \"#utility.yul\":18822:18859   */\n      swap1\n      pop\n        /* \"#utility.yul\":18749:18866   */\n      swap3\n      swap2\n      pop\n      pop\n      jump\t// out\n        /* \"#utility.yul\":18872:19041   */\n    tag_295:\n        /* \"#utility.yul\":18916:18922   */\n      0x00\n        /* \"#utility.yul\":18949:19000   */\n      tag_506\n        /* \"#utility.yul\":18997:18998   */\n      0x00\n        /* \"#utility.yul\":18993:18999   */\n      not\n        /* \"#utility.yul\":18985:18990   */\n      dup5\n        /* \"#utility.yul\":18982:18983   */\n      0x08\n        /* \"#utility.yul\":18978:18991   */\n      mul\n        /* \"#utility.yul\":18949:19000   */\n      tag_294\n      jump\t// in\n    tag_506:\n        /* \"#utility.yul\":18945:19001   */\n      not\n        /* \"#utility.yul\":19030:19034   */\n      dup1\n        /* \"#utility.yul\":19024:19028   */\n      dup4\n        /* \"#utility.yul\":19020:19035   */\n      and\n        /* \"#utility.yul\":19010:19035   */\n      swap2\n      pop\n        /* \"#utility.yul\":18923:19041   */\n      pop\n        /* \"#utility.yul\":18872:19041   */\n      swap3\n      swap2\n      pop\n      pop\n      jump\t// out\n        /* \"#utility.yul\":19046:19341   */\n    tag_296:\n        /* \"#utility.yul\":19122:19126   */\n      0x00\n        /* \"#utility.yul\":19268:19297   */\n      tag_508\n        /* \"#utility.yul\":19293:19296   */\n      dup4\n        /* \"#utility.yul\":19287:19291   */\n      dup4\n        /* \"#utility.yul\":19268:19297   */\n      tag_295\n      jump\t// in\n    tag_508:\n        /* \"#utility.yul\":19260:19297   */\n      swap2\n      pop\n        /* \"#utility.yul\":19330:19333   */\n      dup3\n        /* \"#utility.yul\":19327:19328   */\n      0x02\n        /* \"#utility.yul\":19323:19334   */\n      mul\n        /* \"#utility.yul\":19317:19321   */\n      dup3\n        /* \"#utility.yul\":19314:19335   */\n      or\n        /* \"#utility.yul\":19306:19335   */\n      swap1\n      pop\n        /* \"#utility.yul\":19046:19341   */\n      swap3\n      swap2\n      pop\n      pop\n      jump\t// out\n        /* \"#utility.yul\":19346:20741   */\n    tag_148:\n        /* \"#utility.yul\":19463:19500   */\n      tag_510\n        /* \"#utility.yul\":19496:19499   */\n      dup3\n        /* \"#utility.yul\":19463:19500   */\n      tag_244\n      jump\t// in\n    tag_510:\n        /* \"#utility.yul\":19565:19583   */\n      0xffffffffffffffff\n        /* \"#utility.yul\":19557:19563   */\n      dup2\n        /* \"#utility.yul\":19554:19584   */\n      gt\n        /* \"#utility.yul\":19551:19607   */\n      iszero\n      tag_511\n      jumpi\n        /* \"#utility.yul\":19587:19605   */\n      tag_512\n      tag_267\n      jump\t// in\n    tag_512:\n        /* \"#utility.yul\":19551:19607   */\n    tag_511:\n        /* \"#utility.yul\":19631:19669   */\n      tag_513\n        /* \"#utility.yul\":19663:19667   */\n      dup3\n        /* \"#utility.yul\":19657:19668   */\n      sload\n        /* \"#utility.yul\":19631:19669   */\n      tag_121\n      jump\t// in\n    tag_513:\n        /* \"#utility.yul\":19716:19783   */\n      tag_514\n        /* \"#utility.yul\":19776:19782   */\n      dup3\n        /* \"#utility.yul\":19768:19774   */\n      dup3\n        /* \"#utility.yul\":19762:19766   */\n      dup6\n        /* \"#utility.yul\":19716:19783   */\n      tag_293\n      jump\t// in\n    tag_514:\n        /* \"#utility.yul\":19810:19811   */\n      0x00\n        /* \"#utility.yul\":19834:19838   */\n      0x20\n        /* \"#utility.yul\":19821:19838   */\n      swap1\n      pop\n        /* \"#utility.yul\":19866:19868   */\n      0x1f\n        /* \"#utility.yul\":19858:19864   */\n      dup4\n        /* \"#utility.yul\":19855:19869   */\n      gt\n        /* \"#utility.yul\":19883:19884   */\n      0x01\n        /* \"#utility.yul\":19878:20496   */\n      dup2\n      eq\n      tag_516\n      jumpi\n        /* \"#utility.yul\":20540:20541   */\n      0x00\n        /* \"#utility.yul\":20557:20563   */\n      dup5\n        /* \"#utility.yul\":20554:20631   */\n      iszero\n      tag_517\n      jumpi\n        /* \"#utility.yul\":20606:20615   */\n      dup3\n        /* \"#utility.yul\":20601:20604   */\n      dup8\n        /* \"#utility.yul\":20597:20616   */\n      add\n        /* \"#utility.yul\":20591:20617   */\n      mload\n        /* \"#utility.yul\":20582:20617   */\n      swap1\n      pop\n        /* \"#utility.yul\":20554:20631   */\n    tag_517:\n        /* \"#utility.yul\":20657:20724   */\n      tag_518\n        /* \"#utility.yul\":20717:20723   */\n      dup6\n        /* \"#utility.yul\":20710:20715   */\n      dup3\n        /* \"#utility.yul\":20657:20724   */\n      tag_296\n      jump\t// in\n    tag_518:\n        /* \"#utility.yul\":20651:20655   */\n      dup7\n        /* \"#utility.yul\":20644:20725   */\n      sstore\n        /* \"#utility.yul\":20513:20735   */\n      pop\n        /* \"#utility.yul\":19848:20735   */\n      jump(tag_515)\n        /* \"#utility.yul\":19878:20496   */\n    tag_516:\n        /* \"#utility.yul\":19930:19934   */\n      0x1f\n        /* \"#utility.yul\":19926:19935   */\n      not\n        /* \"#utility.yul\":19918:19924   */\n      dup5\n        /* \"#utility.yul\":19914:19936   */\n      and\n        /* \"#utility.yul\":19964:20001   */\n      tag_519\n        /* \"#utility.yul\":19996:20000   */\n      dup7\n        /* \"#utility.yul\":19964:20001   */\n      tag_282\n      jump\t// in\n    tag_519:\n        /* \"#utility.yul\":20023:20024   */\n      0x00\n        /* \"#utility.yul\":20037:20245   */\n    tag_520:\n        /* \"#utility.yul\":20051:20058   */\n      dup3\n        /* \"#utility.yul\":20048:20049   */\n      dup2\n        /* \"#utility.yul\":20045:20059   */\n      lt\n        /* \"#utility.yul\":20037:20245   */\n      iszero\n      tag_522\n      jumpi\n        /* \"#utility.yul\":20130:20139   */\n      dup5\n        /* \"#utility.yul\":20125:20128   */\n      dup10\n        /* \"#utility.yul\":20121:20140   */\n      add\n        /* \"#utility.yul\":20115:20141   */\n      mload\n        /* \"#utility.yul\":20107:20113   */\n      dup3\n        /* \"#utility.yul\":20100:20142   */\n      sstore\n        /* \"#utility.yul\":20181:20182   */\n      0x01\n        /* \"#utility.yul\":20173:20179   */\n      dup3\n        /* \"#utility.yul\":20169:20183   */\n      add\n        /* \"#utility.yul\":20159:20183   */\n      swap2\n      pop\n        /* \"#utility.yul\":20228:20230   */\n      0x20\n        /* \"#utility.yul\":20217:20226   */\n      dup6\n        /* \"#utility.yul\":20213:20231   */\n      add\n        /* \"#utility.yul\":20200:20231   */\n      swap5\n      pop\n        /* \"#utility.yul\":20074:20078   */\n      0x20\n        /* \"#utility.yul\":20071:20072   */\n      dup2\n        /* \"#utility.yul\":20067:20079   */\n      add\n        /* \"#utility.yul\":20062:20079   */\n      swap1\n      pop\n        /* \"#utility.yul\":20037:20245   */\n      jump(tag_520)\n    tag_522:\n        /* \"#utility.yul\":20273:20279   */\n      dup7\n        /* \"#utility.yul\":20264:20271   */\n      dup4\n        /* \"#utility.yul\":20261:20280   */\n      lt\n        /* \"#utility.yul\":20258:20437   */\n      iszero\n      tag_523\n      jumpi\n        /* \"#utility.yul\":20331:20340   */\n      dup5\n        /* \"#utility.yul\":20326:20329   */\n      dup10\n        /* \"#utility.yul\":20322:20341   */\n      add\n        /* \"#utility.yul\":20316:20342   */\n      mload\n        /* \"#utility.yul\":20374:20422   */\n      tag_524\n        /* \"#utility.yul\":20416:20420   */\n      0x1f\n        /* \"#utility.yul\":20408:20414   */\n      dup10\n        /* \"#utility.yul\":20404:20421   */\n      and\n        /* \"#utility.yul\":20393:20402   */\n      dup3\n        /* \"#utility.yul\":20374:20422   */\n      tag_295\n      jump\t// in\n    tag_524:\n        /* \"#utility.yul\":20366:20372   */\n      dup4\n        /* \"#utility.yul\":20359:20423   */\n      sstore\n        /* \"#utility.yul\":20281:20437   */\n      pop\n        /* \"#utility.yul\":20258:20437   */\n    tag_523:\n        /* \"#utility.yul\":20483:20484   */\n      0x01\n        /* \"#utility.yul\":20479:20480   */\n      0x02\n        /* \"#utility.yul\":20471:20477   */\n      dup9\n        /* \"#utility.yul\":20467:20481   */\n      mul\n        /* \"#utility.yul\":20463:20485   */\n      add\n        /* \"#utility.yul\":20457:20461   */\n      dup9\n        /* \"#utility.yul\":20450:20486   */\n      sstore\n        /* \"#utility.yul\":19885:20496   */\n      pop\n      pop\n      pop\n        /* \"#utility.yul\":19848:20735   */\n    tag_515:\n      pop\n        /* \"#utility.yul\":19438:20741   */\n      pop\n      pop\n      pop\n        /* \"#utility.yul\":19346:20741   */\n      pop\n      pop\n      jump\t// out\n        /* \"#utility.yul\":20747:20919   */\n    tag_297:\n        /* \"#utility.yul\":20887:20911   */\n      0x436f6e7472616374206973206e6f742061637469766500000000000000000000\n        /* \"#utility.yul\":20883:20884   */\n      0x00\n        /* \"#utility.yul\":20875:20881   */\n      dup3\n        /* \"#utility.yul\":20871:20885   */\n      add\n        /* \"#utility.yul\":20864:20912   */\n      mstore\n        /* \"#utility.yul\":20747:20919   */\n      pop\n      jump\t// out\n        /* \"#utility.yul\":20925:21291   */\n    tag_298:\n        /* \"#utility.yul\":21067:21070   */\n      0x00\n        /* \"#utility.yul\":21088:21155   */\n      tag_527\n        /* \"#utility.yul\":21152:21154   */\n      0x16\n        /* \"#utility.yul\":21147:21150   */\n      dup4\n        /* \"#utility.yul\":21088:21155   */\n      tag_245\n      jump\t// in\n    tag_527:\n        /* \"#utility.yul\":21081:21155   */\n      swap2\n      pop\n        /* \"#utility.yul\":21164:21257   */\n      tag_528\n        /* \"#utility.yul\":21253:21256   */\n      dup3\n        /* \"#utility.yul\":21164:21257   */\n      tag_297\n      jump\t// in\n    tag_528:\n        /* \"#utility.yul\":21282:21284   */\n      0x20\n        /* \"#utility.yul\":21277:21280   */\n      dup3\n        /* \"#utility.yul\":21273:21285   */\n      add\n        /* \"#utility.yul\":21266:21285   */\n      swap1\n      pop\n        /* \"#utility.yul\":20925:21291   */\n      swap2\n      swap1\n      pop\n      jump\t// out\n        /* \"#utility.yul\":21297:21716   */\n    tag_173:\n        /* \"#utility.yul\":21463:21467   */\n      0x00\n        /* \"#utility.yul\":21501:21503   */\n      0x20\n        /* \"#utility.yul\":21490:21499   */\n      dup3\n        /* \"#utility.yul\":21486:21504   */\n      add\n        /* \"#utility.yul\":21478:21504   */\n      swap1\n      pop\n        /* \"#utility.yul\":21550:21559   */\n      dup2\n        /* \"#utility.yul\":21544:21548   */\n      dup2\n        /* \"#utility.yul\":21540:21560   */\n      sub\n        /* \"#utility.yul\":21536:21537   */\n      0x00\n        /* \"#utility.yul\":21525:21534   */\n      dup4\n        /* \"#utility.yul\":21521:21538   */\n      add\n        /* \"#utility.yul\":21514:21561   */\n      mstore\n        /* \"#utility.yul\":21578:21709   */\n      tag_530\n        /* \"#utility.yul\":21704:21708   */\n      dup2\n        /* \"#utility.yul\":21578:21709   */\n      tag_298\n      jump\t// in\n    tag_530:\n        /* \"#utility.yul\":21570:21709   */\n      swap1\n      pop\n        /* \"#utility.yul\":21297:21716   */\n      swap2\n      swap1\n      pop\n      jump\t// out\n        /* \"#utility.yul\":21722:21946   */\n    tag_299:\n        /* \"#utility.yul\":21862:21896   */\n      0x43757272656e742074696d65206973206265666f726520746865207374617274\n        /* \"#utility.yul\":21858:21859   */\n      0x00\n        /* \"#utility.yul\":21850:21856   */\n      dup3\n        /* \"#utility.yul\":21846:21860   */\n      add\n        /* \"#utility.yul\":21839:21897   */\n      mstore\n        /* \"#utility.yul\":21931:21938   */\n      0x2074696d65000000000000000000000000000000000000000000000000000000\n        /* \"#utility.yul\":21926:21928   */\n      0x20\n        /* \"#utility.yul\":21918:21924   */\n      dup3\n        /* \"#utility.yul\":21914:21929   */\n      add\n        /* \"#utility.yul\":21907:21939   */\n      mstore\n        /* \"#utility.yul\":21722:21946   */\n      pop\n      jump\t// out\n        /* \"#utility.yul\":21952:22318   */\n    tag_300:\n        /* \"#utility.yul\":22094:22097   */\n      0x00\n        /* \"#utility.yul\":22115:22182   */\n      tag_533\n        /* \"#utility.yul\":22179:22181   */\n      0x25\n        /* \"#utility.yul\":22174:22177   */\n      dup4\n        /* \"#utility.yul\":22115:22182   */\n      tag_245\n      jump\t// in\n    tag_533:\n        /* \"#utility.yul\":22108:22182   */\n      swap2\n      pop\n        /* \"#utility.yul\":22191:22284   */\n      tag_534\n        /* \"#utility.yul\":22280:22283   */\n      dup3\n        /* \"#utility.yul\":22191:22284   */\n      tag_299\n      jump\t// in\n    tag_534:\n        /* \"#utility.yul\":22309:22311   */\n      0x40\n        /* \"#utility.yul\":22304:22307   */\n      dup3\n        /* \"#utility.yul\":22300:22312   */\n      add\n        /* \"#utility.yul\":22293:22312   */\n      swap1\n      pop\n        /* \"#utility.yul\":21952:22318   */\n      swap2\n      swap1\n      pop\n      jump\t// out\n        /* \"#utility.yul\":22324:22743   */\n    tag_176:\n        /* \"#utility.yul\":22490:22494   */\n      0x00\n        /* \"#utility.yul\":22528:22530   */\n      0x20\n        /* \"#utility.yul\":22517:22526   */\n      dup3\n        /* \"#utility.yul\":22513:22531   */\n      add\n        /* \"#utility.yul\":22505:22531   */\n      swap1\n      pop\n        /* \"#utility.yul\":22577:22586   */\n      dup2\n        /* \"#utility.yul\":22571:22575   */\n      dup2\n        /* \"#utility.yul\":22567:22587   */\n      sub\n        /* \"#utility.yul\":22563:22564   */\n      0x00\n        /* \"#utility.yul\":22552:22561   */\n      dup4\n        /* \"#utility.yul\":22548:22565   */\n      add\n        /* \"#utility.yul\":22541:22588   */\n      mstore\n        /* \"#utility.yul\":22605:22736   */\n      tag_536\n        /* \"#utility.yul\":22731:22735   */\n      dup2\n        /* \"#utility.yul\":22605:22736   */\n      tag_300\n      jump\t// in\n    tag_536:\n        /* \"#utility.yul\":22597:22736   */\n      swap1\n      pop\n        /* \"#utility.yul\":22324:22743   */\n      swap2\n      swap1\n      pop\n      jump\t// out\n        /* \"#utility.yul\":22749:23191   */\n    tag_213:\n        /* \"#utility.yul\":22898:22902   */\n      0x00\n        /* \"#utility.yul\":22936:22938   */\n      0x60\n        /* \"#utility.yul\":22925:22934   */\n      dup3\n        /* \"#utility.yul\":22921:22939   */\n      add\n        /* \"#utility.yul\":22913:22939   */\n      swap1\n      pop\n        /* \"#utility.yul\":22949:23020   */\n      tag_538\n        /* \"#utility.yul\":23017:23018   */\n      0x00\n        /* \"#utility.yul\":23006:23015   */\n      dup4\n        /* \"#utility.yul\":23002:23019   */\n      add\n        /* \"#utility.yul\":22993:22999   */\n      dup7\n        /* \"#utility.yul\":22949:23020   */\n      tag_262\n      jump\t// in\n    tag_538:\n        /* \"#utility.yul\":23030:23102   */\n      tag_539\n        /* \"#utility.yul\":23098:23100   */\n      0x20\n        /* \"#utility.yul\":23087:23096   */\n      dup4\n        /* \"#utility.yul\":23083:23101   */\n      add\n        /* \"#utility.yul\":23074:23080   */\n      dup6\n        /* \"#utility.yul\":23030:23102   */\n      tag_250\n      jump\t// in\n    tag_539:\n        /* \"#utility.yul\":23112:23184   */\n      tag_540\n        /* \"#utility.yul\":23180:23182   */\n      0x40\n        /* \"#utility.yul\":23169:23178   */\n      dup4\n        /* \"#utility.yul\":23165:23183   */\n      add\n        /* \"#utility.yul\":23156:23162   */\n      dup5\n        /* \"#utility.yul\":23112:23184   */\n      tag_250\n      jump\t// in\n    tag_540:\n        /* \"#utility.yul\":22749:23191   */\n      swap5\n      swap4\n      pop\n      pop\n      pop\n      pop\n      jump\t// out\n        /* \"#utility.yul\":23197:23391   */\n    tag_224:\n        /* \"#utility.yul\":23237:23241   */\n      0x00\n        /* \"#utility.yul\":23257:23277   */\n      tag_542\n        /* \"#utility.yul\":23275:23276   */\n      dup3\n        /* \"#utility.yul\":23257:23277   */\n      tag_249\n      jump\t// in\n    tag_542:\n        /* \"#utility.yul\":23252:23277   */\n      swap2\n      pop\n        /* \"#utility.yul\":23291:23311   */\n      tag_543\n        /* \"#utility.yul\":23309:23310   */\n      dup4\n        /* \"#utility.yul\":23291:23311   */\n      tag_249\n      jump\t// in\n    tag_543:\n        /* \"#utility.yul\":23286:23311   */\n      swap3\n      pop\n        /* \"#utility.yul\":23335:23336   */\n      dup3\n        /* \"#utility.yul\":23332:23333   */\n      dup3\n        /* \"#utility.yul\":23328:23337   */\n      sub\n        /* \"#utility.yul\":23320:23337   */\n      swap1\n      pop\n        /* \"#utility.yul\":23359:23360   */\n      dup2\n        /* \"#utility.yul\":23353:23357   */\n      dup2\n        /* \"#utility.yul\":23350:23361   */\n      gt\n        /* \"#utility.yul\":23347:23384   */\n      iszero\n      tag_544\n      jumpi\n        /* \"#utility.yul\":23364:23382   */\n      tag_545\n      tag_281\n      jump\t// in\n    tag_545:\n        /* \"#utility.yul\":23347:23384   */\n    tag_544:\n        /* \"#utility.yul\":23197:23391   */\n      swap3\n      swap2\n      pop\n      pop\n      jump\t// out\n        /* \"#utility.yul\":23397:23588   */\n    tag_227:\n        /* \"#utility.yul\":23437:23440   */\n      0x00\n        /* \"#utility.yul\":23456:23476   */\n      tag_547\n        /* \"#utility.yul\":23474:23475   */\n      dup3\n        /* \"#utility.yul\":23456:23476   */\n      tag_249\n      jump\t// in\n    tag_547:\n        /* \"#utility.yul\":23451:23476   */\n      swap2\n      pop\n        /* \"#utility.yul\":23490:23510   */\n      tag_548\n        /* \"#utility.yul\":23508:23509   */\n      dup4\n        /* \"#utility.yul\":23490:23510   */\n      tag_249\n      jump\t// in\n    tag_548:\n        /* \"#utility.yul\":23485:23510   */\n      swap3\n      pop\n        /* \"#utility.yul\":23533:23534   */\n      dup3\n        /* \"#utility.yul\":23530:23531   */\n      dup3\n        /* \"#utility.yul\":23526:23535   */\n      add\n        /* \"#utility.yul\":23519:23535   */\n      swap1\n      pop\n        /* \"#utility.yul\":23554:23557   */\n      dup1\n        /* \"#utility.yul\":23551:23552   */\n      dup3\n        /* \"#utility.yul\":23548:23558   */\n      gt\n        /* \"#utility.yul\":23545:23581   */\n      iszero\n      tag_549\n      jumpi\n        /* \"#utility.yul\":23561:23579   */\n      tag_550\n      tag_281\n      jump\t// in\n    tag_550:\n        /* \"#utility.yul\":23545:23581   */\n    tag_549:\n        /* \"#utility.yul\":23397:23588   */\n      swap3\n      swap2\n      pop\n      pop\n      jump\t// out\n\n    auxdata: 0xa26469706673582212205400bec2511d5c6566e8ce04c36a46859f3e4386a83160a80232f84ca9a79da164736f6c63430008180033\n}\n",
				"bytecode": {
					"linkReferences": {},
					"object": "608060405234801562000010575f80fd5b506040518060400160405280600681526020017f52546f6b656e00000000000000000000000000000000000000000000000000008152506040518060400160405280600281526020017f525400000000000000000000000000000000000000000000000000000000000081525081600390816200008e91906200034d565b508060049081620000a091906200034d565b5050503360055f6101000a81548173ffffffffffffffffffffffffffffffffffffffff021916908373ffffffffffffffffffffffffffffffffffffffff16021790555062000431565b5f81519050919050565b7f4e487b71000000000000000000000000000000000000000000000000000000005f52604160045260245ffd5b7f4e487b71000000000000000000000000000000000000000000000000000000005f52602260045260245ffd5b5f60028204905060018216806200016557607f821691505b6020821081036200017b576200017a62000120565b5b50919050565b5f819050815f5260205f209050919050565b5f6020601f8301049050919050565b5f82821b905092915050565b5f60088302620001df7fffffffffffffffffffffffffffffffffffffffffffffffffffffffffffffffff82620001a2565b620001eb8683620001a2565b95508019841693508086168417925050509392505050565b5f819050919050565b5f819050919050565b5f620002356200022f620002298462000203565b6200020c565b62000203565b9050919050565b5f819050919050565b620002508362000215565b620002686200025f826200023c565b848454620001ae565b825550505050565b5f90565b6200027e62000270565b6200028b81848462000245565b505050565b5b81811015620002b257620002a65f8262000274565b60018101905062000291565b5050565b601f8211156200030157620002cb8162000181565b620002d68462000193565b81016020851015620002e6578190505b620002fe620002f58562000193565b83018262000290565b50505b505050565b5f82821c905092915050565b5f620003235f198460080262000306565b1980831691505092915050565b5f6200033d838362000312565b9150826002028217905092915050565b6200035882620000e9565b67ffffffffffffffff811115620003745762000373620000f3565b5b6200038082546200014d565b6200038d828285620002b6565b5f60209050601f831160018114620003c3575f8415620003ae578287015190505b620003ba858262000330565b86555062000429565b601f198416620003d38662000181565b5f5b82811015620003fc57848901518255600182019150602085019450602081019050620003d5565b868310156200041c578489015162000418601f89168262000312565b8355505b6001600288020188555050505b505050505050565b6123d4806200043f5f395ff3fe608060405234801561000f575f80fd5b5060043610610140575f3560e01c80638da5cb5b116100b6578063cd5d61db1161007a578063cd5d61db1461038f578063d0678947146103ab578063dd62ed3e146103dd578063dfecd44b1461040d578063fc694ec11461042b578063ff33999f1461046657610140565b80638da5cb5b146102eb57806395d89b41146103095780639f251f8014610327578063a9059cbb14610343578063c7012a981461037357610140565b806323b872dd1161010857806323b872dd14610200578063313ce56714610230578063357447451461024e5780634643ea7d1461026a5780636ebc8c861461028857806370a08231146102bb57610140565b806306fdde031461014457806307e7c33614610162578063095ea7b3146101805780630be435bd146101b057806318160ddd146101e2575b5f80fd5b61014c610482565b60405161015991906117b8565b60405180910390f35b61016a610512565b60405161017791906117f0565b60405180910390f35b61019a6004803603810190610195919061189e565b610518565b6040516101a791906118f6565b60405180910390f35b6101ca60048036038101906101c5919061190f565b61053a565b6040516101d993929190611949565b60405180910390f35b6101ea610605565b6040516101f791906117f0565b60405180910390f35b61021a60048036038101906102159190611985565b61060e565b60405161022791906118f6565b60405180910390f35b61023861063c565b60405161024591906119f0565b60405180910390f35b61026860048036038101906102639190611b35565b610644565b005b610272610736565b60405161027f91906117f0565b60405180910390f35b6102a2600480360381019061029d9190611b8f565b61073c565b6040516102b29493929190611c2d565b60405180910390f35b6102d560048036038101906102d0919061190f565b6108f8565b6040516102e291906117f0565b60405180910390f35b6102f361093d565b6040516103009190611c70565b60405180910390f35b610311610962565b60405161031e91906117b8565b60405180910390f35b610341600480360381019061033c9190611b35565b6109f2565b005b61035d6004803603810190610358919061189e565b610ae4565b60405161036a91906118f6565b60405180910390f35b61038d60048036038101906103889190611b8f565b610b06565b005b6103a960048036038101906103a49190611c89565b610b5b565b005b6103c560048036038101906103c0919061190f565b610d23565b6040516103d493929190611949565b60405180910390f35b6103f760048036038101906103f29190611ced565b610dee565b60405161040491906117f0565b60405180910390f35b610415610e70565b60405161042291906117f0565b60405180910390f35b61044560048036038101906104409190611b8f565b610e76565b60405161045d9c9b9a99989796959493929190611d67565b60405180910390f35b610480600480360381019061047b9190611e1f565b610f46565b005b60606003805461049190611efd565b80601f01602080910402602001604051908101604052809291908181526020018280546104bd90611efd565b80156105085780601f106104df57610100808354040283529160200191610508565b820191905f5260205f20905b8154815290600101906020018083116104eb57829003601f168201915b5050505050905090565b60095481565b5f8061052261116b565b905061052f818585611172565b600191505092915050565b6008602052805f5260405f205f91509050805f01549080600101805461055f90611efd565b80601f016020809104026020016040519081016040528092919081815260200182805461058b90611efd565b80156105d65780601f106105ad576101008083540402835291602001916105d6565b820191905f5260205f20905b8154815290600101906020018083116105b957829003601f168201915b505050505090806002015f9054906101000a900473ffffffffffffffffffffffffffffffffffffffff16905083565b5f600254905090565b5f8061061861116b565b9050610625858285611184565b610630858585611216565b60019150509392505050565b5f6012905090565b60095f81548092919061065690611f5a565b9190505550604051806060016040528060095481526020018381526020018273ffffffffffffffffffffffffffffffffffffffff1681525060085f8373ffffffffffffffffffffffffffffffffffffffff1673ffffffffffffffffffffffffffffffffffffffff1681526020019081526020015f205f820151815f015560208201518160010190816106e8919061213e565b506040820151816002015f6101000a81548173ffffffffffffffffffffffffffffffffffffffff021916908373ffffffffffffffffffffffffffffffffffffffff1602179055509050505050565b60075481565b5f805f805f600a5f8781526020019081526020015f20604051806101800160405290815f8201548152602001600182015481526020016002820154815260200160038201548152602001600482015481526020016005820154815260200160068201548152602001600782015f9054906101000a900473ffffffffffffffffffffffffffffffffffffffff1673ffffffffffffffffffffffffffffffffffffffff1673ffffffffffffffffffffffffffffffffffffffff168152602001600882015f9054906101000a900473ffffffffffffffffffffffffffffffffffffffff1673ffffffffffffffffffffffffffffffffffffffff1673ffffffffffffffffffffffffffffffffffffffff1681526020016008820160149054906101000a900460ff16151515158152602001600982016040518060400160405290815f82015481526020016001820154815250508152602001600b82015f9054906101000a900460ff1660038111156108b3576108b2611bba565b5b60038111156108c5576108c4611bba565b5b815250509050805f01518161014001515f0151826101400151602001518361016001519450945094509450509193509193565b5f805f8373ffffffffffffffffffffffffffffffffffffffff1673ffffffffffffffffffffffffffffffffffffffff1681526020019081526020015f20549050919050565b60055f9054906101000a900473ffffffffffffffffffffffffffffffffffffffff1681565b60606004805461097190611efd565b80601f016020809104026020016040519081016040528092919081815260200182805461099d90611efd565b80156109e85780601f106109bf576101008083540402835291602001916109e8565b820191905f5260205f20905b8154815290600101906020018083116109cb57829003601f168201915b5050505050905090565b60075f815480929190610a0490611f5a565b9190505550604051806060016040528060075481526020018381526020018273ffffffffffffffffffffffffffffffffffffffff1681525060065f8373ffffffffffffffffffffffffffffffffffffffff1673ffffffffffffffffffffffffffffffffffffffff1681526020019081526020015f205f820151815f01556020820151816001019081610a96919061213e565b506040820151816002015f6101000a81548173ffffffffffffffffffffffffffffffffffffffff021916908373ffffffffffffffffffffffffffffffffffffffff1602179055509050505050565b5f80610aee61116b565b9050610afb818585611216565b600191505092915050565b610b57600a5f8381526020019081526020015f206007015f9054906101000a900473ffffffffffffffffffffffffffffffffffffffff16600a5f8481526020019081526020015f2060060154610ae4565b5050565b5f600a5f8481526020019081526020015f2090508060080160149054906101000a900460ff16610bc0576040517f08c379a0000000000000000000000000000000000000000000000000000000008152600401610bb790612257565b60405180910390fd5b80600401548211610c06576040517f08c379a0000000000000000000000000000000000000000000000000000000008152600401610bfd906122e5565b60405180910390fd5b8060050154821015610cca57610c2b8585836001015484600201548560030154611306565b15610c7c57806009015f015f815480929190610c4690611f5a565b9190505550600181600b015f6101000a81548160ff02191690836003811115610c7257610c71611bba565b5b0217905550610cc5565b806009016001015f815480929190610c9390611f5a565b9190505550600281600b015f6101000a81548160ff02191690836003811115610cbf57610cbe611bba565b5b02179055505b610d1c565b610cd383610b06565b5f8160080160146101000a81548160ff021916908315150217905550600381600b015f6101000a81548160ff02191690836003811115610d1657610d15611bba565b5b02179055505b5050505050565b6006602052805f5260405f205f91509050805f015490806001018054610d4890611efd565b80601f0160208091040260200160405190810160405280929190818152602001828054610d7490611efd565b8015610dbf5780601f10610d9657610100808354040283529160200191610dbf565b820191905f5260205f20905b815481529060010190602001808311610da257829003601f168201915b505050505090806002015f9054906101000a900473ffffffffffffffffffffffffffffffffffffffff16905083565b5f60015f8473ffffffffffffffffffffffffffffffffffffffff1673ffffffffffffffffffffffffffffffffffffffff1681526020019081526020015f205f8373ffffffffffffffffffffffffffffffffffffffff1673ffffffffffffffffffffffffffffffffffffffff1681526020019081526020015f2054905092915050565b600b5481565b600a602052805f5260405f205f91509050805f015490806001015490806002015490806003015490806004015490806005015490806006015490806007015f9054906101000a900473ffffffffffffffffffffffffffffffffffffffff1690806008015f9054906101000a900473ffffffffffffffffffffffffffffffffffffffff16908060080160149054906101000a900460ff1690806009016040518060400160405290815f82015481526020016001820154815250509080600b015f9054906101000a900460ff1690508c565b5f60405180604001604052805f81526020015f8152509050600b5f815480929190610f7090611f5a565b9190505550604051806101800160405280600b5481526020018a81526020018981526020018881526020018781526020018681526020018581526020018473ffffffffffffffffffffffffffffffffffffffff1681526020018373ffffffffffffffffffffffffffffffffffffffff1681526020016001151581526020018281526020015f600381111561100757611006611bba565b5b815250600a5f600b5481526020019081526020015f205f820151815f01556020820151816001015560408201518160020155606082015181600301556080820151816004015560a0820151816005015560c0820151816006015560e0820151816007015f6101000a81548173ffffffffffffffffffffffffffffffffffffffff021916908373ffffffffffffffffffffffffffffffffffffffff160217905550610100820151816008015f6101000a81548173ffffffffffffffffffffffffffffffffffffffff021916908373ffffffffffffffffffffffffffffffffffffffff1602179055506101208201518160080160146101000a81548160ff021916908315150217905550610140820151816009015f820151815f015560208201518160010155505061016082015181600b015f6101000a81548160ff0219169083600381111561115857611157611bba565b5b0217905550905050505050505050505050565b5f33905090565b61117f8383836001611346565b505050565b5f61118f8484610dee565b90507fffffffffffffffffffffffffffffffffffffffffffffffffffffffffffffffff81146112105781811015611201578281836040517ffb8f41b20000000000000000000000000000000000000000000000000000000081526004016111f893929190612303565b60405180910390fd5b61120f84848484035f611346565b5b50505050565b5f73ffffffffffffffffffffffffffffffffffffffff168373ffffffffffffffffffffffffffffffffffffffff1603611286575f6040517f96c6fd1e00000000000000000000000000000000000000000000000000000000815260040161127d9190611c70565b60405180910390fd5b5f73ffffffffffffffffffffffffffffffffffffffff168273ffffffffffffffffffffffffffffffffffffffff16036112f6575f6040517fec442f050000000000000000000000000000000000000000000000000000000081526004016112ed9190611c70565b60405180910390fd5b611301838383611515565b505050565b5f8084876113149190612338565b90505f84876113239190612338565b90505f8183611332919061236b565b905084811115935050505095945050505050565b5f73ffffffffffffffffffffffffffffffffffffffff168473ffffffffffffffffffffffffffffffffffffffff16036113b6575f6040517fe602df050000000000000000000000000000000000000000000000000000000081526004016113ad9190611c70565b60405180910390fd5b5f73ffffffffffffffffffffffffffffffffffffffff168373ffffffffffffffffffffffffffffffffffffffff1603611426575f6040517f94280d6200000000000000000000000000000000000000000000000000000000815260040161141d9190611c70565b60405180910390fd5b8160015f8673ffffffffffffffffffffffffffffffffffffffff1673ffffffffffffffffffffffffffffffffffffffff1681526020019081526020015f205f8573ffffffffffffffffffffffffffffffffffffffff1673ffffffffffffffffffffffffffffffffffffffff1681526020019081526020015f2081905550801561150f578273ffffffffffffffffffffffffffffffffffffffff168473ffffffffffffffffffffffffffffffffffffffff167f8c5be1e5ebec7d5bd14f71427d1e84f3dd0314c0f7b2291e5b200ac8c7c3b9258460405161150691906117f0565b60405180910390a35b50505050565b5f73ffffffffffffffffffffffffffffffffffffffff168373ffffffffffffffffffffffffffffffffffffffff1603611565578060025f828254611559919061236b565b92505081905550611633565b5f805f8573ffffffffffffffffffffffffffffffffffffffff1673ffffffffffffffffffffffffffffffffffffffff1681526020019081526020015f20549050818110156115ee578381836040517fe450d38c0000000000000000000000000000000000000000000000000000000081526004016115e593929190612303565b60405180910390fd5b8181035f808673ffffffffffffffffffffffffffffffffffffffff1673ffffffffffffffffffffffffffffffffffffffff1681526020019081526020015f2081905550505b5f73ffffffffffffffffffffffffffffffffffffffff168273ffffffffffffffffffffffffffffffffffffffff160361167a578060025f82825403925050819055506116c4565b805f808473ffffffffffffffffffffffffffffffffffffffff1673ffffffffffffffffffffffffffffffffffffffff1681526020019081526020015f205f82825401925050819055505b8173ffffffffffffffffffffffffffffffffffffffff168373ffffffffffffffffffffffffffffffffffffffff167fddf252ad1be2c89b69c2b068fc378daa952ba7f163c4a11628f55a4df523b3ef8360405161172191906117f0565b60405180910390a3505050565b5f81519050919050565b5f82825260208201905092915050565b5f5b8381101561176557808201518184015260208101905061174a565b5f8484015250505050565b5f601f19601f8301169050919050565b5f61178a8261172e565b6117948185611738565b93506117a4818560208601611748565b6117ad81611770565b840191505092915050565b5f6020820190508181035f8301526117d08184611780565b905092915050565b5f819050919050565b6117ea816117d8565b82525050565b5f6020820190506118035f8301846117e1565b92915050565b5f604051905090565b5f80fd5b5f80fd5b5f73ffffffffffffffffffffffffffffffffffffffff82169050919050565b5f6118438261181a565b9050919050565b61185381611839565b811461185d575f80fd5b50565b5f8135905061186e8161184a565b92915050565b61187d816117d8565b8114611887575f80fd5b50565b5f8135905061189881611874565b92915050565b5f80604083850312156118b4576118b3611812565b5b5f6118c185828601611860565b92505060206118d28582860161188a565b9150509250929050565b5f8115159050919050565b6118f0816118dc565b82525050565b5f6020820190506119095f8301846118e7565b92915050565b5f6020828403121561192457611923611812565b5b5f61193184828501611860565b91505092915050565b61194381611839565b82525050565b5f60608201905061195c5f8301866117e1565b818103602083015261196e8185611780565b905061197d604083018461193a565b949350505050565b5f805f6060848603121561199c5761199b611812565b5b5f6119a986828701611860565b93505060206119ba86828701611860565b92505060406119cb8682870161188a565b9150509250925092565b5f60ff82169050919050565b6119ea816119d5565b82525050565b5f602082019050611a035f8301846119e1565b92915050565b5f80fd5b5f80fd5b7f4e487b71000000000000000000000000000000000000000000000000000000005f52604160045260245ffd5b611a4782611770565b810181811067ffffffffffffffff82111715611a6657611a65611a11565b5b80604052505050565b5f611a78611809565b9050611a848282611a3e565b919050565b5f67ffffffffffffffff821115611aa357611aa2611a11565b5b611aac82611770565b9050602081019050919050565b828183375f83830152505050565b5f611ad9611ad484611a89565b611a6f565b905082815260208101848484011115611af557611af4611a0d565b5b611b00848285611ab9565b509392505050565b5f82601f830112611b1c57611b1b611a09565b5b8135611b2c848260208601611ac7565b91505092915050565b5f8060408385031215611b4b57611b4a611812565b5b5f83013567ffffffffffffffff811115611b6857611b67611816565b5b611b7485828601611b08565b9250506020611b8585828601611860565b9150509250929050565b5f60208284031215611ba457611ba3611812565b5b5f611bb18482850161188a565b91505092915050565b7f4e487b71000000000000000000000000000000000000000000000000000000005f52602160045260245ffd5b60048110611bf857611bf7611bba565b5b50565b5f819050611c0882611be7565b919050565b5f611c1782611bfb565b9050919050565b611c2781611c0d565b82525050565b5f608082019050611c405f8301876117e1565b611c4d60208301866117e1565b611c5a60408301856117e1565b611c676060830184611c1e565b95945050505050565b5f602082019050611c835f83018461193a565b92915050565b5f805f8060808587031215611ca157611ca0611812565b5b5f611cae8782880161188a565b9450506020611cbf8782880161188a565b9350506040611cd08782880161188a565b9250506060611ce18782880161188a565b91505092959194509250565b5f8060408385031215611d0357611d02611812565b5b5f611d1085828601611860565b9250506020611d2185828601611860565b9150509250929050565b611d34816117d8565b82525050565b604082015f820151611d4e5f850182611d2b565b506020820151611d616020850182611d2b565b50505050565b5f6101a082019050611d7b5f83018f6117e1565b611d88602083018e6117e1565b611d95604083018d6117e1565b611da2606083018c6117e1565b611daf608083018b6117e1565b611dbc60a083018a6117e1565b611dc960c08301896117e1565b611dd660e083018861193a565b611de461010083018761193a565b611df26101208301866118e7565b611e00610140830185611d3a565b611e0e610180830184611c1e565b9d9c50505050505050505050505050565b5f805f805f805f80610100898b031215611e3c57611e3b611812565b5b5f611e498b828c0161188a565b9850506020611e5a8b828c0161188a565b9750506040611e6b8b828c0161188a565b9650506060611e7c8b828c0161188a565b9550506080611e8d8b828c0161188a565b94505060a0611e9e8b828c0161188a565b93505060c0611eaf8b828c01611860565b92505060e0611ec08b828c01611860565b9150509295985092959890939650565b7f4e487b71000000000000000000000000000000000000000000000000000000005f52602260045260245ffd5b5f6002820490506001821680611f1457607f821691505b602082108103611f2757611f26611ed0565b5b50919050565b7f4e487b71000000000000000000000000000000000000000000000000000000005f52601160045260245ffd5b5f611f64826117d8565b91507fffffffffffffffffffffffffffffffffffffffffffffffffffffffffffffffff8203611f9657611f95611f2d565b5b600182019050919050565b5f819050815f5260205f209050919050565b5f6020601f8301049050919050565b5f82821b905092915050565b5f60088302611ffd7fffffffffffffffffffffffffffffffffffffffffffffffffffffffffffffffff82611fc2565b6120078683611fc2565b95508019841693508086168417925050509392505050565b5f819050919050565b5f61204261203d612038846117d8565b61201f565b6117d8565b9050919050565b5f819050919050565b61205b83612028565b61206f61206782612049565b848454611fce565b825550505050565b5f90565b612083612077565b61208e818484612052565b505050565b5b818110156120b1576120a65f8261207b565b600181019050612094565b5050565b601f8211156120f6576120c781611fa1565b6120d084611fb3565b810160208510156120df578190505b6120f36120eb85611fb3565b830182612093565b50505b505050565b5f82821c905092915050565b5f6121165f19846008026120fb565b1980831691505092915050565b5f61212e8383612107565b9150826002028217905092915050565b6121478261172e565b67ffffffffffffffff8111156121605761215f611a11565b5b61216a8254611efd565b6121758282856120b5565b5f60209050601f8311600181146121a6575f8415612194578287015190505b61219e8582612123565b865550612205565b601f1984166121b486611fa1565b5f5b828110156121db578489015182556001820191506020850194506020810190506121b6565b868310156121f857848901516121f4601f891682612107565b8355505b6001600288020188555050505b505050505050565b7f436f6e7472616374206973206e6f7420616374697665000000000000000000005f82015250565b5f612241601683611738565b915061224c8261220d565b602082019050919050565b5f6020820190508181035f83015261226e81612235565b9050919050565b7f43757272656e742074696d65206973206265666f7265207468652073746172745f8201527f2074696d65000000000000000000000000000000000000000000000000000000602082015250565b5f6122cf602583611738565b91506122da82612275565b604082019050919050565b5f6020820190508181035f8301526122fc816122c3565b9050919050565b5f6060820190506123165f83018661193a565b61232360208301856117e1565b61233060408301846117e1565b949350505050565b5f612342826117d8565b915061234d836117d8565b925082820390508181111561236557612364611f2d565b5b92915050565b5f612375826117d8565b9150612380836117d8565b925082820190508082111561239857612397611f2d565b5b9291505056fea26469706673582212205400bec2511d5c6566e8ce04c36a46859f3e4386a83160a80232f84ca9a79da164736f6c63430008180033",
					"opcodes": "PUSH1 0x80 PUSH1 0x40 MSTORE CALLVALUE DUP1 ISZERO PUSH3 0x10 JUMPI PUSH0 DUP1 REVERT JUMPDEST POP PUSH1 0x40 MLOAD DUP1 PUSH1 0x40 ADD PUSH1 0x40 MSTORE DUP1 PUSH1 0x6 DUP2 MSTORE PUSH1 0x20 ADD PUSH32 0x52546F6B656E0000000000000000000000000000000000000000000000000000 DUP2 MSTORE POP PUSH1 0x40 MLOAD DUP1 PUSH1 0x40 ADD PUSH1 0x40 MSTORE DUP1 PUSH1 0x2 DUP2 MSTORE PUSH1 0x20 ADD PUSH32 0x5254000000000000000000000000000000000000000000000000000000000000 DUP2 MSTORE POP DUP2 PUSH1 0x3 SWAP1 DUP2 PUSH3 0x8E SWAP2 SWAP1 PUSH3 0x34D JUMP JUMPDEST POP DUP1 PUSH1 0x4 SWAP1 DUP2 PUSH3 0xA0 SWAP2 SWAP1 PUSH3 0x34D JUMP JUMPDEST POP POP POP CALLER PUSH1 0x5 PUSH0 PUSH2 0x100 EXP DUP2 SLOAD DUP2 PUSH20 0xFFFFFFFFFFFFFFFFFFFFFFFFFFFFFFFFFFFFFFFF MUL NOT AND SWAP1 DUP4 PUSH20 0xFFFFFFFFFFFFFFFFFFFFFFFFFFFFFFFFFFFFFFFF AND MUL OR SWAP1 SSTORE POP PUSH3 0x431 JUMP JUMPDEST PUSH0 DUP2 MLOAD SWAP1 POP SWAP2 SWAP1 POP JUMP JUMPDEST PUSH32 0x4E487B7100000000000000000000000000000000000000000000000000000000 PUSH0 MSTORE PUSH1 0x41 PUSH1 0x4 MSTORE PUSH1 0x24 PUSH0 REVERT JUMPDEST PUSH32 0x4E487B7100000000000000000000000000000000000000000000000000000000 PUSH0 MSTORE PUSH1 0x22 PUSH1 0x4 MSTORE PUSH1 0x24 PUSH0 REVERT JUMPDEST PUSH0 PUSH1 0x2 DUP3 DIV SWAP1 POP PUSH1 0x1 DUP3 AND DUP1 PUSH3 0x165 JUMPI PUSH1 0x7F DUP3 AND SWAP2 POP JUMPDEST PUSH1 0x20 DUP3 LT DUP2 SUB PUSH3 0x17B JUMPI PUSH3 0x17A PUSH3 0x120 JUMP JUMPDEST JUMPDEST POP SWAP2 SWAP1 POP JUMP JUMPDEST PUSH0 DUP2 SWAP1 POP DUP2 PUSH0 MSTORE PUSH1 0x20 PUSH0 KECCAK256 SWAP1 POP SWAP2 SWAP1 POP JUMP JUMPDEST PUSH0 PUSH1 0x20 PUSH1 0x1F DUP4 ADD DIV SWAP1 POP SWAP2 SWAP1 POP JUMP JUMPDEST PUSH0 DUP3 DUP3 SHL SWAP1 POP SWAP3 SWAP2 POP POP JUMP JUMPDEST PUSH0 PUSH1 0x8 DUP4 MUL PUSH3 0x1DF PUSH32 0xFFFFFFFFFFFFFFFFFFFFFFFFFFFFFFFFFFFFFFFFFFFFFFFFFFFFFFFFFFFFFFFF DUP3 PUSH3 0x1A2 JUMP JUMPDEST PUSH3 0x1EB DUP7 DUP4 PUSH3 0x1A2 JUMP JUMPDEST SWAP6 POP DUP1 NOT DUP5 AND SWAP4 POP DUP1 DUP7 AND DUP5 OR SWAP3 POP POP POP SWAP4 SWAP3 POP POP POP JUMP JUMPDEST PUSH0 DUP2 SWAP1 POP SWAP2 SWAP1 POP JUMP JUMPDEST PUSH0 DUP2 SWAP1 POP SWAP2 SWAP1 POP JUMP JUMPDEST PUSH0 PUSH3 0x235 PUSH3 0x22F PUSH3 0x229 DUP5 PUSH3 0x203 JUMP JUMPDEST PUSH3 0x20C JUMP JUMPDEST PUSH3 0x203 JUMP JUMPDEST SWAP1 POP SWAP2 SWAP1 POP JUMP JUMPDEST PUSH0 DUP2 SWAP1 POP SWAP2 SWAP1 POP JUMP JUMPDEST PUSH3 0x250 DUP4 PUSH3 0x215 JUMP JUMPDEST PUSH3 0x268 PUSH3 0x25F DUP3 PUSH3 0x23C JUMP JUMPDEST DUP5 DUP5 SLOAD PUSH3 0x1AE JUMP JUMPDEST DUP3 SSTORE POP POP POP POP JUMP JUMPDEST PUSH0 SWAP1 JUMP JUMPDEST PUSH3 0x27E PUSH3 0x270 JUMP JUMPDEST PUSH3 0x28B DUP2 DUP5 DUP5 PUSH3 0x245 JUMP JUMPDEST POP POP POP JUMP JUMPDEST JUMPDEST DUP2 DUP2 LT ISZERO PUSH3 0x2B2 JUMPI PUSH3 0x2A6 PUSH0 DUP3 PUSH3 0x274 JUMP JUMPDEST PUSH1 0x1 DUP2 ADD SWAP1 POP PUSH3 0x291 JUMP JUMPDEST POP POP JUMP JUMPDEST PUSH1 0x1F DUP3 GT ISZERO PUSH3 0x301 JUMPI PUSH3 0x2CB DUP2 PUSH3 0x181 JUMP JUMPDEST PUSH3 0x2D6 DUP5 PUSH3 0x193 JUMP JUMPDEST DUP2 ADD PUSH1 0x20 DUP6 LT ISZERO PUSH3 0x2E6 JUMPI DUP2 SWAP1 POP JUMPDEST PUSH3 0x2FE PUSH3 0x2F5 DUP6 PUSH3 0x193 JUMP JUMPDEST DUP4 ADD DUP3 PUSH3 0x290 JUMP JUMPDEST POP POP JUMPDEST POP POP POP JUMP JUMPDEST PUSH0 DUP3 DUP3 SHR SWAP1 POP SWAP3 SWAP2 POP POP JUMP JUMPDEST PUSH0 PUSH3 0x323 PUSH0 NOT DUP5 PUSH1 0x8 MUL PUSH3 0x306 JUMP JUMPDEST NOT DUP1 DUP4 AND SWAP2 POP POP SWAP3 SWAP2 POP POP JUMP JUMPDEST PUSH0 PUSH3 0x33D DUP4 DUP4 PUSH3 0x312 JUMP JUMPDEST SWAP2 POP DUP3 PUSH1 0x2 MUL DUP3 OR SWAP1 POP SWAP3 SWAP2 POP POP JUMP JUMPDEST PUSH3 0x358 DUP3 PUSH3 0xE9 JUMP JUMPDEST PUSH8 0xFFFFFFFFFFFFFFFF DUP2 GT ISZERO PUSH3 0x374 JUMPI PUSH3 0x373 PUSH3 0xF3 JUMP JUMPDEST JUMPDEST PUSH3 0x380 DUP3 SLOAD PUSH3 0x14D JUMP JUMPDEST PUSH3 0x38D DUP3 DUP3 DUP6 PUSH3 0x2B6 JUMP JUMPDEST PUSH0 PUSH1 0x20 SWAP1 POP PUSH1 0x1F DUP4 GT PUSH1 0x1 DUP2 EQ PUSH3 0x3C3 JUMPI PUSH0 DUP5 ISZERO PUSH3 0x3AE JUMPI DUP3 DUP8 ADD MLOAD SWAP1 POP JUMPDEST PUSH3 0x3BA DUP6 DUP3 PUSH3 0x330 JUMP JUMPDEST DUP7 SSTORE POP PUSH3 0x429 JUMP JUMPDEST PUSH1 0x1F NOT DUP5 AND PUSH3 0x3D3 DUP7 PUSH3 0x181 JUMP JUMPDEST PUSH0 JUMPDEST DUP3 DUP2 LT ISZERO PUSH3 0x3FC JUMPI DUP5 DUP10 ADD MLOAD DUP3 SSTORE PUSH1 0x1 DUP3 ADD SWAP2 POP PUSH1 0x20 DUP6 ADD SWAP5 POP PUSH1 0x20 DUP2 ADD SWAP1 POP PUSH3 0x3D5 JUMP JUMPDEST DUP7 DUP4 LT ISZERO PUSH3 0x41C JUMPI DUP5 DUP10 ADD MLOAD PUSH3 0x418 PUSH1 0x1F DUP10 AND DUP3 PUSH3 0x312 JUMP JUMPDEST DUP4 SSTORE POP JUMPDEST PUSH1 0x1 PUSH1 0x2 DUP9 MUL ADD DUP9 SSTORE POP POP POP JUMPDEST POP POP POP POP POP POP JUMP JUMPDEST PUSH2 0x23D4 DUP1 PUSH3 0x43F PUSH0 CODECOPY PUSH0 RETURN INVALID PUSH1 0x80 PUSH1 0x40 MSTORE CALLVALUE DUP1 ISZERO PUSH2 0xF JUMPI PUSH0 DUP1 REVERT JUMPDEST POP PUSH1 0x4 CALLDATASIZE LT PUSH2 0x140 JUMPI PUSH0 CALLDATALOAD PUSH1 0xE0 SHR DUP1 PUSH4 0x8DA5CB5B GT PUSH2 0xB6 JUMPI DUP1 PUSH4 0xCD5D61DB GT PUSH2 0x7A JUMPI DUP1 PUSH4 0xCD5D61DB EQ PUSH2 0x38F JUMPI DUP1 PUSH4 0xD0678947 EQ PUSH2 0x3AB JUMPI DUP1 PUSH4 0xDD62ED3E EQ PUSH2 0x3DD JUMPI DUP1 PUSH4 0xDFECD44B EQ PUSH2 0x40D JUMPI DUP1 PUSH4 0xFC694EC1 EQ PUSH2 0x42B JUMPI DUP1 PUSH4 0xFF33999F EQ PUSH2 0x466 JUMPI PUSH2 0x140 JUMP JUMPDEST DUP1 PUSH4 0x8DA5CB5B EQ PUSH2 0x2EB JUMPI DUP1 PUSH4 0x95D89B41 EQ PUSH2 0x309 JUMPI DUP1 PUSH4 0x9F251F80 EQ PUSH2 0x327 JUMPI DUP1 PUSH4 0xA9059CBB EQ PUSH2 0x343 JUMPI DUP1 PUSH4 0xC7012A98 EQ PUSH2 0x373 JUMPI PUSH2 0x140 JUMP JUMPDEST DUP1 PUSH4 0x23B872DD GT PUSH2 0x108 JUMPI DUP1 PUSH4 0x23B872DD EQ PUSH2 0x200 JUMPI DUP1 PUSH4 0x313CE567 EQ PUSH2 0x230 JUMPI DUP1 PUSH4 0x35744745 EQ PUSH2 0x24E JUMPI DUP1 PUSH4 0x4643EA7D EQ PUSH2 0x26A JUMPI DUP1 PUSH4 0x6EBC8C86 EQ PUSH2 0x288 JUMPI DUP1 PUSH4 0x70A08231 EQ PUSH2 0x2BB JUMPI PUSH2 0x140 JUMP JUMPDEST DUP1 PUSH4 0x6FDDE03 EQ PUSH2 0x144 JUMPI DUP1 PUSH4 0x7E7C336 EQ PUSH2 0x162 JUMPI DUP1 PUSH4 0x95EA7B3 EQ PUSH2 0x180 JUMPI DUP1 PUSH4 0xBE435BD EQ PUSH2 0x1B0 JUMPI DUP1 PUSH4 0x18160DDD EQ PUSH2 0x1E2 JUMPI JUMPDEST PUSH0 DUP1 REVERT JUMPDEST PUSH2 0x14C PUSH2 0x482 JUMP JUMPDEST PUSH1 0x40 MLOAD PUSH2 0x159 SWAP2 SWAP1 PUSH2 0x17B8 JUMP JUMPDEST PUSH1 0x40 MLOAD DUP1 SWAP2 SUB SWAP1 RETURN JUMPDEST PUSH2 0x16A PUSH2 0x512 JUMP JUMPDEST PUSH1 0x40 MLOAD PUSH2 0x177 SWAP2 SWAP1 PUSH2 0x17F0 JUMP JUMPDEST PUSH1 0x40 MLOAD DUP1 SWAP2 SUB SWAP1 RETURN JUMPDEST PUSH2 0x19A PUSH1 0x4 DUP1 CALLDATASIZE SUB DUP2 ADD SWAP1 PUSH2 0x195 SWAP2 SWAP1 PUSH2 0x189E JUMP JUMPDEST PUSH2 0x518 JUMP JUMPDEST PUSH1 0x40 MLOAD PUSH2 0x1A7 SWAP2 SWAP1 PUSH2 0x18F6 JUMP JUMPDEST PUSH1 0x40 MLOAD DUP1 SWAP2 SUB SWAP1 RETURN JUMPDEST PUSH2 0x1CA PUSH1 0x4 DUP1 CALLDATASIZE SUB DUP2 ADD SWAP1 PUSH2 0x1C5 SWAP2 SWAP1 PUSH2 0x190F JUMP JUMPDEST PUSH2 0x53A JUMP JUMPDEST PUSH1 0x40 MLOAD PUSH2 0x1D9 SWAP4 SWAP3 SWAP2 SWAP1 PUSH2 0x1949 JUMP JUMPDEST PUSH1 0x40 MLOAD DUP1 SWAP2 SUB SWAP1 RETURN JUMPDEST PUSH2 0x1EA PUSH2 0x605 JUMP JUMPDEST PUSH1 0x40 MLOAD PUSH2 0x1F7 SWAP2 SWAP1 PUSH2 0x17F0 JUMP JUMPDEST PUSH1 0x40 MLOAD DUP1 SWAP2 SUB SWAP1 RETURN JUMPDEST PUSH2 0x21A PUSH1 0x4 DUP1 CALLDATASIZE SUB DUP2 ADD SWAP1 PUSH2 0x215 SWAP2 SWAP1 PUSH2 0x1985 JUMP JUMPDEST PUSH2 0x60E JUMP JUMPDEST PUSH1 0x40 MLOAD PUSH2 0x227 SWAP2 SWAP1 PUSH2 0x18F6 JUMP JUMPDEST PUSH1 0x40 MLOAD DUP1 SWAP2 SUB SWAP1 RETURN JUMPDEST PUSH2 0x238 PUSH2 0x63C JUMP JUMPDEST PUSH1 0x40 MLOAD PUSH2 0x245 SWAP2 SWAP1 PUSH2 0x19F0 JUMP JUMPDEST PUSH1 0x40 MLOAD DUP1 SWAP2 SUB SWAP1 RETURN JUMPDEST PUSH2 0x268 PUSH1 0x4 DUP1 CALLDATASIZE SUB DUP2 ADD SWAP1 PUSH2 0x263 SWAP2 SWAP1 PUSH2 0x1B35 JUMP JUMPDEST PUSH2 0x644 JUMP JUMPDEST STOP JUMPDEST PUSH2 0x272 PUSH2 0x736 JUMP JUMPDEST PUSH1 0x40 MLOAD PUSH2 0x27F SWAP2 SWAP1 PUSH2 0x17F0 JUMP JUMPDEST PUSH1 0x40 MLOAD DUP1 SWAP2 SUB SWAP1 RETURN JUMPDEST PUSH2 0x2A2 PUSH1 0x4 DUP1 CALLDATASIZE SUB DUP2 ADD SWAP1 PUSH2 0x29D SWAP2 SWAP1 PUSH2 0x1B8F JUMP JUMPDEST PUSH2 0x73C JUMP JUMPDEST PUSH1 0x40 MLOAD PUSH2 0x2B2 SWAP5 SWAP4 SWAP3 SWAP2 SWAP1 PUSH2 0x1C2D JUMP JUMPDEST PUSH1 0x40 MLOAD DUP1 SWAP2 SUB SWAP1 RETURN JUMPDEST PUSH2 0x2D5 PUSH1 0x4 DUP1 CALLDATASIZE SUB DUP2 ADD SWAP1 PUSH2 0x2D0 SWAP2 SWAP1 PUSH2 0x190F JUMP JUMPDEST PUSH2 0x8F8 JUMP JUMPDEST PUSH1 0x40 MLOAD PUSH2 0x2E2 SWAP2 SWAP1 PUSH2 0x17F0 JUMP JUMPDEST PUSH1 0x40 MLOAD DUP1 SWAP2 SUB SWAP1 RETURN JUMPDEST PUSH2 0x2F3 PUSH2 0x93D JUMP JUMPDEST PUSH1 0x40 MLOAD PUSH2 0x300 SWAP2 SWAP1 PUSH2 0x1C70 JUMP JUMPDEST PUSH1 0x40 MLOAD DUP1 SWAP2 SUB SWAP1 RETURN JUMPDEST PUSH2 0x311 PUSH2 0x962 JUMP JUMPDEST PUSH1 0x40 MLOAD PUSH2 0x31E SWAP2 SWAP1 PUSH2 0x17B8 JUMP JUMPDEST PUSH1 0x40 MLOAD DUP1 SWAP2 SUB SWAP1 RETURN JUMPDEST PUSH2 0x341 PUSH1 0x4 DUP1 CALLDATASIZE SUB DUP2 ADD SWAP1 PUSH2 0x33C SWAP2 SWAP1 PUSH2 0x1B35 JUMP JUMPDEST PUSH2 0x9F2 JUMP JUMPDEST STOP JUMPDEST PUSH2 0x35D PUSH1 0x4 DUP1 CALLDATASIZE SUB DUP2 ADD SWAP1 PUSH2 0x358 SWAP2 SWAP1 PUSH2 0x189E JUMP JUMPDEST PUSH2 0xAE4 JUMP JUMPDEST PUSH1 0x40 MLOAD PUSH2 0x36A SWAP2 SWAP1 PUSH2 0x18F6 JUMP JUMPDEST PUSH1 0x40 MLOAD DUP1 SWAP2 SUB SWAP1 RETURN JUMPDEST PUSH2 0x38D PUSH1 0x4 DUP1 CALLDATASIZE SUB DUP2 ADD SWAP1 PUSH2 0x388 SWAP2 SWAP1 PUSH2 0x1B8F JUMP JUMPDEST PUSH2 0xB06 JUMP JUMPDEST STOP JUMPDEST PUSH2 0x3A9 PUSH1 0x4 DUP1 CALLDATASIZE SUB DUP2 ADD SWAP1 PUSH2 0x3A4 SWAP2 SWAP1 PUSH2 0x1C89 JUMP JUMPDEST PUSH2 0xB5B JUMP JUMPDEST STOP JUMPDEST PUSH2 0x3C5 PUSH1 0x4 DUP1 CALLDATASIZE SUB DUP2 ADD SWAP1 PUSH2 0x3C0 SWAP2 SWAP1 PUSH2 0x190F JUMP JUMPDEST PUSH2 0xD23 JUMP JUMPDEST PUSH1 0x40 MLOAD PUSH2 0x3D4 SWAP4 SWAP3 SWAP2 SWAP1 PUSH2 0x1949 JUMP JUMPDEST PUSH1 0x40 MLOAD DUP1 SWAP2 SUB SWAP1 RETURN JUMPDEST PUSH2 0x3F7 PUSH1 0x4 DUP1 CALLDATASIZE SUB DUP2 ADD SWAP1 PUSH2 0x3F2 SWAP2 SWAP1 PUSH2 0x1CED JUMP JUMPDEST PUSH2 0xDEE JUMP JUMPDEST PUSH1 0x40 MLOAD PUSH2 0x404 SWAP2 SWAP1 PUSH2 0x17F0 JUMP JUMPDEST PUSH1 0x40 MLOAD DUP1 SWAP2 SUB SWAP1 RETURN JUMPDEST PUSH2 0x415 PUSH2 0xE70 JUMP JUMPDEST PUSH1 0x40 MLOAD PUSH2 0x422 SWAP2 SWAP1 PUSH2 0x17F0 JUMP JUMPDEST PUSH1 0x40 MLOAD DUP1 SWAP2 SUB SWAP1 RETURN JUMPDEST PUSH2 0x445 PUSH1 0x4 DUP1 CALLDATASIZE SUB DUP2 ADD SWAP1 PUSH2 0x440 SWAP2 SWAP1 PUSH2 0x1B8F JUMP JUMPDEST PUSH2 0xE76 JUMP JUMPDEST PUSH1 0x40 MLOAD PUSH2 0x45D SWAP13 SWAP12 SWAP11 SWAP10 SWAP9 SWAP8 SWAP7 SWAP6 SWAP5 SWAP4 SWAP3 SWAP2 SWAP1 PUSH2 0x1D67 JUMP JUMPDEST PUSH1 0x40 MLOAD DUP1 SWAP2 SUB SWAP1 RETURN JUMPDEST PUSH2 0x480 PUSH1 0x4 DUP1 CALLDATASIZE SUB DUP2 ADD SWAP1 PUSH2 0x47B SWAP2 SWAP1 PUSH2 0x1E1F JUMP JUMPDEST PUSH2 0xF46 JUMP JUMPDEST STOP JUMPDEST PUSH1 0x60 PUSH1 0x3 DUP1 SLOAD PUSH2 0x491 SWAP1 PUSH2 0x1EFD JUMP JUMPDEST DUP1 PUSH1 0x1F ADD PUSH1 0x20 DUP1 SWAP2 DIV MUL PUSH1 0x20 ADD PUSH1 0x40 MLOAD SWAP1 DUP2 ADD PUSH1 0x40 MSTORE DUP1 SWAP3 SWAP2 SWAP1 DUP2 DUP2 MSTORE PUSH1 0x20 ADD DUP3 DUP1 SLOAD PUSH2 0x4BD SWAP1 PUSH2 0x1EFD JUMP JUMPDEST DUP1 ISZERO PUSH2 0x508 JUMPI DUP1 PUSH1 0x1F LT PUSH2 0x4DF JUMPI PUSH2 0x100 DUP1 DUP4 SLOAD DIV MUL DUP4 MSTORE SWAP2 PUSH1 0x20 ADD SWAP2 PUSH2 0x508 JUMP JUMPDEST DUP3 ADD SWAP2 SWAP1 PUSH0 MSTORE PUSH1 0x20 PUSH0 KECCAK256 SWAP1 JUMPDEST DUP2 SLOAD DUP2 MSTORE SWAP1 PUSH1 0x1 ADD SWAP1 PUSH1 0x20 ADD DUP1 DUP4 GT PUSH2 0x4EB JUMPI DUP3 SWAP1 SUB PUSH1 0x1F AND DUP3 ADD SWAP2 JUMPDEST POP POP POP POP POP SWAP1 POP SWAP1 JUMP JUMPDEST PUSH1 0x9 SLOAD DUP2 JUMP JUMPDEST PUSH0 DUP1 PUSH2 0x522 PUSH2 0x116B JUMP JUMPDEST SWAP1 POP PUSH2 0x52F DUP2 DUP6 DUP6 PUSH2 0x1172 JUMP JUMPDEST PUSH1 0x1 SWAP2 POP POP SWAP3 SWAP2 POP POP JUMP JUMPDEST PUSH1 0x8 PUSH1 0x20 MSTORE DUP1 PUSH0 MSTORE PUSH1 0x40 PUSH0 KECCAK256 PUSH0 SWAP2 POP SWAP1 POP DUP1 PUSH0 ADD SLOAD SWAP1 DUP1 PUSH1 0x1 ADD DUP1 SLOAD PUSH2 0x55F SWAP1 PUSH2 0x1EFD JUMP JUMPDEST DUP1 PUSH1 0x1F ADD PUSH1 0x20 DUP1 SWAP2 DIV MUL PUSH1 0x20 ADD PUSH1 0x40 MLOAD SWAP1 DUP2 ADD PUSH1 0x40 MSTORE DUP1 SWAP3 SWAP2 SWAP1 DUP2 DUP2 MSTORE PUSH1 0x20 ADD DUP3 DUP1 SLOAD PUSH2 0x58B SWAP1 PUSH2 0x1EFD JUMP JUMPDEST DUP1 ISZERO PUSH2 0x5D6 JUMPI DUP1 PUSH1 0x1F LT PUSH2 0x5AD JUMPI PUSH2 0x100 DUP1 DUP4 SLOAD DIV MUL DUP4 MSTORE SWAP2 PUSH1 0x20 ADD SWAP2 PUSH2 0x5D6 JUMP JUMPDEST DUP3 ADD SWAP2 SWAP1 PUSH0 MSTORE PUSH1 0x20 PUSH0 KECCAK256 SWAP1 JUMPDEST DUP2 SLOAD DUP2 MSTORE SWAP1 PUSH1 0x1 ADD SWAP1 PUSH1 0x20 ADD DUP1 DUP4 GT PUSH2 0x5B9 JUMPI DUP3 SWAP1 SUB PUSH1 0x1F AND DUP3 ADD SWAP2 JUMPDEST POP POP POP POP POP SWAP1 DUP1 PUSH1 0x2 ADD PUSH0 SWAP1 SLOAD SWAP1 PUSH2 0x100 EXP SWAP1 DIV PUSH20 0xFFFFFFFFFFFFFFFFFFFFFFFFFFFFFFFFFFFFFFFF AND SWAP1 POP DUP4 JUMP JUMPDEST PUSH0 PUSH1 0x2 SLOAD SWAP1 POP SWAP1 JUMP JUMPDEST PUSH0 DUP1 PUSH2 0x618 PUSH2 0x116B JUMP JUMPDEST SWAP1 POP PUSH2 0x625 DUP6 DUP3 DUP6 PUSH2 0x1184 JUMP JUMPDEST PUSH2 0x630 DUP6 DUP6 DUP6 PUSH2 0x1216 JUMP JUMPDEST PUSH1 0x1 SWAP2 POP POP SWAP4 SWAP3 POP POP POP JUMP JUMPDEST PUSH0 PUSH1 0x12 SWAP1 POP SWAP1 JUMP JUMPDEST PUSH1 0x9 PUSH0 DUP2 SLOAD DUP1 SWAP3 SWAP2 SWAP1 PUSH2 0x656 SWAP1 PUSH2 0x1F5A JUMP JUMPDEST SWAP2 SWAP1 POP SSTORE POP PUSH1 0x40 MLOAD DUP1 PUSH1 0x60 ADD PUSH1 0x40 MSTORE DUP1 PUSH1 0x9 SLOAD DUP2 MSTORE PUSH1 0x20 ADD DUP4 DUP2 MSTORE PUSH1 0x20 ADD DUP3 PUSH20 0xFFFFFFFFFFFFFFFFFFFFFFFFFFFFFFFFFFFFFFFF AND DUP2 MSTORE POP PUSH1 0x8 PUSH0 DUP4 PUSH20 0xFFFFFFFFFFFFFFFFFFFFFFFFFFFFFFFFFFFFFFFF AND PUSH20 0xFFFFFFFFFFFFFFFFFFFFFFFFFFFFFFFFFFFFFFFF AND DUP2 MSTORE PUSH1 0x20 ADD SWAP1 DUP2 MSTORE PUSH1 0x20 ADD PUSH0 KECCAK256 PUSH0 DUP3 ADD MLOAD DUP2 PUSH0 ADD SSTORE PUSH1 0x20 DUP3 ADD MLOAD DUP2 PUSH1 0x1 ADD SWAP1 DUP2 PUSH2 0x6E8 SWAP2 SWAP1 PUSH2 0x213E JUMP JUMPDEST POP PUSH1 0x40 DUP3 ADD MLOAD DUP2 PUSH1 0x2 ADD PUSH0 PUSH2 0x100 EXP DUP2 SLOAD DUP2 PUSH20 0xFFFFFFFFFFFFFFFFFFFFFFFFFFFFFFFFFFFFFFFF MUL NOT AND SWAP1 DUP4 PUSH20 0xFFFFFFFFFFFFFFFFFFFFFFFFFFFFFFFFFFFFFFFF AND MUL OR SWAP1 SSTORE POP SWAP1 POP POP POP POP JUMP JUMPDEST PUSH1 0x7 SLOAD DUP2 JUMP JUMPDEST PUSH0 DUP1 PUSH0 DUP1 PUSH0 PUSH1 0xA PUSH0 DUP8 DUP2 MSTORE PUSH1 0x20 ADD SWAP1 DUP2 MSTORE PUSH1 0x20 ADD PUSH0 KECCAK256 PUSH1 0x40 MLOAD DUP1 PUSH2 0x180 ADD PUSH1 0x40 MSTORE SWAP1 DUP2 PUSH0 DUP3 ADD SLOAD DUP2 MSTORE PUSH1 0x20 ADD PUSH1 0x1 DUP3 ADD SLOAD DUP2 MSTORE PUSH1 0x20 ADD PUSH1 0x2 DUP3 ADD SLOAD DUP2 MSTORE PUSH1 0x20 ADD PUSH1 0x3 DUP3 ADD SLOAD DUP2 MSTORE PUSH1 0x20 ADD PUSH1 0x4 DUP3 ADD SLOAD DUP2 MSTORE PUSH1 0x20 ADD PUSH1 0x5 DUP3 ADD SLOAD DUP2 MSTORE PUSH1 0x20 ADD PUSH1 0x6 DUP3 ADD SLOAD DUP2 MSTORE PUSH1 0x20 ADD PUSH1 0x7 DUP3 ADD PUSH0 SWAP1 SLOAD SWAP1 PUSH2 0x100 EXP SWAP1 DIV PUSH20 0xFFFFFFFFFFFFFFFFFFFFFFFFFFFFFFFFFFFFFFFF AND PUSH20 0xFFFFFFFFFFFFFFFFFFFFFFFFFFFFFFFFFFFFFFFF AND PUSH20 0xFFFFFFFFFFFFFFFFFFFFFFFFFFFFFFFFFFFFFFFF AND DUP2 MSTORE PUSH1 0x20 ADD PUSH1 0x8 DUP3 ADD PUSH0 SWAP1 SLOAD SWAP1 PUSH2 0x100 EXP SWAP1 DIV PUSH20 0xFFFFFFFFFFFFFFFFFFFFFFFFFFFFFFFFFFFFFFFF AND PUSH20 0xFFFFFFFFFFFFFFFFFFFFFFFFFFFFFFFFFFFFFFFF AND PUSH20 0xFFFFFFFFFFFFFFFFFFFFFFFFFFFFFFFFFFFFFFFF AND DUP2 MSTORE PUSH1 0x20 ADD PUSH1 0x8 DUP3 ADD PUSH1 0x14 SWAP1 SLOAD SWAP1 PUSH2 0x100 EXP SWAP1 DIV PUSH1 0xFF AND ISZERO ISZERO ISZERO ISZERO DUP2 MSTORE PUSH1 0x20 ADD PUSH1 0x9 DUP3 ADD PUSH1 0x40 MLOAD DUP1 PUSH1 0x40 ADD PUSH1 0x40 MSTORE SWAP1 DUP2 PUSH0 DUP3 ADD SLOAD DUP2 MSTORE PUSH1 0x20 ADD PUSH1 0x1 DUP3 ADD SLOAD DUP2 MSTORE POP POP DUP2 MSTORE PUSH1 0x20 ADD PUSH1 0xB DUP3 ADD PUSH0 SWAP1 SLOAD SWAP1 PUSH2 0x100 EXP SWAP1 DIV PUSH1 0xFF AND PUSH1 0x3 DUP2 GT ISZERO PUSH2 0x8B3 JUMPI PUSH2 0x8B2 PUSH2 0x1BBA JUMP JUMPDEST JUMPDEST PUSH1 0x3 DUP2 GT ISZERO PUSH2 0x8C5 JUMPI PUSH2 0x8C4 PUSH2 0x1BBA JUMP JUMPDEST JUMPDEST DUP2 MSTORE POP POP SWAP1 POP DUP1 PUSH0 ADD MLOAD DUP2 PUSH2 0x140 ADD MLOAD PUSH0 ADD MLOAD DUP3 PUSH2 0x140 ADD MLOAD PUSH1 0x20 ADD MLOAD DUP4 PUSH2 0x160 ADD MLOAD SWAP5 POP SWAP5 POP SWAP5 POP SWAP5 POP POP SWAP2 SWAP4 POP SWAP2 SWAP4 JUMP JUMPDEST PUSH0 DUP1 PUSH0 DUP4 PUSH20 0xFFFFFFFFFFFFFFFFFFFFFFFFFFFFFFFFFFFFFFFF AND PUSH20 0xFFFFFFFFFFFFFFFFFFFFFFFFFFFFFFFFFFFFFFFF AND DUP2 MSTORE PUSH1 0x20 ADD SWAP1 DUP2 MSTORE PUSH1 0x20 ADD PUSH0 KECCAK256 SLOAD SWAP1 POP SWAP2 SWAP1 POP JUMP JUMPDEST PUSH1 0x5 PUSH0 SWAP1 SLOAD SWAP1 PUSH2 0x100 EXP SWAP1 DIV PUSH20 0xFFFFFFFFFFFFFFFFFFFFFFFFFFFFFFFFFFFFFFFF AND DUP2 JUMP JUMPDEST PUSH1 0x60 PUSH1 0x4 DUP1 SLOAD PUSH2 0x971 SWAP1 PUSH2 0x1EFD JUMP JUMPDEST DUP1 PUSH1 0x1F ADD PUSH1 0x20 DUP1 SWAP2 DIV MUL PUSH1 0x20 ADD PUSH1 0x40 MLOAD SWAP1 DUP2 ADD PUSH1 0x40 MSTORE DUP1 SWAP3 SWAP2 SWAP1 DUP2 DUP2 MSTORE PUSH1 0x20 ADD DUP3 DUP1 SLOAD PUSH2 0x99D SWAP1 PUSH2 0x1EFD JUMP JUMPDEST DUP1 ISZERO PUSH2 0x9E8 JUMPI DUP1 PUSH1 0x1F LT PUSH2 0x9BF JUMPI PUSH2 0x100 DUP1 DUP4 SLOAD DIV MUL DUP4 MSTORE SWAP2 PUSH1 0x20 ADD SWAP2 PUSH2 0x9E8 JUMP JUMPDEST DUP3 ADD SWAP2 SWAP1 PUSH0 MSTORE PUSH1 0x20 PUSH0 KECCAK256 SWAP1 JUMPDEST DUP2 SLOAD DUP2 MSTORE SWAP1 PUSH1 0x1 ADD SWAP1 PUSH1 0x20 ADD DUP1 DUP4 GT PUSH2 0x9CB JUMPI DUP3 SWAP1 SUB PUSH1 0x1F AND DUP3 ADD SWAP2 JUMPDEST POP POP POP POP POP SWAP1 POP SWAP1 JUMP JUMPDEST PUSH1 0x7 PUSH0 DUP2 SLOAD DUP1 SWAP3 SWAP2 SWAP1 PUSH2 0xA04 SWAP1 PUSH2 0x1F5A JUMP JUMPDEST SWAP2 SWAP1 POP SSTORE POP PUSH1 0x40 MLOAD DUP1 PUSH1 0x60 ADD PUSH1 0x40 MSTORE DUP1 PUSH1 0x7 SLOAD DUP2 MSTORE PUSH1 0x20 ADD DUP4 DUP2 MSTORE PUSH1 0x20 ADD DUP3 PUSH20 0xFFFFFFFFFFFFFFFFFFFFFFFFFFFFFFFFFFFFFFFF AND DUP2 MSTORE POP PUSH1 0x6 PUSH0 DUP4 PUSH20 0xFFFFFFFFFFFFFFFFFFFFFFFFFFFFFFFFFFFFFFFF AND PUSH20 0xFFFFFFFFFFFFFFFFFFFFFFFFFFFFFFFFFFFFFFFF AND DUP2 MSTORE PUSH1 0x20 ADD SWAP1 DUP2 MSTORE PUSH1 0x20 ADD PUSH0 KECCAK256 PUSH0 DUP3 ADD MLOAD DUP2 PUSH0 ADD SSTORE PUSH1 0x20 DUP3 ADD MLOAD DUP2 PUSH1 0x1 ADD SWAP1 DUP2 PUSH2 0xA96 SWAP2 SWAP1 PUSH2 0x213E JUMP JUMPDEST POP PUSH1 0x40 DUP3 ADD MLOAD DUP2 PUSH1 0x2 ADD PUSH0 PUSH2 0x100 EXP DUP2 SLOAD DUP2 PUSH20 0xFFFFFFFFFFFFFFFFFFFFFFFFFFFFFFFFFFFFFFFF MUL NOT AND SWAP1 DUP4 PUSH20 0xFFFFFFFFFFFFFFFFFFFFFFFFFFFFFFFFFFFFFFFF AND MUL OR SWAP1 SSTORE POP SWAP1 POP POP POP POP JUMP JUMPDEST PUSH0 DUP1 PUSH2 0xAEE PUSH2 0x116B JUMP JUMPDEST SWAP1 POP PUSH2 0xAFB DUP2 DUP6 DUP6 PUSH2 0x1216 JUMP JUMPDEST PUSH1 0x1 SWAP2 POP POP SWAP3 SWAP2 POP POP JUMP JUMPDEST PUSH2 0xB57 PUSH1 0xA PUSH0 DUP4 DUP2 MSTORE PUSH1 0x20 ADD SWAP1 DUP2 MSTORE PUSH1 0x20 ADD PUSH0 KECCAK256 PUSH1 0x7 ADD PUSH0 SWAP1 SLOAD SWAP1 PUSH2 0x100 EXP SWAP1 DIV PUSH20 0xFFFFFFFFFFFFFFFFFFFFFFFFFFFFFFFFFFFFFFFF AND PUSH1 0xA PUSH0 DUP5 DUP2 MSTORE PUSH1 0x20 ADD SWAP1 DUP2 MSTORE PUSH1 0x20 ADD PUSH0 KECCAK256 PUSH1 0x6 ADD SLOAD PUSH2 0xAE4 JUMP JUMPDEST POP POP JUMP JUMPDEST PUSH0 PUSH1 0xA PUSH0 DUP5 DUP2 MSTORE PUSH1 0x20 ADD SWAP1 DUP2 MSTORE PUSH1 0x20 ADD PUSH0 KECCAK256 SWAP1 POP DUP1 PUSH1 0x8 ADD PUSH1 0x14 SWAP1 SLOAD SWAP1 PUSH2 0x100 EXP SWAP1 DIV PUSH1 0xFF AND PUSH2 0xBC0 JUMPI PUSH1 0x40 MLOAD PUSH32 0x8C379A000000000000000000000000000000000000000000000000000000000 DUP2 MSTORE PUSH1 0x4 ADD PUSH2 0xBB7 SWAP1 PUSH2 0x2257 JUMP JUMPDEST PUSH1 0x40 MLOAD DUP1 SWAP2 SUB SWAP1 REVERT JUMPDEST DUP1 PUSH1 0x4 ADD SLOAD DUP3 GT PUSH2 0xC06 JUMPI PUSH1 0x40 MLOAD PUSH32 0x8C379A000000000000000000000000000000000000000000000000000000000 DUP2 MSTORE PUSH1 0x4 ADD PUSH2 0xBFD SWAP1 PUSH2 0x22E5 JUMP JUMPDEST PUSH1 0x40 MLOAD DUP1 SWAP2 SUB SWAP1 REVERT JUMPDEST DUP1 PUSH1 0x5 ADD SLOAD DUP3 LT ISZERO PUSH2 0xCCA JUMPI PUSH2 0xC2B DUP6 DUP6 DUP4 PUSH1 0x1 ADD SLOAD DUP5 PUSH1 0x2 ADD SLOAD DUP6 PUSH1 0x3 ADD SLOAD PUSH2 0x1306 JUMP JUMPDEST ISZERO PUSH2 0xC7C JUMPI DUP1 PUSH1 0x9 ADD PUSH0 ADD PUSH0 DUP2 SLOAD DUP1 SWAP3 SWAP2 SWAP1 PUSH2 0xC46 SWAP1 PUSH2 0x1F5A JUMP JUMPDEST SWAP2 SWAP1 POP SSTORE POP PUSH1 0x1 DUP2 PUSH1 0xB ADD PUSH0 PUSH2 0x100 EXP DUP2 SLOAD DUP2 PUSH1 0xFF MUL NOT AND SWAP1 DUP4 PUSH1 0x3 DUP2 GT ISZERO PUSH2 0xC72 JUMPI PUSH2 0xC71 PUSH2 0x1BBA JUMP JUMPDEST JUMPDEST MUL OR SWAP1 SSTORE POP PUSH2 0xCC5 JUMP JUMPDEST DUP1 PUSH1 0x9 ADD PUSH1 0x1 ADD PUSH0 DUP2 SLOAD DUP1 SWAP3 SWAP2 SWAP1 PUSH2 0xC93 SWAP1 PUSH2 0x1F5A JUMP JUMPDEST SWAP2 SWAP1 POP SSTORE POP PUSH1 0x2 DUP2 PUSH1 0xB ADD PUSH0 PUSH2 0x100 EXP DUP2 SLOAD DUP2 PUSH1 0xFF MUL NOT AND SWAP1 DUP4 PUSH1 0x3 DUP2 GT ISZERO PUSH2 0xCBF JUMPI PUSH2 0xCBE PUSH2 0x1BBA JUMP JUMPDEST JUMPDEST MUL OR SWAP1 SSTORE POP JUMPDEST PUSH2 0xD1C JUMP JUMPDEST PUSH2 0xCD3 DUP4 PUSH2 0xB06 JUMP JUMPDEST PUSH0 DUP2 PUSH1 0x8 ADD PUSH1 0x14 PUSH2 0x100 EXP DUP2 SLOAD DUP2 PUSH1 0xFF MUL NOT AND SWAP1 DUP4 ISZERO ISZERO MUL OR SWAP1 SSTORE POP PUSH1 0x3 DUP2 PUSH1 0xB ADD PUSH0 PUSH2 0x100 EXP DUP2 SLOAD DUP2 PUSH1 0xFF MUL NOT AND SWAP1 DUP4 PUSH1 0x3 DUP2 GT ISZERO PUSH2 0xD16 JUMPI PUSH2 0xD15 PUSH2 0x1BBA JUMP JUMPDEST JUMPDEST MUL OR SWAP1 SSTORE POP JUMPDEST POP POP POP POP POP JUMP JUMPDEST PUSH1 0x6 PUSH1 0x20 MSTORE DUP1 PUSH0 MSTORE PUSH1 0x40 PUSH0 KECCAK256 PUSH0 SWAP2 POP SWAP1 POP DUP1 PUSH0 ADD SLOAD SWAP1 DUP1 PUSH1 0x1 ADD DUP1 SLOAD PUSH2 0xD48 SWAP1 PUSH2 0x1EFD JUMP JUMPDEST DUP1 PUSH1 0x1F ADD PUSH1 0x20 DUP1 SWAP2 DIV MUL PUSH1 0x20 ADD PUSH1 0x40 MLOAD SWAP1 DUP2 ADD PUSH1 0x40 MSTORE DUP1 SWAP3 SWAP2 SWAP1 DUP2 DUP2 MSTORE PUSH1 0x20 ADD DUP3 DUP1 SLOAD PUSH2 0xD74 SWAP1 PUSH2 0x1EFD JUMP JUMPDEST DUP1 ISZERO PUSH2 0xDBF JUMPI DUP1 PUSH1 0x1F LT PUSH2 0xD96 JUMPI PUSH2 0x100 DUP1 DUP4 SLOAD DIV MUL DUP4 MSTORE SWAP2 PUSH1 0x20 ADD SWAP2 PUSH2 0xDBF JUMP JUMPDEST DUP3 ADD SWAP2 SWAP1 PUSH0 MSTORE PUSH1 0x20 PUSH0 KECCAK256 SWAP1 JUMPDEST DUP2 SLOAD DUP2 MSTORE SWAP1 PUSH1 0x1 ADD SWAP1 PUSH1 0x20 ADD DUP1 DUP4 GT PUSH2 0xDA2 JUMPI DUP3 SWAP1 SUB PUSH1 0x1F AND DUP3 ADD SWAP2 JUMPDEST POP POP POP POP POP SWAP1 DUP1 PUSH1 0x2 ADD PUSH0 SWAP1 SLOAD SWAP1 PUSH2 0x100 EXP SWAP1 DIV PUSH20 0xFFFFFFFFFFFFFFFFFFFFFFFFFFFFFFFFFFFFFFFF AND SWAP1 POP DUP4 JUMP JUMPDEST PUSH0 PUSH1 0x1 PUSH0 DUP5 PUSH20 0xFFFFFFFFFFFFFFFFFFFFFFFFFFFFFFFFFFFFFFFF AND PUSH20 0xFFFFFFFFFFFFFFFFFFFFFFFFFFFFFFFFFFFFFFFF AND DUP2 MSTORE PUSH1 0x20 ADD SWAP1 DUP2 MSTORE PUSH1 0x20 ADD PUSH0 KECCAK256 PUSH0 DUP4 PUSH20 0xFFFFFFFFFFFFFFFFFFFFFFFFFFFFFFFFFFFFFFFF AND PUSH20 0xFFFFFFFFFFFFFFFFFFFFFFFFFFFFFFFFFFFFFFFF AND DUP2 MSTORE PUSH1 0x20 ADD SWAP1 DUP2 MSTORE PUSH1 0x20 ADD PUSH0 KECCAK256 SLOAD SWAP1 POP SWAP3 SWAP2 POP POP JUMP JUMPDEST PUSH1 0xB SLOAD DUP2 JUMP JUMPDEST PUSH1 0xA PUSH1 0x20 MSTORE DUP1 PUSH0 MSTORE PUSH1 0x40 PUSH0 KECCAK256 PUSH0 SWAP2 POP SWAP1 POP DUP1 PUSH0 ADD SLOAD SWAP1 DUP1 PUSH1 0x1 ADD SLOAD SWAP1 DUP1 PUSH1 0x2 ADD SLOAD SWAP1 DUP1 PUSH1 0x3 ADD SLOAD SWAP1 DUP1 PUSH1 0x4 ADD SLOAD SWAP1 DUP1 PUSH1 0x5 ADD SLOAD SWAP1 DUP1 PUSH1 0x6 ADD SLOAD SWAP1 DUP1 PUSH1 0x7 ADD PUSH0 SWAP1 SLOAD SWAP1 PUSH2 0x100 EXP SWAP1 DIV PUSH20 0xFFFFFFFFFFFFFFFFFFFFFFFFFFFFFFFFFFFFFFFF AND SWAP1 DUP1 PUSH1 0x8 ADD PUSH0 SWAP1 SLOAD SWAP1 PUSH2 0x100 EXP SWAP1 DIV PUSH20 0xFFFFFFFFFFFFFFFFFFFFFFFFFFFFFFFFFFFFFFFF AND SWAP1 DUP1 PUSH1 0x8 ADD PUSH1 0x14 SWAP1 SLOAD SWAP1 PUSH2 0x100 EXP SWAP1 DIV PUSH1 0xFF AND SWAP1 DUP1 PUSH1 0x9 ADD PUSH1 0x40 MLOAD DUP1 PUSH1 0x40 ADD PUSH1 0x40 MSTORE SWAP1 DUP2 PUSH0 DUP3 ADD SLOAD DUP2 MSTORE PUSH1 0x20 ADD PUSH1 0x1 DUP3 ADD SLOAD DUP2 MSTORE POP POP SWAP1 DUP1 PUSH1 0xB ADD PUSH0 SWAP1 SLOAD SWAP1 PUSH2 0x100 EXP SWAP1 DIV PUSH1 0xFF AND SWAP1 POP DUP13 JUMP JUMPDEST PUSH0 PUSH1 0x40 MLOAD DUP1 PUSH1 0x40 ADD PUSH1 0x40 MSTORE DUP1 PUSH0 DUP2 MSTORE PUSH1 0x20 ADD PUSH0 DUP2 MSTORE POP SWAP1 POP PUSH1 0xB PUSH0 DUP2 SLOAD DUP1 SWAP3 SWAP2 SWAP1 PUSH2 0xF70 SWAP1 PUSH2 0x1F5A JUMP JUMPDEST SWAP2 SWAP1 POP SSTORE POP PUSH1 0x40 MLOAD DUP1 PUSH2 0x180 ADD PUSH1 0x40 MSTORE DUP1 PUSH1 0xB SLOAD DUP2 MSTORE PUSH1 0x20 ADD DUP11 DUP2 MSTORE PUSH1 0x20 ADD DUP10 DUP2 MSTORE PUSH1 0x20 ADD DUP9 DUP2 MSTORE PUSH1 0x20 ADD DUP8 DUP2 MSTORE PUSH1 0x20 ADD DUP7 DUP2 MSTORE PUSH1 0x20 ADD DUP6 DUP2 MSTORE PUSH1 0x20 ADD DUP5 PUSH20 0xFFFFFFFFFFFFFFFFFFFFFFFFFFFFFFFFFFFFFFFF AND DUP2 MSTORE PUSH1 0x20 ADD DUP4 PUSH20 0xFFFFFFFFFFFFFFFFFFFFFFFFFFFFFFFFFFFFFFFF AND DUP2 MSTORE PUSH1 0x20 ADD PUSH1 0x1 ISZERO ISZERO DUP2 MSTORE PUSH1 0x20 ADD DUP3 DUP2 MSTORE PUSH1 0x20 ADD PUSH0 PUSH1 0x3 DUP2 GT ISZERO PUSH2 0x1007 JUMPI PUSH2 0x1006 PUSH2 0x1BBA JUMP JUMPDEST JUMPDEST DUP2 MSTORE POP PUSH1 0xA PUSH0 PUSH1 0xB SLOAD DUP2 MSTORE PUSH1 0x20 ADD SWAP1 DUP2 MSTORE PUSH1 0x20 ADD PUSH0 KECCAK256 PUSH0 DUP3 ADD MLOAD DUP2 PUSH0 ADD SSTORE PUSH1 0x20 DUP3 ADD MLOAD DUP2 PUSH1 0x1 ADD SSTORE PUSH1 0x40 DUP3 ADD MLOAD DUP2 PUSH1 0x2 ADD SSTORE PUSH1 0x60 DUP3 ADD MLOAD DUP2 PUSH1 0x3 ADD SSTORE PUSH1 0x80 DUP3 ADD MLOAD DUP2 PUSH1 0x4 ADD SSTORE PUSH1 0xA0 DUP3 ADD MLOAD DUP2 PUSH1 0x5 ADD SSTORE PUSH1 0xC0 DUP3 ADD MLOAD DUP2 PUSH1 0x6 ADD SSTORE PUSH1 0xE0 DUP3 ADD MLOAD DUP2 PUSH1 0x7 ADD PUSH0 PUSH2 0x100 EXP DUP2 SLOAD DUP2 PUSH20 0xFFFFFFFFFFFFFFFFFFFFFFFFFFFFFFFFFFFFFFFF MUL NOT AND SWAP1 DUP4 PUSH20 0xFFFFFFFFFFFFFFFFFFFFFFFFFFFFFFFFFFFFFFFF AND MUL OR SWAP1 SSTORE POP PUSH2 0x100 DUP3 ADD MLOAD DUP2 PUSH1 0x8 ADD PUSH0 PUSH2 0x100 EXP DUP2 SLOAD DUP2 PUSH20 0xFFFFFFFFFFFFFFFFFFFFFFFFFFFFFFFFFFFFFFFF MUL NOT AND SWAP1 DUP4 PUSH20 0xFFFFFFFFFFFFFFFFFFFFFFFFFFFFFFFFFFFFFFFF AND MUL OR SWAP1 SSTORE POP PUSH2 0x120 DUP3 ADD MLOAD DUP2 PUSH1 0x8 ADD PUSH1 0x14 PUSH2 0x100 EXP DUP2 SLOAD DUP2 PUSH1 0xFF MUL NOT AND SWAP1 DUP4 ISZERO ISZERO MUL OR SWAP1 SSTORE POP PUSH2 0x140 DUP3 ADD MLOAD DUP2 PUSH1 0x9 ADD PUSH0 DUP3 ADD MLOAD DUP2 PUSH0 ADD SSTORE PUSH1 0x20 DUP3 ADD MLOAD DUP2 PUSH1 0x1 ADD SSTORE POP POP PUSH2 0x160 DUP3 ADD MLOAD DUP2 PUSH1 0xB ADD PUSH0 PUSH2 0x100 EXP DUP2 SLOAD DUP2 PUSH1 0xFF MUL NOT AND SWAP1 DUP4 PUSH1 0x3 DUP2 GT ISZERO PUSH2 0x1158 JUMPI PUSH2 0x1157 PUSH2 0x1BBA JUMP JUMPDEST JUMPDEST MUL OR SWAP1 SSTORE POP SWAP1 POP POP POP POP POP POP POP POP POP POP POP JUMP JUMPDEST PUSH0 CALLER SWAP1 POP SWAP1 JUMP JUMPDEST PUSH2 0x117F DUP4 DUP4 DUP4 PUSH1 0x1 PUSH2 0x1346 JUMP JUMPDEST POP POP POP JUMP JUMPDEST PUSH0 PUSH2 0x118F DUP5 DUP5 PUSH2 0xDEE JUMP JUMPDEST SWAP1 POP PUSH32 0xFFFFFFFFFFFFFFFFFFFFFFFFFFFFFFFFFFFFFFFFFFFFFFFFFFFFFFFFFFFFFFFF DUP2 EQ PUSH2 0x1210 JUMPI DUP2 DUP2 LT ISZERO PUSH2 0x1201 JUMPI DUP3 DUP2 DUP4 PUSH1 0x40 MLOAD PUSH32 0xFB8F41B200000000000000000000000000000000000000000000000000000000 DUP2 MSTORE PUSH1 0x4 ADD PUSH2 0x11F8 SWAP4 SWAP3 SWAP2 SWAP1 PUSH2 0x2303 JUMP JUMPDEST PUSH1 0x40 MLOAD DUP1 SWAP2 SUB SWAP1 REVERT JUMPDEST PUSH2 0x120F DUP5 DUP5 DUP5 DUP5 SUB PUSH0 PUSH2 0x1346 JUMP JUMPDEST JUMPDEST POP POP POP POP JUMP JUMPDEST PUSH0 PUSH20 0xFFFFFFFFFFFFFFFFFFFFFFFFFFFFFFFFFFFFFFFF AND DUP4 PUSH20 0xFFFFFFFFFFFFFFFFFFFFFFFFFFFFFFFFFFFFFFFF AND SUB PUSH2 0x1286 JUMPI PUSH0 PUSH1 0x40 MLOAD PUSH32 0x96C6FD1E00000000000000000000000000000000000000000000000000000000 DUP2 MSTORE PUSH1 0x4 ADD PUSH2 0x127D SWAP2 SWAP1 PUSH2 0x1C70 JUMP JUMPDEST PUSH1 0x40 MLOAD DUP1 SWAP2 SUB SWAP1 REVERT JUMPDEST PUSH0 PUSH20 0xFFFFFFFFFFFFFFFFFFFFFFFFFFFFFFFFFFFFFFFF AND DUP3 PUSH20 0xFFFFFFFFFFFFFFFFFFFFFFFFFFFFFFFFFFFFFFFF AND SUB PUSH2 0x12F6 JUMPI PUSH0 PUSH1 0x40 MLOAD PUSH32 0xEC442F0500000000000000000000000000000000000000000000000000000000 DUP2 MSTORE PUSH1 0x4 ADD PUSH2 0x12ED SWAP2 SWAP1 PUSH2 0x1C70 JUMP JUMPDEST PUSH1 0x40 MLOAD DUP1 SWAP2 SUB SWAP1 REVERT JUMPDEST PUSH2 0x1301 DUP4 DUP4 DUP4 PUSH2 0x1515 JUMP JUMPDEST POP POP POP JUMP JUMPDEST PUSH0 DUP1 DUP5 DUP8 PUSH2 0x1314 SWAP2 SWAP1 PUSH2 0x2338 JUMP JUMPDEST SWAP1 POP PUSH0 DUP5 DUP8 PUSH2 0x1323 SWAP2 SWAP1 PUSH2 0x2338 JUMP JUMPDEST SWAP1 POP PUSH0 DUP2 DUP4 PUSH2 0x1332 SWAP2 SWAP1 PUSH2 0x236B JUMP JUMPDEST SWAP1 POP DUP5 DUP2 GT ISZERO SWAP4 POP POP POP POP SWAP6 SWAP5 POP POP POP POP POP JUMP JUMPDEST PUSH0 PUSH20 0xFFFFFFFFFFFFFFFFFFFFFFFFFFFFFFFFFFFFFFFF AND DUP5 PUSH20 0xFFFFFFFFFFFFFFFFFFFFFFFFFFFFFFFFFFFFFFFF AND SUB PUSH2 0x13B6 JUMPI PUSH0 PUSH1 0x40 MLOAD PUSH32 0xE602DF0500000000000000000000000000000000000000000000000000000000 DUP2 MSTORE PUSH1 0x4 ADD PUSH2 0x13AD SWAP2 SWAP1 PUSH2 0x1C70 JUMP JUMPDEST PUSH1 0x40 MLOAD DUP1 SWAP2 SUB SWAP1 REVERT JUMPDEST PUSH0 PUSH20 0xFFFFFFFFFFFFFFFFFFFFFFFFFFFFFFFFFFFFFFFF AND DUP4 PUSH20 0xFFFFFFFFFFFFFFFFFFFFFFFFFFFFFFFFFFFFFFFF AND SUB PUSH2 0x1426 JUMPI PUSH0 PUSH1 0x40 MLOAD PUSH32 0x94280D6200000000000000000000000000000000000000000000000000000000 DUP2 MSTORE PUSH1 0x4 ADD PUSH2 0x141D SWAP2 SWAP1 PUSH2 0x1C70 JUMP JUMPDEST PUSH1 0x40 MLOAD DUP1 SWAP2 SUB SWAP1 REVERT JUMPDEST DUP2 PUSH1 0x1 PUSH0 DUP7 PUSH20 0xFFFFFFFFFFFFFFFFFFFFFFFFFFFFFFFFFFFFFFFF AND PUSH20 0xFFFFFFFFFFFFFFFFFFFFFFFFFFFFFFFFFFFFFFFF AND DUP2 MSTORE PUSH1 0x20 ADD SWAP1 DUP2 MSTORE PUSH1 0x20 ADD PUSH0 KECCAK256 PUSH0 DUP6 PUSH20 0xFFFFFFFFFFFFFFFFFFFFFFFFFFFFFFFFFFFFFFFF AND PUSH20 0xFFFFFFFFFFFFFFFFFFFFFFFFFFFFFFFFFFFFFFFF AND DUP2 MSTORE PUSH1 0x20 ADD SWAP1 DUP2 MSTORE PUSH1 0x20 ADD PUSH0 KECCAK256 DUP2 SWAP1 SSTORE POP DUP1 ISZERO PUSH2 0x150F JUMPI DUP3 PUSH20 0xFFFFFFFFFFFFFFFFFFFFFFFFFFFFFFFFFFFFFFFF AND DUP5 PUSH20 0xFFFFFFFFFFFFFFFFFFFFFFFFFFFFFFFFFFFFFFFF AND PUSH32 0x8C5BE1E5EBEC7D5BD14F71427D1E84F3DD0314C0F7B2291E5B200AC8C7C3B925 DUP5 PUSH1 0x40 MLOAD PUSH2 0x1506 SWAP2 SWAP1 PUSH2 0x17F0 JUMP JUMPDEST PUSH1 0x40 MLOAD DUP1 SWAP2 SUB SWAP1 LOG3 JUMPDEST POP POP POP POP JUMP JUMPDEST PUSH0 PUSH20 0xFFFFFFFFFFFFFFFFFFFFFFFFFFFFFFFFFFFFFFFF AND DUP4 PUSH20 0xFFFFFFFFFFFFFFFFFFFFFFFFFFFFFFFFFFFFFFFF AND SUB PUSH2 0x1565 JUMPI DUP1 PUSH1 0x2 PUSH0 DUP3 DUP3 SLOAD PUSH2 0x1559 SWAP2 SWAP1 PUSH2 0x236B JUMP JUMPDEST SWAP3 POP POP DUP2 SWAP1 SSTORE POP PUSH2 0x1633 JUMP JUMPDEST PUSH0 DUP1 PUSH0 DUP6 PUSH20 0xFFFFFFFFFFFFFFFFFFFFFFFFFFFFFFFFFFFFFFFF AND PUSH20 0xFFFFFFFFFFFFFFFFFFFFFFFFFFFFFFFFFFFFFFFF AND DUP2 MSTORE PUSH1 0x20 ADD SWAP1 DUP2 MSTORE PUSH1 0x20 ADD PUSH0 KECCAK256 SLOAD SWAP1 POP DUP2 DUP2 LT ISZERO PUSH2 0x15EE JUMPI DUP4 DUP2 DUP4 PUSH1 0x40 MLOAD PUSH32 0xE450D38C00000000000000000000000000000000000000000000000000000000 DUP2 MSTORE PUSH1 0x4 ADD PUSH2 0x15E5 SWAP4 SWAP3 SWAP2 SWAP1 PUSH2 0x2303 JUMP JUMPDEST PUSH1 0x40 MLOAD DUP1 SWAP2 SUB SWAP1 REVERT JUMPDEST DUP2 DUP2 SUB PUSH0 DUP1 DUP7 PUSH20 0xFFFFFFFFFFFFFFFFFFFFFFFFFFFFFFFFFFFFFFFF AND PUSH20 0xFFFFFFFFFFFFFFFFFFFFFFFFFFFFFFFFFFFFFFFF AND DUP2 MSTORE PUSH1 0x20 ADD SWAP1 DUP2 MSTORE PUSH1 0x20 ADD PUSH0 KECCAK256 DUP2 SWAP1 SSTORE POP POP JUMPDEST PUSH0 PUSH20 0xFFFFFFFFFFFFFFFFFFFFFFFFFFFFFFFFFFFFFFFF AND DUP3 PUSH20 0xFFFFFFFFFFFFFFFFFFFFFFFFFFFFFFFFFFFFFFFF AND SUB PUSH2 0x167A JUMPI DUP1 PUSH1 0x2 PUSH0 DUP3 DUP3 SLOAD SUB SWAP3 POP POP DUP2 SWAP1 SSTORE POP PUSH2 0x16C4 JUMP JUMPDEST DUP1 PUSH0 DUP1 DUP5 PUSH20 0xFFFFFFFFFFFFFFFFFFFFFFFFFFFFFFFFFFFFFFFF AND PUSH20 0xFFFFFFFFFFFFFFFFFFFFFFFFFFFFFFFFFFFFFFFF AND DUP2 MSTORE PUSH1 0x20 ADD SWAP1 DUP2 MSTORE PUSH1 0x20 ADD PUSH0 KECCAK256 PUSH0 DUP3 DUP3 SLOAD ADD SWAP3 POP POP DUP2 SWAP1 SSTORE POP JUMPDEST DUP2 PUSH20 0xFFFFFFFFFFFFFFFFFFFFFFFFFFFFFFFFFFFFFFFF AND DUP4 PUSH20 0xFFFFFFFFFFFFFFFFFFFFFFFFFFFFFFFFFFFFFFFF AND PUSH32 0xDDF252AD1BE2C89B69C2B068FC378DAA952BA7F163C4A11628F55A4DF523B3EF DUP4 PUSH1 0x40 MLOAD PUSH2 0x1721 SWAP2 SWAP1 PUSH2 0x17F0 JUMP JUMPDEST PUSH1 0x40 MLOAD DUP1 SWAP2 SUB SWAP1 LOG3 POP POP POP JUMP JUMPDEST PUSH0 DUP2 MLOAD SWAP1 POP SWAP2 SWAP1 POP JUMP JUMPDEST PUSH0 DUP3 DUP3 MSTORE PUSH1 0x20 DUP3 ADD SWAP1 POP SWAP3 SWAP2 POP POP JUMP JUMPDEST PUSH0 JUMPDEST DUP4 DUP2 LT ISZERO PUSH2 0x1765 JUMPI DUP1 DUP3 ADD MLOAD DUP2 DUP5 ADD MSTORE PUSH1 0x20 DUP2 ADD SWAP1 POP PUSH2 0x174A JUMP JUMPDEST PUSH0 DUP5 DUP5 ADD MSTORE POP POP POP POP JUMP JUMPDEST PUSH0 PUSH1 0x1F NOT PUSH1 0x1F DUP4 ADD AND SWAP1 POP SWAP2 SWAP1 POP JUMP JUMPDEST PUSH0 PUSH2 0x178A DUP3 PUSH2 0x172E JUMP JUMPDEST PUSH2 0x1794 DUP2 DUP6 PUSH2 0x1738 JUMP JUMPDEST SWAP4 POP PUSH2 0x17A4 DUP2 DUP6 PUSH1 0x20 DUP7 ADD PUSH2 0x1748 JUMP JUMPDEST PUSH2 0x17AD DUP2 PUSH2 0x1770 JUMP JUMPDEST DUP5 ADD SWAP2 POP POP SWAP3 SWAP2 POP POP JUMP JUMPDEST PUSH0 PUSH1 0x20 DUP3 ADD SWAP1 POP DUP2 DUP2 SUB PUSH0 DUP4 ADD MSTORE PUSH2 0x17D0 DUP2 DUP5 PUSH2 0x1780 JUMP JUMPDEST SWAP1 POP SWAP3 SWAP2 POP POP JUMP JUMPDEST PUSH0 DUP2 SWAP1 POP SWAP2 SWAP1 POP JUMP JUMPDEST PUSH2 0x17EA DUP2 PUSH2 0x17D8 JUMP JUMPDEST DUP3 MSTORE POP POP JUMP JUMPDEST PUSH0 PUSH1 0x20 DUP3 ADD SWAP1 POP PUSH2 0x1803 PUSH0 DUP4 ADD DUP5 PUSH2 0x17E1 JUMP JUMPDEST SWAP3 SWAP2 POP POP JUMP JUMPDEST PUSH0 PUSH1 0x40 MLOAD SWAP1 POP SWAP1 JUMP JUMPDEST PUSH0 DUP1 REVERT JUMPDEST PUSH0 DUP1 REVERT JUMPDEST PUSH0 PUSH20 0xFFFFFFFFFFFFFFFFFFFFFFFFFFFFFFFFFFFFFFFF DUP3 AND SWAP1 POP SWAP2 SWAP1 POP JUMP JUMPDEST PUSH0 PUSH2 0x1843 DUP3 PUSH2 0x181A JUMP JUMPDEST SWAP1 POP SWAP2 SWAP1 POP JUMP JUMPDEST PUSH2 0x1853 DUP2 PUSH2 0x1839 JUMP JUMPDEST DUP2 EQ PUSH2 0x185D JUMPI PUSH0 DUP1 REVERT JUMPDEST POP JUMP JUMPDEST PUSH0 DUP2 CALLDATALOAD SWAP1 POP PUSH2 0x186E DUP2 PUSH2 0x184A JUMP JUMPDEST SWAP3 SWAP2 POP POP JUMP JUMPDEST PUSH2 0x187D DUP2 PUSH2 0x17D8 JUMP JUMPDEST DUP2 EQ PUSH2 0x1887 JUMPI PUSH0 DUP1 REVERT JUMPDEST POP JUMP JUMPDEST PUSH0 DUP2 CALLDATALOAD SWAP1 POP PUSH2 0x1898 DUP2 PUSH2 0x1874 JUMP JUMPDEST SWAP3 SWAP2 POP POP JUMP JUMPDEST PUSH0 DUP1 PUSH1 0x40 DUP4 DUP6 SUB SLT ISZERO PUSH2 0x18B4 JUMPI PUSH2 0x18B3 PUSH2 0x1812 JUMP JUMPDEST JUMPDEST PUSH0 PUSH2 0x18C1 DUP6 DUP3 DUP7 ADD PUSH2 0x1860 JUMP JUMPDEST SWAP3 POP POP PUSH1 0x20 PUSH2 0x18D2 DUP6 DUP3 DUP7 ADD PUSH2 0x188A JUMP JUMPDEST SWAP2 POP POP SWAP3 POP SWAP3 SWAP1 POP JUMP JUMPDEST PUSH0 DUP2 ISZERO ISZERO SWAP1 POP SWAP2 SWAP1 POP JUMP JUMPDEST PUSH2 0x18F0 DUP2 PUSH2 0x18DC JUMP JUMPDEST DUP3 MSTORE POP POP JUMP JUMPDEST PUSH0 PUSH1 0x20 DUP3 ADD SWAP1 POP PUSH2 0x1909 PUSH0 DUP4 ADD DUP5 PUSH2 0x18E7 JUMP JUMPDEST SWAP3 SWAP2 POP POP JUMP JUMPDEST PUSH0 PUSH1 0x20 DUP3 DUP5 SUB SLT ISZERO PUSH2 0x1924 JUMPI PUSH2 0x1923 PUSH2 0x1812 JUMP JUMPDEST JUMPDEST PUSH0 PUSH2 0x1931 DUP5 DUP3 DUP6 ADD PUSH2 0x1860 JUMP JUMPDEST SWAP2 POP POP SWAP3 SWAP2 POP POP JUMP JUMPDEST PUSH2 0x1943 DUP2 PUSH2 0x1839 JUMP JUMPDEST DUP3 MSTORE POP POP JUMP JUMPDEST PUSH0 PUSH1 0x60 DUP3 ADD SWAP1 POP PUSH2 0x195C PUSH0 DUP4 ADD DUP7 PUSH2 0x17E1 JUMP JUMPDEST DUP2 DUP2 SUB PUSH1 0x20 DUP4 ADD MSTORE PUSH2 0x196E DUP2 DUP6 PUSH2 0x1780 JUMP JUMPDEST SWAP1 POP PUSH2 0x197D PUSH1 0x40 DUP4 ADD DUP5 PUSH2 0x193A JUMP JUMPDEST SWAP5 SWAP4 POP POP POP POP JUMP JUMPDEST PUSH0 DUP1 PUSH0 PUSH1 0x60 DUP5 DUP7 SUB SLT ISZERO PUSH2 0x199C JUMPI PUSH2 0x199B PUSH2 0x1812 JUMP JUMPDEST JUMPDEST PUSH0 PUSH2 0x19A9 DUP7 DUP3 DUP8 ADD PUSH2 0x1860 JUMP JUMPDEST SWAP4 POP POP PUSH1 0x20 PUSH2 0x19BA DUP7 DUP3 DUP8 ADD PUSH2 0x1860 JUMP JUMPDEST SWAP3 POP POP PUSH1 0x40 PUSH2 0x19CB DUP7 DUP3 DUP8 ADD PUSH2 0x188A JUMP JUMPDEST SWAP2 POP POP SWAP3 POP SWAP3 POP SWAP3 JUMP JUMPDEST PUSH0 PUSH1 0xFF DUP3 AND SWAP1 POP SWAP2 SWAP1 POP JUMP JUMPDEST PUSH2 0x19EA DUP2 PUSH2 0x19D5 JUMP JUMPDEST DUP3 MSTORE POP POP JUMP JUMPDEST PUSH0 PUSH1 0x20 DUP3 ADD SWAP1 POP PUSH2 0x1A03 PUSH0 DUP4 ADD DUP5 PUSH2 0x19E1 JUMP JUMPDEST SWAP3 SWAP2 POP POP JUMP JUMPDEST PUSH0 DUP1 REVERT JUMPDEST PUSH0 DUP1 REVERT JUMPDEST PUSH32 0x4E487B7100000000000000000000000000000000000000000000000000000000 PUSH0 MSTORE PUSH1 0x41 PUSH1 0x4 MSTORE PUSH1 0x24 PUSH0 REVERT JUMPDEST PUSH2 0x1A47 DUP3 PUSH2 0x1770 JUMP JUMPDEST DUP2 ADD DUP2 DUP2 LT PUSH8 0xFFFFFFFFFFFFFFFF DUP3 GT OR ISZERO PUSH2 0x1A66 JUMPI PUSH2 0x1A65 PUSH2 0x1A11 JUMP JUMPDEST JUMPDEST DUP1 PUSH1 0x40 MSTORE POP POP POP JUMP JUMPDEST PUSH0 PUSH2 0x1A78 PUSH2 0x1809 JUMP JUMPDEST SWAP1 POP PUSH2 0x1A84 DUP3 DUP3 PUSH2 0x1A3E JUMP JUMPDEST SWAP2 SWAP1 POP JUMP JUMPDEST PUSH0 PUSH8 0xFFFFFFFFFFFFFFFF DUP3 GT ISZERO PUSH2 0x1AA3 JUMPI PUSH2 0x1AA2 PUSH2 0x1A11 JUMP JUMPDEST JUMPDEST PUSH2 0x1AAC DUP3 PUSH2 0x1770 JUMP JUMPDEST SWAP1 POP PUSH1 0x20 DUP2 ADD SWAP1 POP SWAP2 SWAP1 POP JUMP JUMPDEST DUP3 DUP2 DUP4 CALLDATACOPY PUSH0 DUP4 DUP4 ADD MSTORE POP POP POP JUMP JUMPDEST PUSH0 PUSH2 0x1AD9 PUSH2 0x1AD4 DUP5 PUSH2 0x1A89 JUMP JUMPDEST PUSH2 0x1A6F JUMP JUMPDEST SWAP1 POP DUP3 DUP2 MSTORE PUSH1 0x20 DUP2 ADD DUP5 DUP5 DUP5 ADD GT ISZERO PUSH2 0x1AF5 JUMPI PUSH2 0x1AF4 PUSH2 0x1A0D JUMP JUMPDEST JUMPDEST PUSH2 0x1B00 DUP5 DUP3 DUP6 PUSH2 0x1AB9 JUMP JUMPDEST POP SWAP4 SWAP3 POP POP POP JUMP JUMPDEST PUSH0 DUP3 PUSH1 0x1F DUP4 ADD SLT PUSH2 0x1B1C JUMPI PUSH2 0x1B1B PUSH2 0x1A09 JUMP JUMPDEST JUMPDEST DUP2 CALLDATALOAD PUSH2 0x1B2C DUP5 DUP3 PUSH1 0x20 DUP7 ADD PUSH2 0x1AC7 JUMP JUMPDEST SWAP2 POP POP SWAP3 SWAP2 POP POP JUMP JUMPDEST PUSH0 DUP1 PUSH1 0x40 DUP4 DUP6 SUB SLT ISZERO PUSH2 0x1B4B JUMPI PUSH2 0x1B4A PUSH2 0x1812 JUMP JUMPDEST JUMPDEST PUSH0 DUP4 ADD CALLDATALOAD PUSH8 0xFFFFFFFFFFFFFFFF DUP2 GT ISZERO PUSH2 0x1B68 JUMPI PUSH2 0x1B67 PUSH2 0x1816 JUMP JUMPDEST JUMPDEST PUSH2 0x1B74 DUP6 DUP3 DUP7 ADD PUSH2 0x1B08 JUMP JUMPDEST SWAP3 POP POP PUSH1 0x20 PUSH2 0x1B85 DUP6 DUP3 DUP7 ADD PUSH2 0x1860 JUMP JUMPDEST SWAP2 POP POP SWAP3 POP SWAP3 SWAP1 POP JUMP JUMPDEST PUSH0 PUSH1 0x20 DUP3 DUP5 SUB SLT ISZERO PUSH2 0x1BA4 JUMPI PUSH2 0x1BA3 PUSH2 0x1812 JUMP JUMPDEST JUMPDEST PUSH0 PUSH2 0x1BB1 DUP5 DUP3 DUP6 ADD PUSH2 0x188A JUMP JUMPDEST SWAP2 POP POP SWAP3 SWAP2 POP POP JUMP JUMPDEST PUSH32 0x4E487B7100000000000000000000000000000000000000000000000000000000 PUSH0 MSTORE PUSH1 0x21 PUSH1 0x4 MSTORE PUSH1 0x24 PUSH0 REVERT JUMPDEST PUSH1 0x4 DUP2 LT PUSH2 0x1BF8 JUMPI PUSH2 0x1BF7 PUSH2 0x1BBA JUMP JUMPDEST JUMPDEST POP JUMP JUMPDEST PUSH0 DUP2 SWAP1 POP PUSH2 0x1C08 DUP3 PUSH2 0x1BE7 JUMP JUMPDEST SWAP2 SWAP1 POP JUMP JUMPDEST PUSH0 PUSH2 0x1C17 DUP3 PUSH2 0x1BFB JUMP JUMPDEST SWAP1 POP SWAP2 SWAP1 POP JUMP JUMPDEST PUSH2 0x1C27 DUP2 PUSH2 0x1C0D JUMP JUMPDEST DUP3 MSTORE POP POP JUMP JUMPDEST PUSH0 PUSH1 0x80 DUP3 ADD SWAP1 POP PUSH2 0x1C40 PUSH0 DUP4 ADD DUP8 PUSH2 0x17E1 JUMP JUMPDEST PUSH2 0x1C4D PUSH1 0x20 DUP4 ADD DUP7 PUSH2 0x17E1 JUMP JUMPDEST PUSH2 0x1C5A PUSH1 0x40 DUP4 ADD DUP6 PUSH2 0x17E1 JUMP JUMPDEST PUSH2 0x1C67 PUSH1 0x60 DUP4 ADD DUP5 PUSH2 0x1C1E JUMP JUMPDEST SWAP6 SWAP5 POP POP POP POP POP JUMP JUMPDEST PUSH0 PUSH1 0x20 DUP3 ADD SWAP1 POP PUSH2 0x1C83 PUSH0 DUP4 ADD DUP5 PUSH2 0x193A JUMP JUMPDEST SWAP3 SWAP2 POP POP JUMP JUMPDEST PUSH0 DUP1 PUSH0 DUP1 PUSH1 0x80 DUP6 DUP8 SUB SLT ISZERO PUSH2 0x1CA1 JUMPI PUSH2 0x1CA0 PUSH2 0x1812 JUMP JUMPDEST JUMPDEST PUSH0 PUSH2 0x1CAE DUP8 DUP3 DUP9 ADD PUSH2 0x188A JUMP JUMPDEST SWAP5 POP POP PUSH1 0x20 PUSH2 0x1CBF DUP8 DUP3 DUP9 ADD PUSH2 0x188A JUMP JUMPDEST SWAP4 POP POP PUSH1 0x40 PUSH2 0x1CD0 DUP8 DUP3 DUP9 ADD PUSH2 0x188A JUMP JUMPDEST SWAP3 POP POP PUSH1 0x60 PUSH2 0x1CE1 DUP8 DUP3 DUP9 ADD PUSH2 0x188A JUMP JUMPDEST SWAP2 POP POP SWAP3 SWAP6 SWAP2 SWAP5 POP SWAP3 POP JUMP JUMPDEST PUSH0 DUP1 PUSH1 0x40 DUP4 DUP6 SUB SLT ISZERO PUSH2 0x1D03 JUMPI PUSH2 0x1D02 PUSH2 0x1812 JUMP JUMPDEST JUMPDEST PUSH0 PUSH2 0x1D10 DUP6 DUP3 DUP7 ADD PUSH2 0x1860 JUMP JUMPDEST SWAP3 POP POP PUSH1 0x20 PUSH2 0x1D21 DUP6 DUP3 DUP7 ADD PUSH2 0x1860 JUMP JUMPDEST SWAP2 POP POP SWAP3 POP SWAP3 SWAP1 POP JUMP JUMPDEST PUSH2 0x1D34 DUP2 PUSH2 0x17D8 JUMP JUMPDEST DUP3 MSTORE POP POP JUMP JUMPDEST PUSH1 0x40 DUP3 ADD PUSH0 DUP3 ADD MLOAD PUSH2 0x1D4E PUSH0 DUP6 ADD DUP3 PUSH2 0x1D2B JUMP JUMPDEST POP PUSH1 0x20 DUP3 ADD MLOAD PUSH2 0x1D61 PUSH1 0x20 DUP6 ADD DUP3 PUSH2 0x1D2B JUMP JUMPDEST POP POP POP POP JUMP JUMPDEST PUSH0 PUSH2 0x1A0 DUP3 ADD SWAP1 POP PUSH2 0x1D7B PUSH0 DUP4 ADD DUP16 PUSH2 0x17E1 JUMP JUMPDEST PUSH2 0x1D88 PUSH1 0x20 DUP4 ADD DUP15 PUSH2 0x17E1 JUMP JUMPDEST PUSH2 0x1D95 PUSH1 0x40 DUP4 ADD DUP14 PUSH2 0x17E1 JUMP JUMPDEST PUSH2 0x1DA2 PUSH1 0x60 DUP4 ADD DUP13 PUSH2 0x17E1 JUMP JUMPDEST PUSH2 0x1DAF PUSH1 0x80 DUP4 ADD DUP12 PUSH2 0x17E1 JUMP JUMPDEST PUSH2 0x1DBC PUSH1 0xA0 DUP4 ADD DUP11 PUSH2 0x17E1 JUMP JUMPDEST PUSH2 0x1DC9 PUSH1 0xC0 DUP4 ADD DUP10 PUSH2 0x17E1 JUMP JUMPDEST PUSH2 0x1DD6 PUSH1 0xE0 DUP4 ADD DUP9 PUSH2 0x193A JUMP JUMPDEST PUSH2 0x1DE4 PUSH2 0x100 DUP4 ADD DUP8 PUSH2 0x193A JUMP JUMPDEST PUSH2 0x1DF2 PUSH2 0x120 DUP4 ADD DUP7 PUSH2 0x18E7 JUMP JUMPDEST PUSH2 0x1E00 PUSH2 0x140 DUP4 ADD DUP6 PUSH2 0x1D3A JUMP JUMPDEST PUSH2 0x1E0E PUSH2 0x180 DUP4 ADD DUP5 PUSH2 0x1C1E JUMP JUMPDEST SWAP14 SWAP13 POP POP POP POP POP POP POP POP POP POP POP POP POP JUMP JUMPDEST PUSH0 DUP1 PUSH0 DUP1 PUSH0 DUP1 PUSH0 DUP1 PUSH2 0x100 DUP10 DUP12 SUB SLT ISZERO PUSH2 0x1E3C JUMPI PUSH2 0x1E3B PUSH2 0x1812 JUMP JUMPDEST JUMPDEST PUSH0 PUSH2 0x1E49 DUP12 DUP3 DUP13 ADD PUSH2 0x188A JUMP JUMPDEST SWAP9 POP POP PUSH1 0x20 PUSH2 0x1E5A DUP12 DUP3 DUP13 ADD PUSH2 0x188A JUMP JUMPDEST SWAP8 POP POP PUSH1 0x40 PUSH2 0x1E6B DUP12 DUP3 DUP13 ADD PUSH2 0x188A JUMP JUMPDEST SWAP7 POP POP PUSH1 0x60 PUSH2 0x1E7C DUP12 DUP3 DUP13 ADD PUSH2 0x188A JUMP JUMPDEST SWAP6 POP POP PUSH1 0x80 PUSH2 0x1E8D DUP12 DUP3 DUP13 ADD PUSH2 0x188A JUMP JUMPDEST SWAP5 POP POP PUSH1 0xA0 PUSH2 0x1E9E DUP12 DUP3 DUP13 ADD PUSH2 0x188A JUMP JUMPDEST SWAP4 POP POP PUSH1 0xC0 PUSH2 0x1EAF DUP12 DUP3 DUP13 ADD PUSH2 0x1860 JUMP JUMPDEST SWAP3 POP POP PUSH1 0xE0 PUSH2 0x1EC0 DUP12 DUP3 DUP13 ADD PUSH2 0x1860 JUMP JUMPDEST SWAP2 POP POP SWAP3 SWAP6 SWAP9 POP SWAP3 SWAP6 SWAP9 SWAP1 SWAP4 SWAP7 POP JUMP JUMPDEST PUSH32 0x4E487B7100000000000000000000000000000000000000000000000000000000 PUSH0 MSTORE PUSH1 0x22 PUSH1 0x4 MSTORE PUSH1 0x24 PUSH0 REVERT JUMPDEST PUSH0 PUSH1 0x2 DUP3 DIV SWAP1 POP PUSH1 0x1 DUP3 AND DUP1 PUSH2 0x1F14 JUMPI PUSH1 0x7F DUP3 AND SWAP2 POP JUMPDEST PUSH1 0x20 DUP3 LT DUP2 SUB PUSH2 0x1F27 JUMPI PUSH2 0x1F26 PUSH2 0x1ED0 JUMP JUMPDEST JUMPDEST POP SWAP2 SWAP1 POP JUMP JUMPDEST PUSH32 0x4E487B7100000000000000000000000000000000000000000000000000000000 PUSH0 MSTORE PUSH1 0x11 PUSH1 0x4 MSTORE PUSH1 0x24 PUSH0 REVERT JUMPDEST PUSH0 PUSH2 0x1F64 DUP3 PUSH2 0x17D8 JUMP JUMPDEST SWAP2 POP PUSH32 0xFFFFFFFFFFFFFFFFFFFFFFFFFFFFFFFFFFFFFFFFFFFFFFFFFFFFFFFFFFFFFFFF DUP3 SUB PUSH2 0x1F96 JUMPI PUSH2 0x1F95 PUSH2 0x1F2D JUMP JUMPDEST JUMPDEST PUSH1 0x1 DUP3 ADD SWAP1 POP SWAP2 SWAP1 POP JUMP JUMPDEST PUSH0 DUP2 SWAP1 POP DUP2 PUSH0 MSTORE PUSH1 0x20 PUSH0 KECCAK256 SWAP1 POP SWAP2 SWAP1 POP JUMP JUMPDEST PUSH0 PUSH1 0x20 PUSH1 0x1F DUP4 ADD DIV SWAP1 POP SWAP2 SWAP1 POP JUMP JUMPDEST PUSH0 DUP3 DUP3 SHL SWAP1 POP SWAP3 SWAP2 POP POP JUMP JUMPDEST PUSH0 PUSH1 0x8 DUP4 MUL PUSH2 0x1FFD PUSH32 0xFFFFFFFFFFFFFFFFFFFFFFFFFFFFFFFFFFFFFFFFFFFFFFFFFFFFFFFFFFFFFFFF DUP3 PUSH2 0x1FC2 JUMP JUMPDEST PUSH2 0x2007 DUP7 DUP4 PUSH2 0x1FC2 JUMP JUMPDEST SWAP6 POP DUP1 NOT DUP5 AND SWAP4 POP DUP1 DUP7 AND DUP5 OR SWAP3 POP POP POP SWAP4 SWAP3 POP POP POP JUMP JUMPDEST PUSH0 DUP2 SWAP1 POP SWAP2 SWAP1 POP JUMP JUMPDEST PUSH0 PUSH2 0x2042 PUSH2 0x203D PUSH2 0x2038 DUP5 PUSH2 0x17D8 JUMP JUMPDEST PUSH2 0x201F JUMP JUMPDEST PUSH2 0x17D8 JUMP JUMPDEST SWAP1 POP SWAP2 SWAP1 POP JUMP JUMPDEST PUSH0 DUP2 SWAP1 POP SWAP2 SWAP1 POP JUMP JUMPDEST PUSH2 0x205B DUP4 PUSH2 0x2028 JUMP JUMPDEST PUSH2 0x206F PUSH2 0x2067 DUP3 PUSH2 0x2049 JUMP JUMPDEST DUP5 DUP5 SLOAD PUSH2 0x1FCE JUMP JUMPDEST DUP3 SSTORE POP POP POP POP JUMP JUMPDEST PUSH0 SWAP1 JUMP JUMPDEST PUSH2 0x2083 PUSH2 0x2077 JUMP JUMPDEST PUSH2 0x208E DUP2 DUP5 DUP5 PUSH2 0x2052 JUMP JUMPDEST POP POP POP JUMP JUMPDEST JUMPDEST DUP2 DUP2 LT ISZERO PUSH2 0x20B1 JUMPI PUSH2 0x20A6 PUSH0 DUP3 PUSH2 0x207B JUMP JUMPDEST PUSH1 0x1 DUP2 ADD SWAP1 POP PUSH2 0x2094 JUMP JUMPDEST POP POP JUMP JUMPDEST PUSH1 0x1F DUP3 GT ISZERO PUSH2 0x20F6 JUMPI PUSH2 0x20C7 DUP2 PUSH2 0x1FA1 JUMP JUMPDEST PUSH2 0x20D0 DUP5 PUSH2 0x1FB3 JUMP JUMPDEST DUP2 ADD PUSH1 0x20 DUP6 LT ISZERO PUSH2 0x20DF JUMPI DUP2 SWAP1 POP JUMPDEST PUSH2 0x20F3 PUSH2 0x20EB DUP6 PUSH2 0x1FB3 JUMP JUMPDEST DUP4 ADD DUP3 PUSH2 0x2093 JUMP JUMPDEST POP POP JUMPDEST POP POP POP JUMP JUMPDEST PUSH0 DUP3 DUP3 SHR SWAP1 POP SWAP3 SWAP2 POP POP JUMP JUMPDEST PUSH0 PUSH2 0x2116 PUSH0 NOT DUP5 PUSH1 0x8 MUL PUSH2 0x20FB JUMP JUMPDEST NOT DUP1 DUP4 AND SWAP2 POP POP SWAP3 SWAP2 POP POP JUMP JUMPDEST PUSH0 PUSH2 0x212E DUP4 DUP4 PUSH2 0x2107 JUMP JUMPDEST SWAP2 POP DUP3 PUSH1 0x2 MUL DUP3 OR SWAP1 POP SWAP3 SWAP2 POP POP JUMP JUMPDEST PUSH2 0x2147 DUP3 PUSH2 0x172E JUMP JUMPDEST PUSH8 0xFFFFFFFFFFFFFFFF DUP2 GT ISZERO PUSH2 0x2160 JUMPI PUSH2 0x215F PUSH2 0x1A11 JUMP JUMPDEST JUMPDEST PUSH2 0x216A DUP3 SLOAD PUSH2 0x1EFD JUMP JUMPDEST PUSH2 0x2175 DUP3 DUP3 DUP6 PUSH2 0x20B5 JUMP JUMPDEST PUSH0 PUSH1 0x20 SWAP1 POP PUSH1 0x1F DUP4 GT PUSH1 0x1 DUP2 EQ PUSH2 0x21A6 JUMPI PUSH0 DUP5 ISZERO PUSH2 0x2194 JUMPI DUP3 DUP8 ADD MLOAD SWAP1 POP JUMPDEST PUSH2 0x219E DUP6 DUP3 PUSH2 0x2123 JUMP JUMPDEST DUP7 SSTORE POP PUSH2 0x2205 JUMP JUMPDEST PUSH1 0x1F NOT DUP5 AND PUSH2 0x21B4 DUP7 PUSH2 0x1FA1 JUMP JUMPDEST PUSH0 JUMPDEST DUP3 DUP2 LT ISZERO PUSH2 0x21DB JUMPI DUP5 DUP10 ADD MLOAD DUP3 SSTORE PUSH1 0x1 DUP3 ADD SWAP2 POP PUSH1 0x20 DUP6 ADD SWAP5 POP PUSH1 0x20 DUP2 ADD SWAP1 POP PUSH2 0x21B6 JUMP JUMPDEST DUP7 DUP4 LT ISZERO PUSH2 0x21F8 JUMPI DUP5 DUP10 ADD MLOAD PUSH2 0x21F4 PUSH1 0x1F DUP10 AND DUP3 PUSH2 0x2107 JUMP JUMPDEST DUP4 SSTORE POP JUMPDEST PUSH1 0x1 PUSH1 0x2 DUP9 MUL ADD DUP9 SSTORE POP POP POP JUMPDEST POP POP POP POP POP POP JUMP JUMPDEST PUSH32 0x436F6E7472616374206973206E6F742061637469766500000000000000000000 PUSH0 DUP3 ADD MSTORE POP JUMP JUMPDEST PUSH0 PUSH2 0x2241 PUSH1 0x16 DUP4 PUSH2 0x1738 JUMP JUMPDEST SWAP2 POP PUSH2 0x224C DUP3 PUSH2 0x220D JUMP JUMPDEST PUSH1 0x20 DUP3 ADD SWAP1 POP SWAP2 SWAP1 POP JUMP JUMPDEST PUSH0 PUSH1 0x20 DUP3 ADD SWAP1 POP DUP2 DUP2 SUB PUSH0 DUP4 ADD MSTORE PUSH2 0x226E DUP2 PUSH2 0x2235 JUMP JUMPDEST SWAP1 POP SWAP2 SWAP1 POP JUMP JUMPDEST PUSH32 0x43757272656E742074696D65206973206265666F726520746865207374617274 PUSH0 DUP3 ADD MSTORE PUSH32 0x2074696D65000000000000000000000000000000000000000000000000000000 PUSH1 0x20 DUP3 ADD MSTORE POP JUMP JUMPDEST PUSH0 PUSH2 0x22CF PUSH1 0x25 DUP4 PUSH2 0x1738 JUMP JUMPDEST SWAP2 POP PUSH2 0x22DA DUP3 PUSH2 0x2275 JUMP JUMPDEST PUSH1 0x40 DUP3 ADD SWAP1 POP SWAP2 SWAP1 POP JUMP JUMPDEST PUSH0 PUSH1 0x20 DUP3 ADD SWAP1 POP DUP2 DUP2 SUB PUSH0 DUP4 ADD MSTORE PUSH2 0x22FC DUP2 PUSH2 0x22C3 JUMP JUMPDEST SWAP1 POP SWAP2 SWAP1 POP JUMP JUMPDEST PUSH0 PUSH1 0x60 DUP3 ADD SWAP1 POP PUSH2 0x2316 PUSH0 DUP4 ADD DUP7 PUSH2 0x193A JUMP JUMPDEST PUSH2 0x2323 PUSH1 0x20 DUP4 ADD DUP6 PUSH2 0x17E1 JUMP JUMPDEST PUSH2 0x2330 PUSH1 0x40 DUP4 ADD DUP5 PUSH2 0x17E1 JUMP JUMPDEST SWAP5 SWAP4 POP POP POP POP JUMP JUMPDEST PUSH0 PUSH2 0x2342 DUP3 PUSH2 0x17D8 JUMP JUMPDEST SWAP2 POP PUSH2 0x234D DUP4 PUSH2 0x17D8 JUMP JUMPDEST SWAP3 POP DUP3 DUP3 SUB SWAP1 POP DUP2 DUP2 GT ISZERO PUSH2 0x2365 JUMPI PUSH2 0x2364 PUSH2 0x1F2D JUMP JUMPDEST JUMPDEST SWAP3 SWAP2 POP POP JUMP JUMPDEST PUSH0 PUSH2 0x2375 DUP3 PUSH2 0x17D8 JUMP JUMPDEST SWAP2 POP PUSH2 0x2380 DUP4 PUSH2 0x17D8 JUMP JUMPDEST SWAP3 POP DUP3 DUP3 ADD SWAP1 POP DUP1 DUP3 GT ISZERO PUSH2 0x2398 JUMPI PUSH2 0x2397 PUSH2 0x1F2D JUMP JUMPDEST JUMPDEST SWAP3 SWAP2 POP POP JUMP INVALID LOG2 PUSH5 0x6970667358 0x22 SLT KECCAK256 SLOAD STOP 0xBE 0xC2 MLOAD SAR TLOAD PUSH6 0x66E8CE04C36A CHAINID DUP6 SWAP16 RETURNDATACOPY NUMBER DUP7 0xA8 BALANCE PUSH1 0xA8 MUL ORIGIN 0xF8 0x4C 0xA9 0xA7 SWAP14 LOG1 PUSH5 0x736F6C6343 STOP ADDMOD XOR STOP CALLER "
				},
				"gasEstimates": {
					"creation": {
						"codeDepositCost": "1834400",
						"executionCost": "infinite",
						"totalCost": "infinite"
					},
					"external": {
						"ContractCount()": "2513",
						"Employeecount()": "2514",
						"Employercount()": "2471",
						"addEmployee(string,address)": "infinite",
						"addEmployer(string,address)": "infinite",
						"allowance(address,address)": "infinite",
						"approve(address,uint256)": "infinite",
						"balanceOf(address)": "2962",
						"createSmartContract(uint256,uint256,uint256,uint256,uint256,uint256,address,address)": "infinite",
						"decimals()": "383",
						"employees(address)": "infinite",
						"employers(address)": "infinite",
						"getContract(uint256)": "infinite",
						"name()": "infinite",
						"owner()": "2531",
						"payEmployee(uint256)": "infinite",
						"smartContracts(uint256)": "infinite",
						"symbol()": "infinite",
						"totalSupply()": "2544",
						"transfer(address,uint256)": "infinite",
						"transferFrom(address,address,uint256)": "infinite",
						"updateEmployeeStatus(uint256,uint256,uint256,uint256)": "infinite"
					},
					"internal": {
						"isInZone(uint256,uint256,uint256,uint256,uint256)": "infinite"
					}
				},
				"methodIdentifiers": {
					"ContractCount()": "dfecd44b",
					"Employeecount()": "4643ea7d",
					"Employercount()": "07e7c336",
					"addEmployee(string,address)": "9f251f80",
					"addEmployer(string,address)": "35744745",
					"allowance(address,address)": "dd62ed3e",
					"approve(address,uint256)": "095ea7b3",
					"balanceOf(address)": "70a08231",
					"createSmartContract(uint256,uint256,uint256,uint256,uint256,uint256,address,address)": "ff33999f",
					"decimals()": "313ce567",
					"employees(address)": "d0678947",
					"employers(address)": "0be435bd",
					"getContract(uint256)": "6ebc8c86",
					"name()": "06fdde03",
					"owner()": "8da5cb5b",
					"payEmployee(uint256)": "c7012a98",
					"smartContracts(uint256)": "fc694ec1",
					"symbol()": "95d89b41",
					"totalSupply()": "18160ddd",
					"transfer(address,uint256)": "a9059cbb",
					"transferFrom(address,address,uint256)": "23b872dd",
					"updateEmployeeStatus(uint256,uint256,uint256,uint256)": "cd5d61db"
				}
			},
			"storageLayout": {
				"storage": [
					{
						"astId": 924,
						"contract": "contracts/locationSmartContract.sol:Geologix",
						"label": "_balances",
						"offset": 0,
						"slot": "0",
						"type": "t_mapping(t_address,t_uint256)"
					},
					{
						"astId": 930,
						"contract": "contracts/locationSmartContract.sol:Geologix",
						"label": "_allowances",
						"offset": 0,
						"slot": "1",
						"type": "t_mapping(t_address,t_mapping(t_address,t_uint256))"
					},
					{
						"astId": 932,
						"contract": "contracts/locationSmartContract.sol:Geologix",
						"label": "_totalSupply",
						"offset": 0,
						"slot": "2",
						"type": "t_uint256"
					},
					{
						"astId": 934,
						"contract": "contracts/locationSmartContract.sol:Geologix",
						"label": "_name",
						"offset": 0,
						"slot": "3",
						"type": "t_string_storage"
					},
					{
						"astId": 936,
						"contract": "contracts/locationSmartContract.sol:Geologix",
						"label": "_symbol",
						"offset": 0,
						"slot": "4",
						"type": "t_string_storage"
					},
					{
						"astId": 8,
						"contract": "contracts/locationSmartContract.sol:Geologix",
						"label": "owner",
						"offset": 0,
						"slot": "5",
						"type": "t_address"
					},
					{
						"astId": 88,
						"contract": "contracts/locationSmartContract.sol:Geologix",
						"label": "employees",
						"offset": 0,
						"slot": "6",
						"type": "t_mapping(t_address,t_struct(Employee)44_storage)"
					},
					{
						"astId": 90,
						"contract": "contracts/locationSmartContract.sol:Geologix",
						"label": "Employeecount",
						"offset": 0,
						"slot": "7",
						"type": "t_uint256"
					},
					{
						"astId": 95,
						"contract": "contracts/locationSmartContract.sol:Geologix",
						"label": "employers",
						"offset": 0,
						"slot": "8",
						"type": "t_mapping(t_address,t_struct(Employer)51_storage)"
					},
					{
						"astId": 97,
						"contract": "contracts/locationSmartContract.sol:Geologix",
						"label": "Employercount",
						"offset": 0,
						"slot": "9",
						"type": "t_uint256"
					},
					{
						"astId": 102,
						"contract": "contracts/locationSmartContract.sol:Geologix",
						"label": "smartContracts",
						"offset": 0,
						"slot": "10",
						"type": "t_mapping(t_uint256,t_struct(GeologixPaymentContract)83_storage)"
					},
					{
						"astId": 104,
						"contract": "contracts/locationSmartContract.sol:Geologix",
						"label": "ContractCount",
						"offset": 0,
						"slot": "11",
						"type": "t_uint256"
					}
				],
				"types": {
					"t_address": {
						"encoding": "inplace",
						"label": "address",
						"numberOfBytes": "20"
					},
					"t_bool": {
						"encoding": "inplace",
						"label": "bool",
						"numberOfBytes": "1"
					},
					"t_enum(DeviceState)37": {
						"encoding": "inplace",
						"label": "enum Geologix.DeviceState",
						"numberOfBytes": "1"
					},
					"t_mapping(t_address,t_mapping(t_address,t_uint256))": {
						"encoding": "mapping",
						"key": "t_address",
						"label": "mapping(address => mapping(address => uint256))",
						"numberOfBytes": "32",
						"value": "t_mapping(t_address,t_uint256)"
					},
					"t_mapping(t_address,t_struct(Employee)44_storage)": {
						"encoding": "mapping",
						"key": "t_address",
						"label": "mapping(address => struct Geologix.Employee)",
						"numberOfBytes": "32",
						"value": "t_struct(Employee)44_storage"
					},
					"t_mapping(t_address,t_struct(Employer)51_storage)": {
						"encoding": "mapping",
						"key": "t_address",
						"label": "mapping(address => struct Geologix.Employer)",
						"numberOfBytes": "32",
						"value": "t_struct(Employer)51_storage"
					},
					"t_mapping(t_address,t_uint256)": {
						"encoding": "mapping",
						"key": "t_address",
						"label": "mapping(address => uint256)",
						"numberOfBytes": "32",
						"value": "t_uint256"
					},
					"t_mapping(t_uint256,t_struct(GeologixPaymentContract)83_storage)": {
						"encoding": "mapping",
						"key": "t_uint256",
						"label": "mapping(uint256 => struct Geologix.GeologixPaymentContract)",
						"numberOfBytes": "32",
						"value": "t_struct(GeologixPaymentContract)83_storage"
					},
					"t_string_storage": {
						"encoding": "bytes",
						"label": "string",
						"numberOfBytes": "32"
					},
					"t_struct(ComplianceCounts)56_storage": {
						"encoding": "inplace",
						"label": "struct Geologix.ComplianceCounts",
						"members": [
							{
								"astId": 53,
								"contract": "contracts/locationSmartContract.sol:Geologix",
								"label": "complianceCount",
								"offset": 0,
								"slot": "0",
								"type": "t_uint256"
							},
							{
								"astId": 55,
								"contract": "contracts/locationSmartContract.sol:Geologix",
								"label": "nonComplianceCount",
								"offset": 0,
								"slot": "1",
								"type": "t_uint256"
							}
						],
						"numberOfBytes": "64"
					},
					"t_struct(Employee)44_storage": {
						"encoding": "inplace",
						"label": "struct Geologix.Employee",
						"members": [
							{
								"astId": 39,
								"contract": "contracts/locationSmartContract.sol:Geologix",
								"label": "id",
								"offset": 0,
								"slot": "0",
								"type": "t_uint256"
							},
							{
								"astId": 41,
								"contract": "contracts/locationSmartContract.sol:Geologix",
								"label": "name",
								"offset": 0,
								"slot": "1",
								"type": "t_string_storage"
							},
							{
								"astId": 43,
								"contract": "contracts/locationSmartContract.sol:Geologix",
								"label": "public_address",
								"offset": 0,
								"slot": "2",
								"type": "t_address"
							}
						],
						"numberOfBytes": "96"
					},
					"t_struct(Employer)51_storage": {
						"encoding": "inplace",
						"label": "struct Geologix.Employer",
						"members": [
							{
								"astId": 46,
								"contract": "contracts/locationSmartContract.sol:Geologix",
								"label": "id",
								"offset": 0,
								"slot": "0",
								"type": "t_uint256"
							},
							{
								"astId": 48,
								"contract": "contracts/locationSmartContract.sol:Geologix",
								"label": "name",
								"offset": 0,
								"slot": "1",
								"type": "t_string_storage"
							},
							{
								"astId": 50,
								"contract": "contracts/locationSmartContract.sol:Geologix",
								"label": "public_address",
								"offset": 0,
								"slot": "2",
								"type": "t_address"
							}
						],
						"numberOfBytes": "96"
					},
					"t_struct(GeologixPaymentContract)83_storage": {
						"encoding": "inplace",
						"label": "struct Geologix.GeologixPaymentContract",
						"members": [
							{
								"astId": 58,
								"contract": "contracts/locationSmartContract.sol:Geologix",
								"label": "contractId",
								"offset": 0,
								"slot": "0",
								"type": "t_uint256"
							},
							{
								"astId": 60,
								"contract": "contracts/locationSmartContract.sol:Geologix",
								"label": "latitude",
								"offset": 0,
								"slot": "1",
								"type": "t_uint256"
							},
							{
								"astId": 62,
								"contract": "contracts/locationSmartContract.sol:Geologix",
								"label": "longitude",
								"offset": 0,
								"slot": "2",
								"type": "t_uint256"
							},
							{
								"astId": 64,
								"contract": "contracts/locationSmartContract.sol:Geologix",
								"label": "radius",
								"offset": 0,
								"slot": "3",
								"type": "t_uint256"
							},
							{
								"astId": 66,
								"contract": "contracts/locationSmartContract.sol:Geologix",
								"label": "startTime",
								"offset": 0,
								"slot": "4",
								"type": "t_uint256"
							},
							{
								"astId": 68,
								"contract": "contracts/locationSmartContract.sol:Geologix",
								"label": "endTime",
								"offset": 0,
								"slot": "5",
								"type": "t_uint256"
							},
							{
								"astId": 70,
								"contract": "contracts/locationSmartContract.sol:Geologix",
								"label": "rewardAmount",
								"offset": 0,
								"slot": "6",
								"type": "t_uint256"
							},
							{
								"astId": 72,
								"contract": "contracts/locationSmartContract.sol:Geologix",
								"label": "employee",
								"offset": 0,
								"slot": "7",
								"type": "t_address"
							},
							{
								"astId": 74,
								"contract": "contracts/locationSmartContract.sol:Geologix",
								"label": "empolyer",
								"offset": 0,
								"slot": "8",
								"type": "t_address"
							},
							{
								"astId": 76,
								"contract": "contracts/locationSmartContract.sol:Geologix",
								"label": "isActive",
								"offset": 20,
								"slot": "8",
								"type": "t_bool"
							},
							{
								"astId": 79,
								"contract": "contracts/locationSmartContract.sol:Geologix",
								"label": "counts",
								"offset": 0,
								"slot": "9",
								"type": "t_struct(ComplianceCounts)56_storage"
							},
							{
								"astId": 82,
								"contract": "contracts/locationSmartContract.sol:Geologix",
								"label": "deviceState",
								"offset": 0,
								"slot": "11",
								"type": "t_enum(DeviceState)37"
							}
						],
						"numberOfBytes": "384"
					},
					"t_uint256": {
						"encoding": "inplace",
						"label": "uint256",
						"numberOfBytes": "32"
					}
				}
			},
			"userdoc": {
				"kind": "user",
				"methods": {},
				"version": 1
			}
		}
	}
}