{
	"contracts/location.sol": {
		"Geologix": {
			"abi": [
				{
					"inputs": [
						{
							"internalType": "uint256",
							"name": "_latitude",
							"type": "uint256"
						},
						{
							"internalType": "uint256",
							"name": "_longitude",
							"type": "uint256"
						},
						{
							"internalType": "uint256",
							"name": "_radius",
							"type": "uint256"
						},
						{
							"internalType": "uint256",
							"name": "_startTime",
							"type": "uint256"
						},
						{
							"internalType": "uint256",
							"name": "_endTime",
							"type": "uint256"
						},
						{
							"internalType": "uint256",
							"name": "_rewardAmount",
							"type": "uint256"
						}
					],
					"stateMutability": "nonpayable",
					"type": "constructor"
				},
				{
					"inputs": [
						{
							"internalType": "address",
							"name": "spender",
							"type": "address"
						},
						{
							"internalType": "uint256",
							"name": "allowance",
							"type": "uint256"
						},
						{
							"internalType": "uint256",
							"name": "needed",
							"type": "uint256"
						}
					],
					"name": "ERC20InsufficientAllowance",
					"type": "error"
				},
				{
					"inputs": [
						{
							"internalType": "address",
							"name": "sender",
							"type": "address"
						},
						{
							"internalType": "uint256",
							"name": "balance",
							"type": "uint256"
						},
						{
							"internalType": "uint256",
							"name": "needed",
							"type": "uint256"
						}
					],
					"name": "ERC20InsufficientBalance",
					"type": "error"
				},
				{
					"inputs": [
						{
							"internalType": "address",
							"name": "approver",
							"type": "address"
						}
					],
					"name": "ERC20InvalidApprover",
					"type": "error"
				},
				{
					"inputs": [
						{
							"internalType": "address",
							"name": "receiver",
							"type": "address"
						}
					],
					"name": "ERC20InvalidReceiver",
					"type": "error"
				},
				{
					"inputs": [
						{
							"internalType": "address",
							"name": "sender",
							"type": "address"
						}
					],
					"name": "ERC20InvalidSender",
					"type": "error"
				},
				{
					"inputs": [
						{
							"internalType": "address",
							"name": "spender",
							"type": "address"
						}
					],
					"name": "ERC20InvalidSpender",
					"type": "error"
				},
				{
					"anonymous": false,
					"inputs": [
						{
							"indexed": true,
							"internalType": "address",
							"name": "owner",
							"type": "address"
						},
						{
							"indexed": true,
							"internalType": "address",
							"name": "spender",
							"type": "address"
						},
						{
							"indexed": false,
							"internalType": "uint256",
							"name": "value",
							"type": "uint256"
						}
					],
					"name": "Approval",
					"type": "event"
				},
				{
					"anonymous": false,
					"inputs": [
						{
							"indexed": true,
							"internalType": "address",
							"name": "from",
							"type": "address"
						},
						{
							"indexed": true,
							"internalType": "address",
							"name": "to",
							"type": "address"
						},
						{
							"indexed": false,
							"internalType": "uint256",
							"name": "value",
							"type": "uint256"
						}
					],
					"name": "Transfer",
					"type": "event"
				},
				{
					"inputs": [],
					"name": "DeviceCount",
					"outputs": [
						{
							"internalType": "uint256",
							"name": "",
							"type": "uint256"
						}
					],
					"stateMutability": "view",
					"type": "function"
				},
				{
					"inputs": [
						{
							"internalType": "uint256",
							"name": "lat1",
							"type": "uint256"
						},
						{
							"internalType": "uint256",
							"name": "lon1",
							"type": "uint256"
						},
						{
							"internalType": "uint256",
							"name": "lat2",
							"type": "uint256"
						},
						{
							"internalType": "uint256",
							"name": "lon2",
							"type": "uint256"
						}
					],
					"name": "_calculateDistance",
					"outputs": [
						{
							"internalType": "uint256",
							"name": "",
							"type": "uint256"
						}
					],
					"stateMutability": "pure",
					"type": "function"
				},
				{
					"inputs": [
						{
							"internalType": "address",
							"name": "_public_address",
							"type": "address"
						}
					],
					"name": "addDriver",
					"outputs": [],
					"stateMutability": "nonpayable",
					"type": "function"
				},
				{
					"inputs": [
						{
							"internalType": "address",
							"name": "owner",
							"type": "address"
						},
						{
							"internalType": "address",
							"name": "spender",
							"type": "address"
						}
					],
					"name": "allowance",
					"outputs": [
						{
							"internalType": "uint256",
							"name": "",
							"type": "uint256"
						}
					],
					"stateMutability": "view",
					"type": "function"
				},
				{
					"inputs": [
						{
							"internalType": "address",
							"name": "spender",
							"type": "address"
						},
						{
							"internalType": "uint256",
							"name": "value",
							"type": "uint256"
						}
					],
					"name": "approve",
					"outputs": [
						{
							"internalType": "bool",
							"name": "",
							"type": "bool"
						}
					],
					"stateMutability": "nonpayable",
					"type": "function"
				},
				{
					"inputs": [
						{
							"internalType": "address",
							"name": "account",
							"type": "address"
						}
					],
					"name": "balanceOf",
					"outputs": [
						{
							"internalType": "uint256",
							"name": "",
							"type": "uint256"
						}
					],
					"stateMutability": "view",
					"type": "function"
				},
				{
					"inputs": [],
					"name": "decimals",
					"outputs": [
						{
							"internalType": "uint8",
							"name": "",
							"type": "uint8"
						}
					],
					"stateMutability": "view",
					"type": "function"
				},
				{
					"inputs": [
						{
							"internalType": "address",
							"name": "",
							"type": "address"
						}
					],
					"name": "devices",
					"outputs": [
						{
							"internalType": "uint256",
							"name": "complianceCount",
							"type": "uint256"
						},
						{
							"internalType": "uint256",
							"name": "nonComplianceCount",
							"type": "uint256"
						},
						{
							"internalType": "enum Geologix.DeviceState",
							"name": "deviceState",
							"type": "uint8"
						},
						{
							"internalType": "address",
							"name": "public_address",
							"type": "address"
						},
						{
							"internalType": "uint256",
							"name": "lastRecorededTime",
							"type": "uint256"
						},
						{
							"internalType": "uint256",
							"name": "payedAmount",
							"type": "uint256"
						},
						{
							"internalType": "bool",
							"name": "isActive",
							"type": "bool"
						}
					],
					"stateMutability": "view",
					"type": "function"
				},
				{
					"inputs": [],
					"name": "endTime",
					"outputs": [
						{
							"internalType": "uint256",
							"name": "",
							"type": "uint256"
						}
					],
					"stateMutability": "view",
					"type": "function"
				},
				{
					"inputs": [],
					"name": "getDevice",
					"outputs": [
						{
							"internalType": "uint256",
							"name": "complianceCount",
							"type": "uint256"
						},
						{
							"internalType": "uint256",
							"name": "nonComplianceCount",
							"type": "uint256"
						},
						{
							"internalType": "enum Geologix.DeviceState",
							"name": "deviceState",
							"type": "uint8"
						}
					],
					"stateMutability": "view",
					"type": "function"
				},
				{
					"inputs": [],
					"name": "latitude",
					"outputs": [
						{
							"internalType": "uint256",
							"name": "",
							"type": "uint256"
						}
					],
					"stateMutability": "view",
					"type": "function"
				},
				{
					"inputs": [],
					"name": "longitude",
					"outputs": [
						{
							"internalType": "uint256",
							"name": "",
							"type": "uint256"
						}
					],
					"stateMutability": "view",
					"type": "function"
				},
				{
					"inputs": [],
					"name": "name",
					"outputs": [
						{
							"internalType": "string",
							"name": "",
							"type": "string"
						}
					],
					"stateMutability": "view",
					"type": "function"
				},
				{
					"inputs": [
						{
							"internalType": "uint256",
							"name": "_latitude",
							"type": "uint256"
						},
						{
							"internalType": "uint256",
							"name": "_longitude",
							"type": "uint256"
						}
					],
					"name": "optIn",
					"outputs": [],
					"stateMutability": "nonpayable",
					"type": "function"
				},
				{
					"inputs": [],
					"name": "owner",
					"outputs": [
						{
							"internalType": "address",
							"name": "",
							"type": "address"
						}
					],
					"stateMutability": "view",
					"type": "function"
				},
				{
					"inputs": [],
					"name": "radius",
					"outputs": [
						{
							"internalType": "uint256",
							"name": "",
							"type": "uint256"
						}
					],
					"stateMutability": "view",
					"type": "function"
				},
				{
					"inputs": [],
					"name": "rewardAmount",
					"outputs": [
						{
							"internalType": "uint256",
							"name": "",
							"type": "uint256"
						}
					],
					"stateMutability": "view",
					"type": "function"
				},
				{
					"inputs": [],
					"name": "startTime",
					"outputs": [
						{
							"internalType": "uint256",
							"name": "",
							"type": "uint256"
						}
					],
					"stateMutability": "view",
					"type": "function"
				},
				{
					"inputs": [],
					"name": "symbol",
					"outputs": [
						{
							"internalType": "string",
							"name": "",
							"type": "string"
						}
					],
					"stateMutability": "view",
					"type": "function"
				},
				{
					"inputs": [],
					"name": "totalSupply",
					"outputs": [
						{
							"internalType": "uint256",
							"name": "",
							"type": "uint256"
						}
					],
					"stateMutability": "view",
					"type": "function"
				},
				{
					"inputs": [
						{
							"internalType": "address",
							"name": "to",
							"type": "address"
						},
						{
							"internalType": "uint256",
							"name": "value",
							"type": "uint256"
						}
					],
					"name": "transfer",
					"outputs": [
						{
							"internalType": "bool",
							"name": "",
							"type": "bool"
						}
					],
					"stateMutability": "nonpayable",
					"type": "function"
				},
				{
					"inputs": [
						{
							"internalType": "address",
							"name": "from",
							"type": "address"
						},
						{
							"internalType": "address",
							"name": "to",
							"type": "address"
						},
						{
							"internalType": "uint256",
							"name": "value",
							"type": "uint256"
						}
					],
					"name": "transferFrom",
					"outputs": [
						{
							"internalType": "bool",
							"name": "",
							"type": "bool"
						}
					],
					"stateMutability": "nonpayable",
					"type": "function"
				}
			],
			"devdoc": {
				"errors": {
					"ERC20InsufficientAllowance(address,uint256,uint256)": [
						{
							"details": "Indicates a failure with the `spender`’s `allowance`. Used in transfers.",
							"params": {
								"allowance": "Amount of tokens a `spender` is allowed to operate with.",
								"needed": "Minimum amount required to perform a transfer.",
								"spender": "Address that may be allowed to operate on tokens without being their owner."
							}
						}
					],
					"ERC20InsufficientBalance(address,uint256,uint256)": [
						{
							"details": "Indicates an error related to the current `balance` of a `sender`. Used in transfers.",
							"params": {
								"balance": "Current balance for the interacting account.",
								"needed": "Minimum amount required to perform a transfer.",
								"sender": "Address whose tokens are being transferred."
							}
						}
					],
					"ERC20InvalidApprover(address)": [
						{
							"details": "Indicates a failure with the `approver` of a token to be approved. Used in approvals.",
							"params": {
								"approver": "Address initiating an approval operation."
							}
						}
					],
					"ERC20InvalidReceiver(address)": [
						{
							"details": "Indicates a failure with the token `receiver`. Used in transfers.",
							"params": {
								"receiver": "Address to which tokens are being transferred."
							}
						}
					],
					"ERC20InvalidSender(address)": [
						{
							"details": "Indicates a failure with the token `sender`. Used in transfers.",
							"params": {
								"sender": "Address whose tokens are being transferred."
							}
						}
					],
					"ERC20InvalidSpender(address)": [
						{
							"details": "Indicates a failure with the `spender` to be approved. Used in approvals.",
							"params": {
								"spender": "Address that may be allowed to operate on tokens without being their owner."
							}
						}
					]
				},
				"events": {
					"Approval(address,address,uint256)": {
						"details": "Emitted when the allowance of a `spender` for an `owner` is set by a call to {approve}. `value` is the new allowance."
					},
					"Transfer(address,address,uint256)": {
						"details": "Emitted when `value` tokens are moved from one account (`from`) to another (`to`). Note that `value` may be zero."
					}
				},
				"kind": "dev",
				"methods": {
					"allowance(address,address)": {
						"details": "See {IERC20-allowance}."
					},
					"approve(address,uint256)": {
						"details": "See {IERC20-approve}. NOTE: If `value` is the maximum `uint256`, the allowance is not updated on `transferFrom`. This is semantically equivalent to an infinite approval. Requirements: - `spender` cannot be the zero address."
					},
					"balanceOf(address)": {
						"details": "See {IERC20-balanceOf}."
					},
					"decimals()": {
						"details": "Returns the number of decimals used to get its user representation. For example, if `decimals` equals `2`, a balance of `505` tokens should be displayed to a user as `5.05` (`505 / 10 ** 2`). Tokens usually opt for a value of 18, imitating the relationship between Ether and Wei. This is the default value returned by this function, unless it's overridden. NOTE: This information is only used for _display_ purposes: it in no way affects any of the arithmetic of the contract, including {IERC20-balanceOf} and {IERC20-transfer}."
					},
					"name()": {
						"details": "Returns the name of the token."
					},
					"symbol()": {
						"details": "Returns the symbol of the token, usually a shorter version of the name."
					},
					"totalSupply()": {
						"details": "See {IERC20-totalSupply}."
					},
					"transfer(address,uint256)": {
						"details": "See {IERC20-transfer}. Requirements: - `to` cannot be the zero address. - the caller must have a balance of at least `value`."
					},
					"transferFrom(address,address,uint256)": {
						"details": "See {IERC20-transferFrom}. Emits an {Approval} event indicating the updated allowance. This is not required by the ERC. See the note at the beginning of {ERC20}. NOTE: Does not update the allowance if the current allowance is the maximum `uint256`. Requirements: - `from` and `to` cannot be the zero address. - `from` must have a balance of at least `value`. - the caller must have allowance for ``from``'s tokens of at least `value`."
					}
				},
				"version": 1
			},
			"evm": {
				"assembly": "    /* \"contracts/location.sol\":81:3323  contract Geologix is ERC20  {... */\n  mstore(0x40, 0x80)\n    /* \"contracts/location.sol\":770:1178  constructor(... */\n  callvalue\n  dup1\n  iszero\n  tag_1\n  jumpi\n  0x00\n  dup1\n  revert\ntag_1:\n  pop\n  mload(0x40)\n  sub(codesize, bytecodeSize)\n  dup1\n  bytecodeSize\n  dup4\n  codecopy\n  dup2\n  dup2\n  add\n  0x40\n  mstore\n  dup2\n  add\n  swap1\n  tag_2\n  swap2\n  swap1\n  tag_3\n  jump\t// in\ntag_2:\n    /* \"contracts/ERC20.sol\":1899:2012  constructor(string memory name_, string memory symbol_) {... */\n  mload(0x40)\n  dup1\n  0x40\n  add\n  0x40\n  mstore\n  dup1\n  0x06\n  dup2\n  mstore\n  0x20\n  add\n  0x52546f6b656e0000000000000000000000000000000000000000000000000000\n  dup2\n  mstore\n  pop\n  mload(0x40)\n  dup1\n  0x40\n  add\n  0x40\n  mstore\n  dup1\n  0x02\n  dup2\n  mstore\n  0x20\n  add\n  0x5254000000000000000000000000000000000000000000000000000000000000\n  dup2\n  mstore\n  pop\n    /* \"contracts/ERC20.sol\":1973:1978  name_ */\n  dup2\n    /* \"contracts/ERC20.sol\":1965:1970  _name */\n  0x03\n    /* \"contracts/ERC20.sol\":1965:1978  _name = name_ */\n  swap1\n  dup2\n  tag_7\n  swap2\n  swap1\n  tag_8\n  jump\t// in\ntag_7:\n  pop\n    /* \"contracts/ERC20.sol\":1998:2005  symbol_ */\n  dup1\n    /* \"contracts/ERC20.sol\":1988:1995  _symbol */\n  0x04\n    /* \"contracts/ERC20.sol\":1988:2005  _symbol = symbol_ */\n  swap1\n  dup2\n  tag_9\n  swap2\n  swap1\n  tag_8\n  jump\t// in\ntag_9:\n  pop\n    /* \"contracts/ERC20.sol\":1899:2012  constructor(string memory name_, string memory symbol_) {... */\n  pop\n  pop\n    /* \"contracts/location.sol\":975:985  msg.sender */\n  caller\n    /* \"contracts/location.sol\":967:972  owner */\n  0x05\n  0x00\n    /* \"contracts/location.sol\":967:985  owner = msg.sender */\n  0x0100\n  exp\n  dup2\n  sload\n  dup2\n  0xffffffffffffffffffffffffffffffffffffffff\n  mul\n  not\n  and\n  swap1\n  dup4\n  0xffffffffffffffffffffffffffffffffffffffff\n  and\n  mul\n  or\n  swap1\n  sstore\n  pop\n    /* \"contracts/location.sol\":1006:1015  _latitude */\n  dup6\n    /* \"contracts/location.sol\":995:1003  latitude */\n  0x06\n    /* \"contracts/location.sol\":995:1015  latitude = _latitude */\n  dup2\n  swap1\n  sstore\n  pop\n    /* \"contracts/location.sol\":1037:1047  _longitude */\n  dup5\n    /* \"contracts/location.sol\":1025:1034  longitude */\n  0x07\n    /* \"contracts/location.sol\":1025:1047  longitude = _longitude */\n  dup2\n  swap1\n  sstore\n  pop\n    /* \"contracts/location.sol\":1066:1073  _radius */\n  dup4\n    /* \"contracts/location.sol\":1057:1063  radius */\n  0x08\n    /* \"contracts/location.sol\":1057:1073  radius = _radius */\n  dup2\n  swap1\n  sstore\n  pop\n    /* \"contracts/location.sol\":1095:1105  _startTime */\n  dup3\n    /* \"contracts/location.sol\":1083:1092  startTime */\n  0x09\n    /* \"contracts/location.sol\":1083:1105  startTime = _startTime */\n  dup2\n  swap1\n  sstore\n  pop\n    /* \"contracts/location.sol\":1125:1133  _endTime */\n  dup2\n    /* \"contracts/location.sol\":1115:1122  endTime */\n  0x0a\n    /* \"contracts/location.sol\":1115:1133  endTime = _endTime */\n  dup2\n  swap1\n  sstore\n  pop\n    /* \"contracts/location.sol\":1158:1171  _rewardAmount */\n  dup1\n    /* \"contracts/location.sol\":1143:1155  rewardAmount */\n  0x0b\n    /* \"contracts/location.sol\":1143:1171  rewardAmount = _rewardAmount */\n  dup2\n  swap1\n  sstore\n  pop\n    /* \"contracts/location.sol\":770:1178  constructor(... */\n  pop\n  pop\n  pop\n  pop\n  pop\n  pop\n    /* \"contracts/location.sol\":81:3323  contract Geologix is ERC20  {... */\n  jump(tag_11)\n    /* \"#utility.yul\":88:205   */\ntag_13:\n    /* \"#utility.yul\":197:198   */\n  0x00\n    /* \"#utility.yul\":194:195   */\n  dup1\n    /* \"#utility.yul\":187:199   */\n  revert\n    /* \"#utility.yul\":334:411   */\ntag_15:\n    /* \"#utility.yul\":371:378   */\n  0x00\n    /* \"#utility.yul\":400:405   */\n  dup2\n    /* \"#utility.yul\":389:405   */\n  swap1\n  pop\n    /* \"#utility.yul\":334:411   */\n  swap2\n  swap1\n  pop\n  jump\t// out\n    /* \"#utility.yul\":417:539   */\ntag_16:\n    /* \"#utility.yul\":490:514   */\n  tag_43\n    /* \"#utility.yul\":508:513   */\n  dup2\n    /* \"#utility.yul\":490:514   */\n  tag_15\n  jump\t// in\ntag_43:\n    /* \"#utility.yul\":483:488   */\n  dup2\n    /* \"#utility.yul\":480:515   */\n  eq\n    /* \"#utility.yul\":470:533   */\n  tag_44\n  jumpi\n    /* \"#utility.yul\":529:530   */\n  0x00\n    /* \"#utility.yul\":526:527   */\n  dup1\n    /* \"#utility.yul\":519:531   */\n  revert\n    /* \"#utility.yul\":470:533   */\ntag_44:\n    /* \"#utility.yul\":417:539   */\n  pop\n  jump\t// out\n    /* \"#utility.yul\":545:688   */\ntag_17:\n    /* \"#utility.yul\":602:607   */\n  0x00\n    /* \"#utility.yul\":633:639   */\n  dup2\n    /* \"#utility.yul\":627:640   */\n  mload\n    /* \"#utility.yul\":618:640   */\n  swap1\n  pop\n    /* \"#utility.yul\":649:682   */\n  tag_46\n    /* \"#utility.yul\":676:681   */\n  dup2\n    /* \"#utility.yul\":649:682   */\n  tag_16\n  jump\t// in\ntag_46:\n    /* \"#utility.yul\":545:688   */\n  swap3\n  swap2\n  pop\n  pop\n  jump\t// out\n    /* \"#utility.yul\":694:1828   */\ntag_3:\n    /* \"#utility.yul\":809:815   */\n  0x00\n    /* \"#utility.yul\":817:823   */\n  dup1\n    /* \"#utility.yul\":825:831   */\n  0x00\n    /* \"#utility.yul\":833:839   */\n  dup1\n    /* \"#utility.yul\":841:847   */\n  0x00\n    /* \"#utility.yul\":849:855   */\n  dup1\n    /* \"#utility.yul\":898:901   */\n  0xc0\n    /* \"#utility.yul\":886:895   */\n  dup8\n    /* \"#utility.yul\":877:884   */\n  dup10\n    /* \"#utility.yul\":873:896   */\n  sub\n    /* \"#utility.yul\":869:902   */\n  slt\n    /* \"#utility.yul\":866:986   */\n  iszero\n  tag_48\n  jumpi\n    /* \"#utility.yul\":905:984   */\n  tag_49\n  tag_13\n  jump\t// in\ntag_49:\n    /* \"#utility.yul\":866:986   */\ntag_48:\n    /* \"#utility.yul\":1025:1026   */\n  0x00\n    /* \"#utility.yul\":1050:1114   */\n  tag_50\n    /* \"#utility.yul\":1106:1113   */\n  dup10\n    /* \"#utility.yul\":1097:1103   */\n  dup3\n    /* \"#utility.yul\":1086:1095   */\n  dup11\n    /* \"#utility.yul\":1082:1104   */\n  add\n    /* \"#utility.yul\":1050:1114   */\n  tag_17\n  jump\t// in\ntag_50:\n    /* \"#utility.yul\":1040:1114   */\n  swap7\n  pop\n    /* \"#utility.yul\":996:1124   */\n  pop\n    /* \"#utility.yul\":1163:1165   */\n  0x20\n    /* \"#utility.yul\":1189:1253   */\n  tag_51\n    /* \"#utility.yul\":1245:1252   */\n  dup10\n    /* \"#utility.yul\":1236:1242   */\n  dup3\n    /* \"#utility.yul\":1225:1234   */\n  dup11\n    /* \"#utility.yul\":1221:1243   */\n  add\n    /* \"#utility.yul\":1189:1253   */\n  tag_17\n  jump\t// in\ntag_51:\n    /* \"#utility.yul\":1179:1253   */\n  swap6\n  pop\n    /* \"#utility.yul\":1134:1263   */\n  pop\n    /* \"#utility.yul\":1302:1304   */\n  0x40\n    /* \"#utility.yul\":1328:1392   */\n  tag_52\n    /* \"#utility.yul\":1384:1391   */\n  dup10\n    /* \"#utility.yul\":1375:1381   */\n  dup3\n    /* \"#utility.yul\":1364:1373   */\n  dup11\n    /* \"#utility.yul\":1360:1382   */\n  add\n    /* \"#utility.yul\":1328:1392   */\n  tag_17\n  jump\t// in\ntag_52:\n    /* \"#utility.yul\":1318:1392   */\n  swap5\n  pop\n    /* \"#utility.yul\":1273:1402   */\n  pop\n    /* \"#utility.yul\":1441:1443   */\n  0x60\n    /* \"#utility.yul\":1467:1531   */\n  tag_53\n    /* \"#utility.yul\":1523:1530   */\n  dup10\n    /* \"#utility.yul\":1514:1520   */\n  dup3\n    /* \"#utility.yul\":1503:1512   */\n  dup11\n    /* \"#utility.yul\":1499:1521   */\n  add\n    /* \"#utility.yul\":1467:1531   */\n  tag_17\n  jump\t// in\ntag_53:\n    /* \"#utility.yul\":1457:1531   */\n  swap4\n  pop\n    /* \"#utility.yul\":1412:1541   */\n  pop\n    /* \"#utility.yul\":1580:1583   */\n  0x80\n    /* \"#utility.yul\":1607:1671   */\n  tag_54\n    /* \"#utility.yul\":1663:1670   */\n  dup10\n    /* \"#utility.yul\":1654:1660   */\n  dup3\n    /* \"#utility.yul\":1643:1652   */\n  dup11\n    /* \"#utility.yul\":1639:1661   */\n  add\n    /* \"#utility.yul\":1607:1671   */\n  tag_17\n  jump\t// in\ntag_54:\n    /* \"#utility.yul\":1597:1671   */\n  swap3\n  pop\n    /* \"#utility.yul\":1551:1681   */\n  pop\n    /* \"#utility.yul\":1720:1723   */\n  0xa0\n    /* \"#utility.yul\":1747:1811   */\n  tag_55\n    /* \"#utility.yul\":1803:1810   */\n  dup10\n    /* \"#utility.yul\":1794:1800   */\n  dup3\n    /* \"#utility.yul\":1783:1792   */\n  dup11\n    /* \"#utility.yul\":1779:1801   */\n  add\n    /* \"#utility.yul\":1747:1811   */\n  tag_17\n  jump\t// in\ntag_55:\n    /* \"#utility.yul\":1737:1811   */\n  swap2\n  pop\n    /* \"#utility.yul\":1691:1821   */\n  pop\n    /* \"#utility.yul\":694:1828   */\n  swap3\n  swap6\n  pop\n  swap3\n  swap6\n  pop\n  swap3\n  swap6\n  jump\t// out\n    /* \"#utility.yul\":1834:1933   */\ntag_18:\n    /* \"#utility.yul\":1886:1892   */\n  0x00\n    /* \"#utility.yul\":1920:1925   */\n  dup2\n    /* \"#utility.yul\":1914:1926   */\n  mload\n    /* \"#utility.yul\":1904:1926   */\n  swap1\n  pop\n    /* \"#utility.yul\":1834:1933   */\n  swap2\n  swap1\n  pop\n  jump\t// out\n    /* \"#utility.yul\":1939:2119   */\ntag_19:\n    /* \"#utility.yul\":1987:2064   */\n  0x4e487b7100000000000000000000000000000000000000000000000000000000\n    /* \"#utility.yul\":1984:1985   */\n  0x00\n    /* \"#utility.yul\":1977:2065   */\n  mstore\n    /* \"#utility.yul\":2084:2088   */\n  0x41\n    /* \"#utility.yul\":2081:2082   */\n  0x04\n    /* \"#utility.yul\":2074:2089   */\n  mstore\n    /* \"#utility.yul\":2108:2112   */\n  0x24\n    /* \"#utility.yul\":2105:2106   */\n  0x00\n    /* \"#utility.yul\":2098:2113   */\n  revert\n    /* \"#utility.yul\":2125:2305   */\ntag_20:\n    /* \"#utility.yul\":2173:2250   */\n  0x4e487b7100000000000000000000000000000000000000000000000000000000\n    /* \"#utility.yul\":2170:2171   */\n  0x00\n    /* \"#utility.yul\":2163:2251   */\n  mstore\n    /* \"#utility.yul\":2270:2274   */\n  0x22\n    /* \"#utility.yul\":2267:2268   */\n  0x04\n    /* \"#utility.yul\":2260:2275   */\n  mstore\n    /* \"#utility.yul\":2294:2298   */\n  0x24\n    /* \"#utility.yul\":2291:2292   */\n  0x00\n    /* \"#utility.yul\":2284:2299   */\n  revert\n    /* \"#utility.yul\":2311:2631   */\ntag_21:\n    /* \"#utility.yul\":2355:2361   */\n  0x00\n    /* \"#utility.yul\":2392:2393   */\n  0x02\n    /* \"#utility.yul\":2386:2390   */\n  dup3\n    /* \"#utility.yul\":2382:2394   */\n  div\n    /* \"#utility.yul\":2372:2394   */\n  swap1\n  pop\n    /* \"#utility.yul\":2439:2440   */\n  0x01\n    /* \"#utility.yul\":2433:2437   */\n  dup3\n    /* \"#utility.yul\":2429:2441   */\n  and\n    /* \"#utility.yul\":2460:2478   */\n  dup1\n    /* \"#utility.yul\":2450:2531   */\n  tag_60\n  jumpi\n    /* \"#utility.yul\":2516:2520   */\n  0x7f\n    /* \"#utility.yul\":2508:2514   */\n  dup3\n    /* \"#utility.yul\":2504:2521   */\n  and\n    /* \"#utility.yul\":2494:2521   */\n  swap2\n  pop\n    /* \"#utility.yul\":2450:2531   */\ntag_60:\n    /* \"#utility.yul\":2578:2580   */\n  0x20\n    /* \"#utility.yul\":2570:2576   */\n  dup3\n    /* \"#utility.yul\":2567:2581   */\n  lt\n    /* \"#utility.yul\":2547:2565   */\n  dup2\n    /* \"#utility.yul\":2544:2582   */\n  sub\n    /* \"#utility.yul\":2541:2625   */\n  tag_61\n  jumpi\n    /* \"#utility.yul\":2597:2615   */\n  tag_62\n  tag_20\n  jump\t// in\ntag_62:\n    /* \"#utility.yul\":2541:2625   */\ntag_61:\n    /* \"#utility.yul\":2362:2631   */\n  pop\n    /* \"#utility.yul\":2311:2631   */\n  swap2\n  swap1\n  pop\n  jump\t// out\n    /* \"#utility.yul\":2637:2778   */\ntag_22:\n    /* \"#utility.yul\":2686:2690   */\n  0x00\n    /* \"#utility.yul\":2709:2712   */\n  dup2\n    /* \"#utility.yul\":2701:2712   */\n  swap1\n  pop\n    /* \"#utility.yul\":2732:2735   */\n  dup2\n    /* \"#utility.yul\":2729:2730   */\n  0x00\n    /* \"#utility.yul\":2722:2736   */\n  mstore\n    /* \"#utility.yul\":2766:2770   */\n  0x20\n    /* \"#utility.yul\":2763:2764   */\n  0x00\n    /* \"#utility.yul\":2753:2771   */\n  keccak256\n    /* \"#utility.yul\":2745:2771   */\n  swap1\n  pop\n    /* \"#utility.yul\":2637:2778   */\n  swap2\n  swap1\n  pop\n  jump\t// out\n    /* \"#utility.yul\":2784:2877   */\ntag_23:\n    /* \"#utility.yul\":2821:2827   */\n  0x00\n    /* \"#utility.yul\":2868:2870   */\n  0x20\n    /* \"#utility.yul\":2863:2865   */\n  0x1f\n    /* \"#utility.yul\":2856:2861   */\n  dup4\n    /* \"#utility.yul\":2852:2866   */\n  add\n    /* \"#utility.yul\":2848:2871   */\n  div\n    /* \"#utility.yul\":2838:2871   */\n  swap1\n  pop\n    /* \"#utility.yul\":2784:2877   */\n  swap2\n  swap1\n  pop\n  jump\t// out\n    /* \"#utility.yul\":2883:2990   */\ntag_24:\n    /* \"#utility.yul\":2927:2935   */\n  0x00\n    /* \"#utility.yul\":2977:2982   */\n  dup3\n    /* \"#utility.yul\":2971:2975   */\n  dup3\n    /* \"#utility.yul\":2967:2983   */\n  shl\n    /* \"#utility.yul\":2946:2983   */\n  swap1\n  pop\n    /* \"#utility.yul\":2883:2990   */\n  swap3\n  swap2\n  pop\n  pop\n  jump\t// out\n    /* \"#utility.yul\":2996:3389   */\ntag_25:\n    /* \"#utility.yul\":3065:3071   */\n  0x00\n    /* \"#utility.yul\":3115:3116   */\n  0x08\n    /* \"#utility.yul\":3103:3113   */\n  dup4\n    /* \"#utility.yul\":3099:3117   */\n  mul\n    /* \"#utility.yul\":3138:3235   */\n  tag_67\n    /* \"#utility.yul\":3168:3234   */\n  0xffffffffffffffffffffffffffffffffffffffffffffffffffffffffffffffff\n    /* \"#utility.yul\":3157:3166   */\n  dup3\n    /* \"#utility.yul\":3138:3235   */\n  tag_24\n  jump\t// in\ntag_67:\n    /* \"#utility.yul\":3256:3295   */\n  tag_68\n    /* \"#utility.yul\":3286:3294   */\n  dup7\n    /* \"#utility.yul\":3275:3284   */\n  dup4\n    /* \"#utility.yul\":3256:3295   */\n  tag_24\n  jump\t// in\ntag_68:\n    /* \"#utility.yul\":3244:3295   */\n  swap6\n  pop\n    /* \"#utility.yul\":3328:3332   */\n  dup1\n    /* \"#utility.yul\":3324:3333   */\n  not\n    /* \"#utility.yul\":3317:3322   */\n  dup5\n    /* \"#utility.yul\":3313:3334   */\n  and\n    /* \"#utility.yul\":3304:3334   */\n  swap4\n  pop\n    /* \"#utility.yul\":3377:3381   */\n  dup1\n    /* \"#utility.yul\":3367:3375   */\n  dup7\n    /* \"#utility.yul\":3363:3382   */\n  and\n    /* \"#utility.yul\":3356:3361   */\n  dup5\n    /* \"#utility.yul\":3353:3383   */\n  or\n    /* \"#utility.yul\":3343:3383   */\n  swap3\n  pop\n    /* \"#utility.yul\":3072:3389   */\n  pop\n  pop\n    /* \"#utility.yul\":2996:3389   */\n  swap4\n  swap3\n  pop\n  pop\n  pop\n  jump\t// out\n    /* \"#utility.yul\":3395:3455   */\ntag_26:\n    /* \"#utility.yul\":3423:3426   */\n  0x00\n    /* \"#utility.yul\":3444:3449   */\n  dup2\n    /* \"#utility.yul\":3437:3449   */\n  swap1\n  pop\n    /* \"#utility.yul\":3395:3455   */\n  swap2\n  swap1\n  pop\n  jump\t// out\n    /* \"#utility.yul\":3461:3603   */\ntag_27:\n    /* \"#utility.yul\":3511:3520   */\n  0x00\n    /* \"#utility.yul\":3544:3597   */\n  tag_71\n    /* \"#utility.yul\":3562:3596   */\n  tag_72\n    /* \"#utility.yul\":3571:3595   */\n  tag_73\n    /* \"#utility.yul\":3589:3594   */\n  dup5\n    /* \"#utility.yul\":3571:3595   */\n  tag_15\n  jump\t// in\ntag_73:\n    /* \"#utility.yul\":3562:3596   */\n  tag_26\n  jump\t// in\ntag_72:\n    /* \"#utility.yul\":3544:3597   */\n  tag_15\n  jump\t// in\ntag_71:\n    /* \"#utility.yul\":3531:3597   */\n  swap1\n  pop\n    /* \"#utility.yul\":3461:3603   */\n  swap2\n  swap1\n  pop\n  jump\t// out\n    /* \"#utility.yul\":3609:3684   */\ntag_28:\n    /* \"#utility.yul\":3652:3655   */\n  0x00\n    /* \"#utility.yul\":3673:3678   */\n  dup2\n    /* \"#utility.yul\":3666:3678   */\n  swap1\n  pop\n    /* \"#utility.yul\":3609:3684   */\n  swap2\n  swap1\n  pop\n  jump\t// out\n    /* \"#utility.yul\":3690:3959   */\ntag_29:\n    /* \"#utility.yul\":3800:3839   */\n  tag_76\n    /* \"#utility.yul\":3831:3838   */\n  dup4\n    /* \"#utility.yul\":3800:3839   */\n  tag_27\n  jump\t// in\ntag_76:\n    /* \"#utility.yul\":3861:3952   */\n  tag_77\n    /* \"#utility.yul\":3910:3951   */\n  tag_78\n    /* \"#utility.yul\":3934:3950   */\n  dup3\n    /* \"#utility.yul\":3910:3951   */\n  tag_28\n  jump\t// in\ntag_78:\n    /* \"#utility.yul\":3902:3908   */\n  dup5\n    /* \"#utility.yul\":3895:3899   */\n  dup5\n    /* \"#utility.yul\":3889:3900   */\n  sload\n    /* \"#utility.yul\":3861:3952   */\n  tag_25\n  jump\t// in\ntag_77:\n    /* \"#utility.yul\":3855:3859   */\n  dup3\n    /* \"#utility.yul\":3848:3953   */\n  sstore\n    /* \"#utility.yul\":3766:3959   */\n  pop\n    /* \"#utility.yul\":3690:3959   */\n  pop\n  pop\n  pop\n  jump\t// out\n    /* \"#utility.yul\":3965:4038   */\ntag_30:\n    /* \"#utility.yul\":4010:4013   */\n  0x00\n    /* \"#utility.yul\":3965:4038   */\n  swap1\n  jump\t// out\n    /* \"#utility.yul\":4044:4233   */\ntag_31:\n    /* \"#utility.yul\":4121:4153   */\n  tag_81\n  tag_30\n  jump\t// in\ntag_81:\n    /* \"#utility.yul\":4162:4227   */\n  tag_82\n    /* \"#utility.yul\":4220:4226   */\n  dup2\n    /* \"#utility.yul\":4212:4218   */\n  dup5\n    /* \"#utility.yul\":4206:4210   */\n  dup5\n    /* \"#utility.yul\":4162:4227   */\n  tag_29\n  jump\t// in\ntag_82:\n    /* \"#utility.yul\":4097:4233   */\n  pop\n    /* \"#utility.yul\":4044:4233   */\n  pop\n  pop\n  jump\t// out\n    /* \"#utility.yul\":4239:4425   */\ntag_32:\n    /* \"#utility.yul\":4299:4419   */\ntag_84:\n    /* \"#utility.yul\":4316:4319   */\n  dup2\n    /* \"#utility.yul\":4309:4314   */\n  dup2\n    /* \"#utility.yul\":4306:4320   */\n  lt\n    /* \"#utility.yul\":4299:4419   */\n  iszero\n  tag_86\n  jumpi\n    /* \"#utility.yul\":4370:4409   */\n  tag_87\n    /* \"#utility.yul\":4407:4408   */\n  0x00\n    /* \"#utility.yul\":4400:4405   */\n  dup3\n    /* \"#utility.yul\":4370:4409   */\n  tag_31\n  jump\t// in\ntag_87:\n    /* \"#utility.yul\":4343:4344   */\n  0x01\n    /* \"#utility.yul\":4336:4341   */\n  dup2\n    /* \"#utility.yul\":4332:4345   */\n  add\n    /* \"#utility.yul\":4323:4345   */\n  swap1\n  pop\n    /* \"#utility.yul\":4299:4419   */\n  jump(tag_84)\ntag_86:\n    /* \"#utility.yul\":4239:4425   */\n  pop\n  pop\n  jump\t// out\n    /* \"#utility.yul\":4431:4974   */\ntag_33:\n    /* \"#utility.yul\":4532:4534   */\n  0x1f\n    /* \"#utility.yul\":4527:4530   */\n  dup3\n    /* \"#utility.yul\":4524:4535   */\n  gt\n    /* \"#utility.yul\":4521:4967   */\n  iszero\n  tag_89\n  jumpi\n    /* \"#utility.yul\":4566:4604   */\n  tag_90\n    /* \"#utility.yul\":4598:4603   */\n  dup2\n    /* \"#utility.yul\":4566:4604   */\n  tag_22\n  jump\t// in\ntag_90:\n    /* \"#utility.yul\":4650:4679   */\n  tag_91\n    /* \"#utility.yul\":4668:4678   */\n  dup5\n    /* \"#utility.yul\":4650:4679   */\n  tag_23\n  jump\t// in\ntag_91:\n    /* \"#utility.yul\":4640:4648   */\n  dup2\n    /* \"#utility.yul\":4636:4680   */\n  add\n    /* \"#utility.yul\":4833:4835   */\n  0x20\n    /* \"#utility.yul\":4821:4831   */\n  dup6\n    /* \"#utility.yul\":4818:4836   */\n  lt\n    /* \"#utility.yul\":4815:4864   */\n  iszero\n  tag_92\n  jumpi\n    /* \"#utility.yul\":4854:4862   */\n  dup2\n    /* \"#utility.yul\":4839:4862   */\n  swap1\n  pop\n    /* \"#utility.yul\":4815:4864   */\ntag_92:\n    /* \"#utility.yul\":4877:4957   */\n  tag_93\n    /* \"#utility.yul\":4933:4955   */\n  tag_94\n    /* \"#utility.yul\":4951:4954   */\n  dup6\n    /* \"#utility.yul\":4933:4955   */\n  tag_23\n  jump\t// in\ntag_94:\n    /* \"#utility.yul\":4923:4931   */\n  dup4\n    /* \"#utility.yul\":4919:4956   */\n  add\n    /* \"#utility.yul\":4906:4917   */\n  dup3\n    /* \"#utility.yul\":4877:4957   */\n  tag_32\n  jump\t// in\ntag_93:\n    /* \"#utility.yul\":4536:4967   */\n  pop\n  pop\n    /* \"#utility.yul\":4521:4967   */\ntag_89:\n    /* \"#utility.yul\":4431:4974   */\n  pop\n  pop\n  pop\n  jump\t// out\n    /* \"#utility.yul\":4980:5097   */\ntag_34:\n    /* \"#utility.yul\":5034:5042   */\n  0x00\n    /* \"#utility.yul\":5084:5089   */\n  dup3\n    /* \"#utility.yul\":5078:5082   */\n  dup3\n    /* \"#utility.yul\":5074:5090   */\n  shr\n    /* \"#utility.yul\":5053:5090   */\n  swap1\n  pop\n    /* \"#utility.yul\":4980:5097   */\n  swap3\n  swap2\n  pop\n  pop\n  jump\t// out\n    /* \"#utility.yul\":5103:5272   */\ntag_35:\n    /* \"#utility.yul\":5147:5153   */\n  0x00\n    /* \"#utility.yul\":5180:5231   */\n  tag_97\n    /* \"#utility.yul\":5228:5229   */\n  0x00\n    /* \"#utility.yul\":5224:5230   */\n  not\n    /* \"#utility.yul\":5216:5221   */\n  dup5\n    /* \"#utility.yul\":5213:5214   */\n  0x08\n    /* \"#utility.yul\":5209:5222   */\n  mul\n    /* \"#utility.yul\":5180:5231   */\n  tag_34\n  jump\t// in\ntag_97:\n    /* \"#utility.yul\":5176:5232   */\n  not\n    /* \"#utility.yul\":5261:5265   */\n  dup1\n    /* \"#utility.yul\":5255:5259   */\n  dup4\n    /* \"#utility.yul\":5251:5266   */\n  and\n    /* \"#utility.yul\":5241:5266   */\n  swap2\n  pop\n    /* \"#utility.yul\":5154:5272   */\n  pop\n    /* \"#utility.yul\":5103:5272   */\n  swap3\n  swap2\n  pop\n  pop\n  jump\t// out\n    /* \"#utility.yul\":5277:5572   */\ntag_36:\n    /* \"#utility.yul\":5353:5357   */\n  0x00\n    /* \"#utility.yul\":5499:5528   */\n  tag_99\n    /* \"#utility.yul\":5524:5527   */\n  dup4\n    /* \"#utility.yul\":5518:5522   */\n  dup4\n    /* \"#utility.yul\":5499:5528   */\n  tag_35\n  jump\t// in\ntag_99:\n    /* \"#utility.yul\":5491:5528   */\n  swap2\n  pop\n    /* \"#utility.yul\":5561:5564   */\n  dup3\n    /* \"#utility.yul\":5558:5559   */\n  0x02\n    /* \"#utility.yul\":5554:5565   */\n  mul\n    /* \"#utility.yul\":5548:5552   */\n  dup3\n    /* \"#utility.yul\":5545:5566   */\n  or\n    /* \"#utility.yul\":5537:5566   */\n  swap1\n  pop\n    /* \"#utility.yul\":5277:5572   */\n  swap3\n  swap2\n  pop\n  pop\n  jump\t// out\n    /* \"#utility.yul\":5577:6972   */\ntag_8:\n    /* \"#utility.yul\":5694:5731   */\n  tag_101\n    /* \"#utility.yul\":5727:5730   */\n  dup3\n    /* \"#utility.yul\":5694:5731   */\n  tag_18\n  jump\t// in\ntag_101:\n    /* \"#utility.yul\":5796:5814   */\n  0xffffffffffffffff\n    /* \"#utility.yul\":5788:5794   */\n  dup2\n    /* \"#utility.yul\":5785:5815   */\n  gt\n    /* \"#utility.yul\":5782:5838   */\n  iszero\n  tag_102\n  jumpi\n    /* \"#utility.yul\":5818:5836   */\n  tag_103\n  tag_19\n  jump\t// in\ntag_103:\n    /* \"#utility.yul\":5782:5838   */\ntag_102:\n    /* \"#utility.yul\":5862:5900   */\n  tag_104\n    /* \"#utility.yul\":5894:5898   */\n  dup3\n    /* \"#utility.yul\":5888:5899   */\n  sload\n    /* \"#utility.yul\":5862:5900   */\n  tag_21\n  jump\t// in\ntag_104:\n    /* \"#utility.yul\":5947:6014   */\n  tag_105\n    /* \"#utility.yul\":6007:6013   */\n  dup3\n    /* \"#utility.yul\":5999:6005   */\n  dup3\n    /* \"#utility.yul\":5993:5997   */\n  dup6\n    /* \"#utility.yul\":5947:6014   */\n  tag_33\n  jump\t// in\ntag_105:\n    /* \"#utility.yul\":6041:6042   */\n  0x00\n    /* \"#utility.yul\":6065:6069   */\n  0x20\n    /* \"#utility.yul\":6052:6069   */\n  swap1\n  pop\n    /* \"#utility.yul\":6097:6099   */\n  0x1f\n    /* \"#utility.yul\":6089:6095   */\n  dup4\n    /* \"#utility.yul\":6086:6100   */\n  gt\n    /* \"#utility.yul\":6114:6115   */\n  0x01\n    /* \"#utility.yul\":6109:6727   */\n  dup2\n  eq\n  tag_107\n  jumpi\n    /* \"#utility.yul\":6771:6772   */\n  0x00\n    /* \"#utility.yul\":6788:6794   */\n  dup5\n    /* \"#utility.yul\":6785:6862   */\n  iszero\n  tag_108\n  jumpi\n    /* \"#utility.yul\":6837:6846   */\n  dup3\n    /* \"#utility.yul\":6832:6835   */\n  dup8\n    /* \"#utility.yul\":6828:6847   */\n  add\n    /* \"#utility.yul\":6822:6848   */\n  mload\n    /* \"#utility.yul\":6813:6848   */\n  swap1\n  pop\n    /* \"#utility.yul\":6785:6862   */\ntag_108:\n    /* \"#utility.yul\":6888:6955   */\n  tag_109\n    /* \"#utility.yul\":6948:6954   */\n  dup6\n    /* \"#utility.yul\":6941:6946   */\n  dup3\n    /* \"#utility.yul\":6888:6955   */\n  tag_36\n  jump\t// in\ntag_109:\n    /* \"#utility.yul\":6882:6886   */\n  dup7\n    /* \"#utility.yul\":6875:6956   */\n  sstore\n    /* \"#utility.yul\":6744:6966   */\n  pop\n    /* \"#utility.yul\":6079:6966   */\n  jump(tag_106)\n    /* \"#utility.yul\":6109:6727   */\ntag_107:\n    /* \"#utility.yul\":6161:6165   */\n  0x1f\n    /* \"#utility.yul\":6157:6166   */\n  not\n    /* \"#utility.yul\":6149:6155   */\n  dup5\n    /* \"#utility.yul\":6145:6167   */\n  and\n    /* \"#utility.yul\":6195:6232   */\n  tag_110\n    /* \"#utility.yul\":6227:6231   */\n  dup7\n    /* \"#utility.yul\":6195:6232   */\n  tag_22\n  jump\t// in\ntag_110:\n    /* \"#utility.yul\":6254:6255   */\n  0x00\n    /* \"#utility.yul\":6268:6476   */\ntag_111:\n    /* \"#utility.yul\":6282:6289   */\n  dup3\n    /* \"#utility.yul\":6279:6280   */\n  dup2\n    /* \"#utility.yul\":6276:6290   */\n  lt\n    /* \"#utility.yul\":6268:6476   */\n  iszero\n  tag_113\n  jumpi\n    /* \"#utility.yul\":6361:6370   */\n  dup5\n    /* \"#utility.yul\":6356:6359   */\n  dup10\n    /* \"#utility.yul\":6352:6371   */\n  add\n    /* \"#utility.yul\":6346:6372   */\n  mload\n    /* \"#utility.yul\":6338:6344   */\n  dup3\n    /* \"#utility.yul\":6331:6373   */\n  sstore\n    /* \"#utility.yul\":6412:6413   */\n  0x01\n    /* \"#utility.yul\":6404:6410   */\n  dup3\n    /* \"#utility.yul\":6400:6414   */\n  add\n    /* \"#utility.yul\":6390:6414   */\n  swap2\n  pop\n    /* \"#utility.yul\":6459:6461   */\n  0x20\n    /* \"#utility.yul\":6448:6457   */\n  dup6\n    /* \"#utility.yul\":6444:6462   */\n  add\n    /* \"#utility.yul\":6431:6462   */\n  swap5\n  pop\n    /* \"#utility.yul\":6305:6309   */\n  0x20\n    /* \"#utility.yul\":6302:6303   */\n  dup2\n    /* \"#utility.yul\":6298:6310   */\n  add\n    /* \"#utility.yul\":6293:6310   */\n  swap1\n  pop\n    /* \"#utility.yul\":6268:6476   */\n  jump(tag_111)\ntag_113:\n    /* \"#utility.yul\":6504:6510   */\n  dup7\n    /* \"#utility.yul\":6495:6502   */\n  dup4\n    /* \"#utility.yul\":6492:6511   */\n  lt\n    /* \"#utility.yul\":6489:6668   */\n  iszero\n  tag_114\n  jumpi\n    /* \"#utility.yul\":6562:6571   */\n  dup5\n    /* \"#utility.yul\":6557:6560   */\n  dup10\n    /* \"#utility.yul\":6553:6572   */\n  add\n    /* \"#utility.yul\":6547:6573   */\n  mload\n    /* \"#utility.yul\":6605:6653   */\n  tag_115\n    /* \"#utility.yul\":6647:6651   */\n  0x1f\n    /* \"#utility.yul\":6639:6645   */\n  dup10\n    /* \"#utility.yul\":6635:6652   */\n  and\n    /* \"#utility.yul\":6624:6633   */\n  dup3\n    /* \"#utility.yul\":6605:6653   */\n  tag_35\n  jump\t// in\ntag_115:\n    /* \"#utility.yul\":6597:6603   */\n  dup4\n    /* \"#utility.yul\":6590:6654   */\n  sstore\n    /* \"#utility.yul\":6512:6668   */\n  pop\n    /* \"#utility.yul\":6489:6668   */\ntag_114:\n    /* \"#utility.yul\":6714:6715   */\n  0x01\n    /* \"#utility.yul\":6710:6711   */\n  0x02\n    /* \"#utility.yul\":6702:6708   */\n  dup9\n    /* \"#utility.yul\":6698:6712   */\n  mul\n    /* \"#utility.yul\":6694:6716   */\n  add\n    /* \"#utility.yul\":6688:6692   */\n  dup9\n    /* \"#utility.yul\":6681:6717   */\n  sstore\n    /* \"#utility.yul\":6116:6727   */\n  pop\n  pop\n  pop\n    /* \"#utility.yul\":6079:6966   */\ntag_106:\n  pop\n    /* \"#utility.yul\":5669:6972   */\n  pop\n  pop\n  pop\n    /* \"#utility.yul\":5577:6972   */\n  pop\n  pop\n  jump\t// out\n    /* \"contracts/location.sol\":81:3323  contract Geologix is ERC20  {... */\ntag_11:\n  dataSize(sub_0)\n  dup1\n  dataOffset(sub_0)\n  0x00\n  codecopy\n  0x00\n  return\nstop\n\nsub_0: assembly {\n        /* \"contracts/location.sol\":81:3323  contract Geologix is ERC20  {... */\n      mstore(0x40, 0x80)\n      callvalue\n      dup1\n      iszero\n      tag_1\n      jumpi\n      0x00\n      dup1\n      revert\n    tag_1:\n      pop\n      jumpi(tag_2, lt(calldatasize, 0x04))\n      shr(0xe0, calldataload(0x00))\n      dup1\n      0x70a08231\n      gt\n      tag_25\n      jumpi\n      dup1\n      0x9af8a5eb\n      gt\n      tag_26\n      jumpi\n      dup1\n      0x9af8a5eb\n      eq\n      tag_19\n      jumpi\n      dup1\n      0xa9059cbb\n      eq\n      tag_20\n      jumpi\n      dup1\n      0xb620b8cb\n      eq\n      tag_21\n      jumpi\n      dup1\n      0xdd62ed3e\n      eq\n      tag_22\n      jumpi\n      dup1\n      0xe7b4cac6\n      eq\n      tag_23\n      jumpi\n      dup1\n      0xf7b2a7be\n      eq\n      tag_24\n      jumpi\n      jump(tag_2)\n    tag_26:\n      dup1\n      0x70a08231\n      eq\n      tag_14\n      jumpi\n      dup1\n      0x78e97925\n      eq\n      tag_15\n      jumpi\n      dup1\n      0x8da5cb5b\n      eq\n      tag_16\n      jumpi\n      dup1\n      0x8ea286c2\n      eq\n      tag_17\n      jumpi\n      dup1\n      0x95d89b41\n      eq\n      tag_18\n      jumpi\n      jump(tag_2)\n    tag_25:\n      dup1\n      0x313ce567\n      gt\n      tag_27\n      jumpi\n      dup1\n      0x313ce567\n      eq\n      tag_8\n      jumpi\n      dup1\n      0x3197cbb6\n      eq\n      tag_9\n      jumpi\n      dup1\n      0x4fd7d76a\n      eq\n      tag_10\n      jumpi\n      dup1\n      0x563a6c7a\n      eq\n      tag_11\n      jumpi\n      dup1\n      0x589af69c\n      eq\n      tag_12\n      jumpi\n      dup1\n      0x63a411c0\n      eq\n      tag_13\n      jumpi\n      jump(tag_2)\n    tag_27:\n      dup1\n      0x06fdde03\n      eq\n      tag_3\n      jumpi\n      dup1\n      0x095ea7b3\n      eq\n      tag_4\n      jumpi\n      dup1\n      0x18160ddd\n      eq\n      tag_5\n      jumpi\n      dup1\n      0x217f4353\n      eq\n      tag_6\n      jumpi\n      dup1\n      0x23b872dd\n      eq\n      tag_7\n      jumpi\n    tag_2:\n      0x00\n      dup1\n      revert\n        /* \"contracts/ERC20.sol\":2077:2166  function name() public view virtual returns (string memory) {... */\n    tag_3:\n      tag_28\n      tag_29\n      jump\t// in\n    tag_28:\n      mload(0x40)\n      tag_30\n      swap2\n      swap1\n      tag_31\n      jump\t// in\n    tag_30:\n      mload(0x40)\n      dup1\n      swap2\n      sub\n      swap1\n      return\n        /* \"contracts/ERC20.sol\":4296:4482  function approve(address spender, uint256 value) public virtual returns (bool) {... */\n    tag_4:\n      tag_32\n      0x04\n      dup1\n      calldatasize\n      sub\n      dup2\n      add\n      swap1\n      tag_33\n      swap2\n      swap1\n      tag_34\n      jump\t// in\n    tag_33:\n      tag_35\n      jump\t// in\n    tag_32:\n      mload(0x40)\n      tag_36\n      swap2\n      swap1\n      tag_37\n      jump\t// in\n    tag_36:\n      mload(0x40)\n      dup1\n      swap2\n      sub\n      swap1\n      return\n        /* \"contracts/ERC20.sol\":3147:3244  function totalSupply() public view virtual returns (uint256) {... */\n    tag_5:\n      tag_38\n      tag_39\n      jump\t// in\n    tag_38:\n      mload(0x40)\n      tag_40\n      swap2\n      swap1\n      tag_41\n      jump\t// in\n    tag_40:\n      mload(0x40)\n      dup1\n      swap2\n      sub\n      swap1\n      return\n        /* \"contracts/location.sol\":195:213  uint public radius */\n    tag_6:\n      tag_42\n      tag_43\n      jump\t// in\n    tag_42:\n      mload(0x40)\n      tag_44\n      swap2\n      swap1\n      tag_41\n      jump\t// in\n    tag_44:\n      mload(0x40)\n      dup1\n      swap2\n      sub\n      swap1\n      return\n        /* \"contracts/ERC20.sol\":5042:5286  function transferFrom(address from, address to, uint256 value) public virtual returns (bool) {... */\n    tag_7:\n      tag_45\n      0x04\n      dup1\n      calldatasize\n      sub\n      dup2\n      add\n      swap1\n      tag_46\n      swap2\n      swap1\n      tag_47\n      jump\t// in\n    tag_46:\n      tag_48\n      jump\t// in\n    tag_45:\n      mload(0x40)\n      tag_49\n      swap2\n      swap1\n      tag_37\n      jump\t// in\n    tag_49:\n      mload(0x40)\n      dup1\n      swap2\n      sub\n      swap1\n      return\n        /* \"contracts/ERC20.sol\":3005:3087  function decimals() public view virtual returns (uint8) {... */\n    tag_8:\n      tag_50\n      tag_51\n      jump\t// in\n    tag_50:\n      mload(0x40)\n      tag_52\n      swap2\n      swap1\n      tag_53\n      jump\t// in\n    tag_52:\n      mload(0x40)\n      dup1\n      swap2\n      sub\n      swap1\n      return\n        /* \"contracts/location.sol\":246:265  uint public endTime */\n    tag_9:\n      tag_54\n      tag_55\n      jump\t// in\n    tag_54:\n      mload(0x40)\n      tag_56\n      swap2\n      swap1\n      tag_41\n      jump\t// in\n    tag_56:\n      mload(0x40)\n      dup1\n      swap2\n      sub\n      swap1\n      return\n        /* \"contracts/location.sol\":142:162  uint public latitude */\n    tag_10:\n      tag_57\n      tag_58\n      jump\t// in\n    tag_57:\n      mload(0x40)\n      tag_59\n      swap2\n      swap1\n      tag_41\n      jump\t// in\n    tag_59:\n      mload(0x40)\n      dup1\n      swap2\n      sub\n      swap1\n      return\n        /* \"contracts/location.sol\":2592:2744  function _calculateDistance(uint lat1, uint lon1, uint lat2, uint lon2) public pure returns (uint) {... */\n    tag_11:\n      tag_60\n      0x04\n      dup1\n      calldatasize\n      sub\n      dup2\n      add\n      swap1\n      tag_61\n      swap2\n      swap1\n      tag_62\n      jump\t// in\n    tag_61:\n      tag_63\n      jump\t// in\n    tag_60:\n      mload(0x40)\n      tag_64\n      swap2\n      swap1\n      tag_41\n      jump\t// in\n    tag_64:\n      mload(0x40)\n      dup1\n      swap2\n      sub\n      swap1\n      return\n        /* \"contracts/location.sol\":168:189  uint public longitude */\n    tag_12:\n      tag_65\n      tag_66\n      jump\t// in\n    tag_65:\n      mload(0x40)\n      tag_67\n      swap2\n      swap1\n      tag_41\n      jump\t// in\n    tag_67:\n      mload(0x40)\n      dup1\n      swap2\n      sub\n      swap1\n      return\n        /* \"contracts/location.sol\":1184:1391  function addDriver(address _public_address) external onlyOwner {... */\n    tag_13:\n      tag_68\n      0x04\n      dup1\n      calldatasize\n      sub\n      dup2\n      add\n      swap1\n      tag_69\n      swap2\n      swap1\n      tag_70\n      jump\t// in\n    tag_69:\n      tag_71\n      jump\t// in\n    tag_68:\n      stop\n        /* \"contracts/ERC20.sol\":3302:3418  function balanceOf(address account) public view virtual returns (uint256) {... */\n    tag_14:\n      tag_72\n      0x04\n      dup1\n      calldatasize\n      sub\n      dup2\n      add\n      swap1\n      tag_73\n      swap2\n      swap1\n      tag_70\n      jump\t// in\n    tag_73:\n      tag_74\n      jump\t// in\n    tag_72:\n      mload(0x40)\n      tag_75\n      swap2\n      swap1\n      tag_41\n      jump\t// in\n    tag_75:\n      mload(0x40)\n      dup1\n      swap2\n      sub\n      swap1\n      return\n        /* \"contracts/location.sol\":219:240  uint public startTime */\n    tag_15:\n      tag_76\n      tag_77\n      jump\t// in\n    tag_76:\n      mload(0x40)\n      tag_78\n      swap2\n      swap1\n      tag_41\n      jump\t// in\n    tag_78:\n      mload(0x40)\n      dup1\n      swap2\n      sub\n      swap1\n      return\n        /* \"contracts/location.sol\":116:136  address public owner */\n    tag_16:\n      tag_79\n      tag_80\n      jump\t// in\n    tag_79:\n      mload(0x40)\n      tag_81\n      swap2\n      swap1\n      tag_82\n      jump\t// in\n    tag_81:\n      mload(0x40)\n      dup1\n      swap2\n      sub\n      swap1\n      return\n        /* \"contracts/location.sol\":2955:3320  function getDevice() public view returns (uint complianceCount, uint nonComplianceCount, DeviceState deviceState) {... */\n    tag_17:\n      tag_83\n      tag_84\n      jump\t// in\n    tag_83:\n      mload(0x40)\n      tag_85\n      swap4\n      swap3\n      swap2\n      swap1\n      tag_86\n      jump\t// in\n    tag_85:\n      mload(0x40)\n      dup1\n      swap2\n      sub\n      swap1\n      return\n        /* \"contracts/ERC20.sol\":2279:2372  function symbol() public view virtual returns (string memory) {... */\n    tag_18:\n      tag_87\n      tag_88\n      jump\t// in\n    tag_87:\n      mload(0x40)\n      tag_89\n      swap2\n      swap1\n      tag_31\n      jump\t// in\n    tag_89:\n      mload(0x40)\n      dup1\n      swap2\n      sub\n      swap1\n      return\n        /* \"contracts/location.sol\":648:671  uint public DeviceCount */\n    tag_19:\n      tag_90\n      tag_91\n      jump\t// in\n    tag_90:\n      mload(0x40)\n      tag_92\n      swap2\n      swap1\n      tag_41\n      jump\t// in\n    tag_92:\n      mload(0x40)\n      dup1\n      swap2\n      sub\n      swap1\n      return\n        /* \"contracts/ERC20.sol\":3613:3791  function transfer(address to, uint256 value) public virtual returns (bool) {... */\n    tag_20:\n      tag_93\n      0x04\n      dup1\n      calldatasize\n      sub\n      dup2\n      add\n      swap1\n      tag_94\n      swap2\n      swap1\n      tag_34\n      jump\t// in\n    tag_94:\n      tag_95\n      jump\t// in\n    tag_93:\n      mload(0x40)\n      tag_96\n      swap2\n      swap1\n      tag_37\n      jump\t// in\n    tag_96:\n      mload(0x40)\n      dup1\n      swap2\n      sub\n      swap1\n      return\n        /* \"contracts/location.sol\":1397:2285  function optIn(uint _latitude, uint _longitude) external {... */\n    tag_21:\n      tag_97\n      0x04\n      dup1\n      calldatasize\n      sub\n      dup2\n      add\n      swap1\n      tag_98\n      swap2\n      swap1\n      tag_99\n      jump\t// in\n    tag_98:\n      tag_100\n      jump\t// in\n    tag_97:\n      stop\n        /* \"contracts/ERC20.sol\":3849:3989  function allowance(address owner, address spender) public view virtual returns (uint256) {... */\n    tag_22:\n      tag_101\n      0x04\n      dup1\n      calldatasize\n      sub\n      dup2\n      add\n      swap1\n      tag_102\n      swap2\n      swap1\n      tag_103\n      jump\t// in\n    tag_102:\n      tag_104\n      jump\t// in\n    tag_101:\n      mload(0x40)\n      tag_105\n      swap2\n      swap1\n      tag_41\n      jump\t// in\n    tag_105:\n      mload(0x40)\n      dup1\n      swap2\n      sub\n      swap1\n      return\n        /* \"contracts/location.sol\":601:642  mapping(address => Device) public devices */\n    tag_23:\n      tag_106\n      0x04\n      dup1\n      calldatasize\n      sub\n      dup2\n      add\n      swap1\n      tag_107\n      swap2\n      swap1\n      tag_70\n      jump\t// in\n    tag_107:\n      tag_108\n      jump\t// in\n    tag_106:\n      mload(0x40)\n      tag_109\n      swap8\n      swap7\n      swap6\n      swap5\n      swap4\n      swap3\n      swap2\n      swap1\n      tag_110\n      jump\t// in\n    tag_109:\n      mload(0x40)\n      dup1\n      swap2\n      sub\n      swap1\n      return\n        /* \"contracts/location.sol\":271:295  uint public rewardAmount */\n    tag_24:\n      tag_111\n      tag_112\n      jump\t// in\n    tag_111:\n      mload(0x40)\n      tag_113\n      swap2\n      swap1\n      tag_41\n      jump\t// in\n    tag_113:\n      mload(0x40)\n      dup1\n      swap2\n      sub\n      swap1\n      return\n        /* \"contracts/ERC20.sol\":2077:2166  function name() public view virtual returns (string memory) {... */\n    tag_29:\n        /* \"contracts/ERC20.sol\":2122:2135  string memory */\n      0x60\n        /* \"contracts/ERC20.sol\":2154:2159  _name */\n      0x03\n        /* \"contracts/ERC20.sol\":2147:2159  return _name */\n      dup1\n      sload\n      tag_115\n      swap1\n      tag_116\n      jump\t// in\n    tag_115:\n      dup1\n      0x1f\n      add\n      0x20\n      dup1\n      swap2\n      div\n      mul\n      0x20\n      add\n      mload(0x40)\n      swap1\n      dup2\n      add\n      0x40\n      mstore\n      dup1\n      swap3\n      swap2\n      swap1\n      dup2\n      dup2\n      mstore\n      0x20\n      add\n      dup3\n      dup1\n      sload\n      tag_117\n      swap1\n      tag_116\n      jump\t// in\n    tag_117:\n      dup1\n      iszero\n      tag_118\n      jumpi\n      dup1\n      0x1f\n      lt\n      tag_119\n      jumpi\n      0x0100\n      dup1\n      dup4\n      sload\n      div\n      mul\n      dup4\n      mstore\n      swap2\n      0x20\n      add\n      swap2\n      jump(tag_118)\n    tag_119:\n      dup3\n      add\n      swap2\n      swap1\n      0x00\n      mstore\n      keccak256(0x00, 0x20)\n      swap1\n    tag_120:\n      dup2\n      sload\n      dup2\n      mstore\n      swap1\n      0x01\n      add\n      swap1\n      0x20\n      add\n      dup1\n      dup4\n      gt\n      tag_120\n      jumpi\n      dup3\n      swap1\n      sub\n      0x1f\n      and\n      dup3\n      add\n      swap2\n    tag_118:\n      pop\n      pop\n      pop\n      pop\n      pop\n      swap1\n      pop\n        /* \"contracts/ERC20.sol\":2077:2166  function name() public view virtual returns (string memory) {... */\n      swap1\n      jump\t// out\n        /* \"contracts/ERC20.sol\":4296:4482  function approve(address spender, uint256 value) public virtual returns (bool) {... */\n    tag_35:\n        /* \"contracts/ERC20.sol\":4369:4373  bool */\n      0x00\n        /* \"contracts/ERC20.sol\":4385:4398  address owner */\n      dup1\n        /* \"contracts/ERC20.sol\":4401:4413  _msgSender() */\n      tag_122\n        /* \"contracts/ERC20.sol\":4401:4411  _msgSender */\n      tag_123\n        /* \"contracts/ERC20.sol\":4401:4413  _msgSender() */\n      jump\t// in\n    tag_122:\n        /* \"contracts/ERC20.sol\":4385:4413  address owner = _msgSender() */\n      swap1\n      pop\n        /* \"contracts/ERC20.sol\":4423:4454  _approve(owner, spender, value) */\n      tag_124\n        /* \"contracts/ERC20.sol\":4432:4437  owner */\n      dup2\n        /* \"contracts/ERC20.sol\":4439:4446  spender */\n      dup6\n        /* \"contracts/ERC20.sol\":4448:4453  value */\n      dup6\n        /* \"contracts/ERC20.sol\":4423:4431  _approve */\n      tag_125\n        /* \"contracts/ERC20.sol\":4423:4454  _approve(owner, spender, value) */\n      jump\t// in\n    tag_124:\n        /* \"contracts/ERC20.sol\":4471:4475  true */\n      0x01\n        /* \"contracts/ERC20.sol\":4464:4475  return true */\n      swap2\n      pop\n      pop\n        /* \"contracts/ERC20.sol\":4296:4482  function approve(address spender, uint256 value) public virtual returns (bool) {... */\n      swap3\n      swap2\n      pop\n      pop\n      jump\t// out\n        /* \"contracts/ERC20.sol\":3147:3244  function totalSupply() public view virtual returns (uint256) {... */\n    tag_39:\n        /* \"contracts/ERC20.sol\":3199:3206  uint256 */\n      0x00\n        /* \"contracts/ERC20.sol\":3225:3237  _totalSupply */\n      sload(0x02)\n        /* \"contracts/ERC20.sol\":3218:3237  return _totalSupply */\n      swap1\n      pop\n        /* \"contracts/ERC20.sol\":3147:3244  function totalSupply() public view virtual returns (uint256) {... */\n      swap1\n      jump\t// out\n        /* \"contracts/location.sol\":195:213  uint public radius */\n    tag_43:\n      sload(0x08)\n      dup2\n      jump\t// out\n        /* \"contracts/ERC20.sol\":5042:5286  function transferFrom(address from, address to, uint256 value) public virtual returns (bool) {... */\n    tag_48:\n        /* \"contracts/ERC20.sol\":5129:5133  bool */\n      0x00\n        /* \"contracts/ERC20.sol\":5145:5160  address spender */\n      dup1\n        /* \"contracts/ERC20.sol\":5163:5175  _msgSender() */\n      tag_128\n        /* \"contracts/ERC20.sol\":5163:5173  _msgSender */\n      tag_123\n        /* \"contracts/ERC20.sol\":5163:5175  _msgSender() */\n      jump\t// in\n    tag_128:\n        /* \"contracts/ERC20.sol\":5145:5175  address spender = _msgSender() */\n      swap1\n      pop\n        /* \"contracts/ERC20.sol\":5185:5222  _spendAllowance(from, spender, value) */\n      tag_129\n        /* \"contracts/ERC20.sol\":5201:5205  from */\n      dup6\n        /* \"contracts/ERC20.sol\":5207:5214  spender */\n      dup3\n        /* \"contracts/ERC20.sol\":5216:5221  value */\n      dup6\n        /* \"contracts/ERC20.sol\":5185:5200  _spendAllowance */\n      tag_130\n        /* \"contracts/ERC20.sol\":5185:5222  _spendAllowance(from, spender, value) */\n      jump\t// in\n    tag_129:\n        /* \"contracts/ERC20.sol\":5232:5258  _transfer(from, to, value) */\n      tag_131\n        /* \"contracts/ERC20.sol\":5242:5246  from */\n      dup6\n        /* \"contracts/ERC20.sol\":5248:5250  to */\n      dup6\n        /* \"contracts/ERC20.sol\":5252:5257  value */\n      dup6\n        /* \"contracts/ERC20.sol\":5232:5241  _transfer */\n      tag_132\n        /* \"contracts/ERC20.sol\":5232:5258  _transfer(from, to, value) */\n      jump\t// in\n    tag_131:\n        /* \"contracts/ERC20.sol\":5275:5279  true */\n      0x01\n        /* \"contracts/ERC20.sol\":5268:5279  return true */\n      swap2\n      pop\n      pop\n        /* \"contracts/ERC20.sol\":5042:5286  function transferFrom(address from, address to, uint256 value) public virtual returns (bool) {... */\n      swap4\n      swap3\n      pop\n      pop\n      pop\n      jump\t// out\n        /* \"contracts/ERC20.sol\":3005:3087  function decimals() public view virtual returns (uint8) {... */\n    tag_51:\n        /* \"contracts/ERC20.sol\":3054:3059  uint8 */\n      0x00\n        /* \"contracts/ERC20.sol\":3078:3080  18 */\n      0x12\n        /* \"contracts/ERC20.sol\":3071:3080  return 18 */\n      swap1\n      pop\n        /* \"contracts/ERC20.sol\":3005:3087  function decimals() public view virtual returns (uint8) {... */\n      swap1\n      jump\t// out\n        /* \"contracts/location.sol\":246:265  uint public endTime */\n    tag_55:\n      sload(0x0a)\n      dup2\n      jump\t// out\n        /* \"contracts/location.sol\":142:162  uint public latitude */\n    tag_58:\n      sload(0x06)\n      dup2\n      jump\t// out\n        /* \"contracts/location.sol\":2592:2744  function _calculateDistance(uint lat1, uint lon1, uint lat2, uint lon2) public pure returns (uint) {... */\n    tag_63:\n        /* \"contracts/location.sol\":2685:2689  uint */\n      0x00\n        /* \"contracts/location.sol\":2732:2736  lon2 */\n      dup2\n        /* \"contracts/location.sol\":2725:2729  lon1 */\n      dup5\n        /* \"contracts/location.sol\":2725:2736  lon1 - lon2 */\n      tag_135\n      swap2\n      swap1\n      tag_136\n      jump\t// in\n    tag_135:\n        /* \"contracts/location.sol\":2716:2720  lat2 */\n      dup4\n        /* \"contracts/location.sol\":2709:2713  lat1 */\n      dup7\n        /* \"contracts/location.sol\":2709:2720  lat1 - lat2 */\n      tag_137\n      swap2\n      swap1\n      tag_136\n      jump\t// in\n    tag_137:\n        /* \"contracts/location.sol\":2708:2737  (lat1 - lat2) + (lon1 - lon2) */\n      tag_138\n      swap2\n      swap1\n      tag_139\n      jump\t// in\n    tag_138:\n        /* \"contracts/location.sol\":2701:2737  return (lat1 - lat2) + (lon1 - lon2) */\n      swap1\n      pop\n        /* \"contracts/location.sol\":2592:2744  function _calculateDistance(uint lat1, uint lon1, uint lat2, uint lon2) public pure returns (uint) {... */\n      swap5\n      swap4\n      pop\n      pop\n      pop\n      pop\n      jump\t// out\n        /* \"contracts/location.sol\":168:189  uint public longitude */\n    tag_66:\n      sload(0x07)\n      dup2\n      jump\t// out\n        /* \"contracts/location.sol\":1184:1391  function addDriver(address _public_address) external onlyOwner {... */\n    tag_71:\n        /* \"contracts/location.sol\":736:741  owner */\n      0x05\n      0x00\n      swap1\n      sload\n      swap1\n      0x0100\n      exp\n      swap1\n      div\n      0xffffffffffffffffffffffffffffffffffffffff\n      and\n        /* \"contracts/location.sol\":722:741  msg.sender == owner */\n      0xffffffffffffffffffffffffffffffffffffffff\n      and\n        /* \"contracts/location.sol\":722:732  msg.sender */\n      caller\n        /* \"contracts/location.sol\":722:741  msg.sender == owner */\n      0xffffffffffffffffffffffffffffffffffffffff\n      and\n      eq\n        /* \"contracts/location.sol\":714:742  require(msg.sender == owner) */\n      tag_141\n      jumpi\n      0x00\n      dup1\n      revert\n    tag_141:\n        /* \"contracts/location.sol\":1257:1268  DeviceCount */\n      0x0d\n      0x00\n        /* \"contracts/location.sol\":1257:1271  DeviceCount ++ */\n      dup2\n      sload\n      dup1\n      swap3\n      swap2\n      swap1\n      tag_143\n      swap1\n      tag_144\n      jump\t// in\n    tag_143:\n      swap2\n      swap1\n      pop\n      sstore\n      pop\n        /* \"contracts/location.sol\":1308:1384  Device(0, 0, DeviceState.Created, _public_address, block.timestamp, 0, true) */\n      mload(0x40)\n      dup1\n      0xe0\n      add\n      0x40\n      mstore\n      dup1\n        /* \"contracts/location.sol\":1315:1316  0 */\n      0x00\n        /* \"contracts/location.sol\":1308:1384  Device(0, 0, DeviceState.Created, _public_address, block.timestamp, 0, true) */\n      dup2\n      mstore\n      0x20\n      add\n        /* \"contracts/location.sol\":1318:1319  0 */\n      0x00\n        /* \"contracts/location.sol\":1308:1384  Device(0, 0, DeviceState.Created, _public_address, block.timestamp, 0, true) */\n      dup2\n      mstore\n      0x20\n      add\n        /* \"contracts/location.sol\":1321:1340  DeviceState.Created */\n      0x00\n        /* \"contracts/location.sol\":1308:1384  Device(0, 0, DeviceState.Created, _public_address, block.timestamp, 0, true) */\n      0x03\n      dup2\n      gt\n      iszero\n      tag_145\n      jumpi\n      tag_146\n      tag_147\n      jump\t// in\n    tag_146:\n    tag_145:\n      dup2\n      mstore\n      0x20\n      add\n        /* \"contracts/location.sol\":1342:1357  _public_address */\n      dup3\n        /* \"contracts/location.sol\":1308:1384  Device(0, 0, DeviceState.Created, _public_address, block.timestamp, 0, true) */\n      0xffffffffffffffffffffffffffffffffffffffff\n      and\n      dup2\n      mstore\n      0x20\n      add\n        /* \"contracts/location.sol\":1359:1374  block.timestamp */\n      timestamp\n        /* \"contracts/location.sol\":1308:1384  Device(0, 0, DeviceState.Created, _public_address, block.timestamp, 0, true) */\n      dup2\n      mstore\n      0x20\n      add\n        /* \"contracts/location.sol\":1376:1377  0 */\n      0x00\n        /* \"contracts/location.sol\":1308:1384  Device(0, 0, DeviceState.Created, _public_address, block.timestamp, 0, true) */\n      dup2\n      mstore\n      0x20\n      add\n        /* \"contracts/location.sol\":1379:1383  true */\n      0x01\n        /* \"contracts/location.sol\":1308:1384  Device(0, 0, DeviceState.Created, _public_address, block.timestamp, 0, true) */\n      iszero\n      iszero\n      dup2\n      mstore\n      pop\n        /* \"contracts/location.sol\":1281:1288  devices */\n      0x0c\n        /* \"contracts/location.sol\":1281:1305  devices[_public_address] */\n      0x00\n        /* \"contracts/location.sol\":1289:1304  _public_address */\n      dup4\n        /* \"contracts/location.sol\":1281:1305  devices[_public_address] */\n      0xffffffffffffffffffffffffffffffffffffffff\n      and\n      0xffffffffffffffffffffffffffffffffffffffff\n      and\n      dup2\n      mstore\n      0x20\n      add\n      swap1\n      dup2\n      mstore\n      0x20\n      add\n      0x00\n      keccak256\n        /* \"contracts/location.sol\":1281:1384  devices[_public_address] = Device(0, 0, DeviceState.Created, _public_address, block.timestamp, 0, true) */\n      0x00\n      dup3\n      add\n      mload\n      dup2\n      0x00\n      add\n      sstore\n      0x20\n      dup3\n      add\n      mload\n      dup2\n      0x01\n      add\n      sstore\n      0x40\n      dup3\n      add\n      mload\n      dup2\n      0x02\n      add\n      exp(0x0100, 0x00)\n      dup2\n      sload\n      dup2\n      0xff\n      mul\n      not\n      and\n      swap1\n      dup4\n      0x03\n      dup2\n      gt\n      iszero\n      tag_148\n      jumpi\n      tag_149\n      tag_147\n      jump\t// in\n    tag_149:\n    tag_148:\n      mul\n      or\n      swap1\n      sstore\n      pop\n      0x60\n      dup3\n      add\n      mload\n      dup2\n      0x02\n      add\n      exp(0x0100, 0x01)\n      dup2\n      sload\n      dup2\n      0xffffffffffffffffffffffffffffffffffffffff\n      mul\n      not\n      and\n      swap1\n      dup4\n      0xffffffffffffffffffffffffffffffffffffffff\n      and\n      mul\n      or\n      swap1\n      sstore\n      pop\n      0x80\n      dup3\n      add\n      mload\n      dup2\n      0x03\n      add\n      sstore\n      0xa0\n      dup3\n      add\n      mload\n      dup2\n      0x04\n      add\n      sstore\n      0xc0\n      dup3\n      add\n      mload\n      dup2\n      0x05\n      add\n      exp(0x0100, 0x00)\n      dup2\n      sload\n      dup2\n      0xff\n      mul\n      not\n      and\n      swap1\n      dup4\n      iszero\n      iszero\n      mul\n      or\n      swap1\n      sstore\n      pop\n      swap1\n      pop\n      pop\n        /* \"contracts/location.sol\":1184:1391  function addDriver(address _public_address) external onlyOwner {... */\n      pop\n      jump\t// out\n        /* \"contracts/ERC20.sol\":3302:3418  function balanceOf(address account) public view virtual returns (uint256) {... */\n    tag_74:\n        /* \"contracts/ERC20.sol\":3367:3374  uint256 */\n      0x00\n        /* \"contracts/ERC20.sol\":3393:3402  _balances */\n      dup1\n        /* \"contracts/ERC20.sol\":3393:3411  _balances[account] */\n      0x00\n        /* \"contracts/ERC20.sol\":3403:3410  account */\n      dup4\n        /* \"contracts/ERC20.sol\":3393:3411  _balances[account] */\n      0xffffffffffffffffffffffffffffffffffffffff\n      and\n      0xffffffffffffffffffffffffffffffffffffffff\n      and\n      dup2\n      mstore\n      0x20\n      add\n      swap1\n      dup2\n      mstore\n      0x20\n      add\n      0x00\n      keccak256\n      sload\n        /* \"contracts/ERC20.sol\":3386:3411  return _balances[account] */\n      swap1\n      pop\n        /* \"contracts/ERC20.sol\":3302:3418  function balanceOf(address account) public view virtual returns (uint256) {... */\n      swap2\n      swap1\n      pop\n      jump\t// out\n        /* \"contracts/location.sol\":219:240  uint public startTime */\n    tag_77:\n      sload(0x09)\n      dup2\n      jump\t// out\n        /* \"contracts/location.sol\":116:136  address public owner */\n    tag_80:\n      0x05\n      0x00\n      swap1\n      sload\n      swap1\n      0x0100\n      exp\n      swap1\n      div\n      0xffffffffffffffffffffffffffffffffffffffff\n      and\n      dup2\n      jump\t// out\n        /* \"contracts/location.sol\":2955:3320  function getDevice() public view returns (uint complianceCount, uint nonComplianceCount, DeviceState deviceState) {... */\n    tag_84:\n        /* \"contracts/location.sol\":2997:3017  uint complianceCount */\n      0x00\n        /* \"contracts/location.sol\":3019:3042  uint nonComplianceCount */\n      dup1\n        /* \"contracts/location.sol\":3044:3067  DeviceState deviceState */\n      0x00\n        /* \"contracts/location.sol\":3133:3134  0 */\n      dup1\n        /* \"contracts/location.sol\":3087:3135  devices[msg.sender].public_address != address(0) */\n      0xffffffffffffffffffffffffffffffffffffffff\n      and\n        /* \"contracts/location.sol\":3087:3094  devices */\n      0x0c\n        /* \"contracts/location.sol\":3087:3106  devices[msg.sender] */\n      0x00\n        /* \"contracts/location.sol\":3095:3105  msg.sender */\n      caller\n        /* \"contracts/location.sol\":3087:3106  devices[msg.sender] */\n      0xffffffffffffffffffffffffffffffffffffffff\n      and\n      0xffffffffffffffffffffffffffffffffffffffff\n      and\n      dup2\n      mstore\n      0x20\n      add\n      swap1\n      dup2\n      mstore\n      0x20\n      add\n      0x00\n      keccak256\n        /* \"contracts/location.sol\":3087:3121  devices[msg.sender].public_address */\n      0x02\n      add\n      0x01\n      swap1\n      sload\n      swap1\n      0x0100\n      exp\n      swap1\n      div\n      0xffffffffffffffffffffffffffffffffffffffff\n      and\n        /* \"contracts/location.sol\":3087:3135  devices[msg.sender].public_address != address(0) */\n      0xffffffffffffffffffffffffffffffffffffffff\n      and\n      sub\n        /* \"contracts/location.sol\":3079:3161  require(devices[msg.sender].public_address != address(0), \"Device not registered\") */\n      tag_152\n      jumpi\n      mload(0x40)\n      0x08c379a000000000000000000000000000000000000000000000000000000000\n      dup2\n      mstore\n      0x04\n      add\n      tag_153\n      swap1\n      tag_154\n      jump\t// in\n    tag_153:\n      mload(0x40)\n      dup1\n      swap2\n      sub\n      swap1\n      revert\n    tag_152:\n        /* \"contracts/location.sol\":3171:3194  Device memory curDevice */\n      0x00\n        /* \"contracts/location.sol\":3197:3204  devices */\n      0x0c\n        /* \"contracts/location.sol\":3197:3216  devices[msg.sender] */\n      0x00\n        /* \"contracts/location.sol\":3205:3215  msg.sender */\n      caller\n        /* \"contracts/location.sol\":3197:3216  devices[msg.sender] */\n      0xffffffffffffffffffffffffffffffffffffffff\n      and\n      0xffffffffffffffffffffffffffffffffffffffff\n      and\n      dup2\n      mstore\n      0x20\n      add\n      swap1\n      dup2\n      mstore\n      0x20\n      add\n      0x00\n      keccak256\n        /* \"contracts/location.sol\":3171:3216  Device memory curDevice = devices[msg.sender] */\n      mload(0x40)\n      dup1\n      0xe0\n      add\n      0x40\n      mstore\n      swap1\n      dup2\n      0x00\n      dup3\n      add\n      sload\n      dup2\n      mstore\n      0x20\n      add\n      0x01\n      dup3\n      add\n      sload\n      dup2\n      mstore\n      0x20\n      add\n      0x02\n      dup3\n      add\n      0x00\n      swap1\n      sload\n      swap1\n      0x0100\n      exp\n      swap1\n      div\n      0xff\n      and\n      0x03\n      dup2\n      gt\n      iszero\n      tag_155\n      jumpi\n      tag_156\n      tag_147\n      jump\t// in\n    tag_156:\n    tag_155:\n      0x03\n      dup2\n      gt\n      iszero\n      tag_157\n      jumpi\n      tag_158\n      tag_147\n      jump\t// in\n    tag_158:\n    tag_157:\n      dup2\n      mstore\n      0x20\n      add\n      0x02\n      dup3\n      add\n      0x01\n      swap1\n      sload\n      swap1\n      0x0100\n      exp\n      swap1\n      div\n      0xffffffffffffffffffffffffffffffffffffffff\n      and\n      0xffffffffffffffffffffffffffffffffffffffff\n      and\n      0xffffffffffffffffffffffffffffffffffffffff\n      and\n      dup2\n      mstore\n      0x20\n      add\n      0x03\n      dup3\n      add\n      sload\n      dup2\n      mstore\n      0x20\n      add\n      0x04\n      dup3\n      add\n      sload\n      dup2\n      mstore\n      0x20\n      add\n      0x05\n      dup3\n      add\n      0x00\n      swap1\n      sload\n      swap1\n      0x0100\n      exp\n      swap1\n      div\n      0xff\n      and\n      iszero\n      iszero\n      iszero\n      iszero\n      dup2\n      mstore\n      pop\n      pop\n      swap1\n      pop\n        /* \"contracts/location.sol\":3234:3243  curDevice */\n      dup1\n        /* \"contracts/location.sol\":3234:3259  curDevice.complianceCount */\n      0x00\n      add\n      mload\n        /* \"contracts/location.sol\":3261:3270  curDevice */\n      dup2\n        /* \"contracts/location.sol\":3261:3289  curDevice.nonComplianceCount */\n      0x20\n      add\n      mload\n        /* \"contracts/location.sol\":3291:3300  curDevice */\n      dup3\n        /* \"contracts/location.sol\":3291:3312  curDevice.deviceState */\n      0x40\n      add\n      mload\n        /* \"contracts/location.sol\":3226:3313  return (curDevice.complianceCount, curDevice.nonComplianceCount, curDevice.deviceState) */\n      swap4\n      pop\n      swap4\n      pop\n      swap4\n      pop\n      pop\n        /* \"contracts/location.sol\":2955:3320  function getDevice() public view returns (uint complianceCount, uint nonComplianceCount, DeviceState deviceState) {... */\n      swap1\n      swap2\n      swap3\n      jump\t// out\n        /* \"contracts/ERC20.sol\":2279:2372  function symbol() public view virtual returns (string memory) {... */\n    tag_88:\n        /* \"contracts/ERC20.sol\":2326:2339  string memory */\n      0x60\n        /* \"contracts/ERC20.sol\":2358:2365  _symbol */\n      0x04\n        /* \"contracts/ERC20.sol\":2351:2365  return _symbol */\n      dup1\n      sload\n      tag_160\n      swap1\n      tag_116\n      jump\t// in\n    tag_160:\n      dup1\n      0x1f\n      add\n      0x20\n      dup1\n      swap2\n      div\n      mul\n      0x20\n      add\n      mload(0x40)\n      swap1\n      dup2\n      add\n      0x40\n      mstore\n      dup1\n      swap3\n      swap2\n      swap1\n      dup2\n      dup2\n      mstore\n      0x20\n      add\n      dup3\n      dup1\n      sload\n      tag_161\n      swap1\n      tag_116\n      jump\t// in\n    tag_161:\n      dup1\n      iszero\n      tag_162\n      jumpi\n      dup1\n      0x1f\n      lt\n      tag_163\n      jumpi\n      0x0100\n      dup1\n      dup4\n      sload\n      div\n      mul\n      dup4\n      mstore\n      swap2\n      0x20\n      add\n      swap2\n      jump(tag_162)\n    tag_163:\n      dup3\n      add\n      swap2\n      swap1\n      0x00\n      mstore\n      keccak256(0x00, 0x20)\n      swap1\n    tag_164:\n      dup2\n      sload\n      dup2\n      mstore\n      swap1\n      0x01\n      add\n      swap1\n      0x20\n      add\n      dup1\n      dup4\n      gt\n      tag_164\n      jumpi\n      dup3\n      swap1\n      sub\n      0x1f\n      and\n      dup3\n      add\n      swap2\n    tag_162:\n      pop\n      pop\n      pop\n      pop\n      pop\n      swap1\n      pop\n        /* \"contracts/ERC20.sol\":2279:2372  function symbol() public view virtual returns (string memory) {... */\n      swap1\n      jump\t// out\n        /* \"contracts/location.sol\":648:671  uint public DeviceCount */\n    tag_91:\n      sload(0x0d)\n      dup2\n      jump\t// out\n        /* \"contracts/ERC20.sol\":3613:3791  function transfer(address to, uint256 value) public virtual returns (bool) {... */\n    tag_95:\n        /* \"contracts/ERC20.sol\":3682:3686  bool */\n      0x00\n        /* \"contracts/ERC20.sol\":3698:3711  address owner */\n      dup1\n        /* \"contracts/ERC20.sol\":3714:3726  _msgSender() */\n      tag_166\n        /* \"contracts/ERC20.sol\":3714:3724  _msgSender */\n      tag_123\n        /* \"contracts/ERC20.sol\":3714:3726  _msgSender() */\n      jump\t// in\n    tag_166:\n        /* \"contracts/ERC20.sol\":3698:3726  address owner = _msgSender() */\n      swap1\n      pop\n        /* \"contracts/ERC20.sol\":3736:3763  _transfer(owner, to, value) */\n      tag_167\n        /* \"contracts/ERC20.sol\":3746:3751  owner */\n      dup2\n        /* \"contracts/ERC20.sol\":3753:3755  to */\n      dup6\n        /* \"contracts/ERC20.sol\":3757:3762  value */\n      dup6\n        /* \"contracts/ERC20.sol\":3736:3745  _transfer */\n      tag_132\n        /* \"contracts/ERC20.sol\":3736:3763  _transfer(owner, to, value) */\n      jump\t// in\n    tag_167:\n        /* \"contracts/ERC20.sol\":3780:3784  true */\n      0x01\n        /* \"contracts/ERC20.sol\":3773:3784  return true */\n      swap2\n      pop\n      pop\n        /* \"contracts/ERC20.sol\":3613:3791  function transfer(address to, uint256 value) public virtual returns (bool) {... */\n      swap3\n      swap2\n      pop\n      pop\n      jump\t// out\n        /* \"contracts/location.sol\":1397:2285  function optIn(uint _latitude, uint _longitude) external {... */\n    tag_100:\n        /* \"contracts/location.sol\":1515:1516  0 */\n      0x00\n        /* \"contracts/location.sol\":1469:1517  devices[msg.sender].public_address != address(0) */\n      0xffffffffffffffffffffffffffffffffffffffff\n      and\n        /* \"contracts/location.sol\":1469:1476  devices */\n      0x0c\n        /* \"contracts/location.sol\":1469:1488  devices[msg.sender] */\n      0x00\n        /* \"contracts/location.sol\":1477:1487  msg.sender */\n      caller\n        /* \"contracts/location.sol\":1469:1488  devices[msg.sender] */\n      0xffffffffffffffffffffffffffffffffffffffff\n      and\n      0xffffffffffffffffffffffffffffffffffffffff\n      and\n      dup2\n      mstore\n      0x20\n      add\n      swap1\n      dup2\n      mstore\n      0x20\n      add\n      0x00\n      keccak256\n        /* \"contracts/location.sol\":1469:1503  devices[msg.sender].public_address */\n      0x02\n      add\n      0x01\n      swap1\n      sload\n      swap1\n      0x0100\n      exp\n      swap1\n      div\n      0xffffffffffffffffffffffffffffffffffffffff\n      and\n        /* \"contracts/location.sol\":1469:1517  devices[msg.sender].public_address != address(0) */\n      0xffffffffffffffffffffffffffffffffffffffff\n      and\n      sub\n        /* \"contracts/location.sol\":1461:1543  require(devices[msg.sender].public_address != address(0), \"Device not registered\") */\n      tag_169\n      jumpi\n      mload(0x40)\n      0x08c379a000000000000000000000000000000000000000000000000000000000\n      dup2\n      mstore\n      0x04\n      add\n      tag_170\n      swap1\n      tag_154\n      jump\t// in\n    tag_170:\n      mload(0x40)\n      dup1\n      swap2\n      sub\n      swap1\n      revert\n    tag_169:\n        /* \"contracts/location.sol\":1557:1564  devices */\n      0x0c\n        /* \"contracts/location.sol\":1557:1576  devices[msg.sender] */\n      0x00\n        /* \"contracts/location.sol\":1565:1575  msg.sender */\n      caller\n        /* \"contracts/location.sol\":1557:1576  devices[msg.sender] */\n      0xffffffffffffffffffffffffffffffffffffffff\n      and\n      0xffffffffffffffffffffffffffffffffffffffff\n      and\n      dup2\n      mstore\n      0x20\n      add\n      swap1\n      dup2\n      mstore\n      0x20\n      add\n      0x00\n      keccak256\n        /* \"contracts/location.sol\":1557:1585  devices[msg.sender].isActive */\n      0x05\n      add\n      0x00\n      swap1\n      sload\n      swap1\n      0x0100\n      exp\n      swap1\n      div\n      0xff\n      and\n        /* \"contracts/location.sol\":1549:1623  require(devices[msg.sender].isActive, \"the device Contract is not active\") */\n      tag_171\n      jumpi\n      mload(0x40)\n      0x08c379a000000000000000000000000000000000000000000000000000000000\n      dup2\n      mstore\n      0x04\n      add\n      tag_172\n      swap1\n      tag_173\n      jump\t// in\n    tag_172:\n      mload(0x40)\n      dup1\n      swap2\n      sub\n      swap1\n      revert\n    tag_171:\n        /* \"contracts/location.sol\":1656:1665  startTime */\n      sload(0x09)\n        /* \"contracts/location.sol\":1638:1653  block.timestamp */\n      timestamp\n        /* \"contracts/location.sol\":1638:1665  block.timestamp < startTime */\n      lt\n        /* \"contracts/location.sol\":1634:1985  if (block.timestamp < startTime) {... */\n      iszero\n      tag_174\n      jumpi\n        /* \"contracts/location.sol\":1677:1715  revert(\"Contract has not started yet\") */\n      mload(0x40)\n      0x08c379a000000000000000000000000000000000000000000000000000000000\n      dup2\n      mstore\n      0x04\n      add\n      tag_175\n      swap1\n      tag_176\n      jump\t// in\n    tag_175:\n      mload(0x40)\n      dup1\n      swap2\n      sub\n      swap1\n      revert\n        /* \"contracts/location.sol\":1634:1985  if (block.timestamp < startTime) {... */\n    tag_174:\n        /* \"contracts/location.sol\":1750:1757  endTime */\n      sload(0x0a)\n        /* \"contracts/location.sol\":1732:1747  block.timestamp */\n      timestamp\n        /* \"contracts/location.sol\":1732:1757  block.timestamp > endTime */\n      gt\n        /* \"contracts/location.sol\":1728:1985  if (block.timestamp > endTime) {... */\n      iszero\n      tag_178\n      jumpi\n        /* \"contracts/location.sol\":1801:1806  false */\n      0x00\n        /* \"contracts/location.sol\":1770:1777  devices */\n      0x0c\n        /* \"contracts/location.sol\":1770:1789  devices[msg.sender] */\n      0x00\n        /* \"contracts/location.sol\":1778:1788  msg.sender */\n      caller\n        /* \"contracts/location.sol\":1770:1789  devices[msg.sender] */\n      0xffffffffffffffffffffffffffffffffffffffff\n      and\n      0xffffffffffffffffffffffffffffffffffffffff\n      and\n      dup2\n      mstore\n      0x20\n      add\n      swap1\n      dup2\n      mstore\n      0x20\n      add\n      0x00\n      keccak256\n        /* \"contracts/location.sol\":1770:1798  devices[msg.sender].isActive */\n      0x05\n      add\n      0x00\n        /* \"contracts/location.sol\":1770:1806  devices[msg.sender].isActive = false */\n      0x0100\n      exp\n      dup2\n      sload\n      dup2\n      0xff\n      mul\n      not\n      and\n      swap1\n      dup4\n      iszero\n      iszero\n      mul\n      or\n      swap1\n      sstore\n      pop\n        /* \"contracts/location.sol\":1885:1897  rewardAmount */\n      sload(0x0b)\n        /* \"contracts/location.sol\":1851:1858  devices */\n      0x0c\n        /* \"contracts/location.sol\":1851:1870  devices[msg.sender] */\n      0x00\n        /* \"contracts/location.sol\":1859:1869  msg.sender */\n      caller\n        /* \"contracts/location.sol\":1851:1870  devices[msg.sender] */\n      0xffffffffffffffffffffffffffffffffffffffff\n      and\n      0xffffffffffffffffffffffffffffffffffffffff\n      and\n      dup2\n      mstore\n      0x20\n      add\n      swap1\n      dup2\n      mstore\n      0x20\n      add\n      0x00\n      keccak256\n        /* \"contracts/location.sol\":1851:1882  devices[msg.sender].payedAmount */\n      0x04\n      add\n        /* \"contracts/location.sol\":1851:1897  devices[msg.sender].payedAmount = rewardAmount */\n      dup2\n      swap1\n      sstore\n      pop\n        /* \"contracts/location.sol\":1941:1962  DeviceState.Completed */\n      0x03\n        /* \"contracts/location.sol\":1907:1914  devices */\n      0x0c\n        /* \"contracts/location.sol\":1907:1926  devices[msg.sender] */\n      0x00\n        /* \"contracts/location.sol\":1915:1925  msg.sender */\n      caller\n        /* \"contracts/location.sol\":1907:1926  devices[msg.sender] */\n      0xffffffffffffffffffffffffffffffffffffffff\n      and\n      0xffffffffffffffffffffffffffffffffffffffff\n      and\n      dup2\n      mstore\n      0x20\n      add\n      swap1\n      dup2\n      mstore\n      0x20\n      add\n      0x00\n      keccak256\n        /* \"contracts/location.sol\":1907:1938  devices[msg.sender].deviceState */\n      0x02\n      add\n      0x00\n        /* \"contracts/location.sol\":1907:1962  devices[msg.sender].deviceState = DeviceState.Completed */\n      0x0100\n      exp\n      dup2\n      sload\n      dup2\n      0xff\n      mul\n      not\n      and\n      swap1\n      dup4\n      0x03\n      dup2\n      gt\n      iszero\n      tag_179\n      jumpi\n      tag_180\n      tag_147\n      jump\t// in\n    tag_180:\n    tag_179:\n      mul\n      or\n      swap1\n      sstore\n      pop\n        /* \"contracts/location.sol\":1972:1979  return; */\n      jump(tag_168)\n        /* \"contracts/location.sol\":1728:1985  if (block.timestamp > endTime) {... */\n    tag_178:\n        /* \"contracts/location.sol\":1999:2035  _isWithinArea(_latitude, _longitude) */\n      tag_181\n        /* \"contracts/location.sol\":2013:2022  _latitude */\n      dup3\n        /* \"contracts/location.sol\":2024:2034  _longitude */\n      dup3\n        /* \"contracts/location.sol\":1999:2012  _isWithinArea */\n      tag_182\n        /* \"contracts/location.sol\":1999:2035  _isWithinArea(_latitude, _longitude) */\n      jump\t// in\n    tag_181:\n        /* \"contracts/location.sol\":1995:2279  if (_isWithinArea(_latitude, _longitude)) {... */\n      iszero\n      tag_183\n      jumpi\n        /* \"contracts/location.sol\":2047:2054  devices */\n      0x0c\n        /* \"contracts/location.sol\":2047:2066  devices[msg.sender] */\n      0x00\n        /* \"contracts/location.sol\":2055:2065  msg.sender */\n      caller\n        /* \"contracts/location.sol\":2047:2066  devices[msg.sender] */\n      0xffffffffffffffffffffffffffffffffffffffff\n      and\n      0xffffffffffffffffffffffffffffffffffffffff\n      and\n      dup2\n      mstore\n      0x20\n      add\n      swap1\n      dup2\n      mstore\n      0x20\n      add\n      0x00\n      keccak256\n        /* \"contracts/location.sol\":2047:2082  devices[msg.sender].complianceCount */\n      0x00\n      add\n      0x00\n        /* \"contracts/location.sol\":2047:2084  devices[msg.sender].complianceCount++ */\n      dup2\n      sload\n      dup1\n      swap3\n      swap2\n      swap1\n      tag_184\n      swap1\n      tag_144\n      jump\t// in\n    tag_184:\n      swap2\n      swap1\n      pop\n      sstore\n      pop\n        /* \"contracts/location.sol\":2128:2146  DeviceState.InZone */\n      0x01\n        /* \"contracts/location.sol\":2094:2101  devices */\n      0x0c\n        /* \"contracts/location.sol\":2094:2113  devices[msg.sender] */\n      0x00\n        /* \"contracts/location.sol\":2102:2112  msg.sender */\n      caller\n        /* \"contracts/location.sol\":2094:2113  devices[msg.sender] */\n      0xffffffffffffffffffffffffffffffffffffffff\n      and\n      0xffffffffffffffffffffffffffffffffffffffff\n      and\n      dup2\n      mstore\n      0x20\n      add\n      swap1\n      dup2\n      mstore\n      0x20\n      add\n      0x00\n      keccak256\n        /* \"contracts/location.sol\":2094:2125  devices[msg.sender].deviceState */\n      0x02\n      add\n      0x00\n        /* \"contracts/location.sol\":2094:2146  devices[msg.sender].deviceState = DeviceState.InZone */\n      0x0100\n      exp\n      dup2\n      sload\n      dup2\n      0xff\n      mul\n      not\n      and\n      swap1\n      dup4\n      0x03\n      dup2\n      gt\n      iszero\n      tag_185\n      jumpi\n      tag_186\n      tag_147\n      jump\t// in\n    tag_186:\n    tag_185:\n      mul\n      or\n      swap1\n      sstore\n      pop\n        /* \"contracts/location.sol\":1995:2279  if (_isWithinArea(_latitude, _longitude)) {... */\n      jump(tag_187)\n    tag_183:\n        /* \"contracts/location.sol\":2169:2176  devices */\n      0x0c\n        /* \"contracts/location.sol\":2169:2188  devices[msg.sender] */\n      0x00\n        /* \"contracts/location.sol\":2177:2187  msg.sender */\n      caller\n        /* \"contracts/location.sol\":2169:2188  devices[msg.sender] */\n      0xffffffffffffffffffffffffffffffffffffffff\n      and\n      0xffffffffffffffffffffffffffffffffffffffff\n      and\n      dup2\n      mstore\n      0x20\n      add\n      swap1\n      dup2\n      mstore\n      0x20\n      add\n      0x00\n      keccak256\n        /* \"contracts/location.sol\":2169:2207  devices[msg.sender].nonComplianceCount */\n      0x01\n      add\n      0x00\n        /* \"contracts/location.sol\":2169:2209  devices[msg.sender].nonComplianceCount++ */\n      dup2\n      sload\n      dup1\n      swap3\n      swap2\n      swap1\n      tag_188\n      swap1\n      tag_144\n      jump\t// in\n    tag_188:\n      swap2\n      swap1\n      pop\n      sstore\n      pop\n        /* \"contracts/location.sol\":2253:2272  DeviceState.OutZone */\n      0x02\n        /* \"contracts/location.sol\":2219:2226  devices */\n      0x0c\n        /* \"contracts/location.sol\":2219:2238  devices[msg.sender] */\n      0x00\n        /* \"contracts/location.sol\":2227:2237  msg.sender */\n      caller\n        /* \"contracts/location.sol\":2219:2238  devices[msg.sender] */\n      0xffffffffffffffffffffffffffffffffffffffff\n      and\n      0xffffffffffffffffffffffffffffffffffffffff\n      and\n      dup2\n      mstore\n      0x20\n      add\n      swap1\n      dup2\n      mstore\n      0x20\n      add\n      0x00\n      keccak256\n        /* \"contracts/location.sol\":2219:2250  devices[msg.sender].deviceState */\n      0x02\n      add\n      0x00\n        /* \"contracts/location.sol\":2219:2272  devices[msg.sender].deviceState = DeviceState.OutZone */\n      0x0100\n      exp\n      dup2\n      sload\n      dup2\n      0xff\n      mul\n      not\n      and\n      swap1\n      dup4\n      0x03\n      dup2\n      gt\n      iszero\n      tag_189\n      jumpi\n      tag_190\n      tag_147\n      jump\t// in\n    tag_190:\n    tag_189:\n      mul\n      or\n      swap1\n      sstore\n      pop\n        /* \"contracts/location.sol\":1995:2279  if (_isWithinArea(_latitude, _longitude)) {... */\n    tag_187:\n        /* \"contracts/location.sol\":1397:2285  function optIn(uint _latitude, uint _longitude) external {... */\n    tag_168:\n      pop\n      pop\n      jump\t// out\n        /* \"contracts/ERC20.sol\":3849:3989  function allowance(address owner, address spender) public view virtual returns (uint256) {... */\n    tag_104:\n        /* \"contracts/ERC20.sol\":3929:3936  uint256 */\n      0x00\n        /* \"contracts/ERC20.sol\":3955:3966  _allowances */\n      0x01\n        /* \"contracts/ERC20.sol\":3955:3973  _allowances[owner] */\n      0x00\n        /* \"contracts/ERC20.sol\":3967:3972  owner */\n      dup5\n        /* \"contracts/ERC20.sol\":3955:3973  _allowances[owner] */\n      0xffffffffffffffffffffffffffffffffffffffff\n      and\n      0xffffffffffffffffffffffffffffffffffffffff\n      and\n      dup2\n      mstore\n      0x20\n      add\n      swap1\n      dup2\n      mstore\n      0x20\n      add\n      0x00\n      keccak256\n        /* \"contracts/ERC20.sol\":3955:3982  _allowances[owner][spender] */\n      0x00\n        /* \"contracts/ERC20.sol\":3974:3981  spender */\n      dup4\n        /* \"contracts/ERC20.sol\":3955:3982  _allowances[owner][spender] */\n      0xffffffffffffffffffffffffffffffffffffffff\n      and\n      0xffffffffffffffffffffffffffffffffffffffff\n      and\n      dup2\n      mstore\n      0x20\n      add\n      swap1\n      dup2\n      mstore\n      0x20\n      add\n      0x00\n      keccak256\n      sload\n        /* \"contracts/ERC20.sol\":3948:3982  return _allowances[owner][spender] */\n      swap1\n      pop\n        /* \"contracts/ERC20.sol\":3849:3989  function allowance(address owner, address spender) public view virtual returns (uint256) {... */\n      swap3\n      swap2\n      pop\n      pop\n      jump\t// out\n        /* \"contracts/location.sol\":601:642  mapping(address => Device) public devices */\n    tag_108:\n      mstore(0x20, 0x0c)\n      dup1\n      0x00\n      mstore\n      keccak256(0x00, 0x40)\n      0x00\n      swap2\n      pop\n      swap1\n      pop\n      dup1\n      0x00\n      add\n      sload\n      swap1\n      dup1\n      0x01\n      add\n      sload\n      swap1\n      dup1\n      0x02\n      add\n      0x00\n      swap1\n      sload\n      swap1\n      0x0100\n      exp\n      swap1\n      div\n      0xff\n      and\n      swap1\n      dup1\n      0x02\n      add\n      0x01\n      swap1\n      sload\n      swap1\n      0x0100\n      exp\n      swap1\n      div\n      0xffffffffffffffffffffffffffffffffffffffff\n      and\n      swap1\n      dup1\n      0x03\n      add\n      sload\n      swap1\n      dup1\n      0x04\n      add\n      sload\n      swap1\n      dup1\n      0x05\n      add\n      0x00\n      swap1\n      sload\n      swap1\n      0x0100\n      exp\n      swap1\n      div\n      0xff\n      and\n      swap1\n      pop\n      dup8\n      jump\t// out\n        /* \"contracts/location.sol\":271:295  uint public rewardAmount */\n    tag_112:\n      sload(0x0b)\n      dup2\n      jump\t// out\n        /* \"utils/Context.sol\":656:752  function _msgSender() internal view virtual returns (address) {... */\n    tag_123:\n        /* \"utils/Context.sol\":709:716  address */\n      0x00\n        /* \"utils/Context.sol\":735:745  msg.sender */\n      caller\n        /* \"utils/Context.sol\":728:745  return msg.sender */\n      swap1\n      pop\n        /* \"utils/Context.sol\":656:752  function _msgSender() internal view virtual returns (address) {... */\n      swap1\n      jump\t// out\n        /* \"contracts/ERC20.sol\":8992:9120  function _approve(address owner, address spender, uint256 value) internal {... */\n    tag_125:\n        /* \"contracts/ERC20.sol\":9076:9113  _approve(owner, spender, value, true) */\n      tag_194\n        /* \"contracts/ERC20.sol\":9085:9090  owner */\n      dup4\n        /* \"contracts/ERC20.sol\":9092:9099  spender */\n      dup4\n        /* \"contracts/ERC20.sol\":9101:9106  value */\n      dup4\n        /* \"contracts/ERC20.sol\":9108:9112  true */\n      0x01\n        /* \"contracts/ERC20.sol\":9076:9084  _approve */\n      tag_195\n        /* \"contracts/ERC20.sol\":9076:9113  _approve(owner, spender, value, true) */\n      jump\t// in\n    tag_194:\n        /* \"contracts/ERC20.sol\":8992:9120  function _approve(address owner, address spender, uint256 value) internal {... */\n      pop\n      pop\n      pop\n      jump\t// out\n        /* \"contracts/ERC20.sol\":10666:11143  function _spendAllowance(address owner, address spender, uint256 value) internal virtual {... */\n    tag_130:\n        /* \"contracts/ERC20.sol\":10765:10789  uint256 currentAllowance */\n      0x00\n        /* \"contracts/ERC20.sol\":10792:10817  allowance(owner, spender) */\n      tag_197\n        /* \"contracts/ERC20.sol\":10802:10807  owner */\n      dup5\n        /* \"contracts/ERC20.sol\":10809:10816  spender */\n      dup5\n        /* \"contracts/ERC20.sol\":10792:10801  allowance */\n      tag_104\n        /* \"contracts/ERC20.sol\":10792:10817  allowance(owner, spender) */\n      jump\t// in\n    tag_197:\n        /* \"contracts/ERC20.sol\":10765:10817  uint256 currentAllowance = allowance(owner, spender) */\n      swap1\n      pop\n        /* \"contracts/ERC20.sol\":10851:10868  type(uint256).max */\n      0xffffffffffffffffffffffffffffffffffffffffffffffffffffffffffffffff\n        /* \"contracts/ERC20.sol\":10831:10847  currentAllowance */\n      dup2\n        /* \"contracts/ERC20.sol\":10831:10868  currentAllowance != type(uint256).max */\n      eq\n        /* \"contracts/ERC20.sol\":10827:11137  if (currentAllowance != type(uint256).max) {... */\n      tag_198\n      jumpi\n        /* \"contracts/ERC20.sol\":10907:10912  value */\n      dup2\n        /* \"contracts/ERC20.sol\":10888:10904  currentAllowance */\n      dup2\n        /* \"contracts/ERC20.sol\":10888:10912  currentAllowance < value */\n      lt\n        /* \"contracts/ERC20.sol\":10884:11014  if (currentAllowance < value) {... */\n      iszero\n      tag_199\n      jumpi\n        /* \"contracts/ERC20.sol\":10966:10973  spender */\n      dup3\n        /* \"contracts/ERC20.sol\":10975:10991  currentAllowance */\n      dup2\n        /* \"contracts/ERC20.sol\":10993:10998  value */\n      dup4\n        /* \"contracts/ERC20.sol\":10939:10999  ERC20InsufficientAllowance(spender, currentAllowance, value) */\n      mload(0x40)\n      0xfb8f41b200000000000000000000000000000000000000000000000000000000\n      dup2\n      mstore\n      0x04\n      add\n      tag_200\n      swap4\n      swap3\n      swap2\n      swap1\n      tag_201\n      jump\t// in\n    tag_200:\n      mload(0x40)\n      dup1\n      swap2\n      sub\n      swap1\n      revert\n        /* \"contracts/ERC20.sol\":10884:11014  if (currentAllowance < value) {... */\n    tag_199:\n        /* \"contracts/ERC20.sol\":11055:11112  _approve(owner, spender, currentAllowance - value, false) */\n      tag_202\n        /* \"contracts/ERC20.sol\":11064:11069  owner */\n      dup5\n        /* \"contracts/ERC20.sol\":11071:11078  spender */\n      dup5\n        /* \"contracts/ERC20.sol\":11099:11104  value */\n      dup5\n        /* \"contracts/ERC20.sol\":11080:11096  currentAllowance */\n      dup5\n        /* \"contracts/ERC20.sol\":11080:11104  currentAllowance - value */\n      sub\n        /* \"contracts/ERC20.sol\":11106:11111  false */\n      0x00\n        /* \"contracts/ERC20.sol\":11055:11063  _approve */\n      tag_195\n        /* \"contracts/ERC20.sol\":11055:11112  _approve(owner, spender, currentAllowance - value, false) */\n      jump\t// in\n    tag_202:\n        /* \"contracts/ERC20.sol\":10827:11137  if (currentAllowance != type(uint256).max) {... */\n    tag_198:\n        /* \"contracts/ERC20.sol\":10755:11143  {... */\n      pop\n        /* \"contracts/ERC20.sol\":10666:11143  function _spendAllowance(address owner, address spender, uint256 value) internal virtual {... */\n      pop\n      pop\n      pop\n      jump\t// out\n        /* \"contracts/ERC20.sol\":5659:5959  function _transfer(address from, address to, uint256 value) internal {... */\n    tag_132:\n        /* \"contracts/ERC20.sol\":5758:5759  0 */\n      0x00\n        /* \"contracts/ERC20.sol\":5742:5760  from == address(0) */\n      0xffffffffffffffffffffffffffffffffffffffff\n      and\n        /* \"contracts/ERC20.sol\":5742:5746  from */\n      dup4\n        /* \"contracts/ERC20.sol\":5742:5760  from == address(0) */\n      0xffffffffffffffffffffffffffffffffffffffff\n      and\n      sub\n        /* \"contracts/ERC20.sol\":5738:5824  if (from == address(0)) {... */\n      tag_204\n      jumpi\n        /* \"contracts/ERC20.sol\":5810:5811  0 */\n      0x00\n        /* \"contracts/ERC20.sol\":5783:5813  ERC20InvalidSender(address(0)) */\n      mload(0x40)\n      0x96c6fd1e00000000000000000000000000000000000000000000000000000000\n      dup2\n      mstore\n      0x04\n      add\n      tag_205\n      swap2\n      swap1\n      tag_82\n      jump\t// in\n    tag_205:\n      mload(0x40)\n      dup1\n      swap2\n      sub\n      swap1\n      revert\n        /* \"contracts/ERC20.sol\":5738:5824  if (from == address(0)) {... */\n    tag_204:\n        /* \"contracts/ERC20.sol\":5851:5852  0 */\n      0x00\n        /* \"contracts/ERC20.sol\":5837:5853  to == address(0) */\n      0xffffffffffffffffffffffffffffffffffffffff\n      and\n        /* \"contracts/ERC20.sol\":5837:5839  to */\n      dup3\n        /* \"contracts/ERC20.sol\":5837:5853  to == address(0) */\n      0xffffffffffffffffffffffffffffffffffffffff\n      and\n      sub\n        /* \"contracts/ERC20.sol\":5833:5919  if (to == address(0)) {... */\n      tag_206\n      jumpi\n        /* \"contracts/ERC20.sol\":5905:5906  0 */\n      0x00\n        /* \"contracts/ERC20.sol\":5876:5908  ERC20InvalidReceiver(address(0)) */\n      mload(0x40)\n      0xec442f0500000000000000000000000000000000000000000000000000000000\n      dup2\n      mstore\n      0x04\n      add\n      tag_207\n      swap2\n      swap1\n      tag_82\n      jump\t// in\n    tag_207:\n      mload(0x40)\n      dup1\n      swap2\n      sub\n      swap1\n      revert\n        /* \"contracts/ERC20.sol\":5833:5919  if (to == address(0)) {... */\n    tag_206:\n        /* \"contracts/ERC20.sol\":5928:5952  _update(from, to, value) */\n      tag_208\n        /* \"contracts/ERC20.sol\":5936:5940  from */\n      dup4\n        /* \"contracts/ERC20.sol\":5942:5944  to */\n      dup4\n        /* \"contracts/ERC20.sol\":5946:5951  value */\n      dup4\n        /* \"contracts/ERC20.sol\":5928:5935  _update */\n      tag_209\n        /* \"contracts/ERC20.sol\":5928:5952  _update(from, to, value) */\n      jump\t// in\n    tag_208:\n        /* \"contracts/ERC20.sol\":5659:5959  function _transfer(address from, address to, uint256 value) internal {... */\n      pop\n      pop\n      pop\n      jump\t// out\n        /* \"contracts/location.sol\":2291:2586  function _isWithinArea(uint _latitude, uint _longitude) private view returns (bool) {... */\n    tag_182:\n        /* \"contracts/location.sol\":2369:2373  bool */\n      0x00\n        /* \"contracts/location.sol\":2466:2479  uint distance */\n      dup1\n        /* \"contracts/location.sol\":2482:2544  _calculateDistance(latitude, longitude, _latitude, _longitude) */\n      tag_211\n        /* \"contracts/location.sol\":2501:2509  latitude */\n      sload(0x06)\n        /* \"contracts/location.sol\":2511:2520  longitude */\n      sload(0x07)\n        /* \"contracts/location.sol\":2522:2531  _latitude */\n      dup7\n        /* \"contracts/location.sol\":2533:2543  _longitude */\n      dup7\n        /* \"contracts/location.sol\":2482:2500  _calculateDistance */\n      tag_63\n        /* \"contracts/location.sol\":2482:2544  _calculateDistance(latitude, longitude, _latitude, _longitude) */\n      jump\t// in\n    tag_211:\n        /* \"contracts/location.sol\":2466:2544  uint distance = _calculateDistance(latitude, longitude, _latitude, _longitude) */\n      swap1\n      pop\n        /* \"contracts/location.sol\":2573:2579  radius */\n      sload(0x08)\n        /* \"contracts/location.sol\":2561:2569  distance */\n      dup2\n        /* \"contracts/location.sol\":2561:2579  distance <= radius */\n      gt\n      iszero\n        /* \"contracts/location.sol\":2554:2579  return distance <= radius */\n      swap2\n      pop\n      pop\n        /* \"contracts/location.sol\":2291:2586  function _isWithinArea(uint _latitude, uint _longitude) private view returns (bool) {... */\n      swap3\n      swap2\n      pop\n      pop\n      jump\t// out\n        /* \"contracts/ERC20.sol\":9952:10384  function _approve(address owner, address spender, uint256 value, bool emitEvent) internal virtual {... */\n    tag_195:\n        /* \"contracts/ERC20.sol\":10081:10082  0 */\n      0x00\n        /* \"contracts/ERC20.sol\":10064:10083  owner == address(0) */\n      0xffffffffffffffffffffffffffffffffffffffff\n      and\n        /* \"contracts/ERC20.sol\":10064:10069  owner */\n      dup5\n        /* \"contracts/ERC20.sol\":10064:10083  owner == address(0) */\n      0xffffffffffffffffffffffffffffffffffffffff\n      and\n      sub\n        /* \"contracts/ERC20.sol\":10060:10149  if (owner == address(0)) {... */\n      tag_213\n      jumpi\n        /* \"contracts/ERC20.sol\":10135:10136  0 */\n      0x00\n        /* \"contracts/ERC20.sol\":10106:10138  ERC20InvalidApprover(address(0)) */\n      mload(0x40)\n      0xe602df0500000000000000000000000000000000000000000000000000000000\n      dup2\n      mstore\n      0x04\n      add\n      tag_214\n      swap2\n      swap1\n      tag_82\n      jump\t// in\n    tag_214:\n      mload(0x40)\n      dup1\n      swap2\n      sub\n      swap1\n      revert\n        /* \"contracts/ERC20.sol\":10060:10149  if (owner == address(0)) {... */\n    tag_213:\n        /* \"contracts/ERC20.sol\":10181:10182  0 */\n      0x00\n        /* \"contracts/ERC20.sol\":10162:10183  spender == address(0) */\n      0xffffffffffffffffffffffffffffffffffffffff\n      and\n        /* \"contracts/ERC20.sol\":10162:10169  spender */\n      dup4\n        /* \"contracts/ERC20.sol\":10162:10183  spender == address(0) */\n      0xffffffffffffffffffffffffffffffffffffffff\n      and\n      sub\n        /* \"contracts/ERC20.sol\":10158:10248  if (spender == address(0)) {... */\n      tag_215\n      jumpi\n        /* \"contracts/ERC20.sol\":10234:10235  0 */\n      0x00\n        /* \"contracts/ERC20.sol\":10206:10237  ERC20InvalidSpender(address(0)) */\n      mload(0x40)\n      0x94280d6200000000000000000000000000000000000000000000000000000000\n      dup2\n      mstore\n      0x04\n      add\n      tag_216\n      swap2\n      swap1\n      tag_82\n      jump\t// in\n    tag_216:\n      mload(0x40)\n      dup1\n      swap2\n      sub\n      swap1\n      revert\n        /* \"contracts/ERC20.sol\":10158:10248  if (spender == address(0)) {... */\n    tag_215:\n        /* \"contracts/ERC20.sol\":10287:10292  value */\n      dup2\n        /* \"contracts/ERC20.sol\":10257:10268  _allowances */\n      0x01\n        /* \"contracts/ERC20.sol\":10257:10275  _allowances[owner] */\n      0x00\n        /* \"contracts/ERC20.sol\":10269:10274  owner */\n      dup7\n        /* \"contracts/ERC20.sol\":10257:10275  _allowances[owner] */\n      0xffffffffffffffffffffffffffffffffffffffff\n      and\n      0xffffffffffffffffffffffffffffffffffffffff\n      and\n      dup2\n      mstore\n      0x20\n      add\n      swap1\n      dup2\n      mstore\n      0x20\n      add\n      0x00\n      keccak256\n        /* \"contracts/ERC20.sol\":10257:10284  _allowances[owner][spender] */\n      0x00\n        /* \"contracts/ERC20.sol\":10276:10283  spender */\n      dup6\n        /* \"contracts/ERC20.sol\":10257:10284  _allowances[owner][spender] */\n      0xffffffffffffffffffffffffffffffffffffffff\n      and\n      0xffffffffffffffffffffffffffffffffffffffff\n      and\n      dup2\n      mstore\n      0x20\n      add\n      swap1\n      dup2\n      mstore\n      0x20\n      add\n      0x00\n      keccak256\n        /* \"contracts/ERC20.sol\":10257:10292  _allowances[owner][spender] = value */\n      dup2\n      swap1\n      sstore\n      pop\n        /* \"contracts/ERC20.sol\":10306:10315  emitEvent */\n      dup1\n        /* \"contracts/ERC20.sol\":10302:10378  if (emitEvent) {... */\n      iszero\n      tag_217\n      jumpi\n        /* \"contracts/ERC20.sol\":10352:10359  spender */\n      dup3\n        /* \"contracts/ERC20.sol\":10336:10367  Approval(owner, spender, value) */\n      0xffffffffffffffffffffffffffffffffffffffff\n      and\n        /* \"contracts/ERC20.sol\":10345:10350  owner */\n      dup5\n        /* \"contracts/ERC20.sol\":10336:10367  Approval(owner, spender, value) */\n      0xffffffffffffffffffffffffffffffffffffffff\n      and\n      0x8c5be1e5ebec7d5bd14f71427d1e84f3dd0314c0f7b2291e5b200ac8c7c3b925\n        /* \"contracts/ERC20.sol\":10361:10366  value */\n      dup5\n        /* \"contracts/ERC20.sol\":10336:10367  Approval(owner, spender, value) */\n      mload(0x40)\n      tag_218\n      swap2\n      swap1\n      tag_41\n      jump\t// in\n    tag_218:\n      mload(0x40)\n      dup1\n      swap2\n      sub\n      swap1\n      log3\n        /* \"contracts/ERC20.sol\":10302:10378  if (emitEvent) {... */\n    tag_217:\n        /* \"contracts/ERC20.sol\":9952:10384  function _approve(address owner, address spender, uint256 value, bool emitEvent) internal virtual {... */\n      pop\n      pop\n      pop\n      pop\n      jump\t// out\n        /* \"contracts/ERC20.sol\":6274:7381  function _update(address from, address to, uint256 value) internal virtual {... */\n    tag_209:\n        /* \"contracts/ERC20.sol\":6379:6380  0 */\n      0x00\n        /* \"contracts/ERC20.sol\":6363:6381  from == address(0) */\n      0xffffffffffffffffffffffffffffffffffffffff\n      and\n        /* \"contracts/ERC20.sol\":6363:6367  from */\n      dup4\n        /* \"contracts/ERC20.sol\":6363:6381  from == address(0) */\n      0xffffffffffffffffffffffffffffffffffffffff\n      and\n      sub\n        /* \"contracts/ERC20.sol\":6359:6899  if (from == address(0)) {... */\n      tag_220\n      jumpi\n        /* \"contracts/ERC20.sol\":6515:6520  value */\n      dup1\n        /* \"contracts/ERC20.sol\":6499:6511  _totalSupply */\n      0x02\n      0x00\n        /* \"contracts/ERC20.sol\":6499:6520  _totalSupply += value */\n      dup3\n      dup3\n      sload\n      tag_221\n      swap2\n      swap1\n      tag_139\n      jump\t// in\n    tag_221:\n      swap3\n      pop\n      pop\n      dup2\n      swap1\n      sstore\n      pop\n        /* \"contracts/ERC20.sol\":6359:6899  if (from == address(0)) {... */\n      jump(tag_222)\n    tag_220:\n        /* \"contracts/ERC20.sol\":6551:6570  uint256 fromBalance */\n      0x00\n        /* \"contracts/ERC20.sol\":6573:6582  _balances */\n      dup1\n        /* \"contracts/ERC20.sol\":6573:6588  _balances[from] */\n      0x00\n        /* \"contracts/ERC20.sol\":6583:6587  from */\n      dup6\n        /* \"contracts/ERC20.sol\":6573:6588  _balances[from] */\n      0xffffffffffffffffffffffffffffffffffffffff\n      and\n      0xffffffffffffffffffffffffffffffffffffffff\n      and\n      dup2\n      mstore\n      0x20\n      add\n      swap1\n      dup2\n      mstore\n      0x20\n      add\n      0x00\n      keccak256\n      sload\n        /* \"contracts/ERC20.sol\":6551:6588  uint256 fromBalance = _balances[from] */\n      swap1\n      pop\n        /* \"contracts/ERC20.sol\":6620:6625  value */\n      dup2\n        /* \"contracts/ERC20.sol\":6606:6617  fromBalance */\n      dup2\n        /* \"contracts/ERC20.sol\":6606:6625  fromBalance < value */\n      lt\n        /* \"contracts/ERC20.sol\":6602:6717  if (fromBalance < value) {... */\n      iszero\n      tag_223\n      jumpi\n        /* \"contracts/ERC20.sol\":6677:6681  from */\n      dup4\n        /* \"contracts/ERC20.sol\":6683:6694  fromBalance */\n      dup2\n        /* \"contracts/ERC20.sol\":6696:6701  value */\n      dup4\n        /* \"contracts/ERC20.sol\":6652:6702  ERC20InsufficientBalance(from, fromBalance, value) */\n      mload(0x40)\n      0xe450d38c00000000000000000000000000000000000000000000000000000000\n      dup2\n      mstore\n      0x04\n      add\n      tag_224\n      swap4\n      swap3\n      swap2\n      swap1\n      tag_201\n      jump\t// in\n    tag_224:\n      mload(0x40)\n      dup1\n      swap2\n      sub\n      swap1\n      revert\n        /* \"contracts/ERC20.sol\":6602:6717  if (fromBalance < value) {... */\n    tag_223:\n        /* \"contracts/ERC20.sol\":6869:6874  value */\n      dup2\n        /* \"contracts/ERC20.sol\":6855:6866  fromBalance */\n      dup2\n        /* \"contracts/ERC20.sol\":6855:6874  fromBalance - value */\n      sub\n        /* \"contracts/ERC20.sol\":6837:6846  _balances */\n      0x00\n        /* \"contracts/ERC20.sol\":6837:6852  _balances[from] */\n      dup1\n        /* \"contracts/ERC20.sol\":6847:6851  from */\n      dup7\n        /* \"contracts/ERC20.sol\":6837:6852  _balances[from] */\n      0xffffffffffffffffffffffffffffffffffffffff\n      and\n      0xffffffffffffffffffffffffffffffffffffffff\n      and\n      dup2\n      mstore\n      0x20\n      add\n      swap1\n      dup2\n      mstore\n      0x20\n      add\n      0x00\n      keccak256\n        /* \"contracts/ERC20.sol\":6837:6874  _balances[from] = fromBalance - value */\n      dup2\n      swap1\n      sstore\n      pop\n        /* \"contracts/ERC20.sol\":6537:6899  {... */\n      pop\n        /* \"contracts/ERC20.sol\":6359:6899  if (from == address(0)) {... */\n    tag_222:\n        /* \"contracts/ERC20.sol\":6927:6928  0 */\n      0x00\n        /* \"contracts/ERC20.sol\":6913:6929  to == address(0) */\n      0xffffffffffffffffffffffffffffffffffffffff\n      and\n        /* \"contracts/ERC20.sol\":6913:6915  to */\n      dup3\n        /* \"contracts/ERC20.sol\":6913:6929  to == address(0) */\n      0xffffffffffffffffffffffffffffffffffffffff\n      and\n      sub\n        /* \"contracts/ERC20.sol\":6909:7334  if (to == address(0)) {... */\n      tag_225\n      jumpi\n        /* \"contracts/ERC20.sol\":7092:7097  value */\n      dup1\n        /* \"contracts/ERC20.sol\":7076:7088  _totalSupply */\n      0x02\n      0x00\n        /* \"contracts/ERC20.sol\":7076:7097  _totalSupply -= value */\n      dup3\n      dup3\n      sload\n      sub\n      swap3\n      pop\n      pop\n      dup2\n      swap1\n      sstore\n      pop\n        /* \"contracts/ERC20.sol\":6909:7334  if (to == address(0)) {... */\n      jump(tag_226)\n    tag_225:\n        /* \"contracts/ERC20.sol\":7304:7309  value */\n      dup1\n        /* \"contracts/ERC20.sol\":7287:7296  _balances */\n      0x00\n        /* \"contracts/ERC20.sol\":7287:7300  _balances[to] */\n      dup1\n        /* \"contracts/ERC20.sol\":7297:7299  to */\n      dup5\n        /* \"contracts/ERC20.sol\":7287:7300  _balances[to] */\n      0xffffffffffffffffffffffffffffffffffffffff\n      and\n      0xffffffffffffffffffffffffffffffffffffffff\n      and\n      dup2\n      mstore\n      0x20\n      add\n      swap1\n      dup2\n      mstore\n      0x20\n      add\n      0x00\n      keccak256\n      0x00\n        /* \"contracts/ERC20.sol\":7287:7309  _balances[to] += value */\n      dup3\n      dup3\n      sload\n      add\n      swap3\n      pop\n      pop\n      dup2\n      swap1\n      sstore\n      pop\n        /* \"contracts/ERC20.sol\":6909:7334  if (to == address(0)) {... */\n    tag_226:\n        /* \"contracts/ERC20.sol\":7364:7366  to */\n      dup2\n        /* \"contracts/ERC20.sol\":7349:7374  Transfer(from, to, value) */\n      0xffffffffffffffffffffffffffffffffffffffff\n      and\n        /* \"contracts/ERC20.sol\":7358:7362  from */\n      dup4\n        /* \"contracts/ERC20.sol\":7349:7374  Transfer(from, to, value) */\n      0xffffffffffffffffffffffffffffffffffffffff\n      and\n      0xddf252ad1be2c89b69c2b068fc378daa952ba7f163c4a11628f55a4df523b3ef\n        /* \"contracts/ERC20.sol\":7368:7373  value */\n      dup4\n        /* \"contracts/ERC20.sol\":7349:7374  Transfer(from, to, value) */\n      mload(0x40)\n      tag_227\n      swap2\n      swap1\n      tag_41\n      jump\t// in\n    tag_227:\n      mload(0x40)\n      dup1\n      swap2\n      sub\n      swap1\n      log3\n        /* \"contracts/ERC20.sol\":6274:7381  function _update(address from, address to, uint256 value) internal virtual {... */\n      pop\n      pop\n      pop\n      jump\t// out\n        /* \"#utility.yul\":7:106   */\n    tag_228:\n        /* \"#utility.yul\":59:65   */\n      0x00\n        /* \"#utility.yul\":93:98   */\n      dup2\n        /* \"#utility.yul\":87:99   */\n      mload\n        /* \"#utility.yul\":77:99   */\n      swap1\n      pop\n        /* \"#utility.yul\":7:106   */\n      swap2\n      swap1\n      pop\n      jump\t// out\n        /* \"#utility.yul\":112:281   */\n    tag_229:\n        /* \"#utility.yul\":196:207   */\n      0x00\n        /* \"#utility.yul\":230:236   */\n      dup3\n        /* \"#utility.yul\":225:228   */\n      dup3\n        /* \"#utility.yul\":218:237   */\n      mstore\n        /* \"#utility.yul\":270:274   */\n      0x20\n        /* \"#utility.yul\":265:268   */\n      dup3\n        /* \"#utility.yul\":261:275   */\n      add\n        /* \"#utility.yul\":246:275   */\n      swap1\n      pop\n        /* \"#utility.yul\":112:281   */\n      swap3\n      swap2\n      pop\n      pop\n      jump\t// out\n        /* \"#utility.yul\":287:533   */\n    tag_230:\n        /* \"#utility.yul\":368:369   */\n      0x00\n        /* \"#utility.yul\":378:491   */\n    tag_265:\n        /* \"#utility.yul\":392:398   */\n      dup4\n        /* \"#utility.yul\":389:390   */\n      dup2\n        /* \"#utility.yul\":386:399   */\n      lt\n        /* \"#utility.yul\":378:491   */\n      iszero\n      tag_267\n      jumpi\n        /* \"#utility.yul\":477:478   */\n      dup1\n        /* \"#utility.yul\":472:475   */\n      dup3\n        /* \"#utility.yul\":468:479   */\n      add\n        /* \"#utility.yul\":462:480   */\n      mload\n        /* \"#utility.yul\":458:459   */\n      dup2\n        /* \"#utility.yul\":453:456   */\n      dup5\n        /* \"#utility.yul\":449:460   */\n      add\n        /* \"#utility.yul\":442:481   */\n      mstore\n        /* \"#utility.yul\":414:416   */\n      0x20\n        /* \"#utility.yul\":411:412   */\n      dup2\n        /* \"#utility.yul\":407:417   */\n      add\n        /* \"#utility.yul\":402:417   */\n      swap1\n      pop\n        /* \"#utility.yul\":378:491   */\n      jump(tag_265)\n    tag_267:\n        /* \"#utility.yul\":525:526   */\n      0x00\n        /* \"#utility.yul\":516:522   */\n      dup5\n        /* \"#utility.yul\":511:514   */\n      dup5\n        /* \"#utility.yul\":507:523   */\n      add\n        /* \"#utility.yul\":500:527   */\n      mstore\n        /* \"#utility.yul\":349:533   */\n      pop\n        /* \"#utility.yul\":287:533   */\n      pop\n      pop\n      pop\n      jump\t// out\n        /* \"#utility.yul\":539:641   */\n    tag_231:\n        /* \"#utility.yul\":580:586   */\n      0x00\n        /* \"#utility.yul\":631:633   */\n      0x1f\n        /* \"#utility.yul\":627:634   */\n      not\n        /* \"#utility.yul\":622:624   */\n      0x1f\n        /* \"#utility.yul\":615:620   */\n      dup4\n        /* \"#utility.yul\":611:625   */\n      add\n        /* \"#utility.yul\":607:635   */\n      and\n        /* \"#utility.yul\":597:635   */\n      swap1\n      pop\n        /* \"#utility.yul\":539:641   */\n      swap2\n      swap1\n      pop\n      jump\t// out\n        /* \"#utility.yul\":647:1024   */\n    tag_232:\n        /* \"#utility.yul\":735:738   */\n      0x00\n        /* \"#utility.yul\":763:802   */\n      tag_270\n        /* \"#utility.yul\":796:801   */\n      dup3\n        /* \"#utility.yul\":763:802   */\n      tag_228\n      jump\t// in\n    tag_270:\n        /* \"#utility.yul\":818:889   */\n      tag_271\n        /* \"#utility.yul\":882:888   */\n      dup2\n        /* \"#utility.yul\":877:880   */\n      dup6\n        /* \"#utility.yul\":818:889   */\n      tag_229\n      jump\t// in\n    tag_271:\n        /* \"#utility.yul\":811:889   */\n      swap4\n      pop\n        /* \"#utility.yul\":898:963   */\n      tag_272\n        /* \"#utility.yul\":956:962   */\n      dup2\n        /* \"#utility.yul\":951:954   */\n      dup6\n        /* \"#utility.yul\":944:948   */\n      0x20\n        /* \"#utility.yul\":937:942   */\n      dup7\n        /* \"#utility.yul\":933:949   */\n      add\n        /* \"#utility.yul\":898:963   */\n      tag_230\n      jump\t// in\n    tag_272:\n        /* \"#utility.yul\":988:1017   */\n      tag_273\n        /* \"#utility.yul\":1010:1016   */\n      dup2\n        /* \"#utility.yul\":988:1017   */\n      tag_231\n      jump\t// in\n    tag_273:\n        /* \"#utility.yul\":983:986   */\n      dup5\n        /* \"#utility.yul\":979:1018   */\n      add\n        /* \"#utility.yul\":972:1018   */\n      swap2\n      pop\n        /* \"#utility.yul\":739:1024   */\n      pop\n        /* \"#utility.yul\":647:1024   */\n      swap3\n      swap2\n      pop\n      pop\n      jump\t// out\n        /* \"#utility.yul\":1030:1343   */\n    tag_31:\n        /* \"#utility.yul\":1143:1147   */\n      0x00\n        /* \"#utility.yul\":1181:1183   */\n      0x20\n        /* \"#utility.yul\":1170:1179   */\n      dup3\n        /* \"#utility.yul\":1166:1184   */\n      add\n        /* \"#utility.yul\":1158:1184   */\n      swap1\n      pop\n        /* \"#utility.yul\":1230:1239   */\n      dup2\n        /* \"#utility.yul\":1224:1228   */\n      dup2\n        /* \"#utility.yul\":1220:1240   */\n      sub\n        /* \"#utility.yul\":1216:1217   */\n      0x00\n        /* \"#utility.yul\":1205:1214   */\n      dup4\n        /* \"#utility.yul\":1201:1218   */\n      add\n        /* \"#utility.yul\":1194:1241   */\n      mstore\n        /* \"#utility.yul\":1258:1336   */\n      tag_275\n        /* \"#utility.yul\":1331:1335   */\n      dup2\n        /* \"#utility.yul\":1322:1328   */\n      dup5\n        /* \"#utility.yul\":1258:1336   */\n      tag_232\n      jump\t// in\n    tag_275:\n        /* \"#utility.yul\":1250:1336   */\n      swap1\n      pop\n        /* \"#utility.yul\":1030:1343   */\n      swap3\n      swap2\n      pop\n      pop\n      jump\t// out\n        /* \"#utility.yul\":1430:1547   */\n    tag_234:\n        /* \"#utility.yul\":1539:1540   */\n      0x00\n        /* \"#utility.yul\":1536:1537   */\n      dup1\n        /* \"#utility.yul\":1529:1541   */\n      revert\n        /* \"#utility.yul\":1676:1802   */\n    tag_236:\n        /* \"#utility.yul\":1713:1720   */\n      0x00\n        /* \"#utility.yul\":1753:1795   */\n      0xffffffffffffffffffffffffffffffffffffffff\n        /* \"#utility.yul\":1746:1751   */\n      dup3\n        /* \"#utility.yul\":1742:1796   */\n      and\n        /* \"#utility.yul\":1731:1796   */\n      swap1\n      pop\n        /* \"#utility.yul\":1676:1802   */\n      swap2\n      swap1\n      pop\n      jump\t// out\n        /* \"#utility.yul\":1808:1904   */\n    tag_237:\n        /* \"#utility.yul\":1845:1852   */\n      0x00\n        /* \"#utility.yul\":1874:1898   */\n      tag_281\n        /* \"#utility.yul\":1892:1897   */\n      dup3\n        /* \"#utility.yul\":1874:1898   */\n      tag_236\n      jump\t// in\n    tag_281:\n        /* \"#utility.yul\":1863:1898   */\n      swap1\n      pop\n        /* \"#utility.yul\":1808:1904   */\n      swap2\n      swap1\n      pop\n      jump\t// out\n        /* \"#utility.yul\":1910:2032   */\n    tag_238:\n        /* \"#utility.yul\":1983:2007   */\n      tag_283\n        /* \"#utility.yul\":2001:2006   */\n      dup2\n        /* \"#utility.yul\":1983:2007   */\n      tag_237\n      jump\t// in\n    tag_283:\n        /* \"#utility.yul\":1976:1981   */\n      dup2\n        /* \"#utility.yul\":1973:2008   */\n      eq\n        /* \"#utility.yul\":1963:2026   */\n      tag_284\n      jumpi\n        /* \"#utility.yul\":2022:2023   */\n      0x00\n        /* \"#utility.yul\":2019:2020   */\n      dup1\n        /* \"#utility.yul\":2012:2024   */\n      revert\n        /* \"#utility.yul\":1963:2026   */\n    tag_284:\n        /* \"#utility.yul\":1910:2032   */\n      pop\n      jump\t// out\n        /* \"#utility.yul\":2038:2177   */\n    tag_239:\n        /* \"#utility.yul\":2084:2089   */\n      0x00\n        /* \"#utility.yul\":2122:2128   */\n      dup2\n        /* \"#utility.yul\":2109:2129   */\n      calldataload\n        /* \"#utility.yul\":2100:2129   */\n      swap1\n      pop\n        /* \"#utility.yul\":2138:2171   */\n      tag_286\n        /* \"#utility.yul\":2165:2170   */\n      dup2\n        /* \"#utility.yul\":2138:2171   */\n      tag_238\n      jump\t// in\n    tag_286:\n        /* \"#utility.yul\":2038:2177   */\n      swap3\n      swap2\n      pop\n      pop\n      jump\t// out\n        /* \"#utility.yul\":2183:2260   */\n    tag_240:\n        /* \"#utility.yul\":2220:2227   */\n      0x00\n        /* \"#utility.yul\":2249:2254   */\n      dup2\n        /* \"#utility.yul\":2238:2254   */\n      swap1\n      pop\n        /* \"#utility.yul\":2183:2260   */\n      swap2\n      swap1\n      pop\n      jump\t// out\n        /* \"#utility.yul\":2266:2388   */\n    tag_241:\n        /* \"#utility.yul\":2339:2363   */\n      tag_289\n        /* \"#utility.yul\":2357:2362   */\n      dup2\n        /* \"#utility.yul\":2339:2363   */\n      tag_240\n      jump\t// in\n    tag_289:\n        /* \"#utility.yul\":2332:2337   */\n      dup2\n        /* \"#utility.yul\":2329:2364   */\n      eq\n        /* \"#utility.yul\":2319:2382   */\n      tag_290\n      jumpi\n        /* \"#utility.yul\":2378:2379   */\n      0x00\n        /* \"#utility.yul\":2375:2376   */\n      dup1\n        /* \"#utility.yul\":2368:2380   */\n      revert\n        /* \"#utility.yul\":2319:2382   */\n    tag_290:\n        /* \"#utility.yul\":2266:2388   */\n      pop\n      jump\t// out\n        /* \"#utility.yul\":2394:2533   */\n    tag_242:\n        /* \"#utility.yul\":2440:2445   */\n      0x00\n        /* \"#utility.yul\":2478:2484   */\n      dup2\n        /* \"#utility.yul\":2465:2485   */\n      calldataload\n        /* \"#utility.yul\":2456:2485   */\n      swap1\n      pop\n        /* \"#utility.yul\":2494:2527   */\n      tag_292\n        /* \"#utility.yul\":2521:2526   */\n      dup2\n        /* \"#utility.yul\":2494:2527   */\n      tag_241\n      jump\t// in\n    tag_292:\n        /* \"#utility.yul\":2394:2533   */\n      swap3\n      swap2\n      pop\n      pop\n      jump\t// out\n        /* \"#utility.yul\":2539:3013   */\n    tag_34:\n        /* \"#utility.yul\":2607:2613   */\n      0x00\n        /* \"#utility.yul\":2615:2621   */\n      dup1\n        /* \"#utility.yul\":2664:2666   */\n      0x40\n        /* \"#utility.yul\":2652:2661   */\n      dup4\n        /* \"#utility.yul\":2643:2650   */\n      dup6\n        /* \"#utility.yul\":2639:2662   */\n      sub\n        /* \"#utility.yul\":2635:2667   */\n      slt\n        /* \"#utility.yul\":2632:2751   */\n      iszero\n      tag_294\n      jumpi\n        /* \"#utility.yul\":2670:2749   */\n      tag_295\n      tag_234\n      jump\t// in\n    tag_295:\n        /* \"#utility.yul\":2632:2751   */\n    tag_294:\n        /* \"#utility.yul\":2790:2791   */\n      0x00\n        /* \"#utility.yul\":2815:2868   */\n      tag_296\n        /* \"#utility.yul\":2860:2867   */\n      dup6\n        /* \"#utility.yul\":2851:2857   */\n      dup3\n        /* \"#utility.yul\":2840:2849   */\n      dup7\n        /* \"#utility.yul\":2836:2858   */\n      add\n        /* \"#utility.yul\":2815:2868   */\n      tag_239\n      jump\t// in\n    tag_296:\n        /* \"#utility.yul\":2805:2868   */\n      swap3\n      pop\n        /* \"#utility.yul\":2761:2878   */\n      pop\n        /* \"#utility.yul\":2917:2919   */\n      0x20\n        /* \"#utility.yul\":2943:2996   */\n      tag_297\n        /* \"#utility.yul\":2988:2995   */\n      dup6\n        /* \"#utility.yul\":2979:2985   */\n      dup3\n        /* \"#utility.yul\":2968:2977   */\n      dup7\n        /* \"#utility.yul\":2964:2986   */\n      add\n        /* \"#utility.yul\":2943:2996   */\n      tag_242\n      jump\t// in\n    tag_297:\n        /* \"#utility.yul\":2933:2996   */\n      swap2\n      pop\n        /* \"#utility.yul\":2888:3006   */\n      pop\n        /* \"#utility.yul\":2539:3013   */\n      swap3\n      pop\n      swap3\n      swap1\n      pop\n      jump\t// out\n        /* \"#utility.yul\":3019:3109   */\n    tag_243:\n        /* \"#utility.yul\":3053:3060   */\n      0x00\n        /* \"#utility.yul\":3096:3101   */\n      dup2\n        /* \"#utility.yul\":3089:3102   */\n      iszero\n        /* \"#utility.yul\":3082:3103   */\n      iszero\n        /* \"#utility.yul\":3071:3103   */\n      swap1\n      pop\n        /* \"#utility.yul\":3019:3109   */\n      swap2\n      swap1\n      pop\n      jump\t// out\n        /* \"#utility.yul\":3115:3224   */\n    tag_244:\n        /* \"#utility.yul\":3196:3217   */\n      tag_300\n        /* \"#utility.yul\":3211:3216   */\n      dup2\n        /* \"#utility.yul\":3196:3217   */\n      tag_243\n      jump\t// in\n    tag_300:\n        /* \"#utility.yul\":3191:3194   */\n      dup3\n        /* \"#utility.yul\":3184:3218   */\n      mstore\n        /* \"#utility.yul\":3115:3224   */\n      pop\n      pop\n      jump\t// out\n        /* \"#utility.yul\":3230:3440   */\n    tag_37:\n        /* \"#utility.yul\":3317:3321   */\n      0x00\n        /* \"#utility.yul\":3355:3357   */\n      0x20\n        /* \"#utility.yul\":3344:3353   */\n      dup3\n        /* \"#utility.yul\":3340:3358   */\n      add\n        /* \"#utility.yul\":3332:3358   */\n      swap1\n      pop\n        /* \"#utility.yul\":3368:3433   */\n      tag_302\n        /* \"#utility.yul\":3430:3431   */\n      0x00\n        /* \"#utility.yul\":3419:3428   */\n      dup4\n        /* \"#utility.yul\":3415:3432   */\n      add\n        /* \"#utility.yul\":3406:3412   */\n      dup5\n        /* \"#utility.yul\":3368:3433   */\n      tag_244\n      jump\t// in\n    tag_302:\n        /* \"#utility.yul\":3230:3440   */\n      swap3\n      swap2\n      pop\n      pop\n      jump\t// out\n        /* \"#utility.yul\":3446:3564   */\n    tag_245:\n        /* \"#utility.yul\":3533:3557   */\n      tag_304\n        /* \"#utility.yul\":3551:3556   */\n      dup2\n        /* \"#utility.yul\":3533:3557   */\n      tag_240\n      jump\t// in\n    tag_304:\n        /* \"#utility.yul\":3528:3531   */\n      dup3\n        /* \"#utility.yul\":3521:3558   */\n      mstore\n        /* \"#utility.yul\":3446:3564   */\n      pop\n      pop\n      jump\t// out\n        /* \"#utility.yul\":3570:3792   */\n    tag_41:\n        /* \"#utility.yul\":3663:3667   */\n      0x00\n        /* \"#utility.yul\":3701:3703   */\n      0x20\n        /* \"#utility.yul\":3690:3699   */\n      dup3\n        /* \"#utility.yul\":3686:3704   */\n      add\n        /* \"#utility.yul\":3678:3704   */\n      swap1\n      pop\n        /* \"#utility.yul\":3714:3785   */\n      tag_306\n        /* \"#utility.yul\":3782:3783   */\n      0x00\n        /* \"#utility.yul\":3771:3780   */\n      dup4\n        /* \"#utility.yul\":3767:3784   */\n      add\n        /* \"#utility.yul\":3758:3764   */\n      dup5\n        /* \"#utility.yul\":3714:3785   */\n      tag_245\n      jump\t// in\n    tag_306:\n        /* \"#utility.yul\":3570:3792   */\n      swap3\n      swap2\n      pop\n      pop\n      jump\t// out\n        /* \"#utility.yul\":3798:4417   */\n    tag_47:\n        /* \"#utility.yul\":3875:3881   */\n      0x00\n        /* \"#utility.yul\":3883:3889   */\n      dup1\n        /* \"#utility.yul\":3891:3897   */\n      0x00\n        /* \"#utility.yul\":3940:3942   */\n      0x60\n        /* \"#utility.yul\":3928:3937   */\n      dup5\n        /* \"#utility.yul\":3919:3926   */\n      dup7\n        /* \"#utility.yul\":3915:3938   */\n      sub\n        /* \"#utility.yul\":3911:3943   */\n      slt\n        /* \"#utility.yul\":3908:4027   */\n      iszero\n      tag_308\n      jumpi\n        /* \"#utility.yul\":3946:4025   */\n      tag_309\n      tag_234\n      jump\t// in\n    tag_309:\n        /* \"#utility.yul\":3908:4027   */\n    tag_308:\n        /* \"#utility.yul\":4066:4067   */\n      0x00\n        /* \"#utility.yul\":4091:4144   */\n      tag_310\n        /* \"#utility.yul\":4136:4143   */\n      dup7\n        /* \"#utility.yul\":4127:4133   */\n      dup3\n        /* \"#utility.yul\":4116:4125   */\n      dup8\n        /* \"#utility.yul\":4112:4134   */\n      add\n        /* \"#utility.yul\":4091:4144   */\n      tag_239\n      jump\t// in\n    tag_310:\n        /* \"#utility.yul\":4081:4144   */\n      swap4\n      pop\n        /* \"#utility.yul\":4037:4154   */\n      pop\n        /* \"#utility.yul\":4193:4195   */\n      0x20\n        /* \"#utility.yul\":4219:4272   */\n      tag_311\n        /* \"#utility.yul\":4264:4271   */\n      dup7\n        /* \"#utility.yul\":4255:4261   */\n      dup3\n        /* \"#utility.yul\":4244:4253   */\n      dup8\n        /* \"#utility.yul\":4240:4262   */\n      add\n        /* \"#utility.yul\":4219:4272   */\n      tag_239\n      jump\t// in\n    tag_311:\n        /* \"#utility.yul\":4209:4272   */\n      swap3\n      pop\n        /* \"#utility.yul\":4164:4282   */\n      pop\n        /* \"#utility.yul\":4321:4323   */\n      0x40\n        /* \"#utility.yul\":4347:4400   */\n      tag_312\n        /* \"#utility.yul\":4392:4399   */\n      dup7\n        /* \"#utility.yul\":4383:4389   */\n      dup3\n        /* \"#utility.yul\":4372:4381   */\n      dup8\n        /* \"#utility.yul\":4368:4390   */\n      add\n        /* \"#utility.yul\":4347:4400   */\n      tag_242\n      jump\t// in\n    tag_312:\n        /* \"#utility.yul\":4337:4400   */\n      swap2\n      pop\n        /* \"#utility.yul\":4292:4410   */\n      pop\n        /* \"#utility.yul\":3798:4417   */\n      swap3\n      pop\n      swap3\n      pop\n      swap3\n      jump\t// out\n        /* \"#utility.yul\":4423:4509   */\n    tag_246:\n        /* \"#utility.yul\":4458:4465   */\n      0x00\n        /* \"#utility.yul\":4498:4502   */\n      0xff\n        /* \"#utility.yul\":4491:4496   */\n      dup3\n        /* \"#utility.yul\":4487:4503   */\n      and\n        /* \"#utility.yul\":4476:4503   */\n      swap1\n      pop\n        /* \"#utility.yul\":4423:4509   */\n      swap2\n      swap1\n      pop\n      jump\t// out\n        /* \"#utility.yul\":4515:4627   */\n    tag_247:\n        /* \"#utility.yul\":4598:4620   */\n      tag_315\n        /* \"#utility.yul\":4614:4619   */\n      dup2\n        /* \"#utility.yul\":4598:4620   */\n      tag_246\n      jump\t// in\n    tag_315:\n        /* \"#utility.yul\":4593:4596   */\n      dup3\n        /* \"#utility.yul\":4586:4621   */\n      mstore\n        /* \"#utility.yul\":4515:4627   */\n      pop\n      pop\n      jump\t// out\n        /* \"#utility.yul\":4633:4847   */\n    tag_53:\n        /* \"#utility.yul\":4722:4726   */\n      0x00\n        /* \"#utility.yul\":4760:4762   */\n      0x20\n        /* \"#utility.yul\":4749:4758   */\n      dup3\n        /* \"#utility.yul\":4745:4763   */\n      add\n        /* \"#utility.yul\":4737:4763   */\n      swap1\n      pop\n        /* \"#utility.yul\":4773:4840   */\n      tag_317\n        /* \"#utility.yul\":4837:4838   */\n      0x00\n        /* \"#utility.yul\":4826:4835   */\n      dup4\n        /* \"#utility.yul\":4822:4839   */\n      add\n        /* \"#utility.yul\":4813:4819   */\n      dup5\n        /* \"#utility.yul\":4773:4840   */\n      tag_247\n      jump\t// in\n    tag_317:\n        /* \"#utility.yul\":4633:4847   */\n      swap3\n      swap2\n      pop\n      pop\n      jump\t// out\n        /* \"#utility.yul\":4853:5618   */\n    tag_62:\n        /* \"#utility.yul\":4939:4945   */\n      0x00\n        /* \"#utility.yul\":4947:4953   */\n      dup1\n        /* \"#utility.yul\":4955:4961   */\n      0x00\n        /* \"#utility.yul\":4963:4969   */\n      dup1\n        /* \"#utility.yul\":5012:5015   */\n      0x80\n        /* \"#utility.yul\":5000:5009   */\n      dup6\n        /* \"#utility.yul\":4991:4998   */\n      dup8\n        /* \"#utility.yul\":4987:5010   */\n      sub\n        /* \"#utility.yul\":4983:5016   */\n      slt\n        /* \"#utility.yul\":4980:5100   */\n      iszero\n      tag_319\n      jumpi\n        /* \"#utility.yul\":5019:5098   */\n      tag_320\n      tag_234\n      jump\t// in\n    tag_320:\n        /* \"#utility.yul\":4980:5100   */\n    tag_319:\n        /* \"#utility.yul\":5139:5140   */\n      0x00\n        /* \"#utility.yul\":5164:5217   */\n      tag_321\n        /* \"#utility.yul\":5209:5216   */\n      dup8\n        /* \"#utility.yul\":5200:5206   */\n      dup3\n        /* \"#utility.yul\":5189:5198   */\n      dup9\n        /* \"#utility.yul\":5185:5207   */\n      add\n        /* \"#utility.yul\":5164:5217   */\n      tag_242\n      jump\t// in\n    tag_321:\n        /* \"#utility.yul\":5154:5217   */\n      swap5\n      pop\n        /* \"#utility.yul\":5110:5227   */\n      pop\n        /* \"#utility.yul\":5266:5268   */\n      0x20\n        /* \"#utility.yul\":5292:5345   */\n      tag_322\n        /* \"#utility.yul\":5337:5344   */\n      dup8\n        /* \"#utility.yul\":5328:5334   */\n      dup3\n        /* \"#utility.yul\":5317:5326   */\n      dup9\n        /* \"#utility.yul\":5313:5335   */\n      add\n        /* \"#utility.yul\":5292:5345   */\n      tag_242\n      jump\t// in\n    tag_322:\n        /* \"#utility.yul\":5282:5345   */\n      swap4\n      pop\n        /* \"#utility.yul\":5237:5355   */\n      pop\n        /* \"#utility.yul\":5394:5396   */\n      0x40\n        /* \"#utility.yul\":5420:5473   */\n      tag_323\n        /* \"#utility.yul\":5465:5472   */\n      dup8\n        /* \"#utility.yul\":5456:5462   */\n      dup3\n        /* \"#utility.yul\":5445:5454   */\n      dup9\n        /* \"#utility.yul\":5441:5463   */\n      add\n        /* \"#utility.yul\":5420:5473   */\n      tag_242\n      jump\t// in\n    tag_323:\n        /* \"#utility.yul\":5410:5473   */\n      swap3\n      pop\n        /* \"#utility.yul\":5365:5483   */\n      pop\n        /* \"#utility.yul\":5522:5524   */\n      0x60\n        /* \"#utility.yul\":5548:5601   */\n      tag_324\n        /* \"#utility.yul\":5593:5600   */\n      dup8\n        /* \"#utility.yul\":5584:5590   */\n      dup3\n        /* \"#utility.yul\":5573:5582   */\n      dup9\n        /* \"#utility.yul\":5569:5591   */\n      add\n        /* \"#utility.yul\":5548:5601   */\n      tag_242\n      jump\t// in\n    tag_324:\n        /* \"#utility.yul\":5538:5601   */\n      swap2\n      pop\n        /* \"#utility.yul\":5493:5611   */\n      pop\n        /* \"#utility.yul\":4853:5618   */\n      swap3\n      swap6\n      swap2\n      swap5\n      pop\n      swap3\n      pop\n      jump\t// out\n        /* \"#utility.yul\":5624:5953   */\n    tag_70:\n        /* \"#utility.yul\":5683:5689   */\n      0x00\n        /* \"#utility.yul\":5732:5734   */\n      0x20\n        /* \"#utility.yul\":5720:5729   */\n      dup3\n        /* \"#utility.yul\":5711:5718   */\n      dup5\n        /* \"#utility.yul\":5707:5730   */\n      sub\n        /* \"#utility.yul\":5703:5735   */\n      slt\n        /* \"#utility.yul\":5700:5819   */\n      iszero\n      tag_326\n      jumpi\n        /* \"#utility.yul\":5738:5817   */\n      tag_327\n      tag_234\n      jump\t// in\n    tag_327:\n        /* \"#utility.yul\":5700:5819   */\n    tag_326:\n        /* \"#utility.yul\":5858:5859   */\n      0x00\n        /* \"#utility.yul\":5883:5936   */\n      tag_328\n        /* \"#utility.yul\":5928:5935   */\n      dup5\n        /* \"#utility.yul\":5919:5925   */\n      dup3\n        /* \"#utility.yul\":5908:5917   */\n      dup6\n        /* \"#utility.yul\":5904:5926   */\n      add\n        /* \"#utility.yul\":5883:5936   */\n      tag_239\n      jump\t// in\n    tag_328:\n        /* \"#utility.yul\":5873:5936   */\n      swap2\n      pop\n        /* \"#utility.yul\":5829:5946   */\n      pop\n        /* \"#utility.yul\":5624:5953   */\n      swap3\n      swap2\n      pop\n      pop\n      jump\t// out\n        /* \"#utility.yul\":5959:6077   */\n    tag_248:\n        /* \"#utility.yul\":6046:6070   */\n      tag_330\n        /* \"#utility.yul\":6064:6069   */\n      dup2\n        /* \"#utility.yul\":6046:6070   */\n      tag_237\n      jump\t// in\n    tag_330:\n        /* \"#utility.yul\":6041:6044   */\n      dup3\n        /* \"#utility.yul\":6034:6071   */\n      mstore\n        /* \"#utility.yul\":5959:6077   */\n      pop\n      pop\n      jump\t// out\n        /* \"#utility.yul\":6083:6305   */\n    tag_82:\n        /* \"#utility.yul\":6176:6180   */\n      0x00\n        /* \"#utility.yul\":6214:6216   */\n      0x20\n        /* \"#utility.yul\":6203:6212   */\n      dup3\n        /* \"#utility.yul\":6199:6217   */\n      add\n        /* \"#utility.yul\":6191:6217   */\n      swap1\n      pop\n        /* \"#utility.yul\":6227:6298   */\n      tag_332\n        /* \"#utility.yul\":6295:6296   */\n      0x00\n        /* \"#utility.yul\":6284:6293   */\n      dup4\n        /* \"#utility.yul\":6280:6297   */\n      add\n        /* \"#utility.yul\":6271:6277   */\n      dup5\n        /* \"#utility.yul\":6227:6298   */\n      tag_248\n      jump\t// in\n    tag_332:\n        /* \"#utility.yul\":6083:6305   */\n      swap3\n      swap2\n      pop\n      pop\n      jump\t// out\n        /* \"#utility.yul\":6311:6491   */\n    tag_147:\n        /* \"#utility.yul\":6359:6436   */\n      0x4e487b7100000000000000000000000000000000000000000000000000000000\n        /* \"#utility.yul\":6356:6357   */\n      0x00\n        /* \"#utility.yul\":6349:6437   */\n      mstore\n        /* \"#utility.yul\":6456:6460   */\n      0x21\n        /* \"#utility.yul\":6453:6454   */\n      0x04\n        /* \"#utility.yul\":6446:6461   */\n      mstore\n        /* \"#utility.yul\":6480:6484   */\n      0x24\n        /* \"#utility.yul\":6477:6478   */\n      0x00\n        /* \"#utility.yul\":6470:6485   */\n      revert\n        /* \"#utility.yul\":6497:6617   */\n    tag_249:\n        /* \"#utility.yul\":6585:6586   */\n      0x04\n        /* \"#utility.yul\":6578:6583   */\n      dup2\n        /* \"#utility.yul\":6575:6587   */\n      lt\n        /* \"#utility.yul\":6565:6611   */\n      tag_335\n      jumpi\n        /* \"#utility.yul\":6591:6609   */\n      tag_336\n      tag_147\n      jump\t// in\n    tag_336:\n        /* \"#utility.yul\":6565:6611   */\n    tag_335:\n        /* \"#utility.yul\":6497:6617   */\n      pop\n      jump\t// out\n        /* \"#utility.yul\":6623:6764   */\n    tag_250:\n        /* \"#utility.yul\":6675:6682   */\n      0x00\n        /* \"#utility.yul\":6704:6709   */\n      dup2\n        /* \"#utility.yul\":6693:6709   */\n      swap1\n      pop\n        /* \"#utility.yul\":6710:6758   */\n      tag_338\n        /* \"#utility.yul\":6752:6757   */\n      dup3\n        /* \"#utility.yul\":6710:6758   */\n      tag_249\n      jump\t// in\n    tag_338:\n        /* \"#utility.yul\":6623:6764   */\n      swap2\n      swap1\n      pop\n      jump\t// out\n        /* \"#utility.yul\":6770:6911   */\n    tag_251:\n        /* \"#utility.yul\":6833:6842   */\n      0x00\n        /* \"#utility.yul\":6866:6905   */\n      tag_340\n        /* \"#utility.yul\":6899:6904   */\n      dup3\n        /* \"#utility.yul\":6866:6905   */\n      tag_250\n      jump\t// in\n    tag_340:\n        /* \"#utility.yul\":6853:6905   */\n      swap1\n      pop\n        /* \"#utility.yul\":6770:6911   */\n      swap2\n      swap1\n      pop\n      jump\t// out\n        /* \"#utility.yul\":6917:7074   */\n    tag_252:\n        /* \"#utility.yul\":7017:7067   */\n      tag_342\n        /* \"#utility.yul\":7061:7066   */\n      dup2\n        /* \"#utility.yul\":7017:7067   */\n      tag_251\n      jump\t// in\n    tag_342:\n        /* \"#utility.yul\":7012:7015   */\n      dup3\n        /* \"#utility.yul\":7005:7068   */\n      mstore\n        /* \"#utility.yul\":6917:7074   */\n      pop\n      pop\n      jump\t// out\n        /* \"#utility.yul\":7080:7548   */\n    tag_86:\n        /* \"#utility.yul\":7242:7246   */\n      0x00\n        /* \"#utility.yul\":7280:7282   */\n      0x60\n        /* \"#utility.yul\":7269:7278   */\n      dup3\n        /* \"#utility.yul\":7265:7283   */\n      add\n        /* \"#utility.yul\":7257:7283   */\n      swap1\n      pop\n        /* \"#utility.yul\":7293:7364   */\n      tag_344\n        /* \"#utility.yul\":7361:7362   */\n      0x00\n        /* \"#utility.yul\":7350:7359   */\n      dup4\n        /* \"#utility.yul\":7346:7363   */\n      add\n        /* \"#utility.yul\":7337:7343   */\n      dup7\n        /* \"#utility.yul\":7293:7364   */\n      tag_245\n      jump\t// in\n    tag_344:\n        /* \"#utility.yul\":7374:7446   */\n      tag_345\n        /* \"#utility.yul\":7442:7444   */\n      0x20\n        /* \"#utility.yul\":7431:7440   */\n      dup4\n        /* \"#utility.yul\":7427:7445   */\n      add\n        /* \"#utility.yul\":7418:7424   */\n      dup6\n        /* \"#utility.yul\":7374:7446   */\n      tag_245\n      jump\t// in\n    tag_345:\n        /* \"#utility.yul\":7456:7541   */\n      tag_346\n        /* \"#utility.yul\":7537:7539   */\n      0x40\n        /* \"#utility.yul\":7526:7535   */\n      dup4\n        /* \"#utility.yul\":7522:7540   */\n      add\n        /* \"#utility.yul\":7513:7519   */\n      dup5\n        /* \"#utility.yul\":7456:7541   */\n      tag_252\n      jump\t// in\n    tag_346:\n        /* \"#utility.yul\":7080:7548   */\n      swap5\n      swap4\n      pop\n      pop\n      pop\n      pop\n      jump\t// out\n        /* \"#utility.yul\":7554:8028   */\n    tag_99:\n        /* \"#utility.yul\":7622:7628   */\n      0x00\n        /* \"#utility.yul\":7630:7636   */\n      dup1\n        /* \"#utility.yul\":7679:7681   */\n      0x40\n        /* \"#utility.yul\":7667:7676   */\n      dup4\n        /* \"#utility.yul\":7658:7665   */\n      dup6\n        /* \"#utility.yul\":7654:7677   */\n      sub\n        /* \"#utility.yul\":7650:7682   */\n      slt\n        /* \"#utility.yul\":7647:7766   */\n      iszero\n      tag_348\n      jumpi\n        /* \"#utility.yul\":7685:7764   */\n      tag_349\n      tag_234\n      jump\t// in\n    tag_349:\n        /* \"#utility.yul\":7647:7766   */\n    tag_348:\n        /* \"#utility.yul\":7805:7806   */\n      0x00\n        /* \"#utility.yul\":7830:7883   */\n      tag_350\n        /* \"#utility.yul\":7875:7882   */\n      dup6\n        /* \"#utility.yul\":7866:7872   */\n      dup3\n        /* \"#utility.yul\":7855:7864   */\n      dup7\n        /* \"#utility.yul\":7851:7873   */\n      add\n        /* \"#utility.yul\":7830:7883   */\n      tag_242\n      jump\t// in\n    tag_350:\n        /* \"#utility.yul\":7820:7883   */\n      swap3\n      pop\n        /* \"#utility.yul\":7776:7893   */\n      pop\n        /* \"#utility.yul\":7932:7934   */\n      0x20\n        /* \"#utility.yul\":7958:8011   */\n      tag_351\n        /* \"#utility.yul\":8003:8010   */\n      dup6\n        /* \"#utility.yul\":7994:8000   */\n      dup3\n        /* \"#utility.yul\":7983:7992   */\n      dup7\n        /* \"#utility.yul\":7979:8001   */\n      add\n        /* \"#utility.yul\":7958:8011   */\n      tag_242\n      jump\t// in\n    tag_351:\n        /* \"#utility.yul\":7948:8011   */\n      swap2\n      pop\n        /* \"#utility.yul\":7903:8021   */\n      pop\n        /* \"#utility.yul\":7554:8028   */\n      swap3\n      pop\n      swap3\n      swap1\n      pop\n      jump\t// out\n        /* \"#utility.yul\":8034:8508   */\n    tag_103:\n        /* \"#utility.yul\":8102:8108   */\n      0x00\n        /* \"#utility.yul\":8110:8116   */\n      dup1\n        /* \"#utility.yul\":8159:8161   */\n      0x40\n        /* \"#utility.yul\":8147:8156   */\n      dup4\n        /* \"#utility.yul\":8138:8145   */\n      dup6\n        /* \"#utility.yul\":8134:8157   */\n      sub\n        /* \"#utility.yul\":8130:8162   */\n      slt\n        /* \"#utility.yul\":8127:8246   */\n      iszero\n      tag_353\n      jumpi\n        /* \"#utility.yul\":8165:8244   */\n      tag_354\n      tag_234\n      jump\t// in\n    tag_354:\n        /* \"#utility.yul\":8127:8246   */\n    tag_353:\n        /* \"#utility.yul\":8285:8286   */\n      0x00\n        /* \"#utility.yul\":8310:8363   */\n      tag_355\n        /* \"#utility.yul\":8355:8362   */\n      dup6\n        /* \"#utility.yul\":8346:8352   */\n      dup3\n        /* \"#utility.yul\":8335:8344   */\n      dup7\n        /* \"#utility.yul\":8331:8353   */\n      add\n        /* \"#utility.yul\":8310:8363   */\n      tag_239\n      jump\t// in\n    tag_355:\n        /* \"#utility.yul\":8300:8363   */\n      swap3\n      pop\n        /* \"#utility.yul\":8256:8373   */\n      pop\n        /* \"#utility.yul\":8412:8414   */\n      0x20\n        /* \"#utility.yul\":8438:8491   */\n      tag_356\n        /* \"#utility.yul\":8483:8490   */\n      dup6\n        /* \"#utility.yul\":8474:8480   */\n      dup3\n        /* \"#utility.yul\":8463:8472   */\n      dup7\n        /* \"#utility.yul\":8459:8481   */\n      add\n        /* \"#utility.yul\":8438:8491   */\n      tag_239\n      jump\t// in\n    tag_356:\n        /* \"#utility.yul\":8428:8491   */\n      swap2\n      pop\n        /* \"#utility.yul\":8383:8501   */\n      pop\n        /* \"#utility.yul\":8034:8508   */\n      swap3\n      pop\n      swap3\n      swap1\n      pop\n      jump\t// out\n        /* \"#utility.yul\":8514:9414   */\n    tag_110:\n        /* \"#utility.yul\":8782:8786   */\n      0x00\n        /* \"#utility.yul\":8820:8823   */\n      0xe0\n        /* \"#utility.yul\":8809:8818   */\n      dup3\n        /* \"#utility.yul\":8805:8824   */\n      add\n        /* \"#utility.yul\":8797:8824   */\n      swap1\n      pop\n        /* \"#utility.yul\":8834:8905   */\n      tag_358\n        /* \"#utility.yul\":8902:8903   */\n      0x00\n        /* \"#utility.yul\":8891:8900   */\n      dup4\n        /* \"#utility.yul\":8887:8904   */\n      add\n        /* \"#utility.yul\":8878:8884   */\n      dup11\n        /* \"#utility.yul\":8834:8905   */\n      tag_245\n      jump\t// in\n    tag_358:\n        /* \"#utility.yul\":8915:8987   */\n      tag_359\n        /* \"#utility.yul\":8983:8985   */\n      0x20\n        /* \"#utility.yul\":8972:8981   */\n      dup4\n        /* \"#utility.yul\":8968:8986   */\n      add\n        /* \"#utility.yul\":8959:8965   */\n      dup10\n        /* \"#utility.yul\":8915:8987   */\n      tag_245\n      jump\t// in\n    tag_359:\n        /* \"#utility.yul\":8997:9082   */\n      tag_360\n        /* \"#utility.yul\":9078:9080   */\n      0x40\n        /* \"#utility.yul\":9067:9076   */\n      dup4\n        /* \"#utility.yul\":9063:9081   */\n      add\n        /* \"#utility.yul\":9054:9060   */\n      dup9\n        /* \"#utility.yul\":8997:9082   */\n      tag_252\n      jump\t// in\n    tag_360:\n        /* \"#utility.yul\":9092:9164   */\n      tag_361\n        /* \"#utility.yul\":9160:9162   */\n      0x60\n        /* \"#utility.yul\":9149:9158   */\n      dup4\n        /* \"#utility.yul\":9145:9163   */\n      add\n        /* \"#utility.yul\":9136:9142   */\n      dup8\n        /* \"#utility.yul\":9092:9164   */\n      tag_248\n      jump\t// in\n    tag_361:\n        /* \"#utility.yul\":9174:9247   */\n      tag_362\n        /* \"#utility.yul\":9242:9245   */\n      0x80\n        /* \"#utility.yul\":9231:9240   */\n      dup4\n        /* \"#utility.yul\":9227:9246   */\n      add\n        /* \"#utility.yul\":9218:9224   */\n      dup7\n        /* \"#utility.yul\":9174:9247   */\n      tag_245\n      jump\t// in\n    tag_362:\n        /* \"#utility.yul\":9257:9330   */\n      tag_363\n        /* \"#utility.yul\":9325:9328   */\n      0xa0\n        /* \"#utility.yul\":9314:9323   */\n      dup4\n        /* \"#utility.yul\":9310:9329   */\n      add\n        /* \"#utility.yul\":9301:9307   */\n      dup6\n        /* \"#utility.yul\":9257:9330   */\n      tag_245\n      jump\t// in\n    tag_363:\n        /* \"#utility.yul\":9340:9407   */\n      tag_364\n        /* \"#utility.yul\":9402:9405   */\n      0xc0\n        /* \"#utility.yul\":9391:9400   */\n      dup4\n        /* \"#utility.yul\":9387:9406   */\n      add\n        /* \"#utility.yul\":9378:9384   */\n      dup5\n        /* \"#utility.yul\":9340:9407   */\n      tag_244\n      jump\t// in\n    tag_364:\n        /* \"#utility.yul\":8514:9414   */\n      swap9\n      swap8\n      pop\n      pop\n      pop\n      pop\n      pop\n      pop\n      pop\n      pop\n      jump\t// out\n        /* \"#utility.yul\":9420:9600   */\n    tag_253:\n        /* \"#utility.yul\":9468:9545   */\n      0x4e487b7100000000000000000000000000000000000000000000000000000000\n        /* \"#utility.yul\":9465:9466   */\n      0x00\n        /* \"#utility.yul\":9458:9546   */\n      mstore\n        /* \"#utility.yul\":9565:9569   */\n      0x22\n        /* \"#utility.yul\":9562:9563   */\n      0x04\n        /* \"#utility.yul\":9555:9570   */\n      mstore\n        /* \"#utility.yul\":9589:9593   */\n      0x24\n        /* \"#utility.yul\":9586:9587   */\n      0x00\n        /* \"#utility.yul\":9579:9594   */\n      revert\n        /* \"#utility.yul\":9606:9926   */\n    tag_116:\n        /* \"#utility.yul\":9650:9656   */\n      0x00\n        /* \"#utility.yul\":9687:9688   */\n      0x02\n        /* \"#utility.yul\":9681:9685   */\n      dup3\n        /* \"#utility.yul\":9677:9689   */\n      div\n        /* \"#utility.yul\":9667:9689   */\n      swap1\n      pop\n        /* \"#utility.yul\":9734:9735   */\n      0x01\n        /* \"#utility.yul\":9728:9732   */\n      dup3\n        /* \"#utility.yul\":9724:9736   */\n      and\n        /* \"#utility.yul\":9755:9773   */\n      dup1\n        /* \"#utility.yul\":9745:9826   */\n      tag_367\n      jumpi\n        /* \"#utility.yul\":9811:9815   */\n      0x7f\n        /* \"#utility.yul\":9803:9809   */\n      dup3\n        /* \"#utility.yul\":9799:9816   */\n      and\n        /* \"#utility.yul\":9789:9816   */\n      swap2\n      pop\n        /* \"#utility.yul\":9745:9826   */\n    tag_367:\n        /* \"#utility.yul\":9873:9875   */\n      0x20\n        /* \"#utility.yul\":9865:9871   */\n      dup3\n        /* \"#utility.yul\":9862:9876   */\n      lt\n        /* \"#utility.yul\":9842:9860   */\n      dup2\n        /* \"#utility.yul\":9839:9877   */\n      sub\n        /* \"#utility.yul\":9836:9920   */\n      tag_368\n      jumpi\n        /* \"#utility.yul\":9892:9910   */\n      tag_369\n      tag_253\n      jump\t// in\n    tag_369:\n        /* \"#utility.yul\":9836:9920   */\n    tag_368:\n        /* \"#utility.yul\":9657:9926   */\n      pop\n        /* \"#utility.yul\":9606:9926   */\n      swap2\n      swap1\n      pop\n      jump\t// out\n        /* \"#utility.yul\":9932:10112   */\n    tag_254:\n        /* \"#utility.yul\":9980:10057   */\n      0x4e487b7100000000000000000000000000000000000000000000000000000000\n        /* \"#utility.yul\":9977:9978   */\n      0x00\n        /* \"#utility.yul\":9970:10058   */\n      mstore\n        /* \"#utility.yul\":10077:10081   */\n      0x11\n        /* \"#utility.yul\":10074:10075   */\n      0x04\n        /* \"#utility.yul\":10067:10082   */\n      mstore\n        /* \"#utility.yul\":10101:10105   */\n      0x24\n        /* \"#utility.yul\":10098:10099   */\n      0x00\n        /* \"#utility.yul\":10091:10106   */\n      revert\n        /* \"#utility.yul\":10118:10312   */\n    tag_136:\n        /* \"#utility.yul\":10158:10162   */\n      0x00\n        /* \"#utility.yul\":10178:10198   */\n      tag_372\n        /* \"#utility.yul\":10196:10197   */\n      dup3\n        /* \"#utility.yul\":10178:10198   */\n      tag_240\n      jump\t// in\n    tag_372:\n        /* \"#utility.yul\":10173:10198   */\n      swap2\n      pop\n        /* \"#utility.yul\":10212:10232   */\n      tag_373\n        /* \"#utility.yul\":10230:10231   */\n      dup4\n        /* \"#utility.yul\":10212:10232   */\n      tag_240\n      jump\t// in\n    tag_373:\n        /* \"#utility.yul\":10207:10232   */\n      swap3\n      pop\n        /* \"#utility.yul\":10256:10257   */\n      dup3\n        /* \"#utility.yul\":10253:10254   */\n      dup3\n        /* \"#utility.yul\":10249:10258   */\n      sub\n        /* \"#utility.yul\":10241:10258   */\n      swap1\n      pop\n        /* \"#utility.yul\":10280:10281   */\n      dup2\n        /* \"#utility.yul\":10274:10278   */\n      dup2\n        /* \"#utility.yul\":10271:10282   */\n      gt\n        /* \"#utility.yul\":10268:10305   */\n      iszero\n      tag_374\n      jumpi\n        /* \"#utility.yul\":10285:10303   */\n      tag_375\n      tag_254\n      jump\t// in\n    tag_375:\n        /* \"#utility.yul\":10268:10305   */\n    tag_374:\n        /* \"#utility.yul\":10118:10312   */\n      swap3\n      swap2\n      pop\n      pop\n      jump\t// out\n        /* \"#utility.yul\":10318:10509   */\n    tag_139:\n        /* \"#utility.yul\":10358:10361   */\n      0x00\n        /* \"#utility.yul\":10377:10397   */\n      tag_377\n        /* \"#utility.yul\":10395:10396   */\n      dup3\n        /* \"#utility.yul\":10377:10397   */\n      tag_240\n      jump\t// in\n    tag_377:\n        /* \"#utility.yul\":10372:10397   */\n      swap2\n      pop\n        /* \"#utility.yul\":10411:10431   */\n      tag_378\n        /* \"#utility.yul\":10429:10430   */\n      dup4\n        /* \"#utility.yul\":10411:10431   */\n      tag_240\n      jump\t// in\n    tag_378:\n        /* \"#utility.yul\":10406:10431   */\n      swap3\n      pop\n        /* \"#utility.yul\":10454:10455   */\n      dup3\n        /* \"#utility.yul\":10451:10452   */\n      dup3\n        /* \"#utility.yul\":10447:10456   */\n      add\n        /* \"#utility.yul\":10440:10456   */\n      swap1\n      pop\n        /* \"#utility.yul\":10475:10478   */\n      dup1\n        /* \"#utility.yul\":10472:10473   */\n      dup3\n        /* \"#utility.yul\":10469:10479   */\n      gt\n        /* \"#utility.yul\":10466:10502   */\n      iszero\n      tag_379\n      jumpi\n        /* \"#utility.yul\":10482:10500   */\n      tag_380\n      tag_254\n      jump\t// in\n    tag_380:\n        /* \"#utility.yul\":10466:10502   */\n    tag_379:\n        /* \"#utility.yul\":10318:10509   */\n      swap3\n      swap2\n      pop\n      pop\n      jump\t// out\n        /* \"#utility.yul\":10515:10748   */\n    tag_144:\n        /* \"#utility.yul\":10554:10557   */\n      0x00\n        /* \"#utility.yul\":10577:10601   */\n      tag_382\n        /* \"#utility.yul\":10595:10600   */\n      dup3\n        /* \"#utility.yul\":10577:10601   */\n      tag_240\n      jump\t// in\n    tag_382:\n        /* \"#utility.yul\":10568:10601   */\n      swap2\n      pop\n        /* \"#utility.yul\":10623:10689   */\n      0xffffffffffffffffffffffffffffffffffffffffffffffffffffffffffffffff\n        /* \"#utility.yul\":10616:10621   */\n      dup3\n        /* \"#utility.yul\":10613:10690   */\n      sub\n        /* \"#utility.yul\":10610:10713   */\n      tag_383\n      jumpi\n        /* \"#utility.yul\":10693:10711   */\n      tag_384\n      tag_254\n      jump\t// in\n    tag_384:\n        /* \"#utility.yul\":10610:10713   */\n    tag_383:\n        /* \"#utility.yul\":10740:10741   */\n      0x01\n        /* \"#utility.yul\":10733:10738   */\n      dup3\n        /* \"#utility.yul\":10729:10742   */\n      add\n        /* \"#utility.yul\":10722:10742   */\n      swap1\n      pop\n        /* \"#utility.yul\":10515:10748   */\n      swap2\n      swap1\n      pop\n      jump\t// out\n        /* \"#utility.yul\":10754:10925   */\n    tag_255:\n        /* \"#utility.yul\":10894:10917   */\n      0x446576696365206e6f7420726567697374657265640000000000000000000000\n        /* \"#utility.yul\":10890:10891   */\n      0x00\n        /* \"#utility.yul\":10882:10888   */\n      dup3\n        /* \"#utility.yul\":10878:10892   */\n      add\n        /* \"#utility.yul\":10871:10918   */\n      mstore\n        /* \"#utility.yul\":10754:10925   */\n      pop\n      jump\t// out\n        /* \"#utility.yul\":10931:11297   */\n    tag_256:\n        /* \"#utility.yul\":11073:11076   */\n      0x00\n        /* \"#utility.yul\":11094:11161   */\n      tag_387\n        /* \"#utility.yul\":11158:11160   */\n      0x15\n        /* \"#utility.yul\":11153:11156   */\n      dup4\n        /* \"#utility.yul\":11094:11161   */\n      tag_229\n      jump\t// in\n    tag_387:\n        /* \"#utility.yul\":11087:11161   */\n      swap2\n      pop\n        /* \"#utility.yul\":11170:11263   */\n      tag_388\n        /* \"#utility.yul\":11259:11262   */\n      dup3\n        /* \"#utility.yul\":11170:11263   */\n      tag_255\n      jump\t// in\n    tag_388:\n        /* \"#utility.yul\":11288:11290   */\n      0x20\n        /* \"#utility.yul\":11283:11286   */\n      dup3\n        /* \"#utility.yul\":11279:11291   */\n      add\n        /* \"#utility.yul\":11272:11291   */\n      swap1\n      pop\n        /* \"#utility.yul\":10931:11297   */\n      swap2\n      swap1\n      pop\n      jump\t// out\n        /* \"#utility.yul\":11303:11722   */\n    tag_154:\n        /* \"#utility.yul\":11469:11473   */\n      0x00\n        /* \"#utility.yul\":11507:11509   */\n      0x20\n        /* \"#utility.yul\":11496:11505   */\n      dup3\n        /* \"#utility.yul\":11492:11510   */\n      add\n        /* \"#utility.yul\":11484:11510   */\n      swap1\n      pop\n        /* \"#utility.yul\":11556:11565   */\n      dup2\n        /* \"#utility.yul\":11550:11554   */\n      dup2\n        /* \"#utility.yul\":11546:11566   */\n      sub\n        /* \"#utility.yul\":11542:11543   */\n      0x00\n        /* \"#utility.yul\":11531:11540   */\n      dup4\n        /* \"#utility.yul\":11527:11544   */\n      add\n        /* \"#utility.yul\":11520:11567   */\n      mstore\n        /* \"#utility.yul\":11584:11715   */\n      tag_390\n        /* \"#utility.yul\":11710:11714   */\n      dup2\n        /* \"#utility.yul\":11584:11715   */\n      tag_256\n      jump\t// in\n    tag_390:\n        /* \"#utility.yul\":11576:11715   */\n      swap1\n      pop\n        /* \"#utility.yul\":11303:11722   */\n      swap2\n      swap1\n      pop\n      jump\t// out\n        /* \"#utility.yul\":11728:11948   */\n    tag_257:\n        /* \"#utility.yul\":11868:11902   */\n      0x7468652064657669636520436f6e7472616374206973206e6f74206163746976\n        /* \"#utility.yul\":11864:11865   */\n      0x00\n        /* \"#utility.yul\":11856:11862   */\n      dup3\n        /* \"#utility.yul\":11852:11866   */\n      add\n        /* \"#utility.yul\":11845:11903   */\n      mstore\n        /* \"#utility.yul\":11937:11940   */\n      0x6500000000000000000000000000000000000000000000000000000000000000\n        /* \"#utility.yul\":11932:11934   */\n      0x20\n        /* \"#utility.yul\":11924:11930   */\n      dup3\n        /* \"#utility.yul\":11920:11935   */\n      add\n        /* \"#utility.yul\":11913:11941   */\n      mstore\n        /* \"#utility.yul\":11728:11948   */\n      pop\n      jump\t// out\n        /* \"#utility.yul\":11954:12320   */\n    tag_258:\n        /* \"#utility.yul\":12096:12099   */\n      0x00\n        /* \"#utility.yul\":12117:12184   */\n      tag_393\n        /* \"#utility.yul\":12181:12183   */\n      0x21\n        /* \"#utility.yul\":12176:12179   */\n      dup4\n        /* \"#utility.yul\":12117:12184   */\n      tag_229\n      jump\t// in\n    tag_393:\n        /* \"#utility.yul\":12110:12184   */\n      swap2\n      pop\n        /* \"#utility.yul\":12193:12286   */\n      tag_394\n        /* \"#utility.yul\":12282:12285   */\n      dup3\n        /* \"#utility.yul\":12193:12286   */\n      tag_257\n      jump\t// in\n    tag_394:\n        /* \"#utility.yul\":12311:12313   */\n      0x40\n        /* \"#utility.yul\":12306:12309   */\n      dup3\n        /* \"#utility.yul\":12302:12314   */\n      add\n        /* \"#utility.yul\":12295:12314   */\n      swap1\n      pop\n        /* \"#utility.yul\":11954:12320   */\n      swap2\n      swap1\n      pop\n      jump\t// out\n        /* \"#utility.yul\":12326:12745   */\n    tag_173:\n        /* \"#utility.yul\":12492:12496   */\n      0x00\n        /* \"#utility.yul\":12530:12532   */\n      0x20\n        /* \"#utility.yul\":12519:12528   */\n      dup3\n        /* \"#utility.yul\":12515:12533   */\n      add\n        /* \"#utility.yul\":12507:12533   */\n      swap1\n      pop\n        /* \"#utility.yul\":12579:12588   */\n      dup2\n        /* \"#utility.yul\":12573:12577   */\n      dup2\n        /* \"#utility.yul\":12569:12589   */\n      sub\n        /* \"#utility.yul\":12565:12566   */\n      0x00\n        /* \"#utility.yul\":12554:12563   */\n      dup4\n        /* \"#utility.yul\":12550:12567   */\n      add\n        /* \"#utility.yul\":12543:12590   */\n      mstore\n        /* \"#utility.yul\":12607:12738   */\n      tag_396\n        /* \"#utility.yul\":12733:12737   */\n      dup2\n        /* \"#utility.yul\":12607:12738   */\n      tag_258\n      jump\t// in\n    tag_396:\n        /* \"#utility.yul\":12599:12738   */\n      swap1\n      pop\n        /* \"#utility.yul\":12326:12745   */\n      swap2\n      swap1\n      pop\n      jump\t// out\n        /* \"#utility.yul\":12751:12929   */\n    tag_259:\n        /* \"#utility.yul\":12891:12921   */\n      0x436f6e747261637420686173206e6f7420737461727465642079657400000000\n        /* \"#utility.yul\":12887:12888   */\n      0x00\n        /* \"#utility.yul\":12879:12885   */\n      dup3\n        /* \"#utility.yul\":12875:12889   */\n      add\n        /* \"#utility.yul\":12868:12922   */\n      mstore\n        /* \"#utility.yul\":12751:12929   */\n      pop\n      jump\t// out\n        /* \"#utility.yul\":12935:13301   */\n    tag_260:\n        /* \"#utility.yul\":13077:13080   */\n      0x00\n        /* \"#utility.yul\":13098:13165   */\n      tag_399\n        /* \"#utility.yul\":13162:13164   */\n      0x1c\n        /* \"#utility.yul\":13157:13160   */\n      dup4\n        /* \"#utility.yul\":13098:13165   */\n      tag_229\n      jump\t// in\n    tag_399:\n        /* \"#utility.yul\":13091:13165   */\n      swap2\n      pop\n        /* \"#utility.yul\":13174:13267   */\n      tag_400\n        /* \"#utility.yul\":13263:13266   */\n      dup3\n        /* \"#utility.yul\":13174:13267   */\n      tag_259\n      jump\t// in\n    tag_400:\n        /* \"#utility.yul\":13292:13294   */\n      0x20\n        /* \"#utility.yul\":13287:13290   */\n      dup3\n        /* \"#utility.yul\":13283:13295   */\n      add\n        /* \"#utility.yul\":13276:13295   */\n      swap1\n      pop\n        /* \"#utility.yul\":12935:13301   */\n      swap2\n      swap1\n      pop\n      jump\t// out\n        /* \"#utility.yul\":13307:13726   */\n    tag_176:\n        /* \"#utility.yul\":13473:13477   */\n      0x00\n        /* \"#utility.yul\":13511:13513   */\n      0x20\n        /* \"#utility.yul\":13500:13509   */\n      dup3\n        /* \"#utility.yul\":13496:13514   */\n      add\n        /* \"#utility.yul\":13488:13514   */\n      swap1\n      pop\n        /* \"#utility.yul\":13560:13569   */\n      dup2\n        /* \"#utility.yul\":13554:13558   */\n      dup2\n        /* \"#utility.yul\":13550:13570   */\n      sub\n        /* \"#utility.yul\":13546:13547   */\n      0x00\n        /* \"#utility.yul\":13535:13544   */\n      dup4\n        /* \"#utility.yul\":13531:13548   */\n      add\n        /* \"#utility.yul\":13524:13571   */\n      mstore\n        /* \"#utility.yul\":13588:13719   */\n      tag_402\n        /* \"#utility.yul\":13714:13718   */\n      dup2\n        /* \"#utility.yul\":13588:13719   */\n      tag_260\n      jump\t// in\n    tag_402:\n        /* \"#utility.yul\":13580:13719   */\n      swap1\n      pop\n        /* \"#utility.yul\":13307:13726   */\n      swap2\n      swap1\n      pop\n      jump\t// out\n        /* \"#utility.yul\":13732:14174   */\n    tag_201:\n        /* \"#utility.yul\":13881:13885   */\n      0x00\n        /* \"#utility.yul\":13919:13921   */\n      0x60\n        /* \"#utility.yul\":13908:13917   */\n      dup3\n        /* \"#utility.yul\":13904:13922   */\n      add\n        /* \"#utility.yul\":13896:13922   */\n      swap1\n      pop\n        /* \"#utility.yul\":13932:14003   */\n      tag_404\n        /* \"#utility.yul\":14000:14001   */\n      0x00\n        /* \"#utility.yul\":13989:13998   */\n      dup4\n        /* \"#utility.yul\":13985:14002   */\n      add\n        /* \"#utility.yul\":13976:13982   */\n      dup7\n        /* \"#utility.yul\":13932:14003   */\n      tag_248\n      jump\t// in\n    tag_404:\n        /* \"#utility.yul\":14013:14085   */\n      tag_405\n        /* \"#utility.yul\":14081:14083   */\n      0x20\n        /* \"#utility.yul\":14070:14079   */\n      dup4\n        /* \"#utility.yul\":14066:14084   */\n      add\n        /* \"#utility.yul\":14057:14063   */\n      dup6\n        /* \"#utility.yul\":14013:14085   */\n      tag_245\n      jump\t// in\n    tag_405:\n        /* \"#utility.yul\":14095:14167   */\n      tag_406\n        /* \"#utility.yul\":14163:14165   */\n      0x40\n        /* \"#utility.yul\":14152:14161   */\n      dup4\n        /* \"#utility.yul\":14148:14166   */\n      add\n        /* \"#utility.yul\":14139:14145   */\n      dup5\n        /* \"#utility.yul\":14095:14167   */\n      tag_245\n      jump\t// in\n    tag_406:\n        /* \"#utility.yul\":13732:14174   */\n      swap5\n      swap4\n      pop\n      pop\n      pop\n      pop\n      jump\t// out\n\n    auxdata: 0xa2646970667358221220ffddef9cbd7a3cbffb3180d31ecf8eccf12b1b0ecf2009b2d18b1cee57ba19fa64736f6c63430008180033\n}\n",
				"bytecode": {
					"linkReferences": {},
					"object": "608060405234801562000010575f80fd5b50604051620022743803806200227483398181016040528101906200003691906200017a565b6040518060400160405280600681526020017f52546f6b656e00000000000000000000000000000000000000000000000000008152506040518060400160405280600281526020017f52540000000000000000000000000000000000000000000000000000000000008152508160039081620000b391906200046d565b508060049081620000c591906200046d565b5050503360055f6101000a81548173ffffffffffffffffffffffffffffffffffffffff021916908373ffffffffffffffffffffffffffffffffffffffff1602179055508560068190555084600781905550836008819055508260098190555081600a8190555080600b8190555050505050505062000551565b5f80fd5b5f819050919050565b620001568162000142565b811462000161575f80fd5b50565b5f8151905062000174816200014b565b92915050565b5f805f805f8060c087890312156200019757620001966200013e565b5b5f620001a689828a0162000164565b9650506020620001b989828a0162000164565b9550506040620001cc89828a0162000164565b9450506060620001df89828a0162000164565b9350506080620001f289828a0162000164565b92505060a06200020589828a0162000164565b9150509295509295509295565b5f81519050919050565b7f4e487b71000000000000000000000000000000000000000000000000000000005f52604160045260245ffd5b7f4e487b71000000000000000000000000000000000000000000000000000000005f52602260045260245ffd5b5f60028204905060018216806200028e57607f821691505b602082108103620002a457620002a362000249565b5b50919050565b5f819050815f5260205f209050919050565b5f6020601f8301049050919050565b5f82821b905092915050565b5f60088302620003087fffffffffffffffffffffffffffffffffffffffffffffffffffffffffffffffff82620002cb565b620003148683620002cb565b95508019841693508086168417925050509392505050565b5f819050919050565b5f620003556200034f620003498462000142565b6200032c565b62000142565b9050919050565b5f819050919050565b620003708362000335565b620003886200037f826200035c565b848454620002d7565b825550505050565b5f90565b6200039e62000390565b620003ab81848462000365565b505050565b5b81811015620003d257620003c65f8262000394565b600181019050620003b1565b5050565b601f8211156200042157620003eb81620002aa565b620003f684620002bc565b8101602085101562000406578190505b6200041e6200041585620002bc565b830182620003b0565b50505b505050565b5f82821c905092915050565b5f620004435f198460080262000426565b1980831691505092915050565b5f6200045d838362000432565b9150826002028217905092915050565b620004788262000212565b67ffffffffffffffff8111156200049457620004936200021c565b5b620004a0825462000276565b620004ad828285620003d6565b5f60209050601f831160018114620004e3575f8415620004ce578287015190505b620004da858262000450565b86555062000549565b601f198416620004f386620002aa565b5f5b828110156200051c57848901518255600182019150602085019450602081019050620004f5565b868310156200053c578489015162000538601f89168262000432565b8355505b6001600288020188555050505b505050505050565b611d15806200055f5f395ff3fe608060405234801561000f575f80fd5b5060043610610140575f3560e01c806370a08231116100b65780639af8a5eb1161007a5780639af8a5eb1461036c578063a9059cbb1461038a578063b620b8cb146103ba578063dd62ed3e146103d6578063e7b4cac614610406578063f7b2a7be1461043c57610140565b806370a08231146102c257806378e97925146102f25780638da5cb5b146103105780638ea286c21461032e57806395d89b411461034e57610140565b8063313ce56711610108578063313ce567146101fe5780633197cbb61461021c5780634fd7d76a1461023a578063563a6c7a14610258578063589af69c1461028857806363a411c0146102a657610140565b806306fdde0314610144578063095ea7b31461016257806318160ddd14610192578063217f4353146101b057806323b872dd146101ce575b5f80fd5b61014c61045a565b60405161015991906115ff565b60405180910390f35b61017c600480360381019061017791906116b0565b6104ea565b6040516101899190611708565b60405180910390f35b61019a61050c565b6040516101a79190611730565b60405180910390f35b6101b8610515565b6040516101c59190611730565b60405180910390f35b6101e860048036038101906101e39190611749565b61051b565b6040516101f59190611708565b60405180910390f35b610206610549565b60405161021391906117b4565b60405180910390f35b610224610551565b6040516102319190611730565b60405180910390f35b610242610557565b60405161024f9190611730565b60405180910390f35b610272600480360381019061026d91906117cd565b61055d565b60405161027f9190611730565b60405180910390f35b61029061058a565b60405161029d9190611730565b60405180910390f35b6102c060048036038101906102bb9190611831565b610590565b005b6102dc60048036038101906102d79190611831565b61075b565b6040516102e99190611730565b60405180910390f35b6102fa6107a0565b6040516103079190611730565b60405180910390f35b6103186107a6565b604051610325919061186b565b60405180910390f35b6103366107cb565b604051610345939291906118f7565b60405180910390f35b6103566109d2565b60405161036391906115ff565b60405180910390f35b610374610a62565b6040516103819190611730565b60405180910390f35b6103a4600480360381019061039f91906116b0565b610a68565b6040516103b19190611708565b60405180910390f35b6103d460048036038101906103cf919061192c565b610a8a565b005b6103f060048036038101906103eb919061196a565b610ed1565b6040516103fd9190611730565b60405180910390f35b610420600480360381019061041b9190611831565b610f53565b60405161043397969594939291906119a8565b60405180910390f35b610444610fc9565b6040516104519190611730565b60405180910390f35b60606003805461046990611a42565b80601f016020809104026020016040519081016040528092919081815260200182805461049590611a42565b80156104e05780601f106104b7576101008083540402835291602001916104e0565b820191905f5260205f20905b8154815290600101906020018083116104c357829003601f168201915b5050505050905090565b5f806104f4610fcf565b9050610501818585610fd6565b600191505092915050565b5f600254905090565b60085481565b5f80610525610fcf565b9050610532858285610fe8565b61053d85858561107a565b60019150509392505050565b5f6012905090565b600a5481565b60065481565b5f818461056a9190611a9f565b83866105769190611a9f565b6105809190611ad2565b9050949350505050565b60075481565b60055f9054906101000a900473ffffffffffffffffffffffffffffffffffffffff1673ffffffffffffffffffffffffffffffffffffffff163373ffffffffffffffffffffffffffffffffffffffff16146105e8575f80fd5b600d5f8154809291906105fa90611b05565b91905055506040518060e001604052805f81526020015f81526020015f600381111561062957610628611884565b5b81526020018273ffffffffffffffffffffffffffffffffffffffff1681526020014281526020015f815260200160011515815250600c5f8373ffffffffffffffffffffffffffffffffffffffff1673ffffffffffffffffffffffffffffffffffffffff1681526020019081526020015f205f820151815f0155602082015181600101556040820151816002015f6101000a81548160ff021916908360038111156106d6576106d5611884565b5b021790555060608201518160020160016101000a81548173ffffffffffffffffffffffffffffffffffffffff021916908373ffffffffffffffffffffffffffffffffffffffff1602179055506080820151816003015560a0820151816004015560c0820151816005015f6101000a81548160ff02191690831515021790555090505050565b5f805f8373ffffffffffffffffffffffffffffffffffffffff1673ffffffffffffffffffffffffffffffffffffffff1681526020019081526020015f20549050919050565b60095481565b60055f9054906101000a900473ffffffffffffffffffffffffffffffffffffffff1681565b5f805f8073ffffffffffffffffffffffffffffffffffffffff16600c5f3373ffffffffffffffffffffffffffffffffffffffff1673ffffffffffffffffffffffffffffffffffffffff1681526020019081526020015f2060020160019054906101000a900473ffffffffffffffffffffffffffffffffffffffff1673ffffffffffffffffffffffffffffffffffffffff160361089c576040517f08c379a000000000000000000000000000000000000000000000000000000000815260040161089390611b96565b60405180910390fd5b5f600c5f3373ffffffffffffffffffffffffffffffffffffffff1673ffffffffffffffffffffffffffffffffffffffff1681526020019081526020015f206040518060e00160405290815f820154815260200160018201548152602001600282015f9054906101000a900460ff16600381111561091c5761091b611884565b5b600381111561092e5761092d611884565b5b81526020016002820160019054906101000a900473ffffffffffffffffffffffffffffffffffffffff1673ffffffffffffffffffffffffffffffffffffffff1673ffffffffffffffffffffffffffffffffffffffff1681526020016003820154815260200160048201548152602001600582015f9054906101000a900460ff1615151515815250509050805f01518160200151826040015193509350935050909192565b6060600480546109e190611a42565b80601f0160208091040260200160405190810160405280929190818152602001828054610a0d90611a42565b8015610a585780601f10610a2f57610100808354040283529160200191610a58565b820191905f5260205f20905b815481529060010190602001808311610a3b57829003601f168201915b5050505050905090565b600d5481565b5f80610a72610fcf565b9050610a7f81858561107a565b600191505092915050565b5f73ffffffffffffffffffffffffffffffffffffffff16600c5f3373ffffffffffffffffffffffffffffffffffffffff1673ffffffffffffffffffffffffffffffffffffffff1681526020019081526020015f2060020160019054906101000a900473ffffffffffffffffffffffffffffffffffffffff1673ffffffffffffffffffffffffffffffffffffffff1603610b58576040517f08c379a0000000000000000000000000000000000000000000000000000000008152600401610b4f90611b96565b60405180910390fd5b600c5f3373ffffffffffffffffffffffffffffffffffffffff1673ffffffffffffffffffffffffffffffffffffffff1681526020019081526020015f206005015f9054906101000a900460ff16610be4576040517f08c379a0000000000000000000000000000000000000000000000000000000008152600401610bdb90611c24565b60405180910390fd5b600954421015610c29576040517f08c379a0000000000000000000000000000000000000000000000000000000008152600401610c2090611c8c565b60405180910390fd5b600a54421115610d3e575f600c5f3373ffffffffffffffffffffffffffffffffffffffff1673ffffffffffffffffffffffffffffffffffffffff1681526020019081526020015f206005015f6101000a81548160ff021916908315150217905550600b54600c5f3373ffffffffffffffffffffffffffffffffffffffff1673ffffffffffffffffffffffffffffffffffffffff1681526020019081526020015f20600401819055506003600c5f3373ffffffffffffffffffffffffffffffffffffffff1673ffffffffffffffffffffffffffffffffffffffff1681526020019081526020015f206002015f6101000a81548160ff02191690836003811115610d3457610d33611884565b5b0217905550610ecd565b610d48828261116a565b15610e0e57600c5f3373ffffffffffffffffffffffffffffffffffffffff1673ffffffffffffffffffffffffffffffffffffffff1681526020019081526020015f205f015f815480929190610d9c90611b05565b91905055506001600c5f3373ffffffffffffffffffffffffffffffffffffffff1673ffffffffffffffffffffffffffffffffffffffff1681526020019081526020015f206002015f6101000a81548160ff02191690836003811115610e0457610e03611884565b5b0217905550610ecc565b600c5f3373ffffffffffffffffffffffffffffffffffffffff1673ffffffffffffffffffffffffffffffffffffffff1681526020019081526020015f206001015f815480929190610e5e90611b05565b91905055506002600c5f3373ffffffffffffffffffffffffffffffffffffffff1673ffffffffffffffffffffffffffffffffffffffff1681526020019081526020015f206002015f6101000a81548160ff02191690836003811115610ec657610ec5611884565b5b02179055505b5b5050565b5f60015f8473ffffffffffffffffffffffffffffffffffffffff1673ffffffffffffffffffffffffffffffffffffffff1681526020019081526020015f205f8373ffffffffffffffffffffffffffffffffffffffff1673ffffffffffffffffffffffffffffffffffffffff1681526020019081526020015f2054905092915050565b600c602052805f5260405f205f91509050805f015490806001015490806002015f9054906101000a900460ff16908060020160019054906101000a900473ffffffffffffffffffffffffffffffffffffffff1690806003015490806004015490806005015f9054906101000a900460ff16905087565b600b5481565b5f33905090565b610fe3838383600161118d565b505050565b5f610ff38484610ed1565b90507fffffffffffffffffffffffffffffffffffffffffffffffffffffffffffffffff81146110745781811015611065578281836040517ffb8f41b200000000000000000000000000000000000000000000000000000000815260040161105c93929190611caa565b60405180910390fd5b61107384848484035f61118d565b5b50505050565b5f73ffffffffffffffffffffffffffffffffffffffff168373ffffffffffffffffffffffffffffffffffffffff16036110ea575f6040517f96c6fd1e0000000000000000000000000000000000000000000000000000000081526004016110e1919061186b565b60405180910390fd5b5f73ffffffffffffffffffffffffffffffffffffffff168273ffffffffffffffffffffffffffffffffffffffff160361115a575f6040517fec442f05000000000000000000000000000000000000000000000000000000008152600401611151919061186b565b60405180910390fd5b61116583838361135c565b505050565b5f8061117c600654600754868661055d565b905060085481111591505092915050565b5f73ffffffffffffffffffffffffffffffffffffffff168473ffffffffffffffffffffffffffffffffffffffff16036111fd575f6040517fe602df050000000000000000000000000000000000000000000000000000000081526004016111f4919061186b565b60405180910390fd5b5f73ffffffffffffffffffffffffffffffffffffffff168373ffffffffffffffffffffffffffffffffffffffff160361126d575f6040517f94280d62000000000000000000000000000000000000000000000000000000008152600401611264919061186b565b60405180910390fd5b8160015f8673ffffffffffffffffffffffffffffffffffffffff1673ffffffffffffffffffffffffffffffffffffffff1681526020019081526020015f205f8573ffffffffffffffffffffffffffffffffffffffff1673ffffffffffffffffffffffffffffffffffffffff1681526020019081526020015f20819055508015611356578273ffffffffffffffffffffffffffffffffffffffff168473ffffffffffffffffffffffffffffffffffffffff167f8c5be1e5ebec7d5bd14f71427d1e84f3dd0314c0f7b2291e5b200ac8c7c3b9258460405161134d9190611730565b60405180910390a35b50505050565b5f73ffffffffffffffffffffffffffffffffffffffff168373ffffffffffffffffffffffffffffffffffffffff16036113ac578060025f8282546113a09190611ad2565b9250508190555061147a565b5f805f8573ffffffffffffffffffffffffffffffffffffffff1673ffffffffffffffffffffffffffffffffffffffff1681526020019081526020015f2054905081811015611435578381836040517fe450d38c00000000000000000000000000000000000000000000000000000000815260040161142c93929190611caa565b60405180910390fd5b8181035f808673ffffffffffffffffffffffffffffffffffffffff1673ffffffffffffffffffffffffffffffffffffffff1681526020019081526020015f2081905550505b5f73ffffffffffffffffffffffffffffffffffffffff168273ffffffffffffffffffffffffffffffffffffffff16036114c1578060025f828254039250508190555061150b565b805f808473ffffffffffffffffffffffffffffffffffffffff1673ffffffffffffffffffffffffffffffffffffffff1681526020019081526020015f205f82825401925050819055505b8173ffffffffffffffffffffffffffffffffffffffff168373ffffffffffffffffffffffffffffffffffffffff167fddf252ad1be2c89b69c2b068fc378daa952ba7f163c4a11628f55a4df523b3ef836040516115689190611730565b60405180910390a3505050565b5f81519050919050565b5f82825260208201905092915050565b5f5b838110156115ac578082015181840152602081019050611591565b5f8484015250505050565b5f601f19601f8301169050919050565b5f6115d182611575565b6115db818561157f565b93506115eb81856020860161158f565b6115f4816115b7565b840191505092915050565b5f6020820190508181035f83015261161781846115c7565b905092915050565b5f80fd5b5f73ffffffffffffffffffffffffffffffffffffffff82169050919050565b5f61164c82611623565b9050919050565b61165c81611642565b8114611666575f80fd5b50565b5f8135905061167781611653565b92915050565b5f819050919050565b61168f8161167d565b8114611699575f80fd5b50565b5f813590506116aa81611686565b92915050565b5f80604083850312156116c6576116c561161f565b5b5f6116d385828601611669565b92505060206116e48582860161169c565b9150509250929050565b5f8115159050919050565b611702816116ee565b82525050565b5f60208201905061171b5f8301846116f9565b92915050565b61172a8161167d565b82525050565b5f6020820190506117435f830184611721565b92915050565b5f805f606084860312156117605761175f61161f565b5b5f61176d86828701611669565b935050602061177e86828701611669565b925050604061178f8682870161169c565b9150509250925092565b5f60ff82169050919050565b6117ae81611799565b82525050565b5f6020820190506117c75f8301846117a5565b92915050565b5f805f80608085870312156117e5576117e461161f565b5b5f6117f28782880161169c565b94505060206118038782880161169c565b93505060406118148782880161169c565b92505060606118258782880161169c565b91505092959194509250565b5f602082840312156118465761184561161f565b5b5f61185384828501611669565b91505092915050565b61186581611642565b82525050565b5f60208201905061187e5f83018461185c565b92915050565b7f4e487b71000000000000000000000000000000000000000000000000000000005f52602160045260245ffd5b600481106118c2576118c1611884565b5b50565b5f8190506118d2826118b1565b919050565b5f6118e1826118c5565b9050919050565b6118f1816118d7565b82525050565b5f60608201905061190a5f830186611721565b6119176020830185611721565b61192460408301846118e8565b949350505050565b5f80604083850312156119425761194161161f565b5b5f61194f8582860161169c565b92505060206119608582860161169c565b9150509250929050565b5f80604083850312156119805761197f61161f565b5b5f61198d85828601611669565b925050602061199e85828601611669565b9150509250929050565b5f60e0820190506119bb5f83018a611721565b6119c86020830189611721565b6119d560408301886118e8565b6119e2606083018761185c565b6119ef6080830186611721565b6119fc60a0830185611721565b611a0960c08301846116f9565b98975050505050505050565b7f4e487b71000000000000000000000000000000000000000000000000000000005f52602260045260245ffd5b5f6002820490506001821680611a5957607f821691505b602082108103611a6c57611a6b611a15565b5b50919050565b7f4e487b71000000000000000000000000000000000000000000000000000000005f52601160045260245ffd5b5f611aa98261167d565b9150611ab48361167d565b9250828203905081811115611acc57611acb611a72565b5b92915050565b5f611adc8261167d565b9150611ae78361167d565b9250828201905080821115611aff57611afe611a72565b5b92915050565b5f611b0f8261167d565b91507fffffffffffffffffffffffffffffffffffffffffffffffffffffffffffffffff8203611b4157611b40611a72565b5b600182019050919050565b7f446576696365206e6f74207265676973746572656400000000000000000000005f82015250565b5f611b8060158361157f565b9150611b8b82611b4c565b602082019050919050565b5f6020820190508181035f830152611bad81611b74565b9050919050565b7f7468652064657669636520436f6e7472616374206973206e6f742061637469765f8201527f6500000000000000000000000000000000000000000000000000000000000000602082015250565b5f611c0e60218361157f565b9150611c1982611bb4565b604082019050919050565b5f6020820190508181035f830152611c3b81611c02565b9050919050565b7f436f6e747261637420686173206e6f74207374617274656420796574000000005f82015250565b5f611c76601c8361157f565b9150611c8182611c42565b602082019050919050565b5f6020820190508181035f830152611ca381611c6a565b9050919050565b5f606082019050611cbd5f83018661185c565b611cca6020830185611721565b611cd76040830184611721565b94935050505056fea2646970667358221220ffddef9cbd7a3cbffb3180d31ecf8eccf12b1b0ecf2009b2d18b1cee57ba19fa64736f6c63430008180033",
					"opcodes": "PUSH1 0x80 PUSH1 0x40 MSTORE CALLVALUE DUP1 ISZERO PUSH3 0x10 JUMPI PUSH0 DUP1 REVERT JUMPDEST POP PUSH1 0x40 MLOAD PUSH3 0x2274 CODESIZE SUB DUP1 PUSH3 0x2274 DUP4 CODECOPY DUP2 DUP2 ADD PUSH1 0x40 MSTORE DUP2 ADD SWAP1 PUSH3 0x36 SWAP2 SWAP1 PUSH3 0x17A JUMP JUMPDEST PUSH1 0x40 MLOAD DUP1 PUSH1 0x40 ADD PUSH1 0x40 MSTORE DUP1 PUSH1 0x6 DUP2 MSTORE PUSH1 0x20 ADD PUSH32 0x52546F6B656E0000000000000000000000000000000000000000000000000000 DUP2 MSTORE POP PUSH1 0x40 MLOAD DUP1 PUSH1 0x40 ADD PUSH1 0x40 MSTORE DUP1 PUSH1 0x2 DUP2 MSTORE PUSH1 0x20 ADD PUSH32 0x5254000000000000000000000000000000000000000000000000000000000000 DUP2 MSTORE POP DUP2 PUSH1 0x3 SWAP1 DUP2 PUSH3 0xB3 SWAP2 SWAP1 PUSH3 0x46D JUMP JUMPDEST POP DUP1 PUSH1 0x4 SWAP1 DUP2 PUSH3 0xC5 SWAP2 SWAP1 PUSH3 0x46D JUMP JUMPDEST POP POP POP CALLER PUSH1 0x5 PUSH0 PUSH2 0x100 EXP DUP2 SLOAD DUP2 PUSH20 0xFFFFFFFFFFFFFFFFFFFFFFFFFFFFFFFFFFFFFFFF MUL NOT AND SWAP1 DUP4 PUSH20 0xFFFFFFFFFFFFFFFFFFFFFFFFFFFFFFFFFFFFFFFF AND MUL OR SWAP1 SSTORE POP DUP6 PUSH1 0x6 DUP2 SWAP1 SSTORE POP DUP5 PUSH1 0x7 DUP2 SWAP1 SSTORE POP DUP4 PUSH1 0x8 DUP2 SWAP1 SSTORE POP DUP3 PUSH1 0x9 DUP2 SWAP1 SSTORE POP DUP2 PUSH1 0xA DUP2 SWAP1 SSTORE POP DUP1 PUSH1 0xB DUP2 SWAP1 SSTORE POP POP POP POP POP POP POP PUSH3 0x551 JUMP JUMPDEST PUSH0 DUP1 REVERT JUMPDEST PUSH0 DUP2 SWAP1 POP SWAP2 SWAP1 POP JUMP JUMPDEST PUSH3 0x156 DUP2 PUSH3 0x142 JUMP JUMPDEST DUP2 EQ PUSH3 0x161 JUMPI PUSH0 DUP1 REVERT JUMPDEST POP JUMP JUMPDEST PUSH0 DUP2 MLOAD SWAP1 POP PUSH3 0x174 DUP2 PUSH3 0x14B JUMP JUMPDEST SWAP3 SWAP2 POP POP JUMP JUMPDEST PUSH0 DUP1 PUSH0 DUP1 PUSH0 DUP1 PUSH1 0xC0 DUP8 DUP10 SUB SLT ISZERO PUSH3 0x197 JUMPI PUSH3 0x196 PUSH3 0x13E JUMP JUMPDEST JUMPDEST PUSH0 PUSH3 0x1A6 DUP10 DUP3 DUP11 ADD PUSH3 0x164 JUMP JUMPDEST SWAP7 POP POP PUSH1 0x20 PUSH3 0x1B9 DUP10 DUP3 DUP11 ADD PUSH3 0x164 JUMP JUMPDEST SWAP6 POP POP PUSH1 0x40 PUSH3 0x1CC DUP10 DUP3 DUP11 ADD PUSH3 0x164 JUMP JUMPDEST SWAP5 POP POP PUSH1 0x60 PUSH3 0x1DF DUP10 DUP3 DUP11 ADD PUSH3 0x164 JUMP JUMPDEST SWAP4 POP POP PUSH1 0x80 PUSH3 0x1F2 DUP10 DUP3 DUP11 ADD PUSH3 0x164 JUMP JUMPDEST SWAP3 POP POP PUSH1 0xA0 PUSH3 0x205 DUP10 DUP3 DUP11 ADD PUSH3 0x164 JUMP JUMPDEST SWAP2 POP POP SWAP3 SWAP6 POP SWAP3 SWAP6 POP SWAP3 SWAP6 JUMP JUMPDEST PUSH0 DUP2 MLOAD SWAP1 POP SWAP2 SWAP1 POP JUMP JUMPDEST PUSH32 0x4E487B7100000000000000000000000000000000000000000000000000000000 PUSH0 MSTORE PUSH1 0x41 PUSH1 0x4 MSTORE PUSH1 0x24 PUSH0 REVERT JUMPDEST PUSH32 0x4E487B7100000000000000000000000000000000000000000000000000000000 PUSH0 MSTORE PUSH1 0x22 PUSH1 0x4 MSTORE PUSH1 0x24 PUSH0 REVERT JUMPDEST PUSH0 PUSH1 0x2 DUP3 DIV SWAP1 POP PUSH1 0x1 DUP3 AND DUP1 PUSH3 0x28E JUMPI PUSH1 0x7F DUP3 AND SWAP2 POP JUMPDEST PUSH1 0x20 DUP3 LT DUP2 SUB PUSH3 0x2A4 JUMPI PUSH3 0x2A3 PUSH3 0x249 JUMP JUMPDEST JUMPDEST POP SWAP2 SWAP1 POP JUMP JUMPDEST PUSH0 DUP2 SWAP1 POP DUP2 PUSH0 MSTORE PUSH1 0x20 PUSH0 KECCAK256 SWAP1 POP SWAP2 SWAP1 POP JUMP JUMPDEST PUSH0 PUSH1 0x20 PUSH1 0x1F DUP4 ADD DIV SWAP1 POP SWAP2 SWAP1 POP JUMP JUMPDEST PUSH0 DUP3 DUP3 SHL SWAP1 POP SWAP3 SWAP2 POP POP JUMP JUMPDEST PUSH0 PUSH1 0x8 DUP4 MUL PUSH3 0x308 PUSH32 0xFFFFFFFFFFFFFFFFFFFFFFFFFFFFFFFFFFFFFFFFFFFFFFFFFFFFFFFFFFFFFFFF DUP3 PUSH3 0x2CB JUMP JUMPDEST PUSH3 0x314 DUP7 DUP4 PUSH3 0x2CB JUMP JUMPDEST SWAP6 POP DUP1 NOT DUP5 AND SWAP4 POP DUP1 DUP7 AND DUP5 OR SWAP3 POP POP POP SWAP4 SWAP3 POP POP POP JUMP JUMPDEST PUSH0 DUP2 SWAP1 POP SWAP2 SWAP1 POP JUMP JUMPDEST PUSH0 PUSH3 0x355 PUSH3 0x34F PUSH3 0x349 DUP5 PUSH3 0x142 JUMP JUMPDEST PUSH3 0x32C JUMP JUMPDEST PUSH3 0x142 JUMP JUMPDEST SWAP1 POP SWAP2 SWAP1 POP JUMP JUMPDEST PUSH0 DUP2 SWAP1 POP SWAP2 SWAP1 POP JUMP JUMPDEST PUSH3 0x370 DUP4 PUSH3 0x335 JUMP JUMPDEST PUSH3 0x388 PUSH3 0x37F DUP3 PUSH3 0x35C JUMP JUMPDEST DUP5 DUP5 SLOAD PUSH3 0x2D7 JUMP JUMPDEST DUP3 SSTORE POP POP POP POP JUMP JUMPDEST PUSH0 SWAP1 JUMP JUMPDEST PUSH3 0x39E PUSH3 0x390 JUMP JUMPDEST PUSH3 0x3AB DUP2 DUP5 DUP5 PUSH3 0x365 JUMP JUMPDEST POP POP POP JUMP JUMPDEST JUMPDEST DUP2 DUP2 LT ISZERO PUSH3 0x3D2 JUMPI PUSH3 0x3C6 PUSH0 DUP3 PUSH3 0x394 JUMP JUMPDEST PUSH1 0x1 DUP2 ADD SWAP1 POP PUSH3 0x3B1 JUMP JUMPDEST POP POP JUMP JUMPDEST PUSH1 0x1F DUP3 GT ISZERO PUSH3 0x421 JUMPI PUSH3 0x3EB DUP2 PUSH3 0x2AA JUMP JUMPDEST PUSH3 0x3F6 DUP5 PUSH3 0x2BC JUMP JUMPDEST DUP2 ADD PUSH1 0x20 DUP6 LT ISZERO PUSH3 0x406 JUMPI DUP2 SWAP1 POP JUMPDEST PUSH3 0x41E PUSH3 0x415 DUP6 PUSH3 0x2BC JUMP JUMPDEST DUP4 ADD DUP3 PUSH3 0x3B0 JUMP JUMPDEST POP POP JUMPDEST POP POP POP JUMP JUMPDEST PUSH0 DUP3 DUP3 SHR SWAP1 POP SWAP3 SWAP2 POP POP JUMP JUMPDEST PUSH0 PUSH3 0x443 PUSH0 NOT DUP5 PUSH1 0x8 MUL PUSH3 0x426 JUMP JUMPDEST NOT DUP1 DUP4 AND SWAP2 POP POP SWAP3 SWAP2 POP POP JUMP JUMPDEST PUSH0 PUSH3 0x45D DUP4 DUP4 PUSH3 0x432 JUMP JUMPDEST SWAP2 POP DUP3 PUSH1 0x2 MUL DUP3 OR SWAP1 POP SWAP3 SWAP2 POP POP JUMP JUMPDEST PUSH3 0x478 DUP3 PUSH3 0x212 JUMP JUMPDEST PUSH8 0xFFFFFFFFFFFFFFFF DUP2 GT ISZERO PUSH3 0x494 JUMPI PUSH3 0x493 PUSH3 0x21C JUMP JUMPDEST JUMPDEST PUSH3 0x4A0 DUP3 SLOAD PUSH3 0x276 JUMP JUMPDEST PUSH3 0x4AD DUP3 DUP3 DUP6 PUSH3 0x3D6 JUMP JUMPDEST PUSH0 PUSH1 0x20 SWAP1 POP PUSH1 0x1F DUP4 GT PUSH1 0x1 DUP2 EQ PUSH3 0x4E3 JUMPI PUSH0 DUP5 ISZERO PUSH3 0x4CE JUMPI DUP3 DUP8 ADD MLOAD SWAP1 POP JUMPDEST PUSH3 0x4DA DUP6 DUP3 PUSH3 0x450 JUMP JUMPDEST DUP7 SSTORE POP PUSH3 0x549 JUMP JUMPDEST PUSH1 0x1F NOT DUP5 AND PUSH3 0x4F3 DUP7 PUSH3 0x2AA JUMP JUMPDEST PUSH0 JUMPDEST DUP3 DUP2 LT ISZERO PUSH3 0x51C JUMPI DUP5 DUP10 ADD MLOAD DUP3 SSTORE PUSH1 0x1 DUP3 ADD SWAP2 POP PUSH1 0x20 DUP6 ADD SWAP5 POP PUSH1 0x20 DUP2 ADD SWAP1 POP PUSH3 0x4F5 JUMP JUMPDEST DUP7 DUP4 LT ISZERO PUSH3 0x53C JUMPI DUP5 DUP10 ADD MLOAD PUSH3 0x538 PUSH1 0x1F DUP10 AND DUP3 PUSH3 0x432 JUMP JUMPDEST DUP4 SSTORE POP JUMPDEST PUSH1 0x1 PUSH1 0x2 DUP9 MUL ADD DUP9 SSTORE POP POP POP JUMPDEST POP POP POP POP POP POP JUMP JUMPDEST PUSH2 0x1D15 DUP1 PUSH3 0x55F PUSH0 CODECOPY PUSH0 RETURN INVALID PUSH1 0x80 PUSH1 0x40 MSTORE CALLVALUE DUP1 ISZERO PUSH2 0xF JUMPI PUSH0 DUP1 REVERT JUMPDEST POP PUSH1 0x4 CALLDATASIZE LT PUSH2 0x140 JUMPI PUSH0 CALLDATALOAD PUSH1 0xE0 SHR DUP1 PUSH4 0x70A08231 GT PUSH2 0xB6 JUMPI DUP1 PUSH4 0x9AF8A5EB GT PUSH2 0x7A JUMPI DUP1 PUSH4 0x9AF8A5EB EQ PUSH2 0x36C JUMPI DUP1 PUSH4 0xA9059CBB EQ PUSH2 0x38A JUMPI DUP1 PUSH4 0xB620B8CB EQ PUSH2 0x3BA JUMPI DUP1 PUSH4 0xDD62ED3E EQ PUSH2 0x3D6 JUMPI DUP1 PUSH4 0xE7B4CAC6 EQ PUSH2 0x406 JUMPI DUP1 PUSH4 0xF7B2A7BE EQ PUSH2 0x43C JUMPI PUSH2 0x140 JUMP JUMPDEST DUP1 PUSH4 0x70A08231 EQ PUSH2 0x2C2 JUMPI DUP1 PUSH4 0x78E97925 EQ PUSH2 0x2F2 JUMPI DUP1 PUSH4 0x8DA5CB5B EQ PUSH2 0x310 JUMPI DUP1 PUSH4 0x8EA286C2 EQ PUSH2 0x32E JUMPI DUP1 PUSH4 0x95D89B41 EQ PUSH2 0x34E JUMPI PUSH2 0x140 JUMP JUMPDEST DUP1 PUSH4 0x313CE567 GT PUSH2 0x108 JUMPI DUP1 PUSH4 0x313CE567 EQ PUSH2 0x1FE JUMPI DUP1 PUSH4 0x3197CBB6 EQ PUSH2 0x21C JUMPI DUP1 PUSH4 0x4FD7D76A EQ PUSH2 0x23A JUMPI DUP1 PUSH4 0x563A6C7A EQ PUSH2 0x258 JUMPI DUP1 PUSH4 0x589AF69C EQ PUSH2 0x288 JUMPI DUP1 PUSH4 0x63A411C0 EQ PUSH2 0x2A6 JUMPI PUSH2 0x140 JUMP JUMPDEST DUP1 PUSH4 0x6FDDE03 EQ PUSH2 0x144 JUMPI DUP1 PUSH4 0x95EA7B3 EQ PUSH2 0x162 JUMPI DUP1 PUSH4 0x18160DDD EQ PUSH2 0x192 JUMPI DUP1 PUSH4 0x217F4353 EQ PUSH2 0x1B0 JUMPI DUP1 PUSH4 0x23B872DD EQ PUSH2 0x1CE JUMPI JUMPDEST PUSH0 DUP1 REVERT JUMPDEST PUSH2 0x14C PUSH2 0x45A JUMP JUMPDEST PUSH1 0x40 MLOAD PUSH2 0x159 SWAP2 SWAP1 PUSH2 0x15FF JUMP JUMPDEST PUSH1 0x40 MLOAD DUP1 SWAP2 SUB SWAP1 RETURN JUMPDEST PUSH2 0x17C PUSH1 0x4 DUP1 CALLDATASIZE SUB DUP2 ADD SWAP1 PUSH2 0x177 SWAP2 SWAP1 PUSH2 0x16B0 JUMP JUMPDEST PUSH2 0x4EA JUMP JUMPDEST PUSH1 0x40 MLOAD PUSH2 0x189 SWAP2 SWAP1 PUSH2 0x1708 JUMP JUMPDEST PUSH1 0x40 MLOAD DUP1 SWAP2 SUB SWAP1 RETURN JUMPDEST PUSH2 0x19A PUSH2 0x50C JUMP JUMPDEST PUSH1 0x40 MLOAD PUSH2 0x1A7 SWAP2 SWAP1 PUSH2 0x1730 JUMP JUMPDEST PUSH1 0x40 MLOAD DUP1 SWAP2 SUB SWAP1 RETURN JUMPDEST PUSH2 0x1B8 PUSH2 0x515 JUMP JUMPDEST PUSH1 0x40 MLOAD PUSH2 0x1C5 SWAP2 SWAP1 PUSH2 0x1730 JUMP JUMPDEST PUSH1 0x40 MLOAD DUP1 SWAP2 SUB SWAP1 RETURN JUMPDEST PUSH2 0x1E8 PUSH1 0x4 DUP1 CALLDATASIZE SUB DUP2 ADD SWAP1 PUSH2 0x1E3 SWAP2 SWAP1 PUSH2 0x1749 JUMP JUMPDEST PUSH2 0x51B JUMP JUMPDEST PUSH1 0x40 MLOAD PUSH2 0x1F5 SWAP2 SWAP1 PUSH2 0x1708 JUMP JUMPDEST PUSH1 0x40 MLOAD DUP1 SWAP2 SUB SWAP1 RETURN JUMPDEST PUSH2 0x206 PUSH2 0x549 JUMP JUMPDEST PUSH1 0x40 MLOAD PUSH2 0x213 SWAP2 SWAP1 PUSH2 0x17B4 JUMP JUMPDEST PUSH1 0x40 MLOAD DUP1 SWAP2 SUB SWAP1 RETURN JUMPDEST PUSH2 0x224 PUSH2 0x551 JUMP JUMPDEST PUSH1 0x40 MLOAD PUSH2 0x231 SWAP2 SWAP1 PUSH2 0x1730 JUMP JUMPDEST PUSH1 0x40 MLOAD DUP1 SWAP2 SUB SWAP1 RETURN JUMPDEST PUSH2 0x242 PUSH2 0x557 JUMP JUMPDEST PUSH1 0x40 MLOAD PUSH2 0x24F SWAP2 SWAP1 PUSH2 0x1730 JUMP JUMPDEST PUSH1 0x40 MLOAD DUP1 SWAP2 SUB SWAP1 RETURN JUMPDEST PUSH2 0x272 PUSH1 0x4 DUP1 CALLDATASIZE SUB DUP2 ADD SWAP1 PUSH2 0x26D SWAP2 SWAP1 PUSH2 0x17CD JUMP JUMPDEST PUSH2 0x55D JUMP JUMPDEST PUSH1 0x40 MLOAD PUSH2 0x27F SWAP2 SWAP1 PUSH2 0x1730 JUMP JUMPDEST PUSH1 0x40 MLOAD DUP1 SWAP2 SUB SWAP1 RETURN JUMPDEST PUSH2 0x290 PUSH2 0x58A JUMP JUMPDEST PUSH1 0x40 MLOAD PUSH2 0x29D SWAP2 SWAP1 PUSH2 0x1730 JUMP JUMPDEST PUSH1 0x40 MLOAD DUP1 SWAP2 SUB SWAP1 RETURN JUMPDEST PUSH2 0x2C0 PUSH1 0x4 DUP1 CALLDATASIZE SUB DUP2 ADD SWAP1 PUSH2 0x2BB SWAP2 SWAP1 PUSH2 0x1831 JUMP JUMPDEST PUSH2 0x590 JUMP JUMPDEST STOP JUMPDEST PUSH2 0x2DC PUSH1 0x4 DUP1 CALLDATASIZE SUB DUP2 ADD SWAP1 PUSH2 0x2D7 SWAP2 SWAP1 PUSH2 0x1831 JUMP JUMPDEST PUSH2 0x75B JUMP JUMPDEST PUSH1 0x40 MLOAD PUSH2 0x2E9 SWAP2 SWAP1 PUSH2 0x1730 JUMP JUMPDEST PUSH1 0x40 MLOAD DUP1 SWAP2 SUB SWAP1 RETURN JUMPDEST PUSH2 0x2FA PUSH2 0x7A0 JUMP JUMPDEST PUSH1 0x40 MLOAD PUSH2 0x307 SWAP2 SWAP1 PUSH2 0x1730 JUMP JUMPDEST PUSH1 0x40 MLOAD DUP1 SWAP2 SUB SWAP1 RETURN JUMPDEST PUSH2 0x318 PUSH2 0x7A6 JUMP JUMPDEST PUSH1 0x40 MLOAD PUSH2 0x325 SWAP2 SWAP1 PUSH2 0x186B JUMP JUMPDEST PUSH1 0x40 MLOAD DUP1 SWAP2 SUB SWAP1 RETURN JUMPDEST PUSH2 0x336 PUSH2 0x7CB JUMP JUMPDEST PUSH1 0x40 MLOAD PUSH2 0x345 SWAP4 SWAP3 SWAP2 SWAP1 PUSH2 0x18F7 JUMP JUMPDEST PUSH1 0x40 MLOAD DUP1 SWAP2 SUB SWAP1 RETURN JUMPDEST PUSH2 0x356 PUSH2 0x9D2 JUMP JUMPDEST PUSH1 0x40 MLOAD PUSH2 0x363 SWAP2 SWAP1 PUSH2 0x15FF JUMP JUMPDEST PUSH1 0x40 MLOAD DUP1 SWAP2 SUB SWAP1 RETURN JUMPDEST PUSH2 0x374 PUSH2 0xA62 JUMP JUMPDEST PUSH1 0x40 MLOAD PUSH2 0x381 SWAP2 SWAP1 PUSH2 0x1730 JUMP JUMPDEST PUSH1 0x40 MLOAD DUP1 SWAP2 SUB SWAP1 RETURN JUMPDEST PUSH2 0x3A4 PUSH1 0x4 DUP1 CALLDATASIZE SUB DUP2 ADD SWAP1 PUSH2 0x39F SWAP2 SWAP1 PUSH2 0x16B0 JUMP JUMPDEST PUSH2 0xA68 JUMP JUMPDEST PUSH1 0x40 MLOAD PUSH2 0x3B1 SWAP2 SWAP1 PUSH2 0x1708 JUMP JUMPDEST PUSH1 0x40 MLOAD DUP1 SWAP2 SUB SWAP1 RETURN JUMPDEST PUSH2 0x3D4 PUSH1 0x4 DUP1 CALLDATASIZE SUB DUP2 ADD SWAP1 PUSH2 0x3CF SWAP2 SWAP1 PUSH2 0x192C JUMP JUMPDEST PUSH2 0xA8A JUMP JUMPDEST STOP JUMPDEST PUSH2 0x3F0 PUSH1 0x4 DUP1 CALLDATASIZE SUB DUP2 ADD SWAP1 PUSH2 0x3EB SWAP2 SWAP1 PUSH2 0x196A JUMP JUMPDEST PUSH2 0xED1 JUMP JUMPDEST PUSH1 0x40 MLOAD PUSH2 0x3FD SWAP2 SWAP1 PUSH2 0x1730 JUMP JUMPDEST PUSH1 0x40 MLOAD DUP1 SWAP2 SUB SWAP1 RETURN JUMPDEST PUSH2 0x420 PUSH1 0x4 DUP1 CALLDATASIZE SUB DUP2 ADD SWAP1 PUSH2 0x41B SWAP2 SWAP1 PUSH2 0x1831 JUMP JUMPDEST PUSH2 0xF53 JUMP JUMPDEST PUSH1 0x40 MLOAD PUSH2 0x433 SWAP8 SWAP7 SWAP6 SWAP5 SWAP4 SWAP3 SWAP2 SWAP1 PUSH2 0x19A8 JUMP JUMPDEST PUSH1 0x40 MLOAD DUP1 SWAP2 SUB SWAP1 RETURN JUMPDEST PUSH2 0x444 PUSH2 0xFC9 JUMP JUMPDEST PUSH1 0x40 MLOAD PUSH2 0x451 SWAP2 SWAP1 PUSH2 0x1730 JUMP JUMPDEST PUSH1 0x40 MLOAD DUP1 SWAP2 SUB SWAP1 RETURN JUMPDEST PUSH1 0x60 PUSH1 0x3 DUP1 SLOAD PUSH2 0x469 SWAP1 PUSH2 0x1A42 JUMP JUMPDEST DUP1 PUSH1 0x1F ADD PUSH1 0x20 DUP1 SWAP2 DIV MUL PUSH1 0x20 ADD PUSH1 0x40 MLOAD SWAP1 DUP2 ADD PUSH1 0x40 MSTORE DUP1 SWAP3 SWAP2 SWAP1 DUP2 DUP2 MSTORE PUSH1 0x20 ADD DUP3 DUP1 SLOAD PUSH2 0x495 SWAP1 PUSH2 0x1A42 JUMP JUMPDEST DUP1 ISZERO PUSH2 0x4E0 JUMPI DUP1 PUSH1 0x1F LT PUSH2 0x4B7 JUMPI PUSH2 0x100 DUP1 DUP4 SLOAD DIV MUL DUP4 MSTORE SWAP2 PUSH1 0x20 ADD SWAP2 PUSH2 0x4E0 JUMP JUMPDEST DUP3 ADD SWAP2 SWAP1 PUSH0 MSTORE PUSH1 0x20 PUSH0 KECCAK256 SWAP1 JUMPDEST DUP2 SLOAD DUP2 MSTORE SWAP1 PUSH1 0x1 ADD SWAP1 PUSH1 0x20 ADD DUP1 DUP4 GT PUSH2 0x4C3 JUMPI DUP3 SWAP1 SUB PUSH1 0x1F AND DUP3 ADD SWAP2 JUMPDEST POP POP POP POP POP SWAP1 POP SWAP1 JUMP JUMPDEST PUSH0 DUP1 PUSH2 0x4F4 PUSH2 0xFCF JUMP JUMPDEST SWAP1 POP PUSH2 0x501 DUP2 DUP6 DUP6 PUSH2 0xFD6 JUMP JUMPDEST PUSH1 0x1 SWAP2 POP POP SWAP3 SWAP2 POP POP JUMP JUMPDEST PUSH0 PUSH1 0x2 SLOAD SWAP1 POP SWAP1 JUMP JUMPDEST PUSH1 0x8 SLOAD DUP2 JUMP JUMPDEST PUSH0 DUP1 PUSH2 0x525 PUSH2 0xFCF JUMP JUMPDEST SWAP1 POP PUSH2 0x532 DUP6 DUP3 DUP6 PUSH2 0xFE8 JUMP JUMPDEST PUSH2 0x53D DUP6 DUP6 DUP6 PUSH2 0x107A JUMP JUMPDEST PUSH1 0x1 SWAP2 POP POP SWAP4 SWAP3 POP POP POP JUMP JUMPDEST PUSH0 PUSH1 0x12 SWAP1 POP SWAP1 JUMP JUMPDEST PUSH1 0xA SLOAD DUP2 JUMP JUMPDEST PUSH1 0x6 SLOAD DUP2 JUMP JUMPDEST PUSH0 DUP2 DUP5 PUSH2 0x56A SWAP2 SWAP1 PUSH2 0x1A9F JUMP JUMPDEST DUP4 DUP7 PUSH2 0x576 SWAP2 SWAP1 PUSH2 0x1A9F JUMP JUMPDEST PUSH2 0x580 SWAP2 SWAP1 PUSH2 0x1AD2 JUMP JUMPDEST SWAP1 POP SWAP5 SWAP4 POP POP POP POP JUMP JUMPDEST PUSH1 0x7 SLOAD DUP2 JUMP JUMPDEST PUSH1 0x5 PUSH0 SWAP1 SLOAD SWAP1 PUSH2 0x100 EXP SWAP1 DIV PUSH20 0xFFFFFFFFFFFFFFFFFFFFFFFFFFFFFFFFFFFFFFFF AND PUSH20 0xFFFFFFFFFFFFFFFFFFFFFFFFFFFFFFFFFFFFFFFF AND CALLER PUSH20 0xFFFFFFFFFFFFFFFFFFFFFFFFFFFFFFFFFFFFFFFF AND EQ PUSH2 0x5E8 JUMPI PUSH0 DUP1 REVERT JUMPDEST PUSH1 0xD PUSH0 DUP2 SLOAD DUP1 SWAP3 SWAP2 SWAP1 PUSH2 0x5FA SWAP1 PUSH2 0x1B05 JUMP JUMPDEST SWAP2 SWAP1 POP SSTORE POP PUSH1 0x40 MLOAD DUP1 PUSH1 0xE0 ADD PUSH1 0x40 MSTORE DUP1 PUSH0 DUP2 MSTORE PUSH1 0x20 ADD PUSH0 DUP2 MSTORE PUSH1 0x20 ADD PUSH0 PUSH1 0x3 DUP2 GT ISZERO PUSH2 0x629 JUMPI PUSH2 0x628 PUSH2 0x1884 JUMP JUMPDEST JUMPDEST DUP2 MSTORE PUSH1 0x20 ADD DUP3 PUSH20 0xFFFFFFFFFFFFFFFFFFFFFFFFFFFFFFFFFFFFFFFF AND DUP2 MSTORE PUSH1 0x20 ADD TIMESTAMP DUP2 MSTORE PUSH1 0x20 ADD PUSH0 DUP2 MSTORE PUSH1 0x20 ADD PUSH1 0x1 ISZERO ISZERO DUP2 MSTORE POP PUSH1 0xC PUSH0 DUP4 PUSH20 0xFFFFFFFFFFFFFFFFFFFFFFFFFFFFFFFFFFFFFFFF AND PUSH20 0xFFFFFFFFFFFFFFFFFFFFFFFFFFFFFFFFFFFFFFFF AND DUP2 MSTORE PUSH1 0x20 ADD SWAP1 DUP2 MSTORE PUSH1 0x20 ADD PUSH0 KECCAK256 PUSH0 DUP3 ADD MLOAD DUP2 PUSH0 ADD SSTORE PUSH1 0x20 DUP3 ADD MLOAD DUP2 PUSH1 0x1 ADD SSTORE PUSH1 0x40 DUP3 ADD MLOAD DUP2 PUSH1 0x2 ADD PUSH0 PUSH2 0x100 EXP DUP2 SLOAD DUP2 PUSH1 0xFF MUL NOT AND SWAP1 DUP4 PUSH1 0x3 DUP2 GT ISZERO PUSH2 0x6D6 JUMPI PUSH2 0x6D5 PUSH2 0x1884 JUMP JUMPDEST JUMPDEST MUL OR SWAP1 SSTORE POP PUSH1 0x60 DUP3 ADD MLOAD DUP2 PUSH1 0x2 ADD PUSH1 0x1 PUSH2 0x100 EXP DUP2 SLOAD DUP2 PUSH20 0xFFFFFFFFFFFFFFFFFFFFFFFFFFFFFFFFFFFFFFFF MUL NOT AND SWAP1 DUP4 PUSH20 0xFFFFFFFFFFFFFFFFFFFFFFFFFFFFFFFFFFFFFFFF AND MUL OR SWAP1 SSTORE POP PUSH1 0x80 DUP3 ADD MLOAD DUP2 PUSH1 0x3 ADD SSTORE PUSH1 0xA0 DUP3 ADD MLOAD DUP2 PUSH1 0x4 ADD SSTORE PUSH1 0xC0 DUP3 ADD MLOAD DUP2 PUSH1 0x5 ADD PUSH0 PUSH2 0x100 EXP DUP2 SLOAD DUP2 PUSH1 0xFF MUL NOT AND SWAP1 DUP4 ISZERO ISZERO MUL OR SWAP1 SSTORE POP SWAP1 POP POP POP JUMP JUMPDEST PUSH0 DUP1 PUSH0 DUP4 PUSH20 0xFFFFFFFFFFFFFFFFFFFFFFFFFFFFFFFFFFFFFFFF AND PUSH20 0xFFFFFFFFFFFFFFFFFFFFFFFFFFFFFFFFFFFFFFFF AND DUP2 MSTORE PUSH1 0x20 ADD SWAP1 DUP2 MSTORE PUSH1 0x20 ADD PUSH0 KECCAK256 SLOAD SWAP1 POP SWAP2 SWAP1 POP JUMP JUMPDEST PUSH1 0x9 SLOAD DUP2 JUMP JUMPDEST PUSH1 0x5 PUSH0 SWAP1 SLOAD SWAP1 PUSH2 0x100 EXP SWAP1 DIV PUSH20 0xFFFFFFFFFFFFFFFFFFFFFFFFFFFFFFFFFFFFFFFF AND DUP2 JUMP JUMPDEST PUSH0 DUP1 PUSH0 DUP1 PUSH20 0xFFFFFFFFFFFFFFFFFFFFFFFFFFFFFFFFFFFFFFFF AND PUSH1 0xC PUSH0 CALLER PUSH20 0xFFFFFFFFFFFFFFFFFFFFFFFFFFFFFFFFFFFFFFFF AND PUSH20 0xFFFFFFFFFFFFFFFFFFFFFFFFFFFFFFFFFFFFFFFF AND DUP2 MSTORE PUSH1 0x20 ADD SWAP1 DUP2 MSTORE PUSH1 0x20 ADD PUSH0 KECCAK256 PUSH1 0x2 ADD PUSH1 0x1 SWAP1 SLOAD SWAP1 PUSH2 0x100 EXP SWAP1 DIV PUSH20 0xFFFFFFFFFFFFFFFFFFFFFFFFFFFFFFFFFFFFFFFF AND PUSH20 0xFFFFFFFFFFFFFFFFFFFFFFFFFFFFFFFFFFFFFFFF AND SUB PUSH2 0x89C JUMPI PUSH1 0x40 MLOAD PUSH32 0x8C379A000000000000000000000000000000000000000000000000000000000 DUP2 MSTORE PUSH1 0x4 ADD PUSH2 0x893 SWAP1 PUSH2 0x1B96 JUMP JUMPDEST PUSH1 0x40 MLOAD DUP1 SWAP2 SUB SWAP1 REVERT JUMPDEST PUSH0 PUSH1 0xC PUSH0 CALLER PUSH20 0xFFFFFFFFFFFFFFFFFFFFFFFFFFFFFFFFFFFFFFFF AND PUSH20 0xFFFFFFFFFFFFFFFFFFFFFFFFFFFFFFFFFFFFFFFF AND DUP2 MSTORE PUSH1 0x20 ADD SWAP1 DUP2 MSTORE PUSH1 0x20 ADD PUSH0 KECCAK256 PUSH1 0x40 MLOAD DUP1 PUSH1 0xE0 ADD PUSH1 0x40 MSTORE SWAP1 DUP2 PUSH0 DUP3 ADD SLOAD DUP2 MSTORE PUSH1 0x20 ADD PUSH1 0x1 DUP3 ADD SLOAD DUP2 MSTORE PUSH1 0x20 ADD PUSH1 0x2 DUP3 ADD PUSH0 SWAP1 SLOAD SWAP1 PUSH2 0x100 EXP SWAP1 DIV PUSH1 0xFF AND PUSH1 0x3 DUP2 GT ISZERO PUSH2 0x91C JUMPI PUSH2 0x91B PUSH2 0x1884 JUMP JUMPDEST JUMPDEST PUSH1 0x3 DUP2 GT ISZERO PUSH2 0x92E JUMPI PUSH2 0x92D PUSH2 0x1884 JUMP JUMPDEST JUMPDEST DUP2 MSTORE PUSH1 0x20 ADD PUSH1 0x2 DUP3 ADD PUSH1 0x1 SWAP1 SLOAD SWAP1 PUSH2 0x100 EXP SWAP1 DIV PUSH20 0xFFFFFFFFFFFFFFFFFFFFFFFFFFFFFFFFFFFFFFFF AND PUSH20 0xFFFFFFFFFFFFFFFFFFFFFFFFFFFFFFFFFFFFFFFF AND PUSH20 0xFFFFFFFFFFFFFFFFFFFFFFFFFFFFFFFFFFFFFFFF AND DUP2 MSTORE PUSH1 0x20 ADD PUSH1 0x3 DUP3 ADD SLOAD DUP2 MSTORE PUSH1 0x20 ADD PUSH1 0x4 DUP3 ADD SLOAD DUP2 MSTORE PUSH1 0x20 ADD PUSH1 0x5 DUP3 ADD PUSH0 SWAP1 SLOAD SWAP1 PUSH2 0x100 EXP SWAP1 DIV PUSH1 0xFF AND ISZERO ISZERO ISZERO ISZERO DUP2 MSTORE POP POP SWAP1 POP DUP1 PUSH0 ADD MLOAD DUP2 PUSH1 0x20 ADD MLOAD DUP3 PUSH1 0x40 ADD MLOAD SWAP4 POP SWAP4 POP SWAP4 POP POP SWAP1 SWAP2 SWAP3 JUMP JUMPDEST PUSH1 0x60 PUSH1 0x4 DUP1 SLOAD PUSH2 0x9E1 SWAP1 PUSH2 0x1A42 JUMP JUMPDEST DUP1 PUSH1 0x1F ADD PUSH1 0x20 DUP1 SWAP2 DIV MUL PUSH1 0x20 ADD PUSH1 0x40 MLOAD SWAP1 DUP2 ADD PUSH1 0x40 MSTORE DUP1 SWAP3 SWAP2 SWAP1 DUP2 DUP2 MSTORE PUSH1 0x20 ADD DUP3 DUP1 SLOAD PUSH2 0xA0D SWAP1 PUSH2 0x1A42 JUMP JUMPDEST DUP1 ISZERO PUSH2 0xA58 JUMPI DUP1 PUSH1 0x1F LT PUSH2 0xA2F JUMPI PUSH2 0x100 DUP1 DUP4 SLOAD DIV MUL DUP4 MSTORE SWAP2 PUSH1 0x20 ADD SWAP2 PUSH2 0xA58 JUMP JUMPDEST DUP3 ADD SWAP2 SWAP1 PUSH0 MSTORE PUSH1 0x20 PUSH0 KECCAK256 SWAP1 JUMPDEST DUP2 SLOAD DUP2 MSTORE SWAP1 PUSH1 0x1 ADD SWAP1 PUSH1 0x20 ADD DUP1 DUP4 GT PUSH2 0xA3B JUMPI DUP3 SWAP1 SUB PUSH1 0x1F AND DUP3 ADD SWAP2 JUMPDEST POP POP POP POP POP SWAP1 POP SWAP1 JUMP JUMPDEST PUSH1 0xD SLOAD DUP2 JUMP JUMPDEST PUSH0 DUP1 PUSH2 0xA72 PUSH2 0xFCF JUMP JUMPDEST SWAP1 POP PUSH2 0xA7F DUP2 DUP6 DUP6 PUSH2 0x107A JUMP JUMPDEST PUSH1 0x1 SWAP2 POP POP SWAP3 SWAP2 POP POP JUMP JUMPDEST PUSH0 PUSH20 0xFFFFFFFFFFFFFFFFFFFFFFFFFFFFFFFFFFFFFFFF AND PUSH1 0xC PUSH0 CALLER PUSH20 0xFFFFFFFFFFFFFFFFFFFFFFFFFFFFFFFFFFFFFFFF AND PUSH20 0xFFFFFFFFFFFFFFFFFFFFFFFFFFFFFFFFFFFFFFFF AND DUP2 MSTORE PUSH1 0x20 ADD SWAP1 DUP2 MSTORE PUSH1 0x20 ADD PUSH0 KECCAK256 PUSH1 0x2 ADD PUSH1 0x1 SWAP1 SLOAD SWAP1 PUSH2 0x100 EXP SWAP1 DIV PUSH20 0xFFFFFFFFFFFFFFFFFFFFFFFFFFFFFFFFFFFFFFFF AND PUSH20 0xFFFFFFFFFFFFFFFFFFFFFFFFFFFFFFFFFFFFFFFF AND SUB PUSH2 0xB58 JUMPI PUSH1 0x40 MLOAD PUSH32 0x8C379A000000000000000000000000000000000000000000000000000000000 DUP2 MSTORE PUSH1 0x4 ADD PUSH2 0xB4F SWAP1 PUSH2 0x1B96 JUMP JUMPDEST PUSH1 0x40 MLOAD DUP1 SWAP2 SUB SWAP1 REVERT JUMPDEST PUSH1 0xC PUSH0 CALLER PUSH20 0xFFFFFFFFFFFFFFFFFFFFFFFFFFFFFFFFFFFFFFFF AND PUSH20 0xFFFFFFFFFFFFFFFFFFFFFFFFFFFFFFFFFFFFFFFF AND DUP2 MSTORE PUSH1 0x20 ADD SWAP1 DUP2 MSTORE PUSH1 0x20 ADD PUSH0 KECCAK256 PUSH1 0x5 ADD PUSH0 SWAP1 SLOAD SWAP1 PUSH2 0x100 EXP SWAP1 DIV PUSH1 0xFF AND PUSH2 0xBE4 JUMPI PUSH1 0x40 MLOAD PUSH32 0x8C379A000000000000000000000000000000000000000000000000000000000 DUP2 MSTORE PUSH1 0x4 ADD PUSH2 0xBDB SWAP1 PUSH2 0x1C24 JUMP JUMPDEST PUSH1 0x40 MLOAD DUP1 SWAP2 SUB SWAP1 REVERT JUMPDEST PUSH1 0x9 SLOAD TIMESTAMP LT ISZERO PUSH2 0xC29 JUMPI PUSH1 0x40 MLOAD PUSH32 0x8C379A000000000000000000000000000000000000000000000000000000000 DUP2 MSTORE PUSH1 0x4 ADD PUSH2 0xC20 SWAP1 PUSH2 0x1C8C JUMP JUMPDEST PUSH1 0x40 MLOAD DUP1 SWAP2 SUB SWAP1 REVERT JUMPDEST PUSH1 0xA SLOAD TIMESTAMP GT ISZERO PUSH2 0xD3E JUMPI PUSH0 PUSH1 0xC PUSH0 CALLER PUSH20 0xFFFFFFFFFFFFFFFFFFFFFFFFFFFFFFFFFFFFFFFF AND PUSH20 0xFFFFFFFFFFFFFFFFFFFFFFFFFFFFFFFFFFFFFFFF AND DUP2 MSTORE PUSH1 0x20 ADD SWAP1 DUP2 MSTORE PUSH1 0x20 ADD PUSH0 KECCAK256 PUSH1 0x5 ADD PUSH0 PUSH2 0x100 EXP DUP2 SLOAD DUP2 PUSH1 0xFF MUL NOT AND SWAP1 DUP4 ISZERO ISZERO MUL OR SWAP1 SSTORE POP PUSH1 0xB SLOAD PUSH1 0xC PUSH0 CALLER PUSH20 0xFFFFFFFFFFFFFFFFFFFFFFFFFFFFFFFFFFFFFFFF AND PUSH20 0xFFFFFFFFFFFFFFFFFFFFFFFFFFFFFFFFFFFFFFFF AND DUP2 MSTORE PUSH1 0x20 ADD SWAP1 DUP2 MSTORE PUSH1 0x20 ADD PUSH0 KECCAK256 PUSH1 0x4 ADD DUP2 SWAP1 SSTORE POP PUSH1 0x3 PUSH1 0xC PUSH0 CALLER PUSH20 0xFFFFFFFFFFFFFFFFFFFFFFFFFFFFFFFFFFFFFFFF AND PUSH20 0xFFFFFFFFFFFFFFFFFFFFFFFFFFFFFFFFFFFFFFFF AND DUP2 MSTORE PUSH1 0x20 ADD SWAP1 DUP2 MSTORE PUSH1 0x20 ADD PUSH0 KECCAK256 PUSH1 0x2 ADD PUSH0 PUSH2 0x100 EXP DUP2 SLOAD DUP2 PUSH1 0xFF MUL NOT AND SWAP1 DUP4 PUSH1 0x3 DUP2 GT ISZERO PUSH2 0xD34 JUMPI PUSH2 0xD33 PUSH2 0x1884 JUMP JUMPDEST JUMPDEST MUL OR SWAP1 SSTORE POP PUSH2 0xECD JUMP JUMPDEST PUSH2 0xD48 DUP3 DUP3 PUSH2 0x116A JUMP JUMPDEST ISZERO PUSH2 0xE0E JUMPI PUSH1 0xC PUSH0 CALLER PUSH20 0xFFFFFFFFFFFFFFFFFFFFFFFFFFFFFFFFFFFFFFFF AND PUSH20 0xFFFFFFFFFFFFFFFFFFFFFFFFFFFFFFFFFFFFFFFF AND DUP2 MSTORE PUSH1 0x20 ADD SWAP1 DUP2 MSTORE PUSH1 0x20 ADD PUSH0 KECCAK256 PUSH0 ADD PUSH0 DUP2 SLOAD DUP1 SWAP3 SWAP2 SWAP1 PUSH2 0xD9C SWAP1 PUSH2 0x1B05 JUMP JUMPDEST SWAP2 SWAP1 POP SSTORE POP PUSH1 0x1 PUSH1 0xC PUSH0 CALLER PUSH20 0xFFFFFFFFFFFFFFFFFFFFFFFFFFFFFFFFFFFFFFFF AND PUSH20 0xFFFFFFFFFFFFFFFFFFFFFFFFFFFFFFFFFFFFFFFF AND DUP2 MSTORE PUSH1 0x20 ADD SWAP1 DUP2 MSTORE PUSH1 0x20 ADD PUSH0 KECCAK256 PUSH1 0x2 ADD PUSH0 PUSH2 0x100 EXP DUP2 SLOAD DUP2 PUSH1 0xFF MUL NOT AND SWAP1 DUP4 PUSH1 0x3 DUP2 GT ISZERO PUSH2 0xE04 JUMPI PUSH2 0xE03 PUSH2 0x1884 JUMP JUMPDEST JUMPDEST MUL OR SWAP1 SSTORE POP PUSH2 0xECC JUMP JUMPDEST PUSH1 0xC PUSH0 CALLER PUSH20 0xFFFFFFFFFFFFFFFFFFFFFFFFFFFFFFFFFFFFFFFF AND PUSH20 0xFFFFFFFFFFFFFFFFFFFFFFFFFFFFFFFFFFFFFFFF AND DUP2 MSTORE PUSH1 0x20 ADD SWAP1 DUP2 MSTORE PUSH1 0x20 ADD PUSH0 KECCAK256 PUSH1 0x1 ADD PUSH0 DUP2 SLOAD DUP1 SWAP3 SWAP2 SWAP1 PUSH2 0xE5E SWAP1 PUSH2 0x1B05 JUMP JUMPDEST SWAP2 SWAP1 POP SSTORE POP PUSH1 0x2 PUSH1 0xC PUSH0 CALLER PUSH20 0xFFFFFFFFFFFFFFFFFFFFFFFFFFFFFFFFFFFFFFFF AND PUSH20 0xFFFFFFFFFFFFFFFFFFFFFFFFFFFFFFFFFFFFFFFF AND DUP2 MSTORE PUSH1 0x20 ADD SWAP1 DUP2 MSTORE PUSH1 0x20 ADD PUSH0 KECCAK256 PUSH1 0x2 ADD PUSH0 PUSH2 0x100 EXP DUP2 SLOAD DUP2 PUSH1 0xFF MUL NOT AND SWAP1 DUP4 PUSH1 0x3 DUP2 GT ISZERO PUSH2 0xEC6 JUMPI PUSH2 0xEC5 PUSH2 0x1884 JUMP JUMPDEST JUMPDEST MUL OR SWAP1 SSTORE POP JUMPDEST JUMPDEST POP POP JUMP JUMPDEST PUSH0 PUSH1 0x1 PUSH0 DUP5 PUSH20 0xFFFFFFFFFFFFFFFFFFFFFFFFFFFFFFFFFFFFFFFF AND PUSH20 0xFFFFFFFFFFFFFFFFFFFFFFFFFFFFFFFFFFFFFFFF AND DUP2 MSTORE PUSH1 0x20 ADD SWAP1 DUP2 MSTORE PUSH1 0x20 ADD PUSH0 KECCAK256 PUSH0 DUP4 PUSH20 0xFFFFFFFFFFFFFFFFFFFFFFFFFFFFFFFFFFFFFFFF AND PUSH20 0xFFFFFFFFFFFFFFFFFFFFFFFFFFFFFFFFFFFFFFFF AND DUP2 MSTORE PUSH1 0x20 ADD SWAP1 DUP2 MSTORE PUSH1 0x20 ADD PUSH0 KECCAK256 SLOAD SWAP1 POP SWAP3 SWAP2 POP POP JUMP JUMPDEST PUSH1 0xC PUSH1 0x20 MSTORE DUP1 PUSH0 MSTORE PUSH1 0x40 PUSH0 KECCAK256 PUSH0 SWAP2 POP SWAP1 POP DUP1 PUSH0 ADD SLOAD SWAP1 DUP1 PUSH1 0x1 ADD SLOAD SWAP1 DUP1 PUSH1 0x2 ADD PUSH0 SWAP1 SLOAD SWAP1 PUSH2 0x100 EXP SWAP1 DIV PUSH1 0xFF AND SWAP1 DUP1 PUSH1 0x2 ADD PUSH1 0x1 SWAP1 SLOAD SWAP1 PUSH2 0x100 EXP SWAP1 DIV PUSH20 0xFFFFFFFFFFFFFFFFFFFFFFFFFFFFFFFFFFFFFFFF AND SWAP1 DUP1 PUSH1 0x3 ADD SLOAD SWAP1 DUP1 PUSH1 0x4 ADD SLOAD SWAP1 DUP1 PUSH1 0x5 ADD PUSH0 SWAP1 SLOAD SWAP1 PUSH2 0x100 EXP SWAP1 DIV PUSH1 0xFF AND SWAP1 POP DUP8 JUMP JUMPDEST PUSH1 0xB SLOAD DUP2 JUMP JUMPDEST PUSH0 CALLER SWAP1 POP SWAP1 JUMP JUMPDEST PUSH2 0xFE3 DUP4 DUP4 DUP4 PUSH1 0x1 PUSH2 0x118D JUMP JUMPDEST POP POP POP JUMP JUMPDEST PUSH0 PUSH2 0xFF3 DUP5 DUP5 PUSH2 0xED1 JUMP JUMPDEST SWAP1 POP PUSH32 0xFFFFFFFFFFFFFFFFFFFFFFFFFFFFFFFFFFFFFFFFFFFFFFFFFFFFFFFFFFFFFFFF DUP2 EQ PUSH2 0x1074 JUMPI DUP2 DUP2 LT ISZERO PUSH2 0x1065 JUMPI DUP3 DUP2 DUP4 PUSH1 0x40 MLOAD PUSH32 0xFB8F41B200000000000000000000000000000000000000000000000000000000 DUP2 MSTORE PUSH1 0x4 ADD PUSH2 0x105C SWAP4 SWAP3 SWAP2 SWAP1 PUSH2 0x1CAA JUMP JUMPDEST PUSH1 0x40 MLOAD DUP1 SWAP2 SUB SWAP1 REVERT JUMPDEST PUSH2 0x1073 DUP5 DUP5 DUP5 DUP5 SUB PUSH0 PUSH2 0x118D JUMP JUMPDEST JUMPDEST POP POP POP POP JUMP JUMPDEST PUSH0 PUSH20 0xFFFFFFFFFFFFFFFFFFFFFFFFFFFFFFFFFFFFFFFF AND DUP4 PUSH20 0xFFFFFFFFFFFFFFFFFFFFFFFFFFFFFFFFFFFFFFFF AND SUB PUSH2 0x10EA JUMPI PUSH0 PUSH1 0x40 MLOAD PUSH32 0x96C6FD1E00000000000000000000000000000000000000000000000000000000 DUP2 MSTORE PUSH1 0x4 ADD PUSH2 0x10E1 SWAP2 SWAP1 PUSH2 0x186B JUMP JUMPDEST PUSH1 0x40 MLOAD DUP1 SWAP2 SUB SWAP1 REVERT JUMPDEST PUSH0 PUSH20 0xFFFFFFFFFFFFFFFFFFFFFFFFFFFFFFFFFFFFFFFF AND DUP3 PUSH20 0xFFFFFFFFFFFFFFFFFFFFFFFFFFFFFFFFFFFFFFFF AND SUB PUSH2 0x115A JUMPI PUSH0 PUSH1 0x40 MLOAD PUSH32 0xEC442F0500000000000000000000000000000000000000000000000000000000 DUP2 MSTORE PUSH1 0x4 ADD PUSH2 0x1151 SWAP2 SWAP1 PUSH2 0x186B JUMP JUMPDEST PUSH1 0x40 MLOAD DUP1 SWAP2 SUB SWAP1 REVERT JUMPDEST PUSH2 0x1165 DUP4 DUP4 DUP4 PUSH2 0x135C JUMP JUMPDEST POP POP POP JUMP JUMPDEST PUSH0 DUP1 PUSH2 0x117C PUSH1 0x6 SLOAD PUSH1 0x7 SLOAD DUP7 DUP7 PUSH2 0x55D JUMP JUMPDEST SWAP1 POP PUSH1 0x8 SLOAD DUP2 GT ISZERO SWAP2 POP POP SWAP3 SWAP2 POP POP JUMP JUMPDEST PUSH0 PUSH20 0xFFFFFFFFFFFFFFFFFFFFFFFFFFFFFFFFFFFFFFFF AND DUP5 PUSH20 0xFFFFFFFFFFFFFFFFFFFFFFFFFFFFFFFFFFFFFFFF AND SUB PUSH2 0x11FD JUMPI PUSH0 PUSH1 0x40 MLOAD PUSH32 0xE602DF0500000000000000000000000000000000000000000000000000000000 DUP2 MSTORE PUSH1 0x4 ADD PUSH2 0x11F4 SWAP2 SWAP1 PUSH2 0x186B JUMP JUMPDEST PUSH1 0x40 MLOAD DUP1 SWAP2 SUB SWAP1 REVERT JUMPDEST PUSH0 PUSH20 0xFFFFFFFFFFFFFFFFFFFFFFFFFFFFFFFFFFFFFFFF AND DUP4 PUSH20 0xFFFFFFFFFFFFFFFFFFFFFFFFFFFFFFFFFFFFFFFF AND SUB PUSH2 0x126D JUMPI PUSH0 PUSH1 0x40 MLOAD PUSH32 0x94280D6200000000000000000000000000000000000000000000000000000000 DUP2 MSTORE PUSH1 0x4 ADD PUSH2 0x1264 SWAP2 SWAP1 PUSH2 0x186B JUMP JUMPDEST PUSH1 0x40 MLOAD DUP1 SWAP2 SUB SWAP1 REVERT JUMPDEST DUP2 PUSH1 0x1 PUSH0 DUP7 PUSH20 0xFFFFFFFFFFFFFFFFFFFFFFFFFFFFFFFFFFFFFFFF AND PUSH20 0xFFFFFFFFFFFFFFFFFFFFFFFFFFFFFFFFFFFFFFFF AND DUP2 MSTORE PUSH1 0x20 ADD SWAP1 DUP2 MSTORE PUSH1 0x20 ADD PUSH0 KECCAK256 PUSH0 DUP6 PUSH20 0xFFFFFFFFFFFFFFFFFFFFFFFFFFFFFFFFFFFFFFFF AND PUSH20 0xFFFFFFFFFFFFFFFFFFFFFFFFFFFFFFFFFFFFFFFF AND DUP2 MSTORE PUSH1 0x20 ADD SWAP1 DUP2 MSTORE PUSH1 0x20 ADD PUSH0 KECCAK256 DUP2 SWAP1 SSTORE POP DUP1 ISZERO PUSH2 0x1356 JUMPI DUP3 PUSH20 0xFFFFFFFFFFFFFFFFFFFFFFFFFFFFFFFFFFFFFFFF AND DUP5 PUSH20 0xFFFFFFFFFFFFFFFFFFFFFFFFFFFFFFFFFFFFFFFF AND PUSH32 0x8C5BE1E5EBEC7D5BD14F71427D1E84F3DD0314C0F7B2291E5B200AC8C7C3B925 DUP5 PUSH1 0x40 MLOAD PUSH2 0x134D SWAP2 SWAP1 PUSH2 0x1730 JUMP JUMPDEST PUSH1 0x40 MLOAD DUP1 SWAP2 SUB SWAP1 LOG3 JUMPDEST POP POP POP POP JUMP JUMPDEST PUSH0 PUSH20 0xFFFFFFFFFFFFFFFFFFFFFFFFFFFFFFFFFFFFFFFF AND DUP4 PUSH20 0xFFFFFFFFFFFFFFFFFFFFFFFFFFFFFFFFFFFFFFFF AND SUB PUSH2 0x13AC JUMPI DUP1 PUSH1 0x2 PUSH0 DUP3 DUP3 SLOAD PUSH2 0x13A0 SWAP2 SWAP1 PUSH2 0x1AD2 JUMP JUMPDEST SWAP3 POP POP DUP2 SWAP1 SSTORE POP PUSH2 0x147A JUMP JUMPDEST PUSH0 DUP1 PUSH0 DUP6 PUSH20 0xFFFFFFFFFFFFFFFFFFFFFFFFFFFFFFFFFFFFFFFF AND PUSH20 0xFFFFFFFFFFFFFFFFFFFFFFFFFFFFFFFFFFFFFFFF AND DUP2 MSTORE PUSH1 0x20 ADD SWAP1 DUP2 MSTORE PUSH1 0x20 ADD PUSH0 KECCAK256 SLOAD SWAP1 POP DUP2 DUP2 LT ISZERO PUSH2 0x1435 JUMPI DUP4 DUP2 DUP4 PUSH1 0x40 MLOAD PUSH32 0xE450D38C00000000000000000000000000000000000000000000000000000000 DUP2 MSTORE PUSH1 0x4 ADD PUSH2 0x142C SWAP4 SWAP3 SWAP2 SWAP1 PUSH2 0x1CAA JUMP JUMPDEST PUSH1 0x40 MLOAD DUP1 SWAP2 SUB SWAP1 REVERT JUMPDEST DUP2 DUP2 SUB PUSH0 DUP1 DUP7 PUSH20 0xFFFFFFFFFFFFFFFFFFFFFFFFFFFFFFFFFFFFFFFF AND PUSH20 0xFFFFFFFFFFFFFFFFFFFFFFFFFFFFFFFFFFFFFFFF AND DUP2 MSTORE PUSH1 0x20 ADD SWAP1 DUP2 MSTORE PUSH1 0x20 ADD PUSH0 KECCAK256 DUP2 SWAP1 SSTORE POP POP JUMPDEST PUSH0 PUSH20 0xFFFFFFFFFFFFFFFFFFFFFFFFFFFFFFFFFFFFFFFF AND DUP3 PUSH20 0xFFFFFFFFFFFFFFFFFFFFFFFFFFFFFFFFFFFFFFFF AND SUB PUSH2 0x14C1 JUMPI DUP1 PUSH1 0x2 PUSH0 DUP3 DUP3 SLOAD SUB SWAP3 POP POP DUP2 SWAP1 SSTORE POP PUSH2 0x150B JUMP JUMPDEST DUP1 PUSH0 DUP1 DUP5 PUSH20 0xFFFFFFFFFFFFFFFFFFFFFFFFFFFFFFFFFFFFFFFF AND PUSH20 0xFFFFFFFFFFFFFFFFFFFFFFFFFFFFFFFFFFFFFFFF AND DUP2 MSTORE PUSH1 0x20 ADD SWAP1 DUP2 MSTORE PUSH1 0x20 ADD PUSH0 KECCAK256 PUSH0 DUP3 DUP3 SLOAD ADD SWAP3 POP POP DUP2 SWAP1 SSTORE POP JUMPDEST DUP2 PUSH20 0xFFFFFFFFFFFFFFFFFFFFFFFFFFFFFFFFFFFFFFFF AND DUP4 PUSH20 0xFFFFFFFFFFFFFFFFFFFFFFFFFFFFFFFFFFFFFFFF AND PUSH32 0xDDF252AD1BE2C89B69C2B068FC378DAA952BA7F163C4A11628F55A4DF523B3EF DUP4 PUSH1 0x40 MLOAD PUSH2 0x1568 SWAP2 SWAP1 PUSH2 0x1730 JUMP JUMPDEST PUSH1 0x40 MLOAD DUP1 SWAP2 SUB SWAP1 LOG3 POP POP POP JUMP JUMPDEST PUSH0 DUP2 MLOAD SWAP1 POP SWAP2 SWAP1 POP JUMP JUMPDEST PUSH0 DUP3 DUP3 MSTORE PUSH1 0x20 DUP3 ADD SWAP1 POP SWAP3 SWAP2 POP POP JUMP JUMPDEST PUSH0 JUMPDEST DUP4 DUP2 LT ISZERO PUSH2 0x15AC JUMPI DUP1 DUP3 ADD MLOAD DUP2 DUP5 ADD MSTORE PUSH1 0x20 DUP2 ADD SWAP1 POP PUSH2 0x1591 JUMP JUMPDEST PUSH0 DUP5 DUP5 ADD MSTORE POP POP POP POP JUMP JUMPDEST PUSH0 PUSH1 0x1F NOT PUSH1 0x1F DUP4 ADD AND SWAP1 POP SWAP2 SWAP1 POP JUMP JUMPDEST PUSH0 PUSH2 0x15D1 DUP3 PUSH2 0x1575 JUMP JUMPDEST PUSH2 0x15DB DUP2 DUP6 PUSH2 0x157F JUMP JUMPDEST SWAP4 POP PUSH2 0x15EB DUP2 DUP6 PUSH1 0x20 DUP7 ADD PUSH2 0x158F JUMP JUMPDEST PUSH2 0x15F4 DUP2 PUSH2 0x15B7 JUMP JUMPDEST DUP5 ADD SWAP2 POP POP SWAP3 SWAP2 POP POP JUMP JUMPDEST PUSH0 PUSH1 0x20 DUP3 ADD SWAP1 POP DUP2 DUP2 SUB PUSH0 DUP4 ADD MSTORE PUSH2 0x1617 DUP2 DUP5 PUSH2 0x15C7 JUMP JUMPDEST SWAP1 POP SWAP3 SWAP2 POP POP JUMP JUMPDEST PUSH0 DUP1 REVERT JUMPDEST PUSH0 PUSH20 0xFFFFFFFFFFFFFFFFFFFFFFFFFFFFFFFFFFFFFFFF DUP3 AND SWAP1 POP SWAP2 SWAP1 POP JUMP JUMPDEST PUSH0 PUSH2 0x164C DUP3 PUSH2 0x1623 JUMP JUMPDEST SWAP1 POP SWAP2 SWAP1 POP JUMP JUMPDEST PUSH2 0x165C DUP2 PUSH2 0x1642 JUMP JUMPDEST DUP2 EQ PUSH2 0x1666 JUMPI PUSH0 DUP1 REVERT JUMPDEST POP JUMP JUMPDEST PUSH0 DUP2 CALLDATALOAD SWAP1 POP PUSH2 0x1677 DUP2 PUSH2 0x1653 JUMP JUMPDEST SWAP3 SWAP2 POP POP JUMP JUMPDEST PUSH0 DUP2 SWAP1 POP SWAP2 SWAP1 POP JUMP JUMPDEST PUSH2 0x168F DUP2 PUSH2 0x167D JUMP JUMPDEST DUP2 EQ PUSH2 0x1699 JUMPI PUSH0 DUP1 REVERT JUMPDEST POP JUMP JUMPDEST PUSH0 DUP2 CALLDATALOAD SWAP1 POP PUSH2 0x16AA DUP2 PUSH2 0x1686 JUMP JUMPDEST SWAP3 SWAP2 POP POP JUMP JUMPDEST PUSH0 DUP1 PUSH1 0x40 DUP4 DUP6 SUB SLT ISZERO PUSH2 0x16C6 JUMPI PUSH2 0x16C5 PUSH2 0x161F JUMP JUMPDEST JUMPDEST PUSH0 PUSH2 0x16D3 DUP6 DUP3 DUP7 ADD PUSH2 0x1669 JUMP JUMPDEST SWAP3 POP POP PUSH1 0x20 PUSH2 0x16E4 DUP6 DUP3 DUP7 ADD PUSH2 0x169C JUMP JUMPDEST SWAP2 POP POP SWAP3 POP SWAP3 SWAP1 POP JUMP JUMPDEST PUSH0 DUP2 ISZERO ISZERO SWAP1 POP SWAP2 SWAP1 POP JUMP JUMPDEST PUSH2 0x1702 DUP2 PUSH2 0x16EE JUMP JUMPDEST DUP3 MSTORE POP POP JUMP JUMPDEST PUSH0 PUSH1 0x20 DUP3 ADD SWAP1 POP PUSH2 0x171B PUSH0 DUP4 ADD DUP5 PUSH2 0x16F9 JUMP JUMPDEST SWAP3 SWAP2 POP POP JUMP JUMPDEST PUSH2 0x172A DUP2 PUSH2 0x167D JUMP JUMPDEST DUP3 MSTORE POP POP JUMP JUMPDEST PUSH0 PUSH1 0x20 DUP3 ADD SWAP1 POP PUSH2 0x1743 PUSH0 DUP4 ADD DUP5 PUSH2 0x1721 JUMP JUMPDEST SWAP3 SWAP2 POP POP JUMP JUMPDEST PUSH0 DUP1 PUSH0 PUSH1 0x60 DUP5 DUP7 SUB SLT ISZERO PUSH2 0x1760 JUMPI PUSH2 0x175F PUSH2 0x161F JUMP JUMPDEST JUMPDEST PUSH0 PUSH2 0x176D DUP7 DUP3 DUP8 ADD PUSH2 0x1669 JUMP JUMPDEST SWAP4 POP POP PUSH1 0x20 PUSH2 0x177E DUP7 DUP3 DUP8 ADD PUSH2 0x1669 JUMP JUMPDEST SWAP3 POP POP PUSH1 0x40 PUSH2 0x178F DUP7 DUP3 DUP8 ADD PUSH2 0x169C JUMP JUMPDEST SWAP2 POP POP SWAP3 POP SWAP3 POP SWAP3 JUMP JUMPDEST PUSH0 PUSH1 0xFF DUP3 AND SWAP1 POP SWAP2 SWAP1 POP JUMP JUMPDEST PUSH2 0x17AE DUP2 PUSH2 0x1799 JUMP JUMPDEST DUP3 MSTORE POP POP JUMP JUMPDEST PUSH0 PUSH1 0x20 DUP3 ADD SWAP1 POP PUSH2 0x17C7 PUSH0 DUP4 ADD DUP5 PUSH2 0x17A5 JUMP JUMPDEST SWAP3 SWAP2 POP POP JUMP JUMPDEST PUSH0 DUP1 PUSH0 DUP1 PUSH1 0x80 DUP6 DUP8 SUB SLT ISZERO PUSH2 0x17E5 JUMPI PUSH2 0x17E4 PUSH2 0x161F JUMP JUMPDEST JUMPDEST PUSH0 PUSH2 0x17F2 DUP8 DUP3 DUP9 ADD PUSH2 0x169C JUMP JUMPDEST SWAP5 POP POP PUSH1 0x20 PUSH2 0x1803 DUP8 DUP3 DUP9 ADD PUSH2 0x169C JUMP JUMPDEST SWAP4 POP POP PUSH1 0x40 PUSH2 0x1814 DUP8 DUP3 DUP9 ADD PUSH2 0x169C JUMP JUMPDEST SWAP3 POP POP PUSH1 0x60 PUSH2 0x1825 DUP8 DUP3 DUP9 ADD PUSH2 0x169C JUMP JUMPDEST SWAP2 POP POP SWAP3 SWAP6 SWAP2 SWAP5 POP SWAP3 POP JUMP JUMPDEST PUSH0 PUSH1 0x20 DUP3 DUP5 SUB SLT ISZERO PUSH2 0x1846 JUMPI PUSH2 0x1845 PUSH2 0x161F JUMP JUMPDEST JUMPDEST PUSH0 PUSH2 0x1853 DUP5 DUP3 DUP6 ADD PUSH2 0x1669 JUMP JUMPDEST SWAP2 POP POP SWAP3 SWAP2 POP POP JUMP JUMPDEST PUSH2 0x1865 DUP2 PUSH2 0x1642 JUMP JUMPDEST DUP3 MSTORE POP POP JUMP JUMPDEST PUSH0 PUSH1 0x20 DUP3 ADD SWAP1 POP PUSH2 0x187E PUSH0 DUP4 ADD DUP5 PUSH2 0x185C JUMP JUMPDEST SWAP3 SWAP2 POP POP JUMP JUMPDEST PUSH32 0x4E487B7100000000000000000000000000000000000000000000000000000000 PUSH0 MSTORE PUSH1 0x21 PUSH1 0x4 MSTORE PUSH1 0x24 PUSH0 REVERT JUMPDEST PUSH1 0x4 DUP2 LT PUSH2 0x18C2 JUMPI PUSH2 0x18C1 PUSH2 0x1884 JUMP JUMPDEST JUMPDEST POP JUMP JUMPDEST PUSH0 DUP2 SWAP1 POP PUSH2 0x18D2 DUP3 PUSH2 0x18B1 JUMP JUMPDEST SWAP2 SWAP1 POP JUMP JUMPDEST PUSH0 PUSH2 0x18E1 DUP3 PUSH2 0x18C5 JUMP JUMPDEST SWAP1 POP SWAP2 SWAP1 POP JUMP JUMPDEST PUSH2 0x18F1 DUP2 PUSH2 0x18D7 JUMP JUMPDEST DUP3 MSTORE POP POP JUMP JUMPDEST PUSH0 PUSH1 0x60 DUP3 ADD SWAP1 POP PUSH2 0x190A PUSH0 DUP4 ADD DUP7 PUSH2 0x1721 JUMP JUMPDEST PUSH2 0x1917 PUSH1 0x20 DUP4 ADD DUP6 PUSH2 0x1721 JUMP JUMPDEST PUSH2 0x1924 PUSH1 0x40 DUP4 ADD DUP5 PUSH2 0x18E8 JUMP JUMPDEST SWAP5 SWAP4 POP POP POP POP JUMP JUMPDEST PUSH0 DUP1 PUSH1 0x40 DUP4 DUP6 SUB SLT ISZERO PUSH2 0x1942 JUMPI PUSH2 0x1941 PUSH2 0x161F JUMP JUMPDEST JUMPDEST PUSH0 PUSH2 0x194F DUP6 DUP3 DUP7 ADD PUSH2 0x169C JUMP JUMPDEST SWAP3 POP POP PUSH1 0x20 PUSH2 0x1960 DUP6 DUP3 DUP7 ADD PUSH2 0x169C JUMP JUMPDEST SWAP2 POP POP SWAP3 POP SWAP3 SWAP1 POP JUMP JUMPDEST PUSH0 DUP1 PUSH1 0x40 DUP4 DUP6 SUB SLT ISZERO PUSH2 0x1980 JUMPI PUSH2 0x197F PUSH2 0x161F JUMP JUMPDEST JUMPDEST PUSH0 PUSH2 0x198D DUP6 DUP3 DUP7 ADD PUSH2 0x1669 JUMP JUMPDEST SWAP3 POP POP PUSH1 0x20 PUSH2 0x199E DUP6 DUP3 DUP7 ADD PUSH2 0x1669 JUMP JUMPDEST SWAP2 POP POP SWAP3 POP SWAP3 SWAP1 POP JUMP JUMPDEST PUSH0 PUSH1 0xE0 DUP3 ADD SWAP1 POP PUSH2 0x19BB PUSH0 DUP4 ADD DUP11 PUSH2 0x1721 JUMP JUMPDEST PUSH2 0x19C8 PUSH1 0x20 DUP4 ADD DUP10 PUSH2 0x1721 JUMP JUMPDEST PUSH2 0x19D5 PUSH1 0x40 DUP4 ADD DUP9 PUSH2 0x18E8 JUMP JUMPDEST PUSH2 0x19E2 PUSH1 0x60 DUP4 ADD DUP8 PUSH2 0x185C JUMP JUMPDEST PUSH2 0x19EF PUSH1 0x80 DUP4 ADD DUP7 PUSH2 0x1721 JUMP JUMPDEST PUSH2 0x19FC PUSH1 0xA0 DUP4 ADD DUP6 PUSH2 0x1721 JUMP JUMPDEST PUSH2 0x1A09 PUSH1 0xC0 DUP4 ADD DUP5 PUSH2 0x16F9 JUMP JUMPDEST SWAP9 SWAP8 POP POP POP POP POP POP POP POP JUMP JUMPDEST PUSH32 0x4E487B7100000000000000000000000000000000000000000000000000000000 PUSH0 MSTORE PUSH1 0x22 PUSH1 0x4 MSTORE PUSH1 0x24 PUSH0 REVERT JUMPDEST PUSH0 PUSH1 0x2 DUP3 DIV SWAP1 POP PUSH1 0x1 DUP3 AND DUP1 PUSH2 0x1A59 JUMPI PUSH1 0x7F DUP3 AND SWAP2 POP JUMPDEST PUSH1 0x20 DUP3 LT DUP2 SUB PUSH2 0x1A6C JUMPI PUSH2 0x1A6B PUSH2 0x1A15 JUMP JUMPDEST JUMPDEST POP SWAP2 SWAP1 POP JUMP JUMPDEST PUSH32 0x4E487B7100000000000000000000000000000000000000000000000000000000 PUSH0 MSTORE PUSH1 0x11 PUSH1 0x4 MSTORE PUSH1 0x24 PUSH0 REVERT JUMPDEST PUSH0 PUSH2 0x1AA9 DUP3 PUSH2 0x167D JUMP JUMPDEST SWAP2 POP PUSH2 0x1AB4 DUP4 PUSH2 0x167D JUMP JUMPDEST SWAP3 POP DUP3 DUP3 SUB SWAP1 POP DUP2 DUP2 GT ISZERO PUSH2 0x1ACC JUMPI PUSH2 0x1ACB PUSH2 0x1A72 JUMP JUMPDEST JUMPDEST SWAP3 SWAP2 POP POP JUMP JUMPDEST PUSH0 PUSH2 0x1ADC DUP3 PUSH2 0x167D JUMP JUMPDEST SWAP2 POP PUSH2 0x1AE7 DUP4 PUSH2 0x167D JUMP JUMPDEST SWAP3 POP DUP3 DUP3 ADD SWAP1 POP DUP1 DUP3 GT ISZERO PUSH2 0x1AFF JUMPI PUSH2 0x1AFE PUSH2 0x1A72 JUMP JUMPDEST JUMPDEST SWAP3 SWAP2 POP POP JUMP JUMPDEST PUSH0 PUSH2 0x1B0F DUP3 PUSH2 0x167D JUMP JUMPDEST SWAP2 POP PUSH32 0xFFFFFFFFFFFFFFFFFFFFFFFFFFFFFFFFFFFFFFFFFFFFFFFFFFFFFFFFFFFFFFFF DUP3 SUB PUSH2 0x1B41 JUMPI PUSH2 0x1B40 PUSH2 0x1A72 JUMP JUMPDEST JUMPDEST PUSH1 0x1 DUP3 ADD SWAP1 POP SWAP2 SWAP1 POP JUMP JUMPDEST PUSH32 0x446576696365206E6F7420726567697374657265640000000000000000000000 PUSH0 DUP3 ADD MSTORE POP JUMP JUMPDEST PUSH0 PUSH2 0x1B80 PUSH1 0x15 DUP4 PUSH2 0x157F JUMP JUMPDEST SWAP2 POP PUSH2 0x1B8B DUP3 PUSH2 0x1B4C JUMP JUMPDEST PUSH1 0x20 DUP3 ADD SWAP1 POP SWAP2 SWAP1 POP JUMP JUMPDEST PUSH0 PUSH1 0x20 DUP3 ADD SWAP1 POP DUP2 DUP2 SUB PUSH0 DUP4 ADD MSTORE PUSH2 0x1BAD DUP2 PUSH2 0x1B74 JUMP JUMPDEST SWAP1 POP SWAP2 SWAP1 POP JUMP JUMPDEST PUSH32 0x7468652064657669636520436F6E7472616374206973206E6F74206163746976 PUSH0 DUP3 ADD MSTORE PUSH32 0x6500000000000000000000000000000000000000000000000000000000000000 PUSH1 0x20 DUP3 ADD MSTORE POP JUMP JUMPDEST PUSH0 PUSH2 0x1C0E PUSH1 0x21 DUP4 PUSH2 0x157F JUMP JUMPDEST SWAP2 POP PUSH2 0x1C19 DUP3 PUSH2 0x1BB4 JUMP JUMPDEST PUSH1 0x40 DUP3 ADD SWAP1 POP SWAP2 SWAP1 POP JUMP JUMPDEST PUSH0 PUSH1 0x20 DUP3 ADD SWAP1 POP DUP2 DUP2 SUB PUSH0 DUP4 ADD MSTORE PUSH2 0x1C3B DUP2 PUSH2 0x1C02 JUMP JUMPDEST SWAP1 POP SWAP2 SWAP1 POP JUMP JUMPDEST PUSH32 0x436F6E747261637420686173206E6F7420737461727465642079657400000000 PUSH0 DUP3 ADD MSTORE POP JUMP JUMPDEST PUSH0 PUSH2 0x1C76 PUSH1 0x1C DUP4 PUSH2 0x157F JUMP JUMPDEST SWAP2 POP PUSH2 0x1C81 DUP3 PUSH2 0x1C42 JUMP JUMPDEST PUSH1 0x20 DUP3 ADD SWAP1 POP SWAP2 SWAP1 POP JUMP JUMPDEST PUSH0 PUSH1 0x20 DUP3 ADD SWAP1 POP DUP2 DUP2 SUB PUSH0 DUP4 ADD MSTORE PUSH2 0x1CA3 DUP2 PUSH2 0x1C6A JUMP JUMPDEST SWAP1 POP SWAP2 SWAP1 POP JUMP JUMPDEST PUSH0 PUSH1 0x60 DUP3 ADD SWAP1 POP PUSH2 0x1CBD PUSH0 DUP4 ADD DUP7 PUSH2 0x185C JUMP JUMPDEST PUSH2 0x1CCA PUSH1 0x20 DUP4 ADD DUP6 PUSH2 0x1721 JUMP JUMPDEST PUSH2 0x1CD7 PUSH1 0x40 DUP4 ADD DUP5 PUSH2 0x1721 JUMP JUMPDEST SWAP5 SWAP4 POP POP POP POP JUMP INVALID LOG2 PUSH5 0x6970667358 0x22 SLT KECCAK256 SELFDESTRUCT 0xDD 0xEF SWAP13 0xBD PUSH27 0x3CBFFB3180D31ECF8ECCF12B1B0ECF2009B2D18B1CEE57BA19FA64 PUSH20 0x6F6C634300081800330000000000000000000000 "
				},
				"gasEstimates": {
					"creation": {
						"codeDepositCost": "1489000",
						"executionCost": "infinite",
						"totalCost": "infinite"
					},
					"external": {
						"DeviceCount()": "2447",
						"_calculateDistance(uint256,uint256,uint256,uint256)": "infinite",
						"addDriver(address)": "137481",
						"allowance(address,address)": "infinite",
						"approve(address,uint256)": "infinite",
						"balanceOf(address)": "2852",
						"decimals()": "361",
						"devices(address)": "infinite",
						"endTime()": "2470",
						"getDevice()": "infinite",
						"latitude()": "2492",
						"longitude()": "2536",
						"name()": "infinite",
						"optIn(uint256,uint256)": "infinite",
						"owner()": "2575",
						"radius()": "2515",
						"rewardAmount()": "2557",
						"startTime()": "2470",
						"symbol()": "infinite",
						"totalSupply()": "2500",
						"transfer(address,uint256)": "infinite",
						"transferFrom(address,address,uint256)": "infinite"
					},
					"internal": {
						"_isWithinArea(uint256,uint256)": "infinite",
						"_payReward(address)": "infinite"
					}
				},
				"methodIdentifiers": {
					"DeviceCount()": "9af8a5eb",
					"_calculateDistance(uint256,uint256,uint256,uint256)": "563a6c7a",
					"addDriver(address)": "63a411c0",
					"allowance(address,address)": "dd62ed3e",
					"approve(address,uint256)": "095ea7b3",
					"balanceOf(address)": "70a08231",
					"decimals()": "313ce567",
					"devices(address)": "e7b4cac6",
					"endTime()": "3197cbb6",
					"getDevice()": "8ea286c2",
					"latitude()": "4fd7d76a",
					"longitude()": "589af69c",
					"name()": "06fdde03",
					"optIn(uint256,uint256)": "b620b8cb",
					"owner()": "8da5cb5b",
					"radius()": "217f4353",
					"rewardAmount()": "f7b2a7be",
					"startTime()": "78e97925",
					"symbol()": "95d89b41",
					"totalSupply()": "18160ddd",
					"transfer(address,uint256)": "a9059cbb",
					"transferFrom(address,address,uint256)": "23b872dd"
				}
			},
			"storageLayout": {
				"storage": [
					{
						"astId": 22,
						"contract": "contracts/location.sol:Geologix",
						"label": "_balances",
						"offset": 0,
						"slot": "0",
						"type": "t_mapping(t_address,t_uint256)"
					},
					{
						"astId": 28,
						"contract": "contracts/location.sol:Geologix",
						"label": "_allowances",
						"offset": 0,
						"slot": "1",
						"type": "t_mapping(t_address,t_mapping(t_address,t_uint256))"
					},
					{
						"astId": 30,
						"contract": "contracts/location.sol:Geologix",
						"label": "_totalSupply",
						"offset": 0,
						"slot": "2",
						"type": "t_uint256"
					},
					{
						"astId": 32,
						"contract": "contracts/location.sol:Geologix",
						"label": "_name",
						"offset": 0,
						"slot": "3",
						"type": "t_string_storage"
					},
					{
						"astId": 34,
						"contract": "contracts/location.sol:Geologix",
						"label": "_symbol",
						"offset": 0,
						"slot": "4",
						"type": "t_string_storage"
					},
					{
						"astId": 599,
						"contract": "contracts/location.sol:Geologix",
						"label": "owner",
						"offset": 0,
						"slot": "5",
						"type": "t_address"
					},
					{
						"astId": 601,
						"contract": "contracts/location.sol:Geologix",
						"label": "latitude",
						"offset": 0,
						"slot": "6",
						"type": "t_uint256"
					},
					{
						"astId": 603,
						"contract": "contracts/location.sol:Geologix",
						"label": "longitude",
						"offset": 0,
						"slot": "7",
						"type": "t_uint256"
					},
					{
						"astId": 605,
						"contract": "contracts/location.sol:Geologix",
						"label": "radius",
						"offset": 0,
						"slot": "8",
						"type": "t_uint256"
					},
					{
						"astId": 607,
						"contract": "contracts/location.sol:Geologix",
						"label": "startTime",
						"offset": 0,
						"slot": "9",
						"type": "t_uint256"
					},
					{
						"astId": 609,
						"contract": "contracts/location.sol:Geologix",
						"label": "endTime",
						"offset": 0,
						"slot": "10",
						"type": "t_uint256"
					},
					{
						"astId": 611,
						"contract": "contracts/location.sol:Geologix",
						"label": "rewardAmount",
						"offset": 0,
						"slot": "11",
						"type": "t_uint256"
					},
					{
						"astId": 637,
						"contract": "contracts/location.sol:Geologix",
						"label": "devices",
						"offset": 0,
						"slot": "12",
						"type": "t_mapping(t_address,t_struct(Device)632_storage)"
					},
					{
						"astId": 639,
						"contract": "contracts/location.sol:Geologix",
						"label": "DeviceCount",
						"offset": 0,
						"slot": "13",
						"type": "t_uint256"
					}
				],
				"types": {
					"t_address": {
						"encoding": "inplace",
						"label": "address",
						"numberOfBytes": "20"
					},
					"t_bool": {
						"encoding": "inplace",
						"label": "bool",
						"numberOfBytes": "1"
					},
					"t_enum(DeviceState)616": {
						"encoding": "inplace",
						"label": "enum Geologix.DeviceState",
						"numberOfBytes": "1"
					},
					"t_mapping(t_address,t_mapping(t_address,t_uint256))": {
						"encoding": "mapping",
						"key": "t_address",
						"label": "mapping(address => mapping(address => uint256))",
						"numberOfBytes": "32",
						"value": "t_mapping(t_address,t_uint256)"
					},
					"t_mapping(t_address,t_struct(Device)632_storage)": {
						"encoding": "mapping",
						"key": "t_address",
						"label": "mapping(address => struct Geologix.Device)",
						"numberOfBytes": "32",
						"value": "t_struct(Device)632_storage"
					},
					"t_mapping(t_address,t_uint256)": {
						"encoding": "mapping",
						"key": "t_address",
						"label": "mapping(address => uint256)",
						"numberOfBytes": "32",
						"value": "t_uint256"
					},
					"t_string_storage": {
						"encoding": "bytes",
						"label": "string",
						"numberOfBytes": "32"
					},
					"t_struct(Device)632_storage": {
						"encoding": "inplace",
						"label": "struct Geologix.Device",
						"members": [
							{
								"astId": 618,
								"contract": "contracts/location.sol:Geologix",
								"label": "complianceCount",
								"offset": 0,
								"slot": "0",
								"type": "t_uint256"
							},
							{
								"astId": 620,
								"contract": "contracts/location.sol:Geologix",
								"label": "nonComplianceCount",
								"offset": 0,
								"slot": "1",
								"type": "t_uint256"
							},
							{
								"astId": 623,
								"contract": "contracts/location.sol:Geologix",
								"label": "deviceState",
								"offset": 0,
								"slot": "2",
								"type": "t_enum(DeviceState)616"
							},
							{
								"astId": 625,
								"contract": "contracts/location.sol:Geologix",
								"label": "public_address",
								"offset": 1,
								"slot": "2",
								"type": "t_address"
							},
							{
								"astId": 627,
								"contract": "contracts/location.sol:Geologix",
								"label": "lastRecorededTime",
								"offset": 0,
								"slot": "3",
								"type": "t_uint256"
							},
							{
								"astId": 629,
								"contract": "contracts/location.sol:Geologix",
								"label": "payedAmount",
								"offset": 0,
								"slot": "4",
								"type": "t_uint256"
							},
							{
								"astId": 631,
								"contract": "contracts/location.sol:Geologix",
								"label": "isActive",
								"offset": 0,
								"slot": "5",
								"type": "t_bool"
							}
						],
						"numberOfBytes": "192"
					},
					"t_uint256": {
						"encoding": "inplace",
						"label": "uint256",
						"numberOfBytes": "32"
					}
				}
			},
			"userdoc": {
				"kind": "user",
				"methods": {},
				"version": 1
			}
		}
	}
}