{
	"data": {
		"bytecode": {
			"linkReferences": {},
			"object": "608060405234801562000010575f80fd5b506040518060400160405280600681526020017f52546f6b656e00000000000000000000000000000000000000000000000000008152506040518060400160405280600281526020017f525400000000000000000000000000000000000000000000000000000000000081525081600390816200008e91906200034d565b508060049081620000a091906200034d565b5050503360055f6101000a81548173ffffffffffffffffffffffffffffffffffffffff021916908373ffffffffffffffffffffffffffffffffffffffff16021790555062000431565b5f81519050919050565b7f4e487b71000000000000000000000000000000000000000000000000000000005f52604160045260245ffd5b7f4e487b71000000000000000000000000000000000000000000000000000000005f52602260045260245ffd5b5f60028204905060018216806200016557607f821691505b6020821081036200017b576200017a62000120565b5b50919050565b5f819050815f5260205f209050919050565b5f6020601f8301049050919050565b5f82821b905092915050565b5f60088302620001df7fffffffffffffffffffffffffffffffffffffffffffffffffffffffffffffffff82620001a2565b620001eb8683620001a2565b95508019841693508086168417925050509392505050565b5f819050919050565b5f819050919050565b5f620002356200022f620002298462000203565b6200020c565b62000203565b9050919050565b5f819050919050565b620002508362000215565b620002686200025f826200023c565b848454620001ae565b825550505050565b5f90565b6200027e62000270565b6200028b81848462000245565b505050565b5b81811015620002b257620002a65f8262000274565b60018101905062000291565b5050565b601f8211156200030157620002cb8162000181565b620002d68462000193565b81016020851015620002e6578190505b620002fe620002f58562000193565b83018262000290565b50505b505050565b5f82821c905092915050565b5f620003235f198460080262000306565b1980831691505092915050565b5f6200033d838362000312565b9150826002028217905092915050565b6200035882620000e9565b67ffffffffffffffff811115620003745762000373620000f3565b5b6200038082546200014d565b6200038d828285620002b6565b5f60209050601f831160018114620003c3575f8415620003ae578287015190505b620003ba858262000330565b86555062000429565b601f198416620003d38662000181565b5f5b82811015620003fc57848901518255600182019150602085019450602081019050620003d5565b868310156200041c578489015162000418601f89168262000312565b8355505b6001600288020188555050505b505050505050565b6123d4806200043f5f395ff3fe608060405234801561000f575f80fd5b5060043610610140575f3560e01c80638da5cb5b116100b6578063cd5d61db1161007a578063cd5d61db1461038f578063d0678947146103ab578063dd62ed3e146103dd578063dfecd44b1461040d578063fc694ec11461042b578063ff33999f1461046657610140565b80638da5cb5b146102eb57806395d89b41146103095780639f251f8014610327578063a9059cbb14610343578063c7012a981461037357610140565b806323b872dd1161010857806323b872dd14610200578063313ce56714610230578063357447451461024e5780634643ea7d1461026a5780636ebc8c861461028857806370a08231146102bb57610140565b806306fdde031461014457806307e7c33614610162578063095ea7b3146101805780630be435bd146101b057806318160ddd146101e2575b5f80fd5b61014c610482565b60405161015991906117b8565b60405180910390f35b61016a610512565b60405161017791906117f0565b60405180910390f35b61019a6004803603810190610195919061189e565b610518565b6040516101a791906118f6565b60405180910390f35b6101ca60048036038101906101c5919061190f565b61053a565b6040516101d993929190611949565b60405180910390f35b6101ea610605565b6040516101f791906117f0565b60405180910390f35b61021a60048036038101906102159190611985565b61060e565b60405161022791906118f6565b60405180910390f35b61023861063c565b60405161024591906119f0565b60405180910390f35b61026860048036038101906102639190611b35565b610644565b005b610272610736565b60405161027f91906117f0565b60405180910390f35b6102a2600480360381019061029d9190611b8f565b61073c565b6040516102b29493929190611c2d565b60405180910390f35b6102d560048036038101906102d0919061190f565b6108f8565b6040516102e291906117f0565b60405180910390f35b6102f361093d565b6040516103009190611c70565b60405180910390f35b610311610962565b60405161031e91906117b8565b60405180910390f35b610341600480360381019061033c9190611b35565b6109f2565b005b61035d6004803603810190610358919061189e565b610ae4565b60405161036a91906118f6565b60405180910390f35b61038d60048036038101906103889190611b8f565b610b06565b005b6103a960048036038101906103a49190611c89565b610b5b565b005b6103c560048036038101906103c0919061190f565b610d23565b6040516103d493929190611949565b60405180910390f35b6103f760048036038101906103f29190611ced565b610dee565b60405161040491906117f0565b60405180910390f35b610415610e70565b60405161042291906117f0565b60405180910390f35b61044560048036038101906104409190611b8f565b610e76565b60405161045d9c9b9a99989796959493929190611d67565b60405180910390f35b610480600480360381019061047b9190611e1f565b610f46565b005b60606003805461049190611efd565b80601f01602080910402602001604051908101604052809291908181526020018280546104bd90611efd565b80156105085780601f106104df57610100808354040283529160200191610508565b820191905f5260205f20905b8154815290600101906020018083116104eb57829003601f168201915b5050505050905090565b60095481565b5f8061052261116b565b905061052f818585611172565b600191505092915050565b6008602052805f5260405f205f91509050805f01549080600101805461055f90611efd565b80601f016020809104026020016040519081016040528092919081815260200182805461058b90611efd565b80156105d65780601f106105ad576101008083540402835291602001916105d6565b820191905f5260205f20905b8154815290600101906020018083116105b957829003601f168201915b505050505090806002015f9054906101000a900473ffffffffffffffffffffffffffffffffffffffff16905083565b5f600254905090565b5f8061061861116b565b9050610625858285611184565b610630858585611216565b60019150509392505050565b5f6012905090565b60095f81548092919061065690611f5a565b9190505550604051806060016040528060095481526020018381526020018273ffffffffffffffffffffffffffffffffffffffff1681525060085f8373ffffffffffffffffffffffffffffffffffffffff1673ffffffffffffffffffffffffffffffffffffffff1681526020019081526020015f205f820151815f015560208201518160010190816106e8919061213e565b506040820151816002015f6101000a81548173ffffffffffffffffffffffffffffffffffffffff021916908373ffffffffffffffffffffffffffffffffffffffff1602179055509050505050565b60075481565b5f805f805f600a5f8781526020019081526020015f20604051806101800160405290815f8201548152602001600182015481526020016002820154815260200160038201548152602001600482015481526020016005820154815260200160068201548152602001600782015f9054906101000a900473ffffffffffffffffffffffffffffffffffffffff1673ffffffffffffffffffffffffffffffffffffffff1673ffffffffffffffffffffffffffffffffffffffff168152602001600882015f9054906101000a900473ffffffffffffffffffffffffffffffffffffffff1673ffffffffffffffffffffffffffffffffffffffff1673ffffffffffffffffffffffffffffffffffffffff1681526020016008820160149054906101000a900460ff16151515158152602001600982016040518060400160405290815f82015481526020016001820154815250508152602001600b82015f9054906101000a900460ff1660038111156108b3576108b2611bba565b5b60038111156108c5576108c4611bba565b5b815250509050805f01518161014001515f0151826101400151602001518361016001519450945094509450509193509193565b5f805f8373ffffffffffffffffffffffffffffffffffffffff1673ffffffffffffffffffffffffffffffffffffffff1681526020019081526020015f20549050919050565b60055f9054906101000a900473ffffffffffffffffffffffffffffffffffffffff1681565b60606004805461097190611efd565b80601f016020809104026020016040519081016040528092919081815260200182805461099d90611efd565b80156109e85780601f106109bf576101008083540402835291602001916109e8565b820191905f5260205f20905b8154815290600101906020018083116109cb57829003601f168201915b5050505050905090565b60075f815480929190610a0490611f5a565b9190505550604051806060016040528060075481526020018381526020018273ffffffffffffffffffffffffffffffffffffffff1681525060065f8373ffffffffffffffffffffffffffffffffffffffff1673ffffffffffffffffffffffffffffffffffffffff1681526020019081526020015f205f820151815f01556020820151816001019081610a96919061213e565b506040820151816002015f6101000a81548173ffffffffffffffffffffffffffffffffffffffff021916908373ffffffffffffffffffffffffffffffffffffffff1602179055509050505050565b5f80610aee61116b565b9050610afb818585611216565b600191505092915050565b610b57600a5f8381526020019081526020015f206007015f9054906101000a900473ffffffffffffffffffffffffffffffffffffffff16600a5f8481526020019081526020015f2060060154610ae4565b5050565b5f600a5f8481526020019081526020015f2090508060080160149054906101000a900460ff16610bc0576040517f08c379a0000000000000000000000000000000000000000000000000000000008152600401610bb790612257565b60405180910390fd5b80600401548211610c06576040517f08c379a0000000000000000000000000000000000000000000000000000000008152600401610bfd906122e5565b60405180910390fd5b8060050154821015610cca57610c2b8585836001015484600201548560030154611306565b15610c7c57806009015f015f815480929190610c4690611f5a565b9190505550600181600b015f6101000a81548160ff02191690836003811115610c7257610c71611bba565b5b0217905550610cc5565b806009016001015f815480929190610c9390611f5a565b9190505550600281600b015f6101000a81548160ff02191690836003811115610cbf57610cbe611bba565b5b02179055505b610d1c565b610cd383610b06565b5f8160080160146101000a81548160ff021916908315150217905550600381600b015f6101000a81548160ff02191690836003811115610d1657610d15611bba565b5b02179055505b5050505050565b6006602052805f5260405f205f91509050805f015490806001018054610d4890611efd565b80601f0160208091040260200160405190810160405280929190818152602001828054610d7490611efd565b8015610dbf5780601f10610d9657610100808354040283529160200191610dbf565b820191905f5260205f20905b815481529060010190602001808311610da257829003601f168201915b505050505090806002015f9054906101000a900473ffffffffffffffffffffffffffffffffffffffff16905083565b5f60015f8473ffffffffffffffffffffffffffffffffffffffff1673ffffffffffffffffffffffffffffffffffffffff1681526020019081526020015f205f8373ffffffffffffffffffffffffffffffffffffffff1673ffffffffffffffffffffffffffffffffffffffff1681526020019081526020015f2054905092915050565b600b5481565b600a602052805f5260405f205f91509050805f015490806001015490806002015490806003015490806004015490806005015490806006015490806007015f9054906101000a900473ffffffffffffffffffffffffffffffffffffffff1690806008015f9054906101000a900473ffffffffffffffffffffffffffffffffffffffff16908060080160149054906101000a900460ff1690806009016040518060400160405290815f82015481526020016001820154815250509080600b015f9054906101000a900460ff1690508c565b5f60405180604001604052805f81526020015f8152509050600b5f815480929190610f7090611f5a565b9190505550604051806101800160405280600b5481526020018a81526020018981526020018881526020018781526020018681526020018581526020018473ffffffffffffffffffffffffffffffffffffffff1681526020018373ffffffffffffffffffffffffffffffffffffffff1681526020016001151581526020018281526020015f600381111561100757611006611bba565b5b815250600a5f600b5481526020019081526020015f205f820151815f01556020820151816001015560408201518160020155606082015181600301556080820151816004015560a0820151816005015560c0820151816006015560e0820151816007015f6101000a81548173ffffffffffffffffffffffffffffffffffffffff021916908373ffffffffffffffffffffffffffffffffffffffff160217905550610100820151816008015f6101000a81548173ffffffffffffffffffffffffffffffffffffffff021916908373ffffffffffffffffffffffffffffffffffffffff1602179055506101208201518160080160146101000a81548160ff021916908315150217905550610140820151816009015f820151815f015560208201518160010155505061016082015181600b015f6101000a81548160ff0219169083600381111561115857611157611bba565b5b0217905550905050505050505050505050565b5f33905090565b61117f8383836001611346565b505050565b5f61118f8484610dee565b90507fffffffffffffffffffffffffffffffffffffffffffffffffffffffffffffffff81146112105781811015611201578281836040517ffb8f41b20000000000000000000000000000000000000000000000000000000081526004016111f893929190612303565b60405180910390fd5b61120f84848484035f611346565b5b50505050565b5f73ffffffffffffffffffffffffffffffffffffffff168373ffffffffffffffffffffffffffffffffffffffff1603611286575f6040517f96c6fd1e00000000000000000000000000000000000000000000000000000000815260040161127d9190611c70565b60405180910390fd5b5f73ffffffffffffffffffffffffffffffffffffffff168273ffffffffffffffffffffffffffffffffffffffff16036112f6575f6040517fec442f050000000000000000000000000000000000000000000000000000000081526004016112ed9190611c70565b60405180910390fd5b611301838383611515565b505050565b5f8084876113149190612338565b90505f84876113239190612338565b90505f8183611332919061236b565b905084811115935050505095945050505050565b5f73ffffffffffffffffffffffffffffffffffffffff168473ffffffffffffffffffffffffffffffffffffffff16036113b6575f6040517fe602df050000000000000000000000000000000000000000000000000000000081526004016113ad9190611c70565b60405180910390fd5b5f73ffffffffffffffffffffffffffffffffffffffff168373ffffffffffffffffffffffffffffffffffffffff1603611426575f6040517f94280d6200000000000000000000000000000000000000000000000000000000815260040161141d9190611c70565b60405180910390fd5b8160015f8673ffffffffffffffffffffffffffffffffffffffff1673ffffffffffffffffffffffffffffffffffffffff1681526020019081526020015f205f8573ffffffffffffffffffffffffffffffffffffffff1673ffffffffffffffffffffffffffffffffffffffff1681526020019081526020015f2081905550801561150f578273ffffffffffffffffffffffffffffffffffffffff168473ffffffffffffffffffffffffffffffffffffffff167f8c5be1e5ebec7d5bd14f71427d1e84f3dd0314c0f7b2291e5b200ac8c7c3b9258460405161150691906117f0565b60405180910390a35b50505050565b5f73ffffffffffffffffffffffffffffffffffffffff168373ffffffffffffffffffffffffffffffffffffffff1603611565578060025f828254611559919061236b565b92505081905550611633565b5f805f8573ffffffffffffffffffffffffffffffffffffffff1673ffffffffffffffffffffffffffffffffffffffff1681526020019081526020015f20549050818110156115ee578381836040517fe450d38c0000000000000000000000000000000000000000000000000000000081526004016115e593929190612303565b60405180910390fd5b8181035f808673ffffffffffffffffffffffffffffffffffffffff1673ffffffffffffffffffffffffffffffffffffffff1681526020019081526020015f2081905550505b5f73ffffffffffffffffffffffffffffffffffffffff168273ffffffffffffffffffffffffffffffffffffffff160361167a578060025f82825403925050819055506116c4565b805f808473ffffffffffffffffffffffffffffffffffffffff1673ffffffffffffffffffffffffffffffffffffffff1681526020019081526020015f205f82825401925050819055505b8173ffffffffffffffffffffffffffffffffffffffff168373ffffffffffffffffffffffffffffffffffffffff167fddf252ad1be2c89b69c2b068fc378daa952ba7f163c4a11628f55a4df523b3ef8360405161172191906117f0565b60405180910390a3505050565b5f81519050919050565b5f82825260208201905092915050565b5f5b8381101561176557808201518184015260208101905061174a565b5f8484015250505050565b5f601f19601f8301169050919050565b5f61178a8261172e565b6117948185611738565b93506117a4818560208601611748565b6117ad81611770565b840191505092915050565b5f6020820190508181035f8301526117d08184611780565b905092915050565b5f819050919050565b6117ea816117d8565b82525050565b5f6020820190506118035f8301846117e1565b92915050565b5f604051905090565b5f80fd5b5f80fd5b5f73ffffffffffffffffffffffffffffffffffffffff82169050919050565b5f6118438261181a565b9050919050565b61185381611839565b811461185d575f80fd5b50565b5f8135905061186e8161184a565b92915050565b61187d816117d8565b8114611887575f80fd5b50565b5f8135905061189881611874565b92915050565b5f80604083850312156118b4576118b3611812565b5b5f6118c185828601611860565b92505060206118d28582860161188a565b9150509250929050565b5f8115159050919050565b6118f0816118dc565b82525050565b5f6020820190506119095f8301846118e7565b92915050565b5f6020828403121561192457611923611812565b5b5f61193184828501611860565b91505092915050565b61194381611839565b82525050565b5f60608201905061195c5f8301866117e1565b818103602083015261196e8185611780565b905061197d604083018461193a565b949350505050565b5f805f6060848603121561199c5761199b611812565b5b5f6119a986828701611860565b93505060206119ba86828701611860565b92505060406119cb8682870161188a565b9150509250925092565b5f60ff82169050919050565b6119ea816119d5565b82525050565b5f602082019050611a035f8301846119e1565b92915050565b5f80fd5b5f80fd5b7f4e487b71000000000000000000000000000000000000000000000000000000005f52604160045260245ffd5b611a4782611770565b810181811067ffffffffffffffff82111715611a6657611a65611a11565b5b80604052505050565b5f611a78611809565b9050611a848282611a3e565b919050565b5f67ffffffffffffffff821115611aa357611aa2611a11565b5b611aac82611770565b9050602081019050919050565b828183375f83830152505050565b5f611ad9611ad484611a89565b611a6f565b905082815260208101848484011115611af557611af4611a0d565b5b611b00848285611ab9565b509392505050565b5f82601f830112611b1c57611b1b611a09565b5b8135611b2c848260208601611ac7565b91505092915050565b5f8060408385031215611b4b57611b4a611812565b5b5f83013567ffffffffffffffff811115611b6857611b67611816565b5b611b7485828601611b08565b9250506020611b8585828601611860565b9150509250929050565b5f60208284031215611ba457611ba3611812565b5b5f611bb18482850161188a565b91505092915050565b7f4e487b71000000000000000000000000000000000000000000000000000000005f52602160045260245ffd5b60048110611bf857611bf7611bba565b5b50565b5f819050611c0882611be7565b919050565b5f611c1782611bfb565b9050919050565b611c2781611c0d565b82525050565b5f608082019050611c405f8301876117e1565b611c4d60208301866117e1565b611c5a60408301856117e1565b611c676060830184611c1e565b95945050505050565b5f602082019050611c835f83018461193a565b92915050565b5f805f8060808587031215611ca157611ca0611812565b5b5f611cae8782880161188a565b9450506020611cbf8782880161188a565b9350506040611cd08782880161188a565b9250506060611ce18782880161188a565b91505092959194509250565b5f8060408385031215611d0357611d02611812565b5b5f611d1085828601611860565b9250506020611d2185828601611860565b9150509250929050565b611d34816117d8565b82525050565b604082015f820151611d4e5f850182611d2b565b506020820151611d616020850182611d2b565b50505050565b5f6101a082019050611d7b5f83018f6117e1565b611d88602083018e6117e1565b611d95604083018d6117e1565b611da2606083018c6117e1565b611daf608083018b6117e1565b611dbc60a083018a6117e1565b611dc960c08301896117e1565b611dd660e083018861193a565b611de461010083018761193a565b611df26101208301866118e7565b611e00610140830185611d3a565b611e0e610180830184611c1e565b9d9c50505050505050505050505050565b5f805f805f805f80610100898b031215611e3c57611e3b611812565b5b5f611e498b828c0161188a565b9850506020611e5a8b828c0161188a565b9750506040611e6b8b828c0161188a565b9650506060611e7c8b828c0161188a565b9550506080611e8d8b828c0161188a565b94505060a0611e9e8b828c0161188a565b93505060c0611eaf8b828c01611860565b92505060e0611ec08b828c01611860565b9150509295985092959890939650565b7f4e487b71000000000000000000000000000000000000000000000000000000005f52602260045260245ffd5b5f6002820490506001821680611f1457607f821691505b602082108103611f2757611f26611ed0565b5b50919050565b7f4e487b71000000000000000000000000000000000000000000000000000000005f52601160045260245ffd5b5f611f64826117d8565b91507fffffffffffffffffffffffffffffffffffffffffffffffffffffffffffffffff8203611f9657611f95611f2d565b5b600182019050919050565b5f819050815f5260205f209050919050565b5f6020601f8301049050919050565b5f82821b905092915050565b5f60088302611ffd7fffffffffffffffffffffffffffffffffffffffffffffffffffffffffffffffff82611fc2565b6120078683611fc2565b95508019841693508086168417925050509392505050565b5f819050919050565b5f61204261203d612038846117d8565b61201f565b6117d8565b9050919050565b5f819050919050565b61205b83612028565b61206f61206782612049565b848454611fce565b825550505050565b5f90565b612083612077565b61208e818484612052565b505050565b5b818110156120b1576120a65f8261207b565b600181019050612094565b5050565b601f8211156120f6576120c781611fa1565b6120d084611fb3565b810160208510156120df578190505b6120f36120eb85611fb3565b830182612093565b50505b505050565b5f82821c905092915050565b5f6121165f19846008026120fb565b1980831691505092915050565b5f61212e8383612107565b9150826002028217905092915050565b6121478261172e565b67ffffffffffffffff8111156121605761215f611a11565b5b61216a8254611efd565b6121758282856120b5565b5f60209050601f8311600181146121a6575f8415612194578287015190505b61219e8582612123565b865550612205565b601f1984166121b486611fa1565b5f5b828110156121db578489015182556001820191506020850194506020810190506121b6565b868310156121f857848901516121f4601f891682612107565b8355505b6001600288020188555050505b505050505050565b7f436f6e7472616374206973206e6f7420616374697665000000000000000000005f82015250565b5f612241601683611738565b915061224c8261220d565b602082019050919050565b5f6020820190508181035f83015261226e81612235565b9050919050565b7f43757272656e742074696d65206973206265666f7265207468652073746172745f8201527f2074696d65000000000000000000000000000000000000000000000000000000602082015250565b5f6122cf602583611738565b91506122da82612275565b604082019050919050565b5f6020820190508181035f8301526122fc816122c3565b9050919050565b5f6060820190506123165f83018661193a565b61232360208301856117e1565b61233060408301846117e1565b949350505050565b5f612342826117d8565b915061234d836117d8565b925082820390508181111561236557612364611f2d565b5b92915050565b5f612375826117d8565b9150612380836117d8565b925082820190508082111561239857612397611f2d565b5b9291505056fea26469706673582212205400bec2511d5c6566e8ce04c36a46859f3e4386a83160a80232f84ca9a79da164736f6c63430008180033",
			"opcodes": "PUSH1 0x80 PUSH1 0x40 MSTORE CALLVALUE DUP1 ISZERO PUSH3 0x10 JUMPI PUSH0 DUP1 REVERT JUMPDEST POP PUSH1 0x40 MLOAD DUP1 PUSH1 0x40 ADD PUSH1 0x40 MSTORE DUP1 PUSH1 0x6 DUP2 MSTORE PUSH1 0x20 ADD PUSH32 0x52546F6B656E0000000000000000000000000000000000000000000000000000 DUP2 MSTORE POP PUSH1 0x40 MLOAD DUP1 PUSH1 0x40 ADD PUSH1 0x40 MSTORE DUP1 PUSH1 0x2 DUP2 MSTORE PUSH1 0x20 ADD PUSH32 0x5254000000000000000000000000000000000000000000000000000000000000 DUP2 MSTORE POP DUP2 PUSH1 0x3 SWAP1 DUP2 PUSH3 0x8E SWAP2 SWAP1 PUSH3 0x34D JUMP JUMPDEST POP DUP1 PUSH1 0x4 SWAP1 DUP2 PUSH3 0xA0 SWAP2 SWAP1 PUSH3 0x34D JUMP JUMPDEST POP POP POP CALLER PUSH1 0x5 PUSH0 PUSH2 0x100 EXP DUP2 SLOAD DUP2 PUSH20 0xFFFFFFFFFFFFFFFFFFFFFFFFFFFFFFFFFFFFFFFF MUL NOT AND SWAP1 DUP4 PUSH20 0xFFFFFFFFFFFFFFFFFFFFFFFFFFFFFFFFFFFFFFFF AND MUL OR SWAP1 SSTORE POP PUSH3 0x431 JUMP JUMPDEST PUSH0 DUP2 MLOAD SWAP1 POP SWAP2 SWAP1 POP JUMP JUMPDEST PUSH32 0x4E487B7100000000000000000000000000000000000000000000000000000000 PUSH0 MSTORE PUSH1 0x41 PUSH1 0x4 MSTORE PUSH1 0x24 PUSH0 REVERT JUMPDEST PUSH32 0x4E487B7100000000000000000000000000000000000000000000000000000000 PUSH0 MSTORE PUSH1 0x22 PUSH1 0x4 MSTORE PUSH1 0x24 PUSH0 REVERT JUMPDEST PUSH0 PUSH1 0x2 DUP3 DIV SWAP1 POP PUSH1 0x1 DUP3 AND DUP1 PUSH3 0x165 JUMPI PUSH1 0x7F DUP3 AND SWAP2 POP JUMPDEST PUSH1 0x20 DUP3 LT DUP2 SUB PUSH3 0x17B JUMPI PUSH3 0x17A PUSH3 0x120 JUMP JUMPDEST JUMPDEST POP SWAP2 SWAP1 POP JUMP JUMPDEST PUSH0 DUP2 SWAP1 POP DUP2 PUSH0 MSTORE PUSH1 0x20 PUSH0 KECCAK256 SWAP1 POP SWAP2 SWAP1 POP JUMP JUMPDEST PUSH0 PUSH1 0x20 PUSH1 0x1F DUP4 ADD DIV SWAP1 POP SWAP2 SWAP1 POP JUMP JUMPDEST PUSH0 DUP3 DUP3 SHL SWAP1 POP SWAP3 SWAP2 POP POP JUMP JUMPDEST PUSH0 PUSH1 0x8 DUP4 MUL PUSH3 0x1DF PUSH32 0xFFFFFFFFFFFFFFFFFFFFFFFFFFFFFFFFFFFFFFFFFFFFFFFFFFFFFFFFFFFFFFFF DUP3 PUSH3 0x1A2 JUMP JUMPDEST PUSH3 0x1EB DUP7 DUP4 PUSH3 0x1A2 JUMP JUMPDEST SWAP6 POP DUP1 NOT DUP5 AND SWAP4 POP DUP1 DUP7 AND DUP5 OR SWAP3 POP POP POP SWAP4 SWAP3 POP POP POP JUMP JUMPDEST PUSH0 DUP2 SWAP1 POP SWAP2 SWAP1 POP JUMP JUMPDEST PUSH0 DUP2 SWAP1 POP SWAP2 SWAP1 POP JUMP JUMPDEST PUSH0 PUSH3 0x235 PUSH3 0x22F PUSH3 0x229 DUP5 PUSH3 0x203 JUMP JUMPDEST PUSH3 0x20C JUMP JUMPDEST PUSH3 0x203 JUMP JUMPDEST SWAP1 POP SWAP2 SWAP1 POP JUMP JUMPDEST PUSH0 DUP2 SWAP1 POP SWAP2 SWAP1 POP JUMP JUMPDEST PUSH3 0x250 DUP4 PUSH3 0x215 JUMP JUMPDEST PUSH3 0x268 PUSH3 0x25F DUP3 PUSH3 0x23C JUMP JUMPDEST DUP5 DUP5 SLOAD PUSH3 0x1AE JUMP JUMPDEST DUP3 SSTORE POP POP POP POP JUMP JUMPDEST PUSH0 SWAP1 JUMP JUMPDEST PUSH3 0x27E PUSH3 0x270 JUMP JUMPDEST PUSH3 0x28B DUP2 DUP5 DUP5 PUSH3 0x245 JUMP JUMPDEST POP POP POP JUMP JUMPDEST JUMPDEST DUP2 DUP2 LT ISZERO PUSH3 0x2B2 JUMPI PUSH3 0x2A6 PUSH0 DUP3 PUSH3 0x274 JUMP JUMPDEST PUSH1 0x1 DUP2 ADD SWAP1 POP PUSH3 0x291 JUMP JUMPDEST POP POP JUMP JUMPDEST PUSH1 0x1F DUP3 GT ISZERO PUSH3 0x301 JUMPI PUSH3 0x2CB DUP2 PUSH3 0x181 JUMP JUMPDEST PUSH3 0x2D6 DUP5 PUSH3 0x193 JUMP JUMPDEST DUP2 ADD PUSH1 0x20 DUP6 LT ISZERO PUSH3 0x2E6 JUMPI DUP2 SWAP1 POP JUMPDEST PUSH3 0x2FE PUSH3 0x2F5 DUP6 PUSH3 0x193 JUMP JUMPDEST DUP4 ADD DUP3 PUSH3 0x290 JUMP JUMPDEST POP POP JUMPDEST POP POP POP JUMP JUMPDEST PUSH0 DUP3 DUP3 SHR SWAP1 POP SWAP3 SWAP2 POP POP JUMP JUMPDEST PUSH0 PUSH3 0x323 PUSH0 NOT DUP5 PUSH1 0x8 MUL PUSH3 0x306 JUMP JUMPDEST NOT DUP1 DUP4 AND SWAP2 POP POP SWAP3 SWAP2 POP POP JUMP JUMPDEST PUSH0 PUSH3 0x33D DUP4 DUP4 PUSH3 0x312 JUMP JUMPDEST SWAP2 POP DUP3 PUSH1 0x2 MUL DUP3 OR SWAP1 POP SWAP3 SWAP2 POP POP JUMP JUMPDEST PUSH3 0x358 DUP3 PUSH3 0xE9 JUMP JUMPDEST PUSH8 0xFFFFFFFFFFFFFFFF DUP2 GT ISZERO PUSH3 0x374 JUMPI PUSH3 0x373 PUSH3 0xF3 JUMP JUMPDEST JUMPDEST PUSH3 0x380 DUP3 SLOAD PUSH3 0x14D JUMP JUMPDEST PUSH3 0x38D DUP3 DUP3 DUP6 PUSH3 0x2B6 JUMP JUMPDEST PUSH0 PUSH1 0x20 SWAP1 POP PUSH1 0x1F DUP4 GT PUSH1 0x1 DUP2 EQ PUSH3 0x3C3 JUMPI PUSH0 DUP5 ISZERO PUSH3 0x3AE JUMPI DUP3 DUP8 ADD MLOAD SWAP1 POP JUMPDEST PUSH3 0x3BA DUP6 DUP3 PUSH3 0x330 JUMP JUMPDEST DUP7 SSTORE POP PUSH3 0x429 JUMP JUMPDEST PUSH1 0x1F NOT DUP5 AND PUSH3 0x3D3 DUP7 PUSH3 0x181 JUMP JUMPDEST PUSH0 JUMPDEST DUP3 DUP2 LT ISZERO PUSH3 0x3FC JUMPI DUP5 DUP10 ADD MLOAD DUP3 SSTORE PUSH1 0x1 DUP3 ADD SWAP2 POP PUSH1 0x20 DUP6 ADD SWAP5 POP PUSH1 0x20 DUP2 ADD SWAP1 POP PUSH3 0x3D5 JUMP JUMPDEST DUP7 DUP4 LT ISZERO PUSH3 0x41C JUMPI DUP5 DUP10 ADD MLOAD PUSH3 0x418 PUSH1 0x1F DUP10 AND DUP3 PUSH3 0x312 JUMP JUMPDEST DUP4 SSTORE POP JUMPDEST PUSH1 0x1 PUSH1 0x2 DUP9 MUL ADD DUP9 SSTORE POP POP POP JUMPDEST POP POP POP POP POP POP JUMP JUMPDEST PUSH2 0x23D4 DUP1 PUSH3 0x43F PUSH0 CODECOPY PUSH0 RETURN INVALID PUSH1 0x80 PUSH1 0x40 MSTORE CALLVALUE DUP1 ISZERO PUSH2 0xF JUMPI PUSH0 DUP1 REVERT JUMPDEST POP PUSH1 0x4 CALLDATASIZE LT PUSH2 0x140 JUMPI PUSH0 CALLDATALOAD PUSH1 0xE0 SHR DUP1 PUSH4 0x8DA5CB5B GT PUSH2 0xB6 JUMPI DUP1 PUSH4 0xCD5D61DB GT PUSH2 0x7A JUMPI DUP1 PUSH4 0xCD5D61DB EQ PUSH2 0x38F JUMPI DUP1 PUSH4 0xD0678947 EQ PUSH2 0x3AB JUMPI DUP1 PUSH4 0xDD62ED3E EQ PUSH2 0x3DD JUMPI DUP1 PUSH4 0xDFECD44B EQ PUSH2 0x40D JUMPI DUP1 PUSH4 0xFC694EC1 EQ PUSH2 0x42B JUMPI DUP1 PUSH4 0xFF33999F EQ PUSH2 0x466 JUMPI PUSH2 0x140 JUMP JUMPDEST DUP1 PUSH4 0x8DA5CB5B EQ PUSH2 0x2EB JUMPI DUP1 PUSH4 0x95D89B41 EQ PUSH2 0x309 JUMPI DUP1 PUSH4 0x9F251F80 EQ PUSH2 0x327 JUMPI DUP1 PUSH4 0xA9059CBB EQ PUSH2 0x343 JUMPI DUP1 PUSH4 0xC7012A98 EQ PUSH2 0x373 JUMPI PUSH2 0x140 JUMP JUMPDEST DUP1 PUSH4 0x23B872DD GT PUSH2 0x108 JUMPI DUP1 PUSH4 0x23B872DD EQ PUSH2 0x200 JUMPI DUP1 PUSH4 0x313CE567 EQ PUSH2 0x230 JUMPI DUP1 PUSH4 0x35744745 EQ PUSH2 0x24E JUMPI DUP1 PUSH4 0x4643EA7D EQ PUSH2 0x26A JUMPI DUP1 PUSH4 0x6EBC8C86 EQ PUSH2 0x288 JUMPI DUP1 PUSH4 0x70A08231 EQ PUSH2 0x2BB JUMPI PUSH2 0x140 JUMP JUMPDEST DUP1 PUSH4 0x6FDDE03 EQ PUSH2 0x144 JUMPI DUP1 PUSH4 0x7E7C336 EQ PUSH2 0x162 JUMPI DUP1 PUSH4 0x95EA7B3 EQ PUSH2 0x180 JUMPI DUP1 PUSH4 0xBE435BD EQ PUSH2 0x1B0 JUMPI DUP1 PUSH4 0x18160DDD EQ PUSH2 0x1E2 JUMPI JUMPDEST PUSH0 DUP1 REVERT JUMPDEST PUSH2 0x14C PUSH2 0x482 JUMP JUMPDEST PUSH1 0x40 MLOAD PUSH2 0x159 SWAP2 SWAP1 PUSH2 0x17B8 JUMP JUMPDEST PUSH1 0x40 MLOAD DUP1 SWAP2 SUB SWAP1 RETURN JUMPDEST PUSH2 0x16A PUSH2 0x512 JUMP JUMPDEST PUSH1 0x40 MLOAD PUSH2 0x177 SWAP2 SWAP1 PUSH2 0x17F0 JUMP JUMPDEST PUSH1 0x40 MLOAD DUP1 SWAP2 SUB SWAP1 RETURN JUMPDEST PUSH2 0x19A PUSH1 0x4 DUP1 CALLDATASIZE SUB DUP2 ADD SWAP1 PUSH2 0x195 SWAP2 SWAP1 PUSH2 0x189E JUMP JUMPDEST PUSH2 0x518 JUMP JUMPDEST PUSH1 0x40 MLOAD PUSH2 0x1A7 SWAP2 SWAP1 PUSH2 0x18F6 JUMP JUMPDEST PUSH1 0x40 MLOAD DUP1 SWAP2 SUB SWAP1 RETURN JUMPDEST PUSH2 0x1CA PUSH1 0x4 DUP1 CALLDATASIZE SUB DUP2 ADD SWAP1 PUSH2 0x1C5 SWAP2 SWAP1 PUSH2 0x190F JUMP JUMPDEST PUSH2 0x53A JUMP JUMPDEST PUSH1 0x40 MLOAD PUSH2 0x1D9 SWAP4 SWAP3 SWAP2 SWAP1 PUSH2 0x1949 JUMP JUMPDEST PUSH1 0x40 MLOAD DUP1 SWAP2 SUB SWAP1 RETURN JUMPDEST PUSH2 0x1EA PUSH2 0x605 JUMP JUMPDEST PUSH1 0x40 MLOAD PUSH2 0x1F7 SWAP2 SWAP1 PUSH2 0x17F0 JUMP JUMPDEST PUSH1 0x40 MLOAD DUP1 SWAP2 SUB SWAP1 RETURN JUMPDEST PUSH2 0x21A PUSH1 0x4 DUP1 CALLDATASIZE SUB DUP2 ADD SWAP1 PUSH2 0x215 SWAP2 SWAP1 PUSH2 0x1985 JUMP JUMPDEST PUSH2 0x60E JUMP JUMPDEST PUSH1 0x40 MLOAD PUSH2 0x227 SWAP2 SWAP1 PUSH2 0x18F6 JUMP JUMPDEST PUSH1 0x40 MLOAD DUP1 SWAP2 SUB SWAP1 RETURN JUMPDEST PUSH2 0x238 PUSH2 0x63C JUMP JUMPDEST PUSH1 0x40 MLOAD PUSH2 0x245 SWAP2 SWAP1 PUSH2 0x19F0 JUMP JUMPDEST PUSH1 0x40 MLOAD DUP1 SWAP2 SUB SWAP1 RETURN JUMPDEST PUSH2 0x268 PUSH1 0x4 DUP1 CALLDATASIZE SUB DUP2 ADD SWAP1 PUSH2 0x263 SWAP2 SWAP1 PUSH2 0x1B35 JUMP JUMPDEST PUSH2 0x644 JUMP JUMPDEST STOP JUMPDEST PUSH2 0x272 PUSH2 0x736 JUMP JUMPDEST PUSH1 0x40 MLOAD PUSH2 0x27F SWAP2 SWAP1 PUSH2 0x17F0 JUMP JUMPDEST PUSH1 0x40 MLOAD DUP1 SWAP2 SUB SWAP1 RETURN JUMPDEST PUSH2 0x2A2 PUSH1 0x4 DUP1 CALLDATASIZE SUB DUP2 ADD SWAP1 PUSH2 0x29D SWAP2 SWAP1 PUSH2 0x1B8F JUMP JUMPDEST PUSH2 0x73C JUMP JUMPDEST PUSH1 0x40 MLOAD PUSH2 0x2B2 SWAP5 SWAP4 SWAP3 SWAP2 SWAP1 PUSH2 0x1C2D JUMP JUMPDEST PUSH1 0x40 MLOAD DUP1 SWAP2 SUB SWAP1 RETURN JUMPDEST PUSH2 0x2D5 PUSH1 0x4 DUP1 CALLDATASIZE SUB DUP2 ADD SWAP1 PUSH2 0x2D0 SWAP2 SWAP1 PUSH2 0x190F JUMP JUMPDEST PUSH2 0x8F8 JUMP JUMPDEST PUSH1 0x40 MLOAD PUSH2 0x2E2 SWAP2 SWAP1 PUSH2 0x17F0 JUMP JUMPDEST PUSH1 0x40 MLOAD DUP1 SWAP2 SUB SWAP1 RETURN JUMPDEST PUSH2 0x2F3 PUSH2 0x93D JUMP JUMPDEST PUSH1 0x40 MLOAD PUSH2 0x300 SWAP2 SWAP1 PUSH2 0x1C70 JUMP JUMPDEST PUSH1 0x40 MLOAD DUP1 SWAP2 SUB SWAP1 RETURN JUMPDEST PUSH2 0x311 PUSH2 0x962 JUMP JUMPDEST PUSH1 0x40 MLOAD PUSH2 0x31E SWAP2 SWAP1 PUSH2 0x17B8 JUMP JUMPDEST PUSH1 0x40 MLOAD DUP1 SWAP2 SUB SWAP1 RETURN JUMPDEST PUSH2 0x341 PUSH1 0x4 DUP1 CALLDATASIZE SUB DUP2 ADD SWAP1 PUSH2 0x33C SWAP2 SWAP1 PUSH2 0x1B35 JUMP JUMPDEST PUSH2 0x9F2 JUMP JUMPDEST STOP JUMPDEST PUSH2 0x35D PUSH1 0x4 DUP1 CALLDATASIZE SUB DUP2 ADD SWAP1 PUSH2 0x358 SWAP2 SWAP1 PUSH2 0x189E JUMP JUMPDEST PUSH2 0xAE4 JUMP JUMPDEST PUSH1 0x40 MLOAD PUSH2 0x36A SWAP2 SWAP1 PUSH2 0x18F6 JUMP JUMPDEST PUSH1 0x40 MLOAD DUP1 SWAP2 SUB SWAP1 RETURN JUMPDEST PUSH2 0x38D PUSH1 0x4 DUP1 CALLDATASIZE SUB DUP2 ADD SWAP1 PUSH2 0x388 SWAP2 SWAP1 PUSH2 0x1B8F JUMP JUMPDEST PUSH2 0xB06 JUMP JUMPDEST STOP JUMPDEST PUSH2 0x3A9 PUSH1 0x4 DUP1 CALLDATASIZE SUB DUP2 ADD SWAP1 PUSH2 0x3A4 SWAP2 SWAP1 PUSH2 0x1C89 JUMP JUMPDEST PUSH2 0xB5B JUMP JUMPDEST STOP JUMPDEST PUSH2 0x3C5 PUSH1 0x4 DUP1 CALLDATASIZE SUB DUP2 ADD SWAP1 PUSH2 0x3C0 SWAP2 SWAP1 PUSH2 0x190F JUMP JUMPDEST PUSH2 0xD23 JUMP JUMPDEST PUSH1 0x40 MLOAD PUSH2 0x3D4 SWAP4 SWAP3 SWAP2 SWAP1 PUSH2 0x1949 JUMP JUMPDEST PUSH1 0x40 MLOAD DUP1 SWAP2 SUB SWAP1 RETURN JUMPDEST PUSH2 0x3F7 PUSH1 0x4 DUP1 CALLDATASIZE SUB DUP2 ADD SWAP1 PUSH2 0x3F2 SWAP2 SWAP1 PUSH2 0x1CED JUMP JUMPDEST PUSH2 0xDEE JUMP JUMPDEST PUSH1 0x40 MLOAD PUSH2 0x404 SWAP2 SWAP1 PUSH2 0x17F0 JUMP JUMPDEST PUSH1 0x40 MLOAD DUP1 SWAP2 SUB SWAP1 RETURN JUMPDEST PUSH2 0x415 PUSH2 0xE70 JUMP JUMPDEST PUSH1 0x40 MLOAD PUSH2 0x422 SWAP2 SWAP1 PUSH2 0x17F0 JUMP JUMPDEST PUSH1 0x40 MLOAD DUP1 SWAP2 SUB SWAP1 RETURN JUMPDEST PUSH2 0x445 PUSH1 0x4 DUP1 CALLDATASIZE SUB DUP2 ADD SWAP1 PUSH2 0x440 SWAP2 SWAP1 PUSH2 0x1B8F JUMP JUMPDEST PUSH2 0xE76 JUMP JUMPDEST PUSH1 0x40 MLOAD PUSH2 0x45D SWAP13 SWAP12 SWAP11 SWAP10 SWAP9 SWAP8 SWAP7 SWAP6 SWAP5 SWAP4 SWAP3 SWAP2 SWAP1 PUSH2 0x1D67 JUMP JUMPDEST PUSH1 0x40 MLOAD DUP1 SWAP2 SUB SWAP1 RETURN JUMPDEST PUSH2 0x480 PUSH1 0x4 DUP1 CALLDATASIZE SUB DUP2 ADD SWAP1 PUSH2 0x47B SWAP2 SWAP1 PUSH2 0x1E1F JUMP JUMPDEST PUSH2 0xF46 JUMP JUMPDEST STOP JUMPDEST PUSH1 0x60 PUSH1 0x3 DUP1 SLOAD PUSH2 0x491 SWAP1 PUSH2 0x1EFD JUMP JUMPDEST DUP1 PUSH1 0x1F ADD PUSH1 0x20 DUP1 SWAP2 DIV MUL PUSH1 0x20 ADD PUSH1 0x40 MLOAD SWAP1 DUP2 ADD PUSH1 0x40 MSTORE DUP1 SWAP3 SWAP2 SWAP1 DUP2 DUP2 MSTORE PUSH1 0x20 ADD DUP3 DUP1 SLOAD PUSH2 0x4BD SWAP1 PUSH2 0x1EFD JUMP JUMPDEST DUP1 ISZERO PUSH2 0x508 JUMPI DUP1 PUSH1 0x1F LT PUSH2 0x4DF JUMPI PUSH2 0x100 DUP1 DUP4 SLOAD DIV MUL DUP4 MSTORE SWAP2 PUSH1 0x20 ADD SWAP2 PUSH2 0x508 JUMP JUMPDEST DUP3 ADD SWAP2 SWAP1 PUSH0 MSTORE PUSH1 0x20 PUSH0 KECCAK256 SWAP1 JUMPDEST DUP2 SLOAD DUP2 MSTORE SWAP1 PUSH1 0x1 ADD SWAP1 PUSH1 0x20 ADD DUP1 DUP4 GT PUSH2 0x4EB JUMPI DUP3 SWAP1 SUB PUSH1 0x1F AND DUP3 ADD SWAP2 JUMPDEST POP POP POP POP POP SWAP1 POP SWAP1 JUMP JUMPDEST PUSH1 0x9 SLOAD DUP2 JUMP JUMPDEST PUSH0 DUP1 PUSH2 0x522 PUSH2 0x116B JUMP JUMPDEST SWAP1 POP PUSH2 0x52F DUP2 DUP6 DUP6 PUSH2 0x1172 JUMP JUMPDEST PUSH1 0x1 SWAP2 POP POP SWAP3 SWAP2 POP POP JUMP JUMPDEST PUSH1 0x8 PUSH1 0x20 MSTORE DUP1 PUSH0 MSTORE PUSH1 0x40 PUSH0 KECCAK256 PUSH0 SWAP2 POP SWAP1 POP DUP1 PUSH0 ADD SLOAD SWAP1 DUP1 PUSH1 0x1 ADD DUP1 SLOAD PUSH2 0x55F SWAP1 PUSH2 0x1EFD JUMP JUMPDEST DUP1 PUSH1 0x1F ADD PUSH1 0x20 DUP1 SWAP2 DIV MUL PUSH1 0x20 ADD PUSH1 0x40 MLOAD SWAP1 DUP2 ADD PUSH1 0x40 MSTORE DUP1 SWAP3 SWAP2 SWAP1 DUP2 DUP2 MSTORE PUSH1 0x20 ADD DUP3 DUP1 SLOAD PUSH2 0x58B SWAP1 PUSH2 0x1EFD JUMP JUMPDEST DUP1 ISZERO PUSH2 0x5D6 JUMPI DUP1 PUSH1 0x1F LT PUSH2 0x5AD JUMPI PUSH2 0x100 DUP1 DUP4 SLOAD DIV MUL DUP4 MSTORE SWAP2 PUSH1 0x20 ADD SWAP2 PUSH2 0x5D6 JUMP JUMPDEST DUP3 ADD SWAP2 SWAP1 PUSH0 MSTORE PUSH1 0x20 PUSH0 KECCAK256 SWAP1 JUMPDEST DUP2 SLOAD DUP2 MSTORE SWAP1 PUSH1 0x1 ADD SWAP1 PUSH1 0x20 ADD DUP1 DUP4 GT PUSH2 0x5B9 JUMPI DUP3 SWAP1 SUB PUSH1 0x1F AND DUP3 ADD SWAP2 JUMPDEST POP POP POP POP POP SWAP1 DUP1 PUSH1 0x2 ADD PUSH0 SWAP1 SLOAD SWAP1 PUSH2 0x100 EXP SWAP1 DIV PUSH20 0xFFFFFFFFFFFFFFFFFFFFFFFFFFFFFFFFFFFFFFFF AND SWAP1 POP DUP4 JUMP JUMPDEST PUSH0 PUSH1 0x2 SLOAD SWAP1 POP SWAP1 JUMP JUMPDEST PUSH0 DUP1 PUSH2 0x618 PUSH2 0x116B JUMP JUMPDEST SWAP1 POP PUSH2 0x625 DUP6 DUP3 DUP6 PUSH2 0x1184 JUMP JUMPDEST PUSH2 0x630 DUP6 DUP6 DUP6 PUSH2 0x1216 JUMP JUMPDEST PUSH1 0x1 SWAP2 POP POP SWAP4 SWAP3 POP POP POP JUMP JUMPDEST PUSH0 PUSH1 0x12 SWAP1 POP SWAP1 JUMP JUMPDEST PUSH1 0x9 PUSH0 DUP2 SLOAD DUP1 SWAP3 SWAP2 SWAP1 PUSH2 0x656 SWAP1 PUSH2 0x1F5A JUMP JUMPDEST SWAP2 SWAP1 POP SSTORE POP PUSH1 0x40 MLOAD DUP1 PUSH1 0x60 ADD PUSH1 0x40 MSTORE DUP1 PUSH1 0x9 SLOAD DUP2 MSTORE PUSH1 0x20 ADD DUP4 DUP2 MSTORE PUSH1 0x20 ADD DUP3 PUSH20 0xFFFFFFFFFFFFFFFFFFFFFFFFFFFFFFFFFFFFFFFF AND DUP2 MSTORE POP PUSH1 0x8 PUSH0 DUP4 PUSH20 0xFFFFFFFFFFFFFFFFFFFFFFFFFFFFFFFFFFFFFFFF AND PUSH20 0xFFFFFFFFFFFFFFFFFFFFFFFFFFFFFFFFFFFFFFFF AND DUP2 MSTORE PUSH1 0x20 ADD SWAP1 DUP2 MSTORE PUSH1 0x20 ADD PUSH0 KECCAK256 PUSH0 DUP3 ADD MLOAD DUP2 PUSH0 ADD SSTORE PUSH1 0x20 DUP3 ADD MLOAD DUP2 PUSH1 0x1 ADD SWAP1 DUP2 PUSH2 0x6E8 SWAP2 SWAP1 PUSH2 0x213E JUMP JUMPDEST POP PUSH1 0x40 DUP3 ADD MLOAD DUP2 PUSH1 0x2 ADD PUSH0 PUSH2 0x100 EXP DUP2 SLOAD DUP2 PUSH20 0xFFFFFFFFFFFFFFFFFFFFFFFFFFFFFFFFFFFFFFFF MUL NOT AND SWAP1 DUP4 PUSH20 0xFFFFFFFFFFFFFFFFFFFFFFFFFFFFFFFFFFFFFFFF AND MUL OR SWAP1 SSTORE POP SWAP1 POP POP POP POP JUMP JUMPDEST PUSH1 0x7 SLOAD DUP2 JUMP JUMPDEST PUSH0 DUP1 PUSH0 DUP1 PUSH0 PUSH1 0xA PUSH0 DUP8 DUP2 MSTORE PUSH1 0x20 ADD SWAP1 DUP2 MSTORE PUSH1 0x20 ADD PUSH0 KECCAK256 PUSH1 0x40 MLOAD DUP1 PUSH2 0x180 ADD PUSH1 0x40 MSTORE SWAP1 DUP2 PUSH0 DUP3 ADD SLOAD DUP2 MSTORE PUSH1 0x20 ADD PUSH1 0x1 DUP3 ADD SLOAD DUP2 MSTORE PUSH1 0x20 ADD PUSH1 0x2 DUP3 ADD SLOAD DUP2 MSTORE PUSH1 0x20 ADD PUSH1 0x3 DUP3 ADD SLOAD DUP2 MSTORE PUSH1 0x20 ADD PUSH1 0x4 DUP3 ADD SLOAD DUP2 MSTORE PUSH1 0x20 ADD PUSH1 0x5 DUP3 ADD SLOAD DUP2 MSTORE PUSH1 0x20 ADD PUSH1 0x6 DUP3 ADD SLOAD DUP2 MSTORE PUSH1 0x20 ADD PUSH1 0x7 DUP3 ADD PUSH0 SWAP1 SLOAD SWAP1 PUSH2 0x100 EXP SWAP1 DIV PUSH20 0xFFFFFFFFFFFFFFFFFFFFFFFFFFFFFFFFFFFFFFFF AND PUSH20 0xFFFFFFFFFFFFFFFFFFFFFFFFFFFFFFFFFFFFFFFF AND PUSH20 0xFFFFFFFFFFFFFFFFFFFFFFFFFFFFFFFFFFFFFFFF AND DUP2 MSTORE PUSH1 0x20 ADD PUSH1 0x8 DUP3 ADD PUSH0 SWAP1 SLOAD SWAP1 PUSH2 0x100 EXP SWAP1 DIV PUSH20 0xFFFFFFFFFFFFFFFFFFFFFFFFFFFFFFFFFFFFFFFF AND PUSH20 0xFFFFFFFFFFFFFFFFFFFFFFFFFFFFFFFFFFFFFFFF AND PUSH20 0xFFFFFFFFFFFFFFFFFFFFFFFFFFFFFFFFFFFFFFFF AND DUP2 MSTORE PUSH1 0x20 ADD PUSH1 0x8 DUP3 ADD PUSH1 0x14 SWAP1 SLOAD SWAP1 PUSH2 0x100 EXP SWAP1 DIV PUSH1 0xFF AND ISZERO ISZERO ISZERO ISZERO DUP2 MSTORE PUSH1 0x20 ADD PUSH1 0x9 DUP3 ADD PUSH1 0x40 MLOAD DUP1 PUSH1 0x40 ADD PUSH1 0x40 MSTORE SWAP1 DUP2 PUSH0 DUP3 ADD SLOAD DUP2 MSTORE PUSH1 0x20 ADD PUSH1 0x1 DUP3 ADD SLOAD DUP2 MSTORE POP POP DUP2 MSTORE PUSH1 0x20 ADD PUSH1 0xB DUP3 ADD PUSH0 SWAP1 SLOAD SWAP1 PUSH2 0x100 EXP SWAP1 DIV PUSH1 0xFF AND PUSH1 0x3 DUP2 GT ISZERO PUSH2 0x8B3 JUMPI PUSH2 0x8B2 PUSH2 0x1BBA JUMP JUMPDEST JUMPDEST PUSH1 0x3 DUP2 GT ISZERO PUSH2 0x8C5 JUMPI PUSH2 0x8C4 PUSH2 0x1BBA JUMP JUMPDEST JUMPDEST DUP2 MSTORE POP POP SWAP1 POP DUP1 PUSH0 ADD MLOAD DUP2 PUSH2 0x140 ADD MLOAD PUSH0 ADD MLOAD DUP3 PUSH2 0x140 ADD MLOAD PUSH1 0x20 ADD MLOAD DUP4 PUSH2 0x160 ADD MLOAD SWAP5 POP SWAP5 POP SWAP5 POP SWAP5 POP POP SWAP2 SWAP4 POP SWAP2 SWAP4 JUMP JUMPDEST PUSH0 DUP1 PUSH0 DUP4 PUSH20 0xFFFFFFFFFFFFFFFFFFFFFFFFFFFFFFFFFFFFFFFF AND PUSH20 0xFFFFFFFFFFFFFFFFFFFFFFFFFFFFFFFFFFFFFFFF AND DUP2 MSTORE PUSH1 0x20 ADD SWAP1 DUP2 MSTORE PUSH1 0x20 ADD PUSH0 KECCAK256 SLOAD SWAP1 POP SWAP2 SWAP1 POP JUMP JUMPDEST PUSH1 0x5 PUSH0 SWAP1 SLOAD SWAP1 PUSH2 0x100 EXP SWAP1 DIV PUSH20 0xFFFFFFFFFFFFFFFFFFFFFFFFFFFFFFFFFFFFFFFF AND DUP2 JUMP JUMPDEST PUSH1 0x60 PUSH1 0x4 DUP1 SLOAD PUSH2 0x971 SWAP1 PUSH2 0x1EFD JUMP JUMPDEST DUP1 PUSH1 0x1F ADD PUSH1 0x20 DUP1 SWAP2 DIV MUL PUSH1 0x20 ADD PUSH1 0x40 MLOAD SWAP1 DUP2 ADD PUSH1 0x40 MSTORE DUP1 SWAP3 SWAP2 SWAP1 DUP2 DUP2 MSTORE PUSH1 0x20 ADD DUP3 DUP1 SLOAD PUSH2 0x99D SWAP1 PUSH2 0x1EFD JUMP JUMPDEST DUP1 ISZERO PUSH2 0x9E8 JUMPI DUP1 PUSH1 0x1F LT PUSH2 0x9BF JUMPI PUSH2 0x100 DUP1 DUP4 SLOAD DIV MUL DUP4 MSTORE SWAP2 PUSH1 0x20 ADD SWAP2 PUSH2 0x9E8 JUMP JUMPDEST DUP3 ADD SWAP2 SWAP1 PUSH0 MSTORE PUSH1 0x20 PUSH0 KECCAK256 SWAP1 JUMPDEST DUP2 SLOAD DUP2 MSTORE SWAP1 PUSH1 0x1 ADD SWAP1 PUSH1 0x20 ADD DUP1 DUP4 GT PUSH2 0x9CB JUMPI DUP3 SWAP1 SUB PUSH1 0x1F AND DUP3 ADD SWAP2 JUMPDEST POP POP POP POP POP SWAP1 POP SWAP1 JUMP JUMPDEST PUSH1 0x7 PUSH0 DUP2 SLOAD DUP1 SWAP3 SWAP2 SWAP1 PUSH2 0xA04 SWAP1 PUSH2 0x1F5A JUMP JUMPDEST SWAP2 SWAP1 POP SSTORE POP PUSH1 0x40 MLOAD DUP1 PUSH1 0x60 ADD PUSH1 0x40 MSTORE DUP1 PUSH1 0x7 SLOAD DUP2 MSTORE PUSH1 0x20 ADD DUP4 DUP2 MSTORE PUSH1 0x20 ADD DUP3 PUSH20 0xFFFFFFFFFFFFFFFFFFFFFFFFFFFFFFFFFFFFFFFF AND DUP2 MSTORE POP PUSH1 0x6 PUSH0 DUP4 PUSH20 0xFFFFFFFFFFFFFFFFFFFFFFFFFFFFFFFFFFFFFFFF AND PUSH20 0xFFFFFFFFFFFFFFFFFFFFFFFFFFFFFFFFFFFFFFFF AND DUP2 MSTORE PUSH1 0x20 ADD SWAP1 DUP2 MSTORE PUSH1 0x20 ADD PUSH0 KECCAK256 PUSH0 DUP3 ADD MLOAD DUP2 PUSH0 ADD SSTORE PUSH1 0x20 DUP3 ADD MLOAD DUP2 PUSH1 0x1 ADD SWAP1 DUP2 PUSH2 0xA96 SWAP2 SWAP1 PUSH2 0x213E JUMP JUMPDEST POP PUSH1 0x40 DUP3 ADD MLOAD DUP2 PUSH1 0x2 ADD PUSH0 PUSH2 0x100 EXP DUP2 SLOAD DUP2 PUSH20 0xFFFFFFFFFFFFFFFFFFFFFFFFFFFFFFFFFFFFFFFF MUL NOT AND SWAP1 DUP4 PUSH20 0xFFFFFFFFFFFFFFFFFFFFFFFFFFFFFFFFFFFFFFFF AND MUL OR SWAP1 SSTORE POP SWAP1 POP POP POP POP JUMP JUMPDEST PUSH0 DUP1 PUSH2 0xAEE PUSH2 0x116B JUMP JUMPDEST SWAP1 POP PUSH2 0xAFB DUP2 DUP6 DUP6 PUSH2 0x1216 JUMP JUMPDEST PUSH1 0x1 SWAP2 POP POP SWAP3 SWAP2 POP POP JUMP JUMPDEST PUSH2 0xB57 PUSH1 0xA PUSH0 DUP4 DUP2 MSTORE PUSH1 0x20 ADD SWAP1 DUP2 MSTORE PUSH1 0x20 ADD PUSH0 KECCAK256 PUSH1 0x7 ADD PUSH0 SWAP1 SLOAD SWAP1 PUSH2 0x100 EXP SWAP1 DIV PUSH20 0xFFFFFFFFFFFFFFFFFFFFFFFFFFFFFFFFFFFFFFFF AND PUSH1 0xA PUSH0 DUP5 DUP2 MSTORE PUSH1 0x20 ADD SWAP1 DUP2 MSTORE PUSH1 0x20 ADD PUSH0 KECCAK256 PUSH1 0x6 ADD SLOAD PUSH2 0xAE4 JUMP JUMPDEST POP POP JUMP JUMPDEST PUSH0 PUSH1 0xA PUSH0 DUP5 DUP2 MSTORE PUSH1 0x20 ADD SWAP1 DUP2 MSTORE PUSH1 0x20 ADD PUSH0 KECCAK256 SWAP1 POP DUP1 PUSH1 0x8 ADD PUSH1 0x14 SWAP1 SLOAD SWAP1 PUSH2 0x100 EXP SWAP1 DIV PUSH1 0xFF AND PUSH2 0xBC0 JUMPI PUSH1 0x40 MLOAD PUSH32 0x8C379A000000000000000000000000000000000000000000000000000000000 DUP2 MSTORE PUSH1 0x4 ADD PUSH2 0xBB7 SWAP1 PUSH2 0x2257 JUMP JUMPDEST PUSH1 0x40 MLOAD DUP1 SWAP2 SUB SWAP1 REVERT JUMPDEST DUP1 PUSH1 0x4 ADD SLOAD DUP3 GT PUSH2 0xC06 JUMPI PUSH1 0x40 MLOAD PUSH32 0x8C379A000000000000000000000000000000000000000000000000000000000 DUP2 MSTORE PUSH1 0x4 ADD PUSH2 0xBFD SWAP1 PUSH2 0x22E5 JUMP JUMPDEST PUSH1 0x40 MLOAD DUP1 SWAP2 SUB SWAP1 REVERT JUMPDEST DUP1 PUSH1 0x5 ADD SLOAD DUP3 LT ISZERO PUSH2 0xCCA JUMPI PUSH2 0xC2B DUP6 DUP6 DUP4 PUSH1 0x1 ADD SLOAD DUP5 PUSH1 0x2 ADD SLOAD DUP6 PUSH1 0x3 ADD SLOAD PUSH2 0x1306 JUMP JUMPDEST ISZERO PUSH2 0xC7C JUMPI DUP1 PUSH1 0x9 ADD PUSH0 ADD PUSH0 DUP2 SLOAD DUP1 SWAP3 SWAP2 SWAP1 PUSH2 0xC46 SWAP1 PUSH2 0x1F5A JUMP JUMPDEST SWAP2 SWAP1 POP SSTORE POP PUSH1 0x1 DUP2 PUSH1 0xB ADD PUSH0 PUSH2 0x100 EXP DUP2 SLOAD DUP2 PUSH1 0xFF MUL NOT AND SWAP1 DUP4 PUSH1 0x3 DUP2 GT ISZERO PUSH2 0xC72 JUMPI PUSH2 0xC71 PUSH2 0x1BBA JUMP JUMPDEST JUMPDEST MUL OR SWAP1 SSTORE POP PUSH2 0xCC5 JUMP JUMPDEST DUP1 PUSH1 0x9 ADD PUSH1 0x1 ADD PUSH0 DUP2 SLOAD DUP1 SWAP3 SWAP2 SWAP1 PUSH2 0xC93 SWAP1 PUSH2 0x1F5A JUMP JUMPDEST SWAP2 SWAP1 POP SSTORE POP PUSH1 0x2 DUP2 PUSH1 0xB ADD PUSH0 PUSH2 0x100 EXP DUP2 SLOAD DUP2 PUSH1 0xFF MUL NOT AND SWAP1 DUP4 PUSH1 0x3 DUP2 GT ISZERO PUSH2 0xCBF JUMPI PUSH2 0xCBE PUSH2 0x1BBA JUMP JUMPDEST JUMPDEST MUL OR SWAP1 SSTORE POP JUMPDEST PUSH2 0xD1C JUMP JUMPDEST PUSH2 0xCD3 DUP4 PUSH2 0xB06 JUMP JUMPDEST PUSH0 DUP2 PUSH1 0x8 ADD PUSH1 0x14 PUSH2 0x100 EXP DUP2 SLOAD DUP2 PUSH1 0xFF MUL NOT AND SWAP1 DUP4 ISZERO ISZERO MUL OR SWAP1 SSTORE POP PUSH1 0x3 DUP2 PUSH1 0xB ADD PUSH0 PUSH2 0x100 EXP DUP2 SLOAD DUP2 PUSH1 0xFF MUL NOT AND SWAP1 DUP4 PUSH1 0x3 DUP2 GT ISZERO PUSH2 0xD16 JUMPI PUSH2 0xD15 PUSH2 0x1BBA JUMP JUMPDEST JUMPDEST MUL OR SWAP1 SSTORE POP JUMPDEST POP POP POP POP POP JUMP JUMPDEST PUSH1 0x6 PUSH1 0x20 MSTORE DUP1 PUSH0 MSTORE PUSH1 0x40 PUSH0 KECCAK256 PUSH0 SWAP2 POP SWAP1 POP DUP1 PUSH0 ADD SLOAD SWAP1 DUP1 PUSH1 0x1 ADD DUP1 SLOAD PUSH2 0xD48 SWAP1 PUSH2 0x1EFD JUMP JUMPDEST DUP1 PUSH1 0x1F ADD PUSH1 0x20 DUP1 SWAP2 DIV MUL PUSH1 0x20 ADD PUSH1 0x40 MLOAD SWAP1 DUP2 ADD PUSH1 0x40 MSTORE DUP1 SWAP3 SWAP2 SWAP1 DUP2 DUP2 MSTORE PUSH1 0x20 ADD DUP3 DUP1 SLOAD PUSH2 0xD74 SWAP1 PUSH2 0x1EFD JUMP JUMPDEST DUP1 ISZERO PUSH2 0xDBF JUMPI DUP1 PUSH1 0x1F LT PUSH2 0xD96 JUMPI PUSH2 0x100 DUP1 DUP4 SLOAD DIV MUL DUP4 MSTORE SWAP2 PUSH1 0x20 ADD SWAP2 PUSH2 0xDBF JUMP JUMPDEST DUP3 ADD SWAP2 SWAP1 PUSH0 MSTORE PUSH1 0x20 PUSH0 KECCAK256 SWAP1 JUMPDEST DUP2 SLOAD DUP2 MSTORE SWAP1 PUSH1 0x1 ADD SWAP1 PUSH1 0x20 ADD DUP1 DUP4 GT PUSH2 0xDA2 JUMPI DUP3 SWAP1 SUB PUSH1 0x1F AND DUP3 ADD SWAP2 JUMPDEST POP POP POP POP POP SWAP1 DUP1 PUSH1 0x2 ADD PUSH0 SWAP1 SLOAD SWAP1 PUSH2 0x100 EXP SWAP1 DIV PUSH20 0xFFFFFFFFFFFFFFFFFFFFFFFFFFFFFFFFFFFFFFFF AND SWAP1 POP DUP4 JUMP JUMPDEST PUSH0 PUSH1 0x1 PUSH0 DUP5 PUSH20 0xFFFFFFFFFFFFFFFFFFFFFFFFFFFFFFFFFFFFFFFF AND PUSH20 0xFFFFFFFFFFFFFFFFFFFFFFFFFFFFFFFFFFFFFFFF AND DUP2 MSTORE PUSH1 0x20 ADD SWAP1 DUP2 MSTORE PUSH1 0x20 ADD PUSH0 KECCAK256 PUSH0 DUP4 PUSH20 0xFFFFFFFFFFFFFFFFFFFFFFFFFFFFFFFFFFFFFFFF AND PUSH20 0xFFFFFFFFFFFFFFFFFFFFFFFFFFFFFFFFFFFFFFFF AND DUP2 MSTORE PUSH1 0x20 ADD SWAP1 DUP2 MSTORE PUSH1 0x20 ADD PUSH0 KECCAK256 SLOAD SWAP1 POP SWAP3 SWAP2 POP POP JUMP JUMPDEST PUSH1 0xB SLOAD DUP2 JUMP JUMPDEST PUSH1 0xA PUSH1 0x20 MSTORE DUP1 PUSH0 MSTORE PUSH1 0x40 PUSH0 KECCAK256 PUSH0 SWAP2 POP SWAP1 POP DUP1 PUSH0 ADD SLOAD SWAP1 DUP1 PUSH1 0x1 ADD SLOAD SWAP1 DUP1 PUSH1 0x2 ADD SLOAD SWAP1 DUP1 PUSH1 0x3 ADD SLOAD SWAP1 DUP1 PUSH1 0x4 ADD SLOAD SWAP1 DUP1 PUSH1 0x5 ADD SLOAD SWAP1 DUP1 PUSH1 0x6 ADD SLOAD SWAP1 DUP1 PUSH1 0x7 ADD PUSH0 SWAP1 SLOAD SWAP1 PUSH2 0x100 EXP SWAP1 DIV PUSH20 0xFFFFFFFFFFFFFFFFFFFFFFFFFFFFFFFFFFFFFFFF AND SWAP1 DUP1 PUSH1 0x8 ADD PUSH0 SWAP1 SLOAD SWAP1 PUSH2 0x100 EXP SWAP1 DIV PUSH20 0xFFFFFFFFFFFFFFFFFFFFFFFFFFFFFFFFFFFFFFFF AND SWAP1 DUP1 PUSH1 0x8 ADD PUSH1 0x14 SWAP1 SLOAD SWAP1 PUSH2 0x100 EXP SWAP1 DIV PUSH1 0xFF AND SWAP1 DUP1 PUSH1 0x9 ADD PUSH1 0x40 MLOAD DUP1 PUSH1 0x40 ADD PUSH1 0x40 MSTORE SWAP1 DUP2 PUSH0 DUP3 ADD SLOAD DUP2 MSTORE PUSH1 0x20 ADD PUSH1 0x1 DUP3 ADD SLOAD DUP2 MSTORE POP POP SWAP1 DUP1 PUSH1 0xB ADD PUSH0 SWAP1 SLOAD SWAP1 PUSH2 0x100 EXP SWAP1 DIV PUSH1 0xFF AND SWAP1 POP DUP13 JUMP JUMPDEST PUSH0 PUSH1 0x40 MLOAD DUP1 PUSH1 0x40 ADD PUSH1 0x40 MSTORE DUP1 PUSH0 DUP2 MSTORE PUSH1 0x20 ADD PUSH0 DUP2 MSTORE POP SWAP1 POP PUSH1 0xB PUSH0 DUP2 SLOAD DUP1 SWAP3 SWAP2 SWAP1 PUSH2 0xF70 SWAP1 PUSH2 0x1F5A JUMP JUMPDEST SWAP2 SWAP1 POP SSTORE POP PUSH1 0x40 MLOAD DUP1 PUSH2 0x180 ADD PUSH1 0x40 MSTORE DUP1 PUSH1 0xB SLOAD DUP2 MSTORE PUSH1 0x20 ADD DUP11 DUP2 MSTORE PUSH1 0x20 ADD DUP10 DUP2 MSTORE PUSH1 0x20 ADD DUP9 DUP2 MSTORE PUSH1 0x20 ADD DUP8 DUP2 MSTORE PUSH1 0x20 ADD DUP7 DUP2 MSTORE PUSH1 0x20 ADD DUP6 DUP2 MSTORE PUSH1 0x20 ADD DUP5 PUSH20 0xFFFFFFFFFFFFFFFFFFFFFFFFFFFFFFFFFFFFFFFF AND DUP2 MSTORE PUSH1 0x20 ADD DUP4 PUSH20 0xFFFFFFFFFFFFFFFFFFFFFFFFFFFFFFFFFFFFFFFF AND DUP2 MSTORE PUSH1 0x20 ADD PUSH1 0x1 ISZERO ISZERO DUP2 MSTORE PUSH1 0x20 ADD DUP3 DUP2 MSTORE PUSH1 0x20 ADD PUSH0 PUSH1 0x3 DUP2 GT ISZERO PUSH2 0x1007 JUMPI PUSH2 0x1006 PUSH2 0x1BBA JUMP JUMPDEST JUMPDEST DUP2 MSTORE POP PUSH1 0xA PUSH0 PUSH1 0xB SLOAD DUP2 MSTORE PUSH1 0x20 ADD SWAP1 DUP2 MSTORE PUSH1 0x20 ADD PUSH0 KECCAK256 PUSH0 DUP3 ADD MLOAD DUP2 PUSH0 ADD SSTORE PUSH1 0x20 DUP3 ADD MLOAD DUP2 PUSH1 0x1 ADD SSTORE PUSH1 0x40 DUP3 ADD MLOAD DUP2 PUSH1 0x2 ADD SSTORE PUSH1 0x60 DUP3 ADD MLOAD DUP2 PUSH1 0x3 ADD SSTORE PUSH1 0x80 DUP3 ADD MLOAD DUP2 PUSH1 0x4 ADD SSTORE PUSH1 0xA0 DUP3 ADD MLOAD DUP2 PUSH1 0x5 ADD SSTORE PUSH1 0xC0 DUP3 ADD MLOAD DUP2 PUSH1 0x6 ADD SSTORE PUSH1 0xE0 DUP3 ADD MLOAD DUP2 PUSH1 0x7 ADD PUSH0 PUSH2 0x100 EXP DUP2 SLOAD DUP2 PUSH20 0xFFFFFFFFFFFFFFFFFFFFFFFFFFFFFFFFFFFFFFFF MUL NOT AND SWAP1 DUP4 PUSH20 0xFFFFFFFFFFFFFFFFFFFFFFFFFFFFFFFFFFFFFFFF AND MUL OR SWAP1 SSTORE POP PUSH2 0x100 DUP3 ADD MLOAD DUP2 PUSH1 0x8 ADD PUSH0 PUSH2 0x100 EXP DUP2 SLOAD DUP2 PUSH20 0xFFFFFFFFFFFFFFFFFFFFFFFFFFFFFFFFFFFFFFFF MUL NOT AND SWAP1 DUP4 PUSH20 0xFFFFFFFFFFFFFFFFFFFFFFFFFFFFFFFFFFFFFFFF AND MUL OR SWAP1 SSTORE POP PUSH2 0x120 DUP3 ADD MLOAD DUP2 PUSH1 0x8 ADD PUSH1 0x14 PUSH2 0x100 EXP DUP2 SLOAD DUP2 PUSH1 0xFF MUL NOT AND SWAP1 DUP4 ISZERO ISZERO MUL OR SWAP1 SSTORE POP PUSH2 0x140 DUP3 ADD MLOAD DUP2 PUSH1 0x9 ADD PUSH0 DUP3 ADD MLOAD DUP2 PUSH0 ADD SSTORE PUSH1 0x20 DUP3 ADD MLOAD DUP2 PUSH1 0x1 ADD SSTORE POP POP PUSH2 0x160 DUP3 ADD MLOAD DUP2 PUSH1 0xB ADD PUSH0 PUSH2 0x100 EXP DUP2 SLOAD DUP2 PUSH1 0xFF MUL NOT AND SWAP1 DUP4 PUSH1 0x3 DUP2 GT ISZERO PUSH2 0x1158 JUMPI PUSH2 0x1157 PUSH2 0x1BBA JUMP JUMPDEST JUMPDEST MUL OR SWAP1 SSTORE POP SWAP1 POP POP POP POP POP POP POP POP POP POP POP JUMP JUMPDEST PUSH0 CALLER SWAP1 POP SWAP1 JUMP JUMPDEST PUSH2 0x117F DUP4 DUP4 DUP4 PUSH1 0x1 PUSH2 0x1346 JUMP JUMPDEST POP POP POP JUMP JUMPDEST PUSH0 PUSH2 0x118F DUP5 DUP5 PUSH2 0xDEE JUMP JUMPDEST SWAP1 POP PUSH32 0xFFFFFFFFFFFFFFFFFFFFFFFFFFFFFFFFFFFFFFFFFFFFFFFFFFFFFFFFFFFFFFFF DUP2 EQ PUSH2 0x1210 JUMPI DUP2 DUP2 LT ISZERO PUSH2 0x1201 JUMPI DUP3 DUP2 DUP4 PUSH1 0x40 MLOAD PUSH32 0xFB8F41B200000000000000000000000000000000000000000000000000000000 DUP2 MSTORE PUSH1 0x4 ADD PUSH2 0x11F8 SWAP4 SWAP3 SWAP2 SWAP1 PUSH2 0x2303 JUMP JUMPDEST PUSH1 0x40 MLOAD DUP1 SWAP2 SUB SWAP1 REVERT JUMPDEST PUSH2 0x120F DUP5 DUP5 DUP5 DUP5 SUB PUSH0 PUSH2 0x1346 JUMP JUMPDEST JUMPDEST POP POP POP POP JUMP JUMPDEST PUSH0 PUSH20 0xFFFFFFFFFFFFFFFFFFFFFFFFFFFFFFFFFFFFFFFF AND DUP4 PUSH20 0xFFFFFFFFFFFFFFFFFFFFFFFFFFFFFFFFFFFFFFFF AND SUB PUSH2 0x1286 JUMPI PUSH0 PUSH1 0x40 MLOAD PUSH32 0x96C6FD1E00000000000000000000000000000000000000000000000000000000 DUP2 MSTORE PUSH1 0x4 ADD PUSH2 0x127D SWAP2 SWAP1 PUSH2 0x1C70 JUMP JUMPDEST PUSH1 0x40 MLOAD DUP1 SWAP2 SUB SWAP1 REVERT JUMPDEST PUSH0 PUSH20 0xFFFFFFFFFFFFFFFFFFFFFFFFFFFFFFFFFFFFFFFF AND DUP3 PUSH20 0xFFFFFFFFFFFFFFFFFFFFFFFFFFFFFFFFFFFFFFFF AND SUB PUSH2 0x12F6 JUMPI PUSH0 PUSH1 0x40 MLOAD PUSH32 0xEC442F0500000000000000000000000000000000000000000000000000000000 DUP2 MSTORE PUSH1 0x4 ADD PUSH2 0x12ED SWAP2 SWAP1 PUSH2 0x1C70 JUMP JUMPDEST PUSH1 0x40 MLOAD DUP1 SWAP2 SUB SWAP1 REVERT JUMPDEST PUSH2 0x1301 DUP4 DUP4 DUP4 PUSH2 0x1515 JUMP JUMPDEST POP POP POP JUMP JUMPDEST PUSH0 DUP1 DUP5 DUP8 PUSH2 0x1314 SWAP2 SWAP1 PUSH2 0x2338 JUMP JUMPDEST SWAP1 POP PUSH0 DUP5 DUP8 PUSH2 0x1323 SWAP2 SWAP1 PUSH2 0x2338 JUMP JUMPDEST SWAP1 POP PUSH0 DUP2 DUP4 PUSH2 0x1332 SWAP2 SWAP1 PUSH2 0x236B JUMP JUMPDEST SWAP1 POP DUP5 DUP2 GT ISZERO SWAP4 POP POP POP POP SWAP6 SWAP5 POP POP POP POP POP JUMP JUMPDEST PUSH0 PUSH20 0xFFFFFFFFFFFFFFFFFFFFFFFFFFFFFFFFFFFFFFFF AND DUP5 PUSH20 0xFFFFFFFFFFFFFFFFFFFFFFFFFFFFFFFFFFFFFFFF AND SUB PUSH2 0x13B6 JUMPI PUSH0 PUSH1 0x40 MLOAD PUSH32 0xE602DF0500000000000000000000000000000000000000000000000000000000 DUP2 MSTORE PUSH1 0x4 ADD PUSH2 0x13AD SWAP2 SWAP1 PUSH2 0x1C70 JUMP JUMPDEST PUSH1 0x40 MLOAD DUP1 SWAP2 SUB SWAP1 REVERT JUMPDEST PUSH0 PUSH20 0xFFFFFFFFFFFFFFFFFFFFFFFFFFFFFFFFFFFFFFFF AND DUP4 PUSH20 0xFFFFFFFFFFFFFFFFFFFFFFFFFFFFFFFFFFFFFFFF AND SUB PUSH2 0x1426 JUMPI PUSH0 PUSH1 0x40 MLOAD PUSH32 0x94280D6200000000000000000000000000000000000000000000000000000000 DUP2 MSTORE PUSH1 0x4 ADD PUSH2 0x141D SWAP2 SWAP1 PUSH2 0x1C70 JUMP JUMPDEST PUSH1 0x40 MLOAD DUP1 SWAP2 SUB SWAP1 REVERT JUMPDEST DUP2 PUSH1 0x1 PUSH0 DUP7 PUSH20 0xFFFFFFFFFFFFFFFFFFFFFFFFFFFFFFFFFFFFFFFF AND PUSH20 0xFFFFFFFFFFFFFFFFFFFFFFFFFFFFFFFFFFFFFFFF AND DUP2 MSTORE PUSH1 0x20 ADD SWAP1 DUP2 MSTORE PUSH1 0x20 ADD PUSH0 KECCAK256 PUSH0 DUP6 PUSH20 0xFFFFFFFFFFFFFFFFFFFFFFFFFFFFFFFFFFFFFFFF AND PUSH20 0xFFFFFFFFFFFFFFFFFFFFFFFFFFFFFFFFFFFFFFFF AND DUP2 MSTORE PUSH1 0x20 ADD SWAP1 DUP2 MSTORE PUSH1 0x20 ADD PUSH0 KECCAK256 DUP2 SWAP1 SSTORE POP DUP1 ISZERO PUSH2 0x150F JUMPI DUP3 PUSH20 0xFFFFFFFFFFFFFFFFFFFFFFFFFFFFFFFFFFFFFFFF AND DUP5 PUSH20 0xFFFFFFFFFFFFFFFFFFFFFFFFFFFFFFFFFFFFFFFF AND PUSH32 0x8C5BE1E5EBEC7D5BD14F71427D1E84F3DD0314C0F7B2291E5B200AC8C7C3B925 DUP5 PUSH1 0x40 MLOAD PUSH2 0x1506 SWAP2 SWAP1 PUSH2 0x17F0 JUMP JUMPDEST PUSH1 0x40 MLOAD DUP1 SWAP2 SUB SWAP1 LOG3 JUMPDEST POP POP POP POP JUMP JUMPDEST PUSH0 PUSH20 0xFFFFFFFFFFFFFFFFFFFFFFFFFFFFFFFFFFFFFFFF AND DUP4 PUSH20 0xFFFFFFFFFFFFFFFFFFFFFFFFFFFFFFFFFFFFFFFF AND SUB PUSH2 0x1565 JUMPI DUP1 PUSH1 0x2 PUSH0 DUP3 DUP3 SLOAD PUSH2 0x1559 SWAP2 SWAP1 PUSH2 0x236B JUMP JUMPDEST SWAP3 POP POP DUP2 SWAP1 SSTORE POP PUSH2 0x1633 JUMP JUMPDEST PUSH0 DUP1 PUSH0 DUP6 PUSH20 0xFFFFFFFFFFFFFFFFFFFFFFFFFFFFFFFFFFFFFFFF AND PUSH20 0xFFFFFFFFFFFFFFFFFFFFFFFFFFFFFFFFFFFFFFFF AND DUP2 MSTORE PUSH1 0x20 ADD SWAP1 DUP2 MSTORE PUSH1 0x20 ADD PUSH0 KECCAK256 SLOAD SWAP1 POP DUP2 DUP2 LT ISZERO PUSH2 0x15EE JUMPI DUP4 DUP2 DUP4 PUSH1 0x40 MLOAD PUSH32 0xE450D38C00000000000000000000000000000000000000000000000000000000 DUP2 MSTORE PUSH1 0x4 ADD PUSH2 0x15E5 SWAP4 SWAP3 SWAP2 SWAP1 PUSH2 0x2303 JUMP JUMPDEST PUSH1 0x40 MLOAD DUP1 SWAP2 SUB SWAP1 REVERT JUMPDEST DUP2 DUP2 SUB PUSH0 DUP1 DUP7 PUSH20 0xFFFFFFFFFFFFFFFFFFFFFFFFFFFFFFFFFFFFFFFF AND PUSH20 0xFFFFFFFFFFFFFFFFFFFFFFFFFFFFFFFFFFFFFFFF AND DUP2 MSTORE PUSH1 0x20 ADD SWAP1 DUP2 MSTORE PUSH1 0x20 ADD PUSH0 KECCAK256 DUP2 SWAP1 SSTORE POP POP JUMPDEST PUSH0 PUSH20 0xFFFFFFFFFFFFFFFFFFFFFFFFFFFFFFFFFFFFFFFF AND DUP3 PUSH20 0xFFFFFFFFFFFFFFFFFFFFFFFFFFFFFFFFFFFFFFFF AND SUB PUSH2 0x167A JUMPI DUP1 PUSH1 0x2 PUSH0 DUP3 DUP3 SLOAD SUB SWAP3 POP POP DUP2 SWAP1 SSTORE POP PUSH2 0x16C4 JUMP JUMPDEST DUP1 PUSH0 DUP1 DUP5 PUSH20 0xFFFFFFFFFFFFFFFFFFFFFFFFFFFFFFFFFFFFFFFF AND PUSH20 0xFFFFFFFFFFFFFFFFFFFFFFFFFFFFFFFFFFFFFFFF AND DUP2 MSTORE PUSH1 0x20 ADD SWAP1 DUP2 MSTORE PUSH1 0x20 ADD PUSH0 KECCAK256 PUSH0 DUP3 DUP3 SLOAD ADD SWAP3 POP POP DUP2 SWAP1 SSTORE POP JUMPDEST DUP2 PUSH20 0xFFFFFFFFFFFFFFFFFFFFFFFFFFFFFFFFFFFFFFFF AND DUP4 PUSH20 0xFFFFFFFFFFFFFFFFFFFFFFFFFFFFFFFFFFFFFFFF AND PUSH32 0xDDF252AD1BE2C89B69C2B068FC378DAA952BA7F163C4A11628F55A4DF523B3EF DUP4 PUSH1 0x40 MLOAD PUSH2 0x1721 SWAP2 SWAP1 PUSH2 0x17F0 JUMP JUMPDEST PUSH1 0x40 MLOAD DUP1 SWAP2 SUB SWAP1 LOG3 POP POP POP JUMP JUMPDEST PUSH0 DUP2 MLOAD SWAP1 POP SWAP2 SWAP1 POP JUMP JUMPDEST PUSH0 DUP3 DUP3 MSTORE PUSH1 0x20 DUP3 ADD SWAP1 POP SWAP3 SWAP2 POP POP JUMP JUMPDEST PUSH0 JUMPDEST DUP4 DUP2 LT ISZERO PUSH2 0x1765 JUMPI DUP1 DUP3 ADD MLOAD DUP2 DUP5 ADD MSTORE PUSH1 0x20 DUP2 ADD SWAP1 POP PUSH2 0x174A JUMP JUMPDEST PUSH0 DUP5 DUP5 ADD MSTORE POP POP POP POP JUMP JUMPDEST PUSH0 PUSH1 0x1F NOT PUSH1 0x1F DUP4 ADD AND SWAP1 POP SWAP2 SWAP1 POP JUMP JUMPDEST PUSH0 PUSH2 0x178A DUP3 PUSH2 0x172E JUMP JUMPDEST PUSH2 0x1794 DUP2 DUP6 PUSH2 0x1738 JUMP JUMPDEST SWAP4 POP PUSH2 0x17A4 DUP2 DUP6 PUSH1 0x20 DUP7 ADD PUSH2 0x1748 JUMP JUMPDEST PUSH2 0x17AD DUP2 PUSH2 0x1770 JUMP JUMPDEST DUP5 ADD SWAP2 POP POP SWAP3 SWAP2 POP POP JUMP JUMPDEST PUSH0 PUSH1 0x20 DUP3 ADD SWAP1 POP DUP2 DUP2 SUB PUSH0 DUP4 ADD MSTORE PUSH2 0x17D0 DUP2 DUP5 PUSH2 0x1780 JUMP JUMPDEST SWAP1 POP SWAP3 SWAP2 POP POP JUMP JUMPDEST PUSH0 DUP2 SWAP1 POP SWAP2 SWAP1 POP JUMP JUMPDEST PUSH2 0x17EA DUP2 PUSH2 0x17D8 JUMP JUMPDEST DUP3 MSTORE POP POP JUMP JUMPDEST PUSH0 PUSH1 0x20 DUP3 ADD SWAP1 POP PUSH2 0x1803 PUSH0 DUP4 ADD DUP5 PUSH2 0x17E1 JUMP JUMPDEST SWAP3 SWAP2 POP POP JUMP JUMPDEST PUSH0 PUSH1 0x40 MLOAD SWAP1 POP SWAP1 JUMP JUMPDEST PUSH0 DUP1 REVERT JUMPDEST PUSH0 DUP1 REVERT JUMPDEST PUSH0 PUSH20 0xFFFFFFFFFFFFFFFFFFFFFFFFFFFFFFFFFFFFFFFF DUP3 AND SWAP1 POP SWAP2 SWAP1 POP JUMP JUMPDEST PUSH0 PUSH2 0x1843 DUP3 PUSH2 0x181A JUMP JUMPDEST SWAP1 POP SWAP2 SWAP1 POP JUMP JUMPDEST PUSH2 0x1853 DUP2 PUSH2 0x1839 JUMP JUMPDEST DUP2 EQ PUSH2 0x185D JUMPI PUSH0 DUP1 REVERT JUMPDEST POP JUMP JUMPDEST PUSH0 DUP2 CALLDATALOAD SWAP1 POP PUSH2 0x186E DUP2 PUSH2 0x184A JUMP JUMPDEST SWAP3 SWAP2 POP POP JUMP JUMPDEST PUSH2 0x187D DUP2 PUSH2 0x17D8 JUMP JUMPDEST DUP2 EQ PUSH2 0x1887 JUMPI PUSH0 DUP1 REVERT JUMPDEST POP JUMP JUMPDEST PUSH0 DUP2 CALLDATALOAD SWAP1 POP PUSH2 0x1898 DUP2 PUSH2 0x1874 JUMP JUMPDEST SWAP3 SWAP2 POP POP JUMP JUMPDEST PUSH0 DUP1 PUSH1 0x40 DUP4 DUP6 SUB SLT ISZERO PUSH2 0x18B4 JUMPI PUSH2 0x18B3 PUSH2 0x1812 JUMP JUMPDEST JUMPDEST PUSH0 PUSH2 0x18C1 DUP6 DUP3 DUP7 ADD PUSH2 0x1860 JUMP JUMPDEST SWAP3 POP POP PUSH1 0x20 PUSH2 0x18D2 DUP6 DUP3 DUP7 ADD PUSH2 0x188A JUMP JUMPDEST SWAP2 POP POP SWAP3 POP SWAP3 SWAP1 POP JUMP JUMPDEST PUSH0 DUP2 ISZERO ISZERO SWAP1 POP SWAP2 SWAP1 POP JUMP JUMPDEST PUSH2 0x18F0 DUP2 PUSH2 0x18DC JUMP JUMPDEST DUP3 MSTORE POP POP JUMP JUMPDEST PUSH0 PUSH1 0x20 DUP3 ADD SWAP1 POP PUSH2 0x1909 PUSH0 DUP4 ADD DUP5 PUSH2 0x18E7 JUMP JUMPDEST SWAP3 SWAP2 POP POP JUMP JUMPDEST PUSH0 PUSH1 0x20 DUP3 DUP5 SUB SLT ISZERO PUSH2 0x1924 JUMPI PUSH2 0x1923 PUSH2 0x1812 JUMP JUMPDEST JUMPDEST PUSH0 PUSH2 0x1931 DUP5 DUP3 DUP6 ADD PUSH2 0x1860 JUMP JUMPDEST SWAP2 POP POP SWAP3 SWAP2 POP POP JUMP JUMPDEST PUSH2 0x1943 DUP2 PUSH2 0x1839 JUMP JUMPDEST DUP3 MSTORE POP POP JUMP JUMPDEST PUSH0 PUSH1 0x60 DUP3 ADD SWAP1 POP PUSH2 0x195C PUSH0 DUP4 ADD DUP7 PUSH2 0x17E1 JUMP JUMPDEST DUP2 DUP2 SUB PUSH1 0x20 DUP4 ADD MSTORE PUSH2 0x196E DUP2 DUP6 PUSH2 0x1780 JUMP JUMPDEST SWAP1 POP PUSH2 0x197D PUSH1 0x40 DUP4 ADD DUP5 PUSH2 0x193A JUMP JUMPDEST SWAP5 SWAP4 POP POP POP POP JUMP JUMPDEST PUSH0 DUP1 PUSH0 PUSH1 0x60 DUP5 DUP7 SUB SLT ISZERO PUSH2 0x199C JUMPI PUSH2 0x199B PUSH2 0x1812 JUMP JUMPDEST JUMPDEST PUSH0 PUSH2 0x19A9 DUP7 DUP3 DUP8 ADD PUSH2 0x1860 JUMP JUMPDEST SWAP4 POP POP PUSH1 0x20 PUSH2 0x19BA DUP7 DUP3 DUP8 ADD PUSH2 0x1860 JUMP JUMPDEST SWAP3 POP POP PUSH1 0x40 PUSH2 0x19CB DUP7 DUP3 DUP8 ADD PUSH2 0x188A JUMP JUMPDEST SWAP2 POP POP SWAP3 POP SWAP3 POP SWAP3 JUMP JUMPDEST PUSH0 PUSH1 0xFF DUP3 AND SWAP1 POP SWAP2 SWAP1 POP JUMP JUMPDEST PUSH2 0x19EA DUP2 PUSH2 0x19D5 JUMP JUMPDEST DUP3 MSTORE POP POP JUMP JUMPDEST PUSH0 PUSH1 0x20 DUP3 ADD SWAP1 POP PUSH2 0x1A03 PUSH0 DUP4 ADD DUP5 PUSH2 0x19E1 JUMP JUMPDEST SWAP3 SWAP2 POP POP JUMP JUMPDEST PUSH0 DUP1 REVERT JUMPDEST PUSH0 DUP1 REVERT JUMPDEST PUSH32 0x4E487B7100000000000000000000000000000000000000000000000000000000 PUSH0 MSTORE PUSH1 0x41 PUSH1 0x4 MSTORE PUSH1 0x24 PUSH0 REVERT JUMPDEST PUSH2 0x1A47 DUP3 PUSH2 0x1770 JUMP JUMPDEST DUP2 ADD DUP2 DUP2 LT PUSH8 0xFFFFFFFFFFFFFFFF DUP3 GT OR ISZERO PUSH2 0x1A66 JUMPI PUSH2 0x1A65 PUSH2 0x1A11 JUMP JUMPDEST JUMPDEST DUP1 PUSH1 0x40 MSTORE POP POP POP JUMP JUMPDEST PUSH0 PUSH2 0x1A78 PUSH2 0x1809 JUMP JUMPDEST SWAP1 POP PUSH2 0x1A84 DUP3 DUP3 PUSH2 0x1A3E JUMP JUMPDEST SWAP2 SWAP1 POP JUMP JUMPDEST PUSH0 PUSH8 0xFFFFFFFFFFFFFFFF DUP3 GT ISZERO PUSH2 0x1AA3 JUMPI PUSH2 0x1AA2 PUSH2 0x1A11 JUMP JUMPDEST JUMPDEST PUSH2 0x1AAC DUP3 PUSH2 0x1770 JUMP JUMPDEST SWAP1 POP PUSH1 0x20 DUP2 ADD SWAP1 POP SWAP2 SWAP1 POP JUMP JUMPDEST DUP3 DUP2 DUP4 CALLDATACOPY PUSH0 DUP4 DUP4 ADD MSTORE POP POP POP JUMP JUMPDEST PUSH0 PUSH2 0x1AD9 PUSH2 0x1AD4 DUP5 PUSH2 0x1A89 JUMP JUMPDEST PUSH2 0x1A6F JUMP JUMPDEST SWAP1 POP DUP3 DUP2 MSTORE PUSH1 0x20 DUP2 ADD DUP5 DUP5 DUP5 ADD GT ISZERO PUSH2 0x1AF5 JUMPI PUSH2 0x1AF4 PUSH2 0x1A0D JUMP JUMPDEST JUMPDEST PUSH2 0x1B00 DUP5 DUP3 DUP6 PUSH2 0x1AB9 JUMP JUMPDEST POP SWAP4 SWAP3 POP POP POP JUMP JUMPDEST PUSH0 DUP3 PUSH1 0x1F DUP4 ADD SLT PUSH2 0x1B1C JUMPI PUSH2 0x1B1B PUSH2 0x1A09 JUMP JUMPDEST JUMPDEST DUP2 CALLDATALOAD PUSH2 0x1B2C DUP5 DUP3 PUSH1 0x20 DUP7 ADD PUSH2 0x1AC7 JUMP JUMPDEST SWAP2 POP POP SWAP3 SWAP2 POP POP JUMP JUMPDEST PUSH0 DUP1 PUSH1 0x40 DUP4 DUP6 SUB SLT ISZERO PUSH2 0x1B4B JUMPI PUSH2 0x1B4A PUSH2 0x1812 JUMP JUMPDEST JUMPDEST PUSH0 DUP4 ADD CALLDATALOAD PUSH8 0xFFFFFFFFFFFFFFFF DUP2 GT ISZERO PUSH2 0x1B68 JUMPI PUSH2 0x1B67 PUSH2 0x1816 JUMP JUMPDEST JUMPDEST PUSH2 0x1B74 DUP6 DUP3 DUP7 ADD PUSH2 0x1B08 JUMP JUMPDEST SWAP3 POP POP PUSH1 0x20 PUSH2 0x1B85 DUP6 DUP3 DUP7 ADD PUSH2 0x1860 JUMP JUMPDEST SWAP2 POP POP SWAP3 POP SWAP3 SWAP1 POP JUMP JUMPDEST PUSH0 PUSH1 0x20 DUP3 DUP5 SUB SLT ISZERO PUSH2 0x1BA4 JUMPI PUSH2 0x1BA3 PUSH2 0x1812 JUMP JUMPDEST JUMPDEST PUSH0 PUSH2 0x1BB1 DUP5 DUP3 DUP6 ADD PUSH2 0x188A JUMP JUMPDEST SWAP2 POP POP SWAP3 SWAP2 POP POP JUMP JUMPDEST PUSH32 0x4E487B7100000000000000000000000000000000000000000000000000000000 PUSH0 MSTORE PUSH1 0x21 PUSH1 0x4 MSTORE PUSH1 0x24 PUSH0 REVERT JUMPDEST PUSH1 0x4 DUP2 LT PUSH2 0x1BF8 JUMPI PUSH2 0x1BF7 PUSH2 0x1BBA JUMP JUMPDEST JUMPDEST POP JUMP JUMPDEST PUSH0 DUP2 SWAP1 POP PUSH2 0x1C08 DUP3 PUSH2 0x1BE7 JUMP JUMPDEST SWAP2 SWAP1 POP JUMP JUMPDEST PUSH0 PUSH2 0x1C17 DUP3 PUSH2 0x1BFB JUMP JUMPDEST SWAP1 POP SWAP2 SWAP1 POP JUMP JUMPDEST PUSH2 0x1C27 DUP2 PUSH2 0x1C0D JUMP JUMPDEST DUP3 MSTORE POP POP JUMP JUMPDEST PUSH0 PUSH1 0x80 DUP3 ADD SWAP1 POP PUSH2 0x1C40 PUSH0 DUP4 ADD DUP8 PUSH2 0x17E1 JUMP JUMPDEST PUSH2 0x1C4D PUSH1 0x20 DUP4 ADD DUP7 PUSH2 0x17E1 JUMP JUMPDEST PUSH2 0x1C5A PUSH1 0x40 DUP4 ADD DUP6 PUSH2 0x17E1 JUMP JUMPDEST PUSH2 0x1C67 PUSH1 0x60 DUP4 ADD DUP5 PUSH2 0x1C1E JUMP JUMPDEST SWAP6 SWAP5 POP POP POP POP POP JUMP JUMPDEST PUSH0 PUSH1 0x20 DUP3 ADD SWAP1 POP PUSH2 0x1C83 PUSH0 DUP4 ADD DUP5 PUSH2 0x193A JUMP JUMPDEST SWAP3 SWAP2 POP POP JUMP JUMPDEST PUSH0 DUP1 PUSH0 DUP1 PUSH1 0x80 DUP6 DUP8 SUB SLT ISZERO PUSH2 0x1CA1 JUMPI PUSH2 0x1CA0 PUSH2 0x1812 JUMP JUMPDEST JUMPDEST PUSH0 PUSH2 0x1CAE DUP8 DUP3 DUP9 ADD PUSH2 0x188A JUMP JUMPDEST SWAP5 POP POP PUSH1 0x20 PUSH2 0x1CBF DUP8 DUP3 DUP9 ADD PUSH2 0x188A JUMP JUMPDEST SWAP4 POP POP PUSH1 0x40 PUSH2 0x1CD0 DUP8 DUP3 DUP9 ADD PUSH2 0x188A JUMP JUMPDEST SWAP3 POP POP PUSH1 0x60 PUSH2 0x1CE1 DUP8 DUP3 DUP9 ADD PUSH2 0x188A JUMP JUMPDEST SWAP2 POP POP SWAP3 SWAP6 SWAP2 SWAP5 POP SWAP3 POP JUMP JUMPDEST PUSH0 DUP1 PUSH1 0x40 DUP4 DUP6 SUB SLT ISZERO PUSH2 0x1D03 JUMPI PUSH2 0x1D02 PUSH2 0x1812 JUMP JUMPDEST JUMPDEST PUSH0 PUSH2 0x1D10 DUP6 DUP3 DUP7 ADD PUSH2 0x1860 JUMP JUMPDEST SWAP3 POP POP PUSH1 0x20 PUSH2 0x1D21 DUP6 DUP3 DUP7 ADD PUSH2 0x1860 JUMP JUMPDEST SWAP2 POP POP SWAP3 POP SWAP3 SWAP1 POP JUMP JUMPDEST PUSH2 0x1D34 DUP2 PUSH2 0x17D8 JUMP JUMPDEST DUP3 MSTORE POP POP JUMP JUMPDEST PUSH1 0x40 DUP3 ADD PUSH0 DUP3 ADD MLOAD PUSH2 0x1D4E PUSH0 DUP6 ADD DUP3 PUSH2 0x1D2B JUMP JUMPDEST POP PUSH1 0x20 DUP3 ADD MLOAD PUSH2 0x1D61 PUSH1 0x20 DUP6 ADD DUP3 PUSH2 0x1D2B JUMP JUMPDEST POP POP POP POP JUMP JUMPDEST PUSH0 PUSH2 0x1A0 DUP3 ADD SWAP1 POP PUSH2 0x1D7B PUSH0 DUP4 ADD DUP16 PUSH2 0x17E1 JUMP JUMPDEST PUSH2 0x1D88 PUSH1 0x20 DUP4 ADD DUP15 PUSH2 0x17E1 JUMP JUMPDEST PUSH2 0x1D95 PUSH1 0x40 DUP4 ADD DUP14 PUSH2 0x17E1 JUMP JUMPDEST PUSH2 0x1DA2 PUSH1 0x60 DUP4 ADD DUP13 PUSH2 0x17E1 JUMP JUMPDEST PUSH2 0x1DAF PUSH1 0x80 DUP4 ADD DUP12 PUSH2 0x17E1 JUMP JUMPDEST PUSH2 0x1DBC PUSH1 0xA0 DUP4 ADD DUP11 PUSH2 0x17E1 JUMP JUMPDEST PUSH2 0x1DC9 PUSH1 0xC0 DUP4 ADD DUP10 PUSH2 0x17E1 JUMP JUMPDEST PUSH2 0x1DD6 PUSH1 0xE0 DUP4 ADD DUP9 PUSH2 0x193A JUMP JUMPDEST PUSH2 0x1DE4 PUSH2 0x100 DUP4 ADD DUP8 PUSH2 0x193A JUMP JUMPDEST PUSH2 0x1DF2 PUSH2 0x120 DUP4 ADD DUP7 PUSH2 0x18E7 JUMP JUMPDEST PUSH2 0x1E00 PUSH2 0x140 DUP4 ADD DUP6 PUSH2 0x1D3A JUMP JUMPDEST PUSH2 0x1E0E PUSH2 0x180 DUP4 ADD DUP5 PUSH2 0x1C1E JUMP JUMPDEST SWAP14 SWAP13 POP POP POP POP POP POP POP POP POP POP POP POP POP JUMP JUMPDEST PUSH0 DUP1 PUSH0 DUP1 PUSH0 DUP1 PUSH0 DUP1 PUSH2 0x100 DUP10 DUP12 SUB SLT ISZERO PUSH2 0x1E3C JUMPI PUSH2 0x1E3B PUSH2 0x1812 JUMP JUMPDEST JUMPDEST PUSH0 PUSH2 0x1E49 DUP12 DUP3 DUP13 ADD PUSH2 0x188A JUMP JUMPDEST SWAP9 POP POP PUSH1 0x20 PUSH2 0x1E5A DUP12 DUP3 DUP13 ADD PUSH2 0x188A JUMP JUMPDEST SWAP8 POP POP PUSH1 0x40 PUSH2 0x1E6B DUP12 DUP3 DUP13 ADD PUSH2 0x188A JUMP JUMPDEST SWAP7 POP POP PUSH1 0x60 PUSH2 0x1E7C DUP12 DUP3 DUP13 ADD PUSH2 0x188A JUMP JUMPDEST SWAP6 POP POP PUSH1 0x80 PUSH2 0x1E8D DUP12 DUP3 DUP13 ADD PUSH2 0x188A JUMP JUMPDEST SWAP5 POP POP PUSH1 0xA0 PUSH2 0x1E9E DUP12 DUP3 DUP13 ADD PUSH2 0x188A JUMP JUMPDEST SWAP4 POP POP PUSH1 0xC0 PUSH2 0x1EAF DUP12 DUP3 DUP13 ADD PUSH2 0x1860 JUMP JUMPDEST SWAP3 POP POP PUSH1 0xE0 PUSH2 0x1EC0 DUP12 DUP3 DUP13 ADD PUSH2 0x1860 JUMP JUMPDEST SWAP2 POP POP SWAP3 SWAP6 SWAP9 POP SWAP3 SWAP6 SWAP9 SWAP1 SWAP4 SWAP7 POP JUMP JUMPDEST PUSH32 0x4E487B7100000000000000000000000000000000000000000000000000000000 PUSH0 MSTORE PUSH1 0x22 PUSH1 0x4 MSTORE PUSH1 0x24 PUSH0 REVERT JUMPDEST PUSH0 PUSH1 0x2 DUP3 DIV SWAP1 POP PUSH1 0x1 DUP3 AND DUP1 PUSH2 0x1F14 JUMPI PUSH1 0x7F DUP3 AND SWAP2 POP JUMPDEST PUSH1 0x20 DUP3 LT DUP2 SUB PUSH2 0x1F27 JUMPI PUSH2 0x1F26 PUSH2 0x1ED0 JUMP JUMPDEST JUMPDEST POP SWAP2 SWAP1 POP JUMP JUMPDEST PUSH32 0x4E487B7100000000000000000000000000000000000000000000000000000000 PUSH0 MSTORE PUSH1 0x11 PUSH1 0x4 MSTORE PUSH1 0x24 PUSH0 REVERT JUMPDEST PUSH0 PUSH2 0x1F64 DUP3 PUSH2 0x17D8 JUMP JUMPDEST SWAP2 POP PUSH32 0xFFFFFFFFFFFFFFFFFFFFFFFFFFFFFFFFFFFFFFFFFFFFFFFFFFFFFFFFFFFFFFFF DUP3 SUB PUSH2 0x1F96 JUMPI PUSH2 0x1F95 PUSH2 0x1F2D JUMP JUMPDEST JUMPDEST PUSH1 0x1 DUP3 ADD SWAP1 POP SWAP2 SWAP1 POP JUMP JUMPDEST PUSH0 DUP2 SWAP1 POP DUP2 PUSH0 MSTORE PUSH1 0x20 PUSH0 KECCAK256 SWAP1 POP SWAP2 SWAP1 POP JUMP JUMPDEST PUSH0 PUSH1 0x20 PUSH1 0x1F DUP4 ADD DIV SWAP1 POP SWAP2 SWAP1 POP JUMP JUMPDEST PUSH0 DUP3 DUP3 SHL SWAP1 POP SWAP3 SWAP2 POP POP JUMP JUMPDEST PUSH0 PUSH1 0x8 DUP4 MUL PUSH2 0x1FFD PUSH32 0xFFFFFFFFFFFFFFFFFFFFFFFFFFFFFFFFFFFFFFFFFFFFFFFFFFFFFFFFFFFFFFFF DUP3 PUSH2 0x1FC2 JUMP JUMPDEST PUSH2 0x2007 DUP7 DUP4 PUSH2 0x1FC2 JUMP JUMPDEST SWAP6 POP DUP1 NOT DUP5 AND SWAP4 POP DUP1 DUP7 AND DUP5 OR SWAP3 POP POP POP SWAP4 SWAP3 POP POP POP JUMP JUMPDEST PUSH0 DUP2 SWAP1 POP SWAP2 SWAP1 POP JUMP JUMPDEST PUSH0 PUSH2 0x2042 PUSH2 0x203D PUSH2 0x2038 DUP5 PUSH2 0x17D8 JUMP JUMPDEST PUSH2 0x201F JUMP JUMPDEST PUSH2 0x17D8 JUMP JUMPDEST SWAP1 POP SWAP2 SWAP1 POP JUMP JUMPDEST PUSH0 DUP2 SWAP1 POP SWAP2 SWAP1 POP JUMP JUMPDEST PUSH2 0x205B DUP4 PUSH2 0x2028 JUMP JUMPDEST PUSH2 0x206F PUSH2 0x2067 DUP3 PUSH2 0x2049 JUMP JUMPDEST DUP5 DUP5 SLOAD PUSH2 0x1FCE JUMP JUMPDEST DUP3 SSTORE POP POP POP POP JUMP JUMPDEST PUSH0 SWAP1 JUMP JUMPDEST PUSH2 0x2083 PUSH2 0x2077 JUMP JUMPDEST PUSH2 0x208E DUP2 DUP5 DUP5 PUSH2 0x2052 JUMP JUMPDEST POP POP POP JUMP JUMPDEST JUMPDEST DUP2 DUP2 LT ISZERO PUSH2 0x20B1 JUMPI PUSH2 0x20A6 PUSH0 DUP3 PUSH2 0x207B JUMP JUMPDEST PUSH1 0x1 DUP2 ADD SWAP1 POP PUSH2 0x2094 JUMP JUMPDEST POP POP JUMP JUMPDEST PUSH1 0x1F DUP3 GT ISZERO PUSH2 0x20F6 JUMPI PUSH2 0x20C7 DUP2 PUSH2 0x1FA1 JUMP JUMPDEST PUSH2 0x20D0 DUP5 PUSH2 0x1FB3 JUMP JUMPDEST DUP2 ADD PUSH1 0x20 DUP6 LT ISZERO PUSH2 0x20DF JUMPI DUP2 SWAP1 POP JUMPDEST PUSH2 0x20F3 PUSH2 0x20EB DUP6 PUSH2 0x1FB3 JUMP JUMPDEST DUP4 ADD DUP3 PUSH2 0x2093 JUMP JUMPDEST POP POP JUMPDEST POP POP POP JUMP JUMPDEST PUSH0 DUP3 DUP3 SHR SWAP1 POP SWAP3 SWAP2 POP POP JUMP JUMPDEST PUSH0 PUSH2 0x2116 PUSH0 NOT DUP5 PUSH1 0x8 MUL PUSH2 0x20FB JUMP JUMPDEST NOT DUP1 DUP4 AND SWAP2 POP POP SWAP3 SWAP2 POP POP JUMP JUMPDEST PUSH0 PUSH2 0x212E DUP4 DUP4 PUSH2 0x2107 JUMP JUMPDEST SWAP2 POP DUP3 PUSH1 0x2 MUL DUP3 OR SWAP1 POP SWAP3 SWAP2 POP POP JUMP JUMPDEST PUSH2 0x2147 DUP3 PUSH2 0x172E JUMP JUMPDEST PUSH8 0xFFFFFFFFFFFFFFFF DUP2 GT ISZERO PUSH2 0x2160 JUMPI PUSH2 0x215F PUSH2 0x1A11 JUMP JUMPDEST JUMPDEST PUSH2 0x216A DUP3 SLOAD PUSH2 0x1EFD JUMP JUMPDEST PUSH2 0x2175 DUP3 DUP3 DUP6 PUSH2 0x20B5 JUMP JUMPDEST PUSH0 PUSH1 0x20 SWAP1 POP PUSH1 0x1F DUP4 GT PUSH1 0x1 DUP2 EQ PUSH2 0x21A6 JUMPI PUSH0 DUP5 ISZERO PUSH2 0x2194 JUMPI DUP3 DUP8 ADD MLOAD SWAP1 POP JUMPDEST PUSH2 0x219E DUP6 DUP3 PUSH2 0x2123 JUMP JUMPDEST DUP7 SSTORE POP PUSH2 0x2205 JUMP JUMPDEST PUSH1 0x1F NOT DUP5 AND PUSH2 0x21B4 DUP7 PUSH2 0x1FA1 JUMP JUMPDEST PUSH0 JUMPDEST DUP3 DUP2 LT ISZERO PUSH2 0x21DB JUMPI DUP5 DUP10 ADD MLOAD DUP3 SSTORE PUSH1 0x1 DUP3 ADD SWAP2 POP PUSH1 0x20 DUP6 ADD SWAP5 POP PUSH1 0x20 DUP2 ADD SWAP1 POP PUSH2 0x21B6 JUMP JUMPDEST DUP7 DUP4 LT ISZERO PUSH2 0x21F8 JUMPI DUP5 DUP10 ADD MLOAD PUSH2 0x21F4 PUSH1 0x1F DUP10 AND DUP3 PUSH2 0x2107 JUMP JUMPDEST DUP4 SSTORE POP JUMPDEST PUSH1 0x1 PUSH1 0x2 DUP9 MUL ADD DUP9 SSTORE POP POP POP JUMPDEST POP POP POP POP POP POP JUMP JUMPDEST PUSH32 0x436F6E7472616374206973206E6F742061637469766500000000000000000000 PUSH0 DUP3 ADD MSTORE POP JUMP JUMPDEST PUSH0 PUSH2 0x2241 PUSH1 0x16 DUP4 PUSH2 0x1738 JUMP JUMPDEST SWAP2 POP PUSH2 0x224C DUP3 PUSH2 0x220D JUMP JUMPDEST PUSH1 0x20 DUP3 ADD SWAP1 POP SWAP2 SWAP1 POP JUMP JUMPDEST PUSH0 PUSH1 0x20 DUP3 ADD SWAP1 POP DUP2 DUP2 SUB PUSH0 DUP4 ADD MSTORE PUSH2 0x226E DUP2 PUSH2 0x2235 JUMP JUMPDEST SWAP1 POP SWAP2 SWAP1 POP JUMP JUMPDEST PUSH32 0x43757272656E742074696D65206973206265666F726520746865207374617274 PUSH0 DUP3 ADD MSTORE PUSH32 0x2074696D65000000000000000000000000000000000000000000000000000000 PUSH1 0x20 DUP3 ADD MSTORE POP JUMP JUMPDEST PUSH0 PUSH2 0x22CF PUSH1 0x25 DUP4 PUSH2 0x1738 JUMP JUMPDEST SWAP2 POP PUSH2 0x22DA DUP3 PUSH2 0x2275 JUMP JUMPDEST PUSH1 0x40 DUP3 ADD SWAP1 POP SWAP2 SWAP1 POP JUMP JUMPDEST PUSH0 PUSH1 0x20 DUP3 ADD SWAP1 POP DUP2 DUP2 SUB PUSH0 DUP4 ADD MSTORE PUSH2 0x22FC DUP2 PUSH2 0x22C3 JUMP JUMPDEST SWAP1 POP SWAP2 SWAP1 POP JUMP JUMPDEST PUSH0 PUSH1 0x60 DUP3 ADD SWAP1 POP PUSH2 0x2316 PUSH0 DUP4 ADD DUP7 PUSH2 0x193A JUMP JUMPDEST PUSH2 0x2323 PUSH1 0x20 DUP4 ADD DUP6 PUSH2 0x17E1 JUMP JUMPDEST PUSH2 0x2330 PUSH1 0x40 DUP4 ADD DUP5 PUSH2 0x17E1 JUMP JUMPDEST SWAP5 SWAP4 POP POP POP POP JUMP JUMPDEST PUSH0 PUSH2 0x2342 DUP3 PUSH2 0x17D8 JUMP JUMPDEST SWAP2 POP PUSH2 0x234D DUP4 PUSH2 0x17D8 JUMP JUMPDEST SWAP3 POP DUP3 DUP3 SUB SWAP1 POP DUP2 DUP2 GT ISZERO PUSH2 0x2365 JUMPI PUSH2 0x2364 PUSH2 0x1F2D JUMP JUMPDEST JUMPDEST SWAP3 SWAP2 POP POP JUMP JUMPDEST PUSH0 PUSH2 0x2375 DUP3 PUSH2 0x17D8 JUMP JUMPDEST SWAP2 POP PUSH2 0x2380 DUP4 PUSH2 0x17D8 JUMP JUMPDEST SWAP3 POP DUP3 DUP3 ADD SWAP1 POP DUP1 DUP3 GT ISZERO PUSH2 0x2398 JUMPI PUSH2 0x2397 PUSH2 0x1F2D JUMP JUMPDEST JUMPDEST SWAP3 SWAP2 POP POP JUMP INVALID LOG2 PUSH5 0x6970667358 0x22 SLT KECCAK256 SLOAD STOP 0xBE 0xC2 MLOAD SAR TLOAD PUSH6 0x66E8CE04C36A CHAINID DUP6 SWAP16 RETURNDATACOPY NUMBER DUP7 0xA8 BALANCE PUSH1 0xA8 MUL ORIGIN 0xF8 0x4C 0xA9 0xA7 SWAP14 LOG1 PUSH5 0x736F6C6343 STOP ADDMOD XOR STOP CALLER "
		},
		"gasEstimates": {
			"creation": {
				"codeDepositCost": "1834400",
				"executionCost": "infinite",
				"totalCost": "infinite"
			},
			"external": {
				"ContractCount()": "2513",
				"Employeecount()": "2514",
				"Employercount()": "2471",
				"addEmployee(string,address)": "infinite",
				"addEmployer(string,address)": "infinite",
				"allowance(address,address)": "infinite",
				"approve(address,uint256)": "infinite",
				"balanceOf(address)": "2962",
				"createSmartContract(uint256,uint256,uint256,uint256,uint256,uint256,address,address)": "infinite",
				"decimals()": "383",
				"employees(address)": "infinite",
				"employers(address)": "infinite",
				"getContract(uint256)": "infinite",
				"name()": "infinite",
				"owner()": "2531",
				"payEmployee(uint256)": "infinite",
				"smartContracts(uint256)": "infinite",
				"symbol()": "infinite",
				"totalSupply()": "2544",
				"transfer(address,uint256)": "infinite",
				"transferFrom(address,address,uint256)": "infinite",
				"updateEmployeeStatus(uint256,uint256,uint256,uint256)": "infinite"
			},
			"internal": {
				"isInZone(uint256,uint256,uint256,uint256,uint256)": "infinite"
			}
		},
		"methodIdentifiers": {
			"ContractCount()": "dfecd44b",
			"Employeecount()": "4643ea7d",
			"Employercount()": "07e7c336",
			"addEmployee(string,address)": "9f251f80",
			"addEmployer(string,address)": "35744745",
			"allowance(address,address)": "dd62ed3e",
			"approve(address,uint256)": "095ea7b3",
			"balanceOf(address)": "70a08231",
			"createSmartContract(uint256,uint256,uint256,uint256,uint256,uint256,address,address)": "ff33999f",
			"decimals()": "313ce567",
			"employees(address)": "d0678947",
			"employers(address)": "0be435bd",
			"getContract(uint256)": "6ebc8c86",
			"name()": "06fdde03",
			"owner()": "8da5cb5b",
			"payEmployee(uint256)": "c7012a98",
			"smartContracts(uint256)": "fc694ec1",
			"symbol()": "95d89b41",
			"totalSupply()": "18160ddd",
			"transfer(address,uint256)": "a9059cbb",
			"transferFrom(address,address,uint256)": "23b872dd",
			"updateEmployeeStatus(uint256,uint256,uint256,uint256)": "cd5d61db"
		}
	},
	"abi": [
		{
			"inputs": [],
			"stateMutability": "nonpayable",
			"type": "constructor"
		},
		{
			"inputs": [
				{
					"internalType": "address",
					"name": "spender",
					"type": "address"
				},
				{
					"internalType": "uint256",
					"name": "allowance",
					"type": "uint256"
				},
				{
					"internalType": "uint256",
					"name": "needed",
					"type": "uint256"
				}
			],
			"name": "ERC20InsufficientAllowance",
			"type": "error"
		},
		{
			"inputs": [
				{
					"internalType": "address",
					"name": "sender",
					"type": "address"
				},
				{
					"internalType": "uint256",
					"name": "balance",
					"type": "uint256"
				},
				{
					"internalType": "uint256",
					"name": "needed",
					"type": "uint256"
				}
			],
			"name": "ERC20InsufficientBalance",
			"type": "error"
		},
		{
			"inputs": [
				{
					"internalType": "address",
					"name": "approver",
					"type": "address"
				}
			],
			"name": "ERC20InvalidApprover",
			"type": "error"
		},
		{
			"inputs": [
				{
					"internalType": "address",
					"name": "receiver",
					"type": "address"
				}
			],
			"name": "ERC20InvalidReceiver",
			"type": "error"
		},
		{
			"inputs": [
				{
					"internalType": "address",
					"name": "sender",
					"type": "address"
				}
			],
			"name": "ERC20InvalidSender",
			"type": "error"
		},
		{
			"inputs": [
				{
					"internalType": "address",
					"name": "spender",
					"type": "address"
				}
			],
			"name": "ERC20InvalidSpender",
			"type": "error"
		},
		{
			"anonymous": false,
			"inputs": [
				{
					"indexed": true,
					"internalType": "address",
					"name": "owner",
					"type": "address"
				},
				{
					"indexed": true,
					"internalType": "address",
					"name": "spender",
					"type": "address"
				},
				{
					"indexed": false,
					"internalType": "uint256",
					"name": "value",
					"type": "uint256"
				}
			],
			"name": "Approval",
			"type": "event"
		},
		{
			"anonymous": false,
			"inputs": [
				{
					"indexed": true,
					"internalType": "address",
					"name": "from",
					"type": "address"
				},
				{
					"indexed": true,
					"internalType": "address",
					"name": "to",
					"type": "address"
				},
				{
					"indexed": false,
					"internalType": "uint256",
					"name": "value",
					"type": "uint256"
				}
			],
			"name": "Transfer",
			"type": "event"
		},
		{
			"inputs": [],
			"name": "ContractCount",
			"outputs": [
				{
					"internalType": "uint256",
					"name": "",
					"type": "uint256"
				}
			],
			"stateMutability": "view",
			"type": "function"
		},
		{
			"inputs": [],
			"name": "Employeecount",
			"outputs": [
				{
					"internalType": "uint256",
					"name": "",
					"type": "uint256"
				}
			],
			"stateMutability": "view",
			"type": "function"
		},
		{
			"inputs": [],
			"name": "Employercount",
			"outputs": [
				{
					"internalType": "uint256",
					"name": "",
					"type": "uint256"
				}
			],
			"stateMutability": "view",
			"type": "function"
		},
		{
			"inputs": [
				{
					"internalType": "string",
					"name": "_name",
					"type": "string"
				},
				{
					"internalType": "address",
					"name": "user_address",
					"type": "address"
				}
			],
			"name": "addEmployee",
			"outputs": [],
			"stateMutability": "nonpayable",
			"type": "function"
		},
		{
			"inputs": [
				{
					"internalType": "string",
					"name": "_name",
					"type": "string"
				},
				{
					"internalType": "address",
					"name": "user_address",
					"type": "address"
				}
			],
			"name": "addEmployer",
			"outputs": [],
			"stateMutability": "nonpayable",
			"type": "function"
		},
		{
			"inputs": [
				{
					"internalType": "address",
					"name": "owner",
					"type": "address"
				},
				{
					"internalType": "address",
					"name": "spender",
					"type": "address"
				}
			],
			"name": "allowance",
			"outputs": [
				{
					"internalType": "uint256",
					"name": "",
					"type": "uint256"
				}
			],
			"stateMutability": "view",
			"type": "function"
		},
		{
			"inputs": [
				{
					"internalType": "address",
					"name": "spender",
					"type": "address"
				},
				{
					"internalType": "uint256",
					"name": "value",
					"type": "uint256"
				}
			],
			"name": "approve",
			"outputs": [
				{
					"internalType": "bool",
					"name": "",
					"type": "bool"
				}
			],
			"stateMutability": "nonpayable",
			"type": "function"
		},
		{
			"inputs": [
				{
					"internalType": "address",
					"name": "account",
					"type": "address"
				}
			],
			"name": "balanceOf",
			"outputs": [
				{
					"internalType": "uint256",
					"name": "",
					"type": "uint256"
				}
			],
			"stateMutability": "view",
			"type": "function"
		},
		{
			"inputs": [
				{
					"internalType": "uint256",
					"name": "_latitude",
					"type": "uint256"
				},
				{
					"internalType": "uint256",
					"name": "_longitude",
					"type": "uint256"
				},
				{
					"internalType": "uint256",
					"name": "_radius",
					"type": "uint256"
				},
				{
					"internalType": "uint256",
					"name": "_startTime",
					"type": "uint256"
				},
				{
					"internalType": "uint256",
					"name": "_endTime",
					"type": "uint256"
				},
				{
					"internalType": "uint256",
					"name": "_rewardAmount",
					"type": "uint256"
				},
				{
					"internalType": "address",
					"name": "_employee",
					"type": "address"
				},
				{
					"internalType": "address",
					"name": "_employer",
					"type": "address"
				}
			],
			"name": "createSmartContract",
			"outputs": [],
			"stateMutability": "nonpayable",
			"type": "function"
		},
		{
			"inputs": [],
			"name": "decimals",
			"outputs": [
				{
					"internalType": "uint8",
					"name": "",
					"type": "uint8"
				}
			],
			"stateMutability": "view",
			"type": "function"
		},
		{
			"inputs": [
				{
					"internalType": "address",
					"name": "",
					"type": "address"
				}
			],
			"name": "employees",
			"outputs": [
				{
					"internalType": "uint256",
					"name": "id",
					"type": "uint256"
				},
				{
					"internalType": "string",
					"name": "name",
					"type": "string"
				},
				{
					"internalType": "address",
					"name": "public_address",
					"type": "address"
				}
			],
			"stateMutability": "view",
			"type": "function"
		},
		{
			"inputs": [
				{
					"internalType": "address",
					"name": "",
					"type": "address"
				}
			],
			"name": "employers",
			"outputs": [
				{
					"internalType": "uint256",
					"name": "id",
					"type": "uint256"
				},
				{
					"internalType": "string",
					"name": "name",
					"type": "string"
				},
				{
					"internalType": "address",
					"name": "public_address",
					"type": "address"
				}
			],
			"stateMutability": "view",
			"type": "function"
		},
		{
			"inputs": [
				{
					"internalType": "uint256",
					"name": "_contractId",
					"type": "uint256"
				}
			],
			"name": "getContract",
			"outputs": [
				{
					"internalType": "uint256",
					"name": "contractId",
					"type": "uint256"
				},
				{
					"internalType": "uint256",
					"name": "complianceCount",
					"type": "uint256"
				},
				{
					"internalType": "uint256",
					"name": "nonComplianceCount",
					"type": "uint256"
				},
				{
					"internalType": "enum Geologix.DeviceState",
					"name": "deviceState",
					"type": "uint8"
				}
			],
			"stateMutability": "view",
			"type": "function"
		},
		{
			"inputs": [],
			"name": "name",
			"outputs": [
				{
					"internalType": "string",
					"name": "",
					"type": "string"
				}
			],
			"stateMutability": "view",
			"type": "function"
		},
		{
			"inputs": [],
			"name": "owner",
			"outputs": [
				{
					"internalType": "address",
					"name": "",
					"type": "address"
				}
			],
			"stateMutability": "view",
			"type": "function"
		},
		{
			"inputs": [
				{
					"internalType": "uint256",
					"name": "contractId",
					"type": "uint256"
				}
			],
			"name": "payEmployee",
			"outputs": [],
			"stateMutability": "nonpayable",
			"type": "function"
		},
		{
			"inputs": [
				{
					"internalType": "uint256",
					"name": "",
					"type": "uint256"
				}
			],
			"name": "smartContracts",
			"outputs": [
				{
					"internalType": "uint256",
					"name": "contractId",
					"type": "uint256"
				},
				{
					"internalType": "uint256",
					"name": "latitude",
					"type": "uint256"
				},
				{
					"internalType": "uint256",
					"name": "longitude",
					"type": "uint256"
				},
				{
					"internalType": "uint256",
					"name": "radius",
					"type": "uint256"
				},
				{
					"internalType": "uint256",
					"name": "startTime",
					"type": "uint256"
				},
				{
					"internalType": "uint256",
					"name": "endTime",
					"type": "uint256"
				},
				{
					"internalType": "uint256",
					"name": "rewardAmount",
					"type": "uint256"
				},
				{
					"internalType": "address",
					"name": "employee",
					"type": "address"
				},
				{
					"internalType": "address",
					"name": "empolyer",
					"type": "address"
				},
				{
					"internalType": "bool",
					"name": "isActive",
					"type": "bool"
				},
				{
					"components": [
						{
							"internalType": "uint256",
							"name": "complianceCount",
							"type": "uint256"
						},
						{
							"internalType": "uint256",
							"name": "nonComplianceCount",
							"type": "uint256"
						}
					],
					"internalType": "struct Geologix.ComplianceCounts",
					"name": "counts",
					"type": "tuple"
				},
				{
					"internalType": "enum Geologix.DeviceState",
					"name": "deviceState",
					"type": "uint8"
				}
			],
			"stateMutability": "view",
			"type": "function"
		},
		{
			"inputs": [],
			"name": "symbol",
			"outputs": [
				{
					"internalType": "string",
					"name": "",
					"type": "string"
				}
			],
			"stateMutability": "view",
			"type": "function"
		},
		{
			"inputs": [],
			"name": "totalSupply",
			"outputs": [
				{
					"internalType": "uint256",
					"name": "",
					"type": "uint256"
				}
			],
			"stateMutability": "view",
			"type": "function"
		},
		{
			"inputs": [
				{
					"internalType": "address",
					"name": "to",
					"type": "address"
				},
				{
					"internalType": "uint256",
					"name": "value",
					"type": "uint256"
				}
			],
			"name": "transfer",
			"outputs": [
				{
					"internalType": "bool",
					"name": "",
					"type": "bool"
				}
			],
			"stateMutability": "nonpayable",
			"type": "function"
		},
		{
			"inputs": [
				{
					"internalType": "address",
					"name": "from",
					"type": "address"
				},
				{
					"internalType": "address",
					"name": "to",
					"type": "address"
				},
				{
					"internalType": "uint256",
					"name": "value",
					"type": "uint256"
				}
			],
			"name": "transferFrom",
			"outputs": [
				{
					"internalType": "bool",
					"name": "",
					"type": "bool"
				}
			],
			"stateMutability": "nonpayable",
			"type": "function"
		},
		{
			"inputs": [
				{
					"internalType": "uint256",
					"name": "_latitude",
					"type": "uint256"
				},
				{
					"internalType": "uint256",
					"name": "_longitude",
					"type": "uint256"
				},
				{
					"internalType": "uint256",
					"name": "contractId",
					"type": "uint256"
				},
				{
					"internalType": "uint256",
					"name": "currentTime",
					"type": "uint256"
				}
			],
			"name": "updateEmployeeStatus",
			"outputs": [],
			"stateMutability": "nonpayable",
			"type": "function"
		}
	]
}